{
  "_format": "hh-sol-artifact-1",
  "contractName": "PKPHelperV2",
  "sourceName": "contracts/lit-node/PKPHelperV2.sol",
  "abi": [
    {
      "inputs": [
        {
          "internalType": "address",
          "name": "_resolver",
          "type": "address"
        },
        {
          "internalType": "enum ContractResolver.Env",
          "name": "_env",
          "type": "uint8"
        }
      ],
      "stateMutability": "nonpayable",
      "type": "constructor"
    },
    {
      "anonymous": false,
      "inputs": [
        {
          "indexed": false,
          "internalType": "address",
          "name": "newResolverAddress",
          "type": "address"
        }
      ],
      "name": "ContractResolverAddressSet",
      "type": "event"
    },
    {
      "anonymous": false,
      "inputs": [
        {
          "indexed": true,
          "internalType": "address",
          "name": "previousOwner",
          "type": "address"
        },
        {
          "indexed": true,
          "internalType": "address",
          "name": "newOwner",
          "type": "address"
        }
      ],
      "name": "OwnershipTransferred",
      "type": "event"
    },
    {
      "inputs": [],
      "name": "contractResolver",
      "outputs": [
        {
          "internalType": "contract ContractResolver",
          "name": "",
          "type": "address"
        }
      ],
      "stateMutability": "view",
      "type": "function"
    },
    {
      "inputs": [],
      "name": "env",
      "outputs": [
        {
          "internalType": "enum ContractResolver.Env",
          "name": "",
          "type": "uint8"
        }
      ],
      "stateMutability": "view",
      "type": "function"
    },
    {
      "inputs": [],
      "name": "getDomainWalletRegistry",
      "outputs": [
        {
          "internalType": "address",
          "name": "",
          "type": "address"
        }
      ],
      "stateMutability": "view",
      "type": "function"
    },
    {
      "inputs": [],
      "name": "getPKPNftMetdataAddress",
      "outputs": [
        {
          "internalType": "address",
          "name": "",
          "type": "address"
        }
      ],
      "stateMutability": "view",
      "type": "function"
    },
    {
      "inputs": [],
      "name": "getPkpNftAddress",
      "outputs": [
        {
          "internalType": "address",
          "name": "",
          "type": "address"
        }
      ],
      "stateMutability": "view",
      "type": "function"
    },
    {
      "inputs": [],
      "name": "getPkpPermissionsAddress",
      "outputs": [
        {
          "internalType": "address",
          "name": "",
          "type": "address"
        }
      ],
      "stateMutability": "view",
      "type": "function"
    },
    {
      "inputs": [
        {
          "components": [
            {
              "internalType": "uint256",
              "name": "keyType",
              "type": "uint256"
            },
            {
              "internalType": "uint256[]",
              "name": "permittedAuthMethodTypes",
              "type": "uint256[]"
            },
            {
              "internalType": "bytes[]",
              "name": "permittedAuthMethodIds",
              "type": "bytes[]"
            },
            {
              "internalType": "bytes[]",
              "name": "permittedAuthMethodPubkeys",
              "type": "bytes[]"
            },
            {
              "internalType": "uint256[][]",
              "name": "permittedAuthMethodScopes",
              "type": "uint256[][]"
            },
            {
              "internalType": "bool",
              "name": "addPkpEthAddressAsPermittedAddress",
              "type": "bool"
            },
            {
              "internalType": "uint256[]",
              "name": "pkpEthAddressScopes",
              "type": "uint256[]"
            },
            {
              "internalType": "bool",
              "name": "sendPkpToItself",
              "type": "bool"
            },
            {
              "internalType": "bool",
              "name": "burnPkp",
              "type": "bool"
            }
          ],
          "internalType": "struct PKPHelperV2.NewPKPParams",
          "name": "params",
          "type": "tuple"
        }
      ],
      "name": "mintNextAndAddAuthMethods",
      "outputs": [
        {
          "internalType": "uint256",
          "name": "",
          "type": "uint256"
        }
      ],
      "stateMutability": "payable",
      "type": "function"
    },
    {
      "inputs": [
        {
          "components": [
            {
              "internalType": "uint256",
              "name": "keyType",
              "type": "uint256"
            },
            {
              "internalType": "uint256[]",
              "name": "permittedAuthMethodTypes",
              "type": "uint256[]"
            },
            {
              "internalType": "bytes[]",
              "name": "permittedAuthMethodIds",
              "type": "bytes[]"
            },
            {
              "internalType": "bytes[]",
              "name": "permittedAuthMethodPubkeys",
              "type": "bytes[]"
            },
            {
              "internalType": "uint256[][]",
              "name": "permittedAuthMethodScopes",
              "type": "uint256[][]"
            },
            {
              "internalType": "bool",
              "name": "addPkpEthAddressAsPermittedAddress",
              "type": "bool"
            },
            {
              "internalType": "uint256[]",
              "name": "pkpEthAddressScopes",
              "type": "uint256[]"
            },
            {
              "internalType": "bool",
              "name": "sendPkpToItself",
              "type": "bool"
            },
            {
              "internalType": "bool",
              "name": "burnPkp",
              "type": "bool"
            }
          ],
          "internalType": "struct PKPHelperV2.NewPKPParams",
          "name": "params",
          "type": "tuple"
        }
      ],
      "name": "mintNextAndAddAuthMethodsWithTypes",
      "outputs": [
        {
          "internalType": "uint256",
          "name": "",
          "type": "uint256"
        }
      ],
      "stateMutability": "payable",
      "type": "function"
    },
    {
      "inputs": [
        {
          "internalType": "address",
          "name": "",
          "type": "address"
        },
        {
          "internalType": "address",
          "name": "",
          "type": "address"
        },
        {
          "internalType": "uint256",
          "name": "",
          "type": "uint256"
        },
        {
          "internalType": "bytes",
          "name": "",
          "type": "bytes"
        }
      ],
      "name": "onERC721Received",
      "outputs": [
        {
          "internalType": "bytes4",
          "name": "",
          "type": "bytes4"
        }
      ],
      "stateMutability": "view",
      "type": "function"
    },
    {
      "inputs": [],
      "name": "owner",
      "outputs": [
        {
          "internalType": "address",
          "name": "",
          "type": "address"
        }
      ],
      "stateMutability": "view",
      "type": "function"
    },
    {
      "inputs": [],
      "name": "renounceOwnership",
      "outputs": [],
      "stateMutability": "nonpayable",
      "type": "function"
    },
    {
      "inputs": [
        {
          "internalType": "address",
          "name": "newResolverAddress",
          "type": "address"
        }
      ],
      "name": "setContractResolver",
      "outputs": [],
      "stateMutability": "nonpayable",
      "type": "function"
    },
    {
      "inputs": [
        {
          "internalType": "address",
          "name": "newOwner",
          "type": "address"
        }
      ],
      "name": "transferOwnership",
      "outputs": [],
      "stateMutability": "nonpayable",
      "type": "function"
    }
  ],
  "bytecode": "0x60806040523480156200001157600080fd5b50604051620024303803806200243083398181016040528101906200003791906200022b565b620000576200004b620000cd60201b60201c565b620000d560201b60201c565b81600160006101000a81548173ffffffffffffffffffffffffffffffffffffffff021916908373ffffffffffffffffffffffffffffffffffffffff16021790555080600160146101000a81548160ff02191690836002811115620000c057620000bf62000272565b5b02179055505050620002a1565b600033905090565b60008060009054906101000a900473ffffffffffffffffffffffffffffffffffffffff169050816000806101000a81548173ffffffffffffffffffffffffffffffffffffffff021916908373ffffffffffffffffffffffffffffffffffffffff1602179055508173ffffffffffffffffffffffffffffffffffffffff168173ffffffffffffffffffffffffffffffffffffffff167f8be0079c531659141344cd1fd0a4f28419497f9722a3daafe3b4186f6b6457e060405160405180910390a35050565b600080fd5b600073ffffffffffffffffffffffffffffffffffffffff82169050919050565b6000620001cb826200019e565b9050919050565b620001dd81620001be565b8114620001e957600080fd5b50565b600081519050620001fd81620001d2565b92915050565b600381106200021157600080fd5b50565b600081519050620002258162000203565b92915050565b6000806040838503121562000245576200024462000199565b5b60006200025585828601620001ec565b9250506020620002688582860162000214565b9150509250929050565b7f4e487b7100000000000000000000000000000000000000000000000000000000600052602160045260246000fd5b61217f80620002b16000396000f3fe6080604052600436106100c25760003560e01c80638da5cb5b1161007f578063ebd735e111610059578063ebd735e114610248578063f2fde38b14610278578063f4cd5db9146102a1578063f95d71b1146102d1576100c2565b80638da5cb5b146101c75780639dca0032146101f2578063caead0c71461021d576100c2565b8063150b7a02146100c75780633276558c146101045780635043026c1461012f57806350d17b5e1461015a578063715018a61461018557806373cc41111461019c575b600080fd5b3480156100d357600080fd5b506100ee60048036038101906100e991906111b7565b6102fa565b6040516100fb919061127a565b60405180910390f35b34801561011057600080fd5b50610119610384565b60405161012691906112a4565b60405180910390f35b34801561013b57600080fd5b506101446104c8565b60405161015191906112a4565b60405180910390f35b34801561016657600080fd5b5061016f61060c565b60405161017c919061131e565b60405180910390f35b34801561019157600080fd5b5061019a610632565b005b3480156101a857600080fd5b506101b1610646565b6040516101be91906112a4565b60405180910390f35b3480156101d357600080fd5b506101dc61078a565b6040516101e991906112a4565b60405180910390f35b3480156101fe57600080fd5b506102076107b3565b60405161021491906113b0565b60405180910390f35b34801561022957600080fd5b506102326107c6565b60405161023f91906112a4565b60405180910390f35b610262600480360381019061025d919061193f565b61090a565b60405161026f9190611997565b60405180910390f35b34801561028457600080fd5b5061029f600480360381019061029a91906119b2565b61091c565b005b6102bb60048036038101906102b6919061193f565b61099f565b6040516102c89190611997565b60405180910390f35b3480156102dd57600080fd5b506102f860048036038101906102f391906119b2565b610edd565b005b60006103046107c6565b73ffffffffffffffffffffffffffffffffffffffff163373ffffffffffffffffffffffffffffffffffffffff1614610371576040517f08c379a000000000000000000000000000000000000000000000000000000000815260040161036890611a62565b60405180910390fd5b63150b7a0260e01b905095945050505050565b6000600160009054906101000a900473ffffffffffffffffffffffffffffffffffffffff1673ffffffffffffffffffffffffffffffffffffffff16638e8dfd16600160009054906101000a900473ffffffffffffffffffffffffffffffffffffffff1673ffffffffffffffffffffffffffffffffffffffff16639072f8386040518163ffffffff1660e01b8152600401602060405180830381865afa158015610431573d6000803e3d6000fd5b505050506040513d601f19601f820116820180604052508101906104559190611ab8565b600160149054906101000a900460ff166040518363ffffffff1660e01b8152600401610482929190611af4565b602060405180830381865afa15801561049f573d6000803e3d6000fd5b505050506040513d601f19601f820116820180604052508101906104c39190611b32565b905090565b6000600160009054906101000a900473ffffffffffffffffffffffffffffffffffffffff1673ffffffffffffffffffffffffffffffffffffffff16638e8dfd16600160009054906101000a900473ffffffffffffffffffffffffffffffffffffffff1673ffffffffffffffffffffffffffffffffffffffff166316f76bbf6040518163ffffffff1660e01b8152600401602060405180830381865afa158015610575573d6000803e3d6000fd5b505050506040513d601f19601f820116820180604052508101906105999190611ab8565b600160149054906101000a900460ff166040518363ffffffff1660e01b81526004016105c6929190611af4565b602060405180830381865afa1580156105e3573d6000803e3d6000fd5b505050506040513d601f19601f820116820180604052508101906106079190611b32565b905090565b600160009054906101000a900473ffffffffffffffffffffffffffffffffffffffff1681565b61063a610f60565b6106446000610fde565b565b6000600160009054906101000a900473ffffffffffffffffffffffffffffffffffffffff1673ffffffffffffffffffffffffffffffffffffffff16638e8dfd16600160009054906101000a900473ffffffffffffffffffffffffffffffffffffffff1673ffffffffffffffffffffffffffffffffffffffff16634216e73a6040518163ffffffff1660e01b8152600401602060405180830381865afa1580156106f3573d6000803e3d6000fd5b505050506040513d601f19601f820116820180604052508101906107179190611ab8565b600160149054906101000a900460ff166040518363ffffffff1660e01b8152600401610744929190611af4565b602060405180830381865afa158015610761573d6000803e3d6000fd5b505050506040513d601f19601f820116820180604052508101906107859190611b32565b905090565b60008060009054906101000a900473ffffffffffffffffffffffffffffffffffffffff16905090565b600160149054906101000a900460ff1681565b6000600160009054906101000a900473ffffffffffffffffffffffffffffffffffffffff1673ffffffffffffffffffffffffffffffffffffffff16638e8dfd16600160009054906101000a900473ffffffffffffffffffffffffffffffffffffffff1673ffffffffffffffffffffffffffffffffffffffff16632c0b8bf76040518163ffffffff1660e01b8152600401602060405180830381865afa158015610873573d6000803e3d6000fd5b505050506040513d601f19601f820116820180604052508101906108979190611ab8565b600160149054906101000a900460ff166040518363ffffffff1660e01b81526004016108c4929190611af4565b602060405180830381865afa1580156108e1573d6000803e3d6000fd5b505050506040513d601f19601f820116820180604052508101906109059190611b32565b905090565b60006109158261099f565b9050919050565b610924610f60565b600073ffffffffffffffffffffffffffffffffffffffff168173ffffffffffffffffffffffffffffffffffffffff1603610993576040517f08c379a000000000000000000000000000000000000000000000000000000000815260040161098a90611bd1565b60405180910390fd5b61099c81610fde565b50565b6000806109aa6107c6565b73ffffffffffffffffffffffffffffffffffffffff16635d228b163485600001516040518363ffffffff1660e01b81526004016109e79190611997565b60206040518083038185885af1158015610a05573d6000803e3d6000fd5b50505050506040513d601f19601f82011682018060405250810190610a2a9190611c06565b905082604001515183602001515114610a78576040517f08c379a0000000000000000000000000000000000000000000000000000000008152600401610a6f90611ca5565b60405180910390fd5b82606001515183602001515114610ac4576040517f08c379a0000000000000000000000000000000000000000000000000000000008152600401610abb90611d37565b60405180910390fd5b82608001515183602001515114610b10576040517f08c379a0000000000000000000000000000000000000000000000000000000008152600401610b0790611dc9565b60405180910390fd5b600083602001515114610c4a5760005b836020015151811015610c4857610b35610384565b73ffffffffffffffffffffffffffffffffffffffff16639dd4349b83604051806060016040528088602001518681518110610b7357610b72611de9565b5b6020026020010151815260200188604001518681518110610b9757610b96611de9565b5b6020026020010151815260200188606001518681518110610bbb57610bba611de9565b5b602002602001015181525087608001518581518110610bdd57610bdc611de9565b5b60200260200101516040518463ffffffff1660e01b8152600401610c0393929190611fac565b600060405180830381600087803b158015610c1d57600080fd5b505af1158015610c31573d6000803e3d6000fd5b505050508080610c4090612020565b915050610b20565b505b6000610c54610384565b73ffffffffffffffffffffffffffffffffffffffff1663bd4986a0836040518263ffffffff1660e01b8152600401610c8c9190611997565b602060405180830381865afa158015610ca9573d6000803e3d6000fd5b505050506040513d601f19601f82011682018060405250810190610ccd9190611b32565b90508360a0015115610d5457610ce1610384565b73ffffffffffffffffffffffffffffffffffffffff16631663c12183838760c001516040518463ffffffff1660e01b8152600401610d2193929190612068565b600060405180830381600087803b158015610d3b57600080fd5b505af1158015610d4f573d6000803e3d6000fd5b505050505b8360e0015115610dd957610d666107c6565b73ffffffffffffffffffffffffffffffffffffffff166342842e0e3083856040518463ffffffff1660e01b8152600401610da2939291906120a6565b600060405180830381600087803b158015610dbc57600080fd5b505af1158015610dd0573d6000803e3d6000fd5b50505050610ed3565b83610100015115610e5b57610dec6107c6565b73ffffffffffffffffffffffffffffffffffffffff166342966c68836040518263ffffffff1660e01b8152600401610e249190611997565b600060405180830381600087803b158015610e3e57600080fd5b505af1158015610e52573d6000803e3d6000fd5b50505050610ed2565b610e636107c6565b73ffffffffffffffffffffffffffffffffffffffff166342842e0e3033856040518463ffffffff1660e01b8152600401610e9f939291906120a6565b600060405180830381600087803b158015610eb957600080fd5b505af1158015610ecd573d6000803e3d6000fd5b505050505b5b8192505050919050565b610ee5610f60565b80600160006101000a81548173ffffffffffffffffffffffffffffffffffffffff021916908373ffffffffffffffffffffffffffffffffffffffff1602179055507f2760073c7cd8cac531d7f643becbfbb74d8b8156443eacf879622532dbbb3cd581604051610f5591906112a4565b60405180910390a150565b610f686110a2565b73ffffffffffffffffffffffffffffffffffffffff16610f8661078a565b73ffffffffffffffffffffffffffffffffffffffff1614610fdc576040517f08c379a0000000000000000000000000000000000000000000000000000000008152600401610fd390612129565b60405180910390fd5b565b60008060009054906101000a900473ffffffffffffffffffffffffffffffffffffffff169050816000806101000a81548173ffffffffffffffffffffffffffffffffffffffff021916908373ffffffffffffffffffffffffffffffffffffffff1602179055508173ffffffffffffffffffffffffffffffffffffffff168173ffffffffffffffffffffffffffffffffffffffff167f8be0079c531659141344cd1fd0a4f28419497f9722a3daafe3b4186f6b6457e060405160405180910390a35050565b600033905090565b6000604051905090565b600080fd5b600080fd5b600073ffffffffffffffffffffffffffffffffffffffff82169050919050565b60006110e9826110be565b9050919050565b6110f9816110de565b811461110457600080fd5b50565b600081359050611116816110f0565b92915050565b6000819050919050565b61112f8161111c565b811461113a57600080fd5b50565b60008135905061114c81611126565b92915050565b600080fd5b600080fd5b600080fd5b60008083601f84011261117757611176611152565b5b8235905067ffffffffffffffff81111561119457611193611157565b5b6020830191508360018202830111156111b0576111af61115c565b5b9250929050565b6000806000806000608086880312156111d3576111d26110b4565b5b60006111e188828901611107565b95505060206111f288828901611107565b94505060406112038882890161113d565b935050606086013567ffffffffffffffff811115611224576112236110b9565b5b61123088828901611161565b92509250509295509295909350565b60007fffffffff0000000000000000000000000000000000000000000000000000000082169050919050565b6112748161123f565b82525050565b600060208201905061128f600083018461126b565b92915050565b61129e816110de565b82525050565b60006020820190506112b96000830184611295565b92915050565b6000819050919050565b60006112e46112df6112da846110be565b6112bf565b6110be565b9050919050565b60006112f6826112c9565b9050919050565b6000611308826112eb565b9050919050565b611318816112fd565b82525050565b6000602082019050611333600083018461130f565b92915050565b7f4e487b7100000000000000000000000000000000000000000000000000000000600052602160045260246000fd5b6003811061137957611378611339565b5b50565b600081905061138a82611368565b919050565b600061139a8261137c565b9050919050565b6113aa8161138f565b82525050565b60006020820190506113c560008301846113a1565b92915050565b600080fd5b6000601f19601f8301169050919050565b7f4e487b7100000000000000000000000000000000000000000000000000000000600052604160045260246000fd5b611419826113d0565b810181811067ffffffffffffffff82111715611438576114376113e1565b5b80604052505050565b600061144b6110aa565b90506114578282611410565b919050565b600080fd5b600067ffffffffffffffff82111561147c5761147b6113e1565b5b602082029050602081019050919050565b60006114a061149b84611461565b611441565b905080838252602082019050602084028301858111156114c3576114c261115c565b5b835b818110156114ec57806114d8888261113d565b8452602084019350506020810190506114c5565b5050509392505050565b600082601f83011261150b5761150a611152565b5b813561151b84826020860161148d565b91505092915050565b600067ffffffffffffffff82111561153f5761153e6113e1565b5b602082029050602081019050919050565b600080fd5b600067ffffffffffffffff8211156115705761156f6113e1565b5b611579826113d0565b9050602081019050919050565b82818337600083830152505050565b60006115a86115a384611555565b611441565b9050828152602081018484840111156115c4576115c3611550565b5b6115cf848285611586565b509392505050565b600082601f8301126115ec576115eb611152565b5b81356115fc848260208601611595565b91505092915050565b600061161861161384611524565b611441565b9050808382526020820190506020840283018581111561163b5761163a61115c565b5b835b8181101561168257803567ffffffffffffffff8111156116605761165f611152565b5b80860161166d89826115d7565b8552602085019450505060208101905061163d565b5050509392505050565b600082601f8301126116a1576116a0611152565b5b81356116b1848260208601611605565b91505092915050565b600067ffffffffffffffff8211156116d5576116d46113e1565b5b602082029050602081019050919050565b60006116f96116f4846116ba565b611441565b9050808382526020820190506020840283018581111561171c5761171b61115c565b5b835b8181101561176357803567ffffffffffffffff81111561174157611740611152565b5b80860161174e89826114f6565b8552602085019450505060208101905061171e565b5050509392505050565b600082601f83011261178257611781611152565b5b81356117928482602086016116e6565b91505092915050565b60008115159050919050565b6117b08161179b565b81146117bb57600080fd5b50565b6000813590506117cd816117a7565b92915050565b600061012082840312156117ea576117e96113cb565b5b6117f5610120611441565b905060006118058482850161113d565b600083015250602082013567ffffffffffffffff8111156118295761182861145c565b5b611835848285016114f6565b602083015250604082013567ffffffffffffffff8111156118595761185861145c565b5b6118658482850161168c565b604083015250606082013567ffffffffffffffff8111156118895761188861145c565b5b6118958482850161168c565b606083015250608082013567ffffffffffffffff8111156118b9576118b861145c565b5b6118c58482850161176d565b60808301525060a06118d9848285016117be565b60a08301525060c082013567ffffffffffffffff8111156118fd576118fc61145c565b5b611909848285016114f6565b60c08301525060e061191d848285016117be565b60e083015250610100611932848285016117be565b6101008301525092915050565b600060208284031215611955576119546110b4565b5b600082013567ffffffffffffffff811115611973576119726110b9565b5b61197f848285016117d3565b91505092915050565b6119918161111c565b82525050565b60006020820190506119ac6000830184611988565b92915050565b6000602082840312156119c8576119c76110b4565b5b60006119d684828501611107565b91505092915050565b600082825260208201905092915050565b7f504b5048656c7065723a206f6e6c792061636365707473207472616e7366657260008201527f732066726f6d2074686520504b504e465420636f6e7472616374000000000000602082015250565b6000611a4c603a836119df565b9150611a57826119f0565b604082019050919050565b60006020820190508181036000830152611a7b81611a3f565b9050919050565b6000819050919050565b611a9581611a82565b8114611aa057600080fd5b50565b600081519050611ab281611a8c565b92915050565b600060208284031215611ace57611acd6110b4565b5b6000611adc84828501611aa3565b91505092915050565b611aee81611a82565b82525050565b6000604082019050611b096000830185611ae5565b611b1660208301846113a1565b9392505050565b600081519050611b2c816110f0565b92915050565b600060208284031215611b4857611b476110b4565b5b6000611b5684828501611b1d565b91505092915050565b7f4f776e61626c653a206e6577206f776e657220697320746865207a65726f206160008201527f6464726573730000000000000000000000000000000000000000000000000000602082015250565b6000611bbb6026836119df565b9150611bc682611b5f565b604082019050919050565b60006020820190508181036000830152611bea81611bae565b9050919050565b600081519050611c0081611126565b92915050565b600060208284031215611c1c57611c1b6110b4565b5b6000611c2a84828501611bf1565b91505092915050565b7f504b5048656c7065723a2061757468206d6574686f64207479706520616e642060008201527f6964206172726179206c656e67746873206d757374206d617463680000000000602082015250565b6000611c8f603b836119df565b9150611c9a82611c33565b604082019050919050565b60006020820190508181036000830152611cbe81611c82565b9050919050565b7f504b5048656c7065723a2061757468206d6574686f64207479706520616e642060008201527f7075626b6579206172726179206c656e67746873206d757374206d6174636800602082015250565b6000611d21603f836119df565b9150611d2c82611cc5565b604082019050919050565b60006020820190508181036000830152611d5081611d14565b9050919050565b7f504b5048656c7065723a2061757468206d6574686f64207479706520616e642060008201527f73636f706573206172726179206c656e67746873206d757374206d6174636800602082015250565b6000611db3603f836119df565b9150611dbe82611d57565b604082019050919050565b60006020820190508181036000830152611de281611da6565b9050919050565b7f4e487b7100000000000000000000000000000000000000000000000000000000600052603260045260246000fd5b611e218161111c565b82525050565b600081519050919050565b600082825260208201905092915050565b60005b83811015611e61578082015181840152602081019050611e46565b60008484015250505050565b6000611e7882611e27565b611e828185611e32565b9350611e92818560208601611e43565b611e9b816113d0565b840191505092915050565b6000606083016000830151611ebe6000860182611e18565b5060208301518482036020860152611ed68282611e6d565b91505060408301518482036040860152611ef08282611e6d565b9150508091505092915050565b600081519050919050565b600082825260208201905092915050565b6000819050602082019050919050565b6000611f358383611e18565b60208301905092915050565b6000602082019050919050565b6000611f5982611efd565b611f638185611f08565b9350611f6e83611f19565b8060005b83811015611f9f578151611f868882611f29565b9750611f9183611f41565b925050600181019050611f72565b5085935050505092915050565b6000606082019050611fc16000830186611988565b8181036020830152611fd38185611ea6565b90508181036040830152611fe78184611f4e565b9050949350505050565b7f4e487b7100000000000000000000000000000000000000000000000000000000600052601160045260246000fd5b600061202b8261111c565b91507fffffffffffffffffffffffffffffffffffffffffffffffffffffffffffffffff820361205d5761205c611ff1565b5b600182019050919050565b600060608201905061207d6000830186611988565b61208a6020830185611295565b818103604083015261209c8184611f4e565b9050949350505050565b60006060820190506120bb6000830186611295565b6120c86020830185611295565b6120d56040830184611988565b949350505050565b7f4f776e61626c653a2063616c6c6572206973206e6f7420746865206f776e6572600082015250565b60006121136020836119df565b915061211e826120dd565b602082019050919050565b6000602082019050818103600083015261214281612106565b905091905056fea2646970667358221220fb44597ec4cc3765bb8bcec1d9936904fbc589e5a7a992f59c75d3f2ee2c703764736f6c63430008110033",
  "linkReferences": {},
  "deployedLinkReferences": {}
}