{
  "_format": "hh-sol-artifact-1",
  "contractName": "ConditionValidations",
  "sourceName": "contracts/lit-node/ConditionValidations.sol",
  "abi": [
    {
      "inputs": [
        {
          "internalType": "address",
          "name": "_ownerAddress",
          "type": "address"
        }
      ],
      "stateMutability": "nonpayable",
      "type": "constructor"
    },
    {
      "anonymous": false,
      "inputs": [
        {
          "indexed": true,
          "internalType": "bytes32",
          "name": "conditionHash",
          "type": "bytes32"
        },
        {
          "indexed": false,
          "internalType": "uint256",
          "name": "chainId",
          "type": "uint256"
        },
        {
          "indexed": false,
          "internalType": "uint256",
          "name": "timestamp",
          "type": "uint256"
        },
        {
          "indexed": false,
          "internalType": "address",
          "name": "creator",
          "type": "address"
        }
      ],
      "name": "ValidationStored",
      "type": "event"
    },
    {
      "inputs": [
        {
          "internalType": "bytes32",
          "name": "conditionHashKey",
          "type": "bytes32"
        }
      ],
      "name": "getValidatedCondition",
      "outputs": [
        {
          "components": [
            {
              "internalType": "uint256",
              "name": "chainId",
              "type": "uint256"
            },
            {
              "internalType": "uint256",
              "name": "timestamp",
              "type": "uint256"
            },
            {
              "internalType": "address",
              "name": "creator",
              "type": "address"
            }
          ],
          "internalType": "struct ConditionValidations.ValidatedCondition",
          "name": "",
          "type": "tuple"
        }
      ],
      "stateMutability": "view",
      "type": "function"
    },
    {
      "inputs": [
        {
          "internalType": "uint256",
          "name": "chainId",
          "type": "uint256"
        },
        {
          "internalType": "bytes32",
          "name": "conditionHash",
          "type": "bytes32"
        },
        {
          "internalType": "bytes",
          "name": "signature",
          "type": "bytes"
        }
      ],
      "name": "storeValidatedCondition",
      "outputs": [],
      "stateMutability": "nonpayable",
      "type": "function"
    },
    {
      "inputs": [
        {
          "internalType": "bytes",
          "name": "_publicKey",
          "type": "bytes"
        }
      ],
      "name": "testPubKeyToAddress",
      "outputs": [
        {
          "internalType": "address",
          "name": "",
          "type": "address"
        }
      ],
      "stateMutability": "pure",
      "type": "function"
    },
    {
      "inputs": [
        {
          "internalType": "address",
          "name": "",
          "type": "address"
        }
      ],
      "name": "validAddresses",
      "outputs": [
        {
          "internalType": "bool",
          "name": "",
          "type": "bool"
        }
      ],
      "stateMutability": "view",
      "type": "function"
    },
    {
      "inputs": [
        {
          "internalType": "bytes32",
          "name": "",
          "type": "bytes32"
        }
      ],
      "name": "validatedConditions",
      "outputs": [
        {
          "internalType": "uint256",
          "name": "chainId",
          "type": "uint256"
        },
        {
          "internalType": "uint256",
          "name": "timestamp",
          "type": "uint256"
        },
        {
          "internalType": "address",
          "name": "creator",
          "type": "address"
        }
      ],
      "stateMutability": "view",
      "type": "function"
    },
    {
      "inputs": [
        {
          "internalType": "bytes32",
          "name": "conditionHash",
          "type": "bytes32"
        },
        {
          "internalType": "bytes",
          "name": "signature",
          "type": "bytes"
        }
      ],
      "name": "verifySignature",
      "outputs": [
        {
          "internalType": "bool",
          "name": "",
          "type": "bool"
        }
      ],
      "stateMutability": "view",
      "type": "function"
    }
  ],
  "bytecode": "0x60806040523480156200001157600080fd5b506040516200119d3803806200119d833981810160405281019062000037919062000108565b60016000819055506001600260008373ffffffffffffffffffffffffffffffffffffffff1673ffffffffffffffffffffffffffffffffffffffff16815260200190815260200160002060006101000a81548160ff021916908315150217905550506200013a565b600080fd5b600073ffffffffffffffffffffffffffffffffffffffff82169050919050565b6000620000d082620000a3565b9050919050565b620000e281620000c3565b8114620000ee57600080fd5b50565b6000815190506200010281620000d7565b92915050565b6000602082840312156200012157620001206200009e565b5b60006200013184828501620000f1565b91505092915050565b611053806200014a6000396000f3fe608060405234801561001057600080fd5b50600436106100625760003560e01c80636b8ba3b514610067578063b91e408714610097578063daca6f78146100c7578063e127b54e146100f7578063e2f9477f14610127578063f650071a14610159575b600080fd5b610081600480360381019061007c9190610876565b610175565b60405161008e919061093f565b60405180910390f35b6100b160048036038101906100ac9190610986565b610266565b6040516100be91906109ce565b60405180910390f35b6100e160048036038101906100dc9190610b2f565b610286565b6040516100ee91906109ce565b60405180910390f35b610111600480360381019061010c9190610b8b565b6102eb565b60405161011e9190610be3565b60405180910390f35b610141600480360381019061013c9190610876565b610304565b60405161015093929190610c0d565b60405180910390f35b610173600480360381019061016e9190610c70565b61034e565b005b61017d6107f5565b600060016000848152602001908152602001600020600101541461022a576001600083815260200190815260200160002060405180606001604052908160008201548152602001600182015481526020016002820160009054906101000a900473ffffffffffffffffffffffffffffffffffffffff1673ffffffffffffffffffffffffffffffffffffffff1673ffffffffffffffffffffffffffffffffffffffff16815250509050610261565b60405180606001604052806000815260200160008152602001600073ffffffffffffffffffffffffffffffffffffffff1681525090505b919050565b60026020528060005260406000206000915054906101000a900460ff1681565b60008061029384846104dc565b9050600260008273ffffffffffffffffffffffffffffffffffffffff1673ffffffffffffffffffffffffffffffffffffffff16815260200190815260200160002060009054906101000a900460ff1691505092915050565b600080828051906020012060001c905080915050919050565b60016020528060005260406000206000915090508060000154908060010154908060020160009054906101000a900473ffffffffffffffffffffffffffffffffffffffff16905083565b610356610503565b600061036283836104dc565b9050600260008273ffffffffffffffffffffffffffffffffffffffff1673ffffffffffffffffffffffffffffffffffffffff16815260200190815260200160002060009054906101000a900460ff166103f0576040517f08c379a00000000000000000000000000000000000000000000000000000000081526004016103e790610d88565b60405180910390fd5b60405180606001604052808581526020014281526020013373ffffffffffffffffffffffffffffffffffffffff1681525060016000858152602001908152602001600020600082015181600001556020820151816001015560408201518160020160006101000a81548173ffffffffffffffffffffffffffffffffffffffff021916908373ffffffffffffffffffffffffffffffffffffffff160217905550905050827f98bf26ccdb9d2aea868d927938a0471b3f1491ef4aff63aa9c833bffb284ba298542336040516104c693929190610c0d565b60405180910390a2506104d7610552565b505050565b60008060006104eb858561055c565b915091506104f8816105ad565b819250505092915050565b600260005403610548576040517f08c379a000000000000000000000000000000000000000000000000000000000815260040161053f90610df4565b60405180910390fd5b6002600081905550565b6001600081905550565b600080604183510361059d5760008060006020860151925060408601519150606086015160001a905061059187828585610713565b945094505050506105a6565b60006002915091505b9250929050565b600060048111156105c1576105c0610e14565b5b8160048111156105d4576105d3610e14565b5b031561071057600160048111156105ee576105ed610e14565b5b81600481111561060157610600610e14565b5b03610641576040517f08c379a000000000000000000000000000000000000000000000000000000000815260040161063890610e8f565b60405180910390fd5b6002600481111561065557610654610e14565b5b81600481111561066857610667610e14565b5b036106a8576040517f08c379a000000000000000000000000000000000000000000000000000000000815260040161069f90610efb565b60405180910390fd5b600360048111156106bc576106bb610e14565b5b8160048111156106cf576106ce610e14565b5b0361070f576040517f08c379a000000000000000000000000000000000000000000000000000000000815260040161070690610f8d565b60405180910390fd5b5b50565b6000807f7fffffffffffffffffffffffffffffff5d576e7357a4501ddfe92f46681b20a08360001c111561074e5760006003915091506107ec565b6000600187878787604051600081526020016040526040516107739493929190610fd8565b6020604051602081039080840390855afa158015610795573d6000803e3d6000fd5b505050602060405103519050600073ffffffffffffffffffffffffffffffffffffffff168173ffffffffffffffffffffffffffffffffffffffff16036107e3576000600192509250506107ec565b80600092509250505b94509492505050565b60405180606001604052806000815260200160008152602001600073ffffffffffffffffffffffffffffffffffffffff1681525090565b6000604051905090565b600080fd5b600080fd5b6000819050919050565b61085381610840565b811461085e57600080fd5b50565b6000813590506108708161084a565b92915050565b60006020828403121561088c5761088b610836565b5b600061089a84828501610861565b91505092915050565b6000819050919050565b6108b6816108a3565b82525050565b600073ffffffffffffffffffffffffffffffffffffffff82169050919050565b60006108e7826108bc565b9050919050565b6108f7816108dc565b82525050565b60608201600082015161091360008501826108ad565b50602082015161092660208501826108ad565b50604082015161093960408501826108ee565b50505050565b600060608201905061095460008301846108fd565b92915050565b610963816108dc565b811461096e57600080fd5b50565b6000813590506109808161095a565b92915050565b60006020828403121561099c5761099b610836565b5b60006109aa84828501610971565b91505092915050565b60008115159050919050565b6109c8816109b3565b82525050565b60006020820190506109e360008301846109bf565b92915050565b600080fd5b600080fd5b6000601f19601f8301169050919050565b7f4e487b7100000000000000000000000000000000000000000000000000000000600052604160045260246000fd5b610a3c826109f3565b810181811067ffffffffffffffff82111715610a5b57610a5a610a04565b5b80604052505050565b6000610a6e61082c565b9050610a7a8282610a33565b919050565b600067ffffffffffffffff821115610a9a57610a99610a04565b5b610aa3826109f3565b9050602081019050919050565b82818337600083830152505050565b6000610ad2610acd84610a7f565b610a64565b905082815260208101848484011115610aee57610aed6109ee565b5b610af9848285610ab0565b509392505050565b600082601f830112610b1657610b156109e9565b5b8135610b26848260208601610abf565b91505092915050565b60008060408385031215610b4657610b45610836565b5b6000610b5485828601610861565b925050602083013567ffffffffffffffff811115610b7557610b7461083b565b5b610b8185828601610b01565b9150509250929050565b600060208284031215610ba157610ba0610836565b5b600082013567ffffffffffffffff811115610bbf57610bbe61083b565b5b610bcb84828501610b01565b91505092915050565b610bdd816108dc565b82525050565b6000602082019050610bf86000830184610bd4565b92915050565b610c07816108a3565b82525050565b6000606082019050610c226000830186610bfe565b610c2f6020830185610bfe565b610c3c6040830184610bd4565b949350505050565b610c4d816108a3565b8114610c5857600080fd5b50565b600081359050610c6a81610c44565b92915050565b600080600060608486031215610c8957610c88610836565b5b6000610c9786828701610c5b565b9350506020610ca886828701610861565b925050604084013567ffffffffffffffff811115610cc957610cc861083b565b5b610cd586828701610b01565b9150509250925092565b600082825260208201905092915050565b7f5369676e617475726520646f65736e2774206d6174636820616e79204c49542060008201527f6b657920666f722074686520676976656e2068617368656420636f6e6469746960208201527f6f6e000000000000000000000000000000000000000000000000000000000000604082015250565b6000610d72604283610cdf565b9150610d7d82610cf0565b606082019050919050565b60006020820190508181036000830152610da181610d65565b9050919050565b7f5265656e7472616e637947756172643a207265656e7472616e742063616c6c00600082015250565b6000610dde601f83610cdf565b9150610de982610da8565b602082019050919050565b60006020820190508181036000830152610e0d81610dd1565b9050919050565b7f4e487b7100000000000000000000000000000000000000000000000000000000600052602160045260246000fd5b7f45434453413a20696e76616c6964207369676e61747572650000000000000000600082015250565b6000610e79601883610cdf565b9150610e8482610e43565b602082019050919050565b60006020820190508181036000830152610ea881610e6c565b9050919050565b7f45434453413a20696e76616c6964207369676e6174757265206c656e67746800600082015250565b6000610ee5601f83610cdf565b9150610ef082610eaf565b602082019050919050565b60006020820190508181036000830152610f1481610ed8565b9050919050565b7f45434453413a20696e76616c6964207369676e6174757265202773272076616c60008201527f7565000000000000000000000000000000000000000000000000000000000000602082015250565b6000610f77602283610cdf565b9150610f8282610f1b565b604082019050919050565b60006020820190508181036000830152610fa681610f6a565b9050919050565b610fb681610840565b82525050565b600060ff82169050919050565b610fd281610fbc565b82525050565b6000608082019050610fed6000830187610fad565b610ffa6020830186610fc9565b6110076040830185610fad565b6110146060830184610fad565b9594505050505056fea26469706673582212207d4d0f94894f7be6a26d0e16b4a2576d0e5b879c616268fcf87043b830e0afd164736f6c63430008110033",
  "linkReferences": {},
  "deployedLinkReferences": {}
}