{
  "_format": "hh-sol-artifact-1",
  "contractName": "ContractResolver",
  "sourceName": "contracts/lit-core/ContractResolver.sol",
  "abi": [
    {
      "inputs": [
        {
          "internalType": "enum ContractResolver.Env",
          "name": "env",
          "type": "uint8"
        }
      ],
      "stateMutability": "nonpayable",
      "type": "constructor"
    },
    {
      "inputs": [],
      "name": "AdminRoleRequired",
      "type": "error"
    },
    {
      "anonymous": false,
      "inputs": [
        {
          "indexed": false,
          "internalType": "enum ContractResolver.Env",
          "name": "env",
          "type": "uint8"
        }
      ],
      "name": "AllowedEnvAdded",
      "type": "event"
    },
    {
      "anonymous": false,
      "inputs": [
        {
          "indexed": false,
          "internalType": "enum ContractResolver.Env",
          "name": "env",
          "type": "uint8"
        }
      ],
      "name": "AllowedEnvRemoved",
      "type": "event"
    },
    {
      "anonymous": false,
      "inputs": [
        {
          "indexed": true,
          "internalType": "bytes32",
          "name": "role",
          "type": "bytes32"
        },
        {
          "indexed": true,
          "internalType": "bytes32",
          "name": "previousAdminRole",
          "type": "bytes32"
        },
        {
          "indexed": true,
          "internalType": "bytes32",
          "name": "newAdminRole",
          "type": "bytes32"
        }
      ],
      "name": "RoleAdminChanged",
      "type": "event"
    },
    {
      "anonymous": false,
      "inputs": [
        {
          "indexed": true,
          "internalType": "bytes32",
          "name": "role",
          "type": "bytes32"
        },
        {
          "indexed": true,
          "internalType": "address",
          "name": "account",
          "type": "address"
        },
        {
          "indexed": true,
          "internalType": "address",
          "name": "sender",
          "type": "address"
        }
      ],
      "name": "RoleGranted",
      "type": "event"
    },
    {
      "anonymous": false,
      "inputs": [
        {
          "indexed": true,
          "internalType": "bytes32",
          "name": "role",
          "type": "bytes32"
        },
        {
          "indexed": true,
          "internalType": "address",
          "name": "account",
          "type": "address"
        },
        {
          "indexed": true,
          "internalType": "address",
          "name": "sender",
          "type": "address"
        }
      ],
      "name": "RoleRevoked",
      "type": "event"
    },
    {
      "anonymous": false,
      "inputs": [
        {
          "indexed": false,
          "internalType": "bytes32",
          "name": "typ",
          "type": "bytes32"
        },
        {
          "indexed": false,
          "internalType": "enum ContractResolver.Env",
          "name": "env",
          "type": "uint8"
        },
        {
          "indexed": false,
          "internalType": "address",
          "name": "addr",
          "type": "address"
        }
      ],
      "name": "SetContract",
      "type": "event"
    },
    {
      "inputs": [],
      "name": "ADMIN_ROLE",
      "outputs": [
        {
          "internalType": "bytes32",
          "name": "",
          "type": "bytes32"
        }
      ],
      "stateMutability": "view",
      "type": "function"
    },
    {
      "inputs": [],
      "name": "ALLOWLIST_CONTRACT",
      "outputs": [
        {
          "internalType": "bytes32",
          "name": "",
          "type": "bytes32"
        }
      ],
      "stateMutability": "view",
      "type": "function"
    },
    {
      "inputs": [],
      "name": "DEFAULT_ADMIN_ROLE",
      "outputs": [
        {
          "internalType": "bytes32",
          "name": "",
          "type": "bytes32"
        }
      ],
      "stateMutability": "view",
      "type": "function"
    },
    {
      "inputs": [],
      "name": "DOMAIN_WALLET_ORACLE",
      "outputs": [
        {
          "internalType": "bytes32",
          "name": "",
          "type": "bytes32"
        }
      ],
      "stateMutability": "view",
      "type": "function"
    },
    {
      "inputs": [],
      "name": "DOMAIN_WALLET_REGISTRY",
      "outputs": [
        {
          "internalType": "bytes32",
          "name": "",
          "type": "bytes32"
        }
      ],
      "stateMutability": "view",
      "type": "function"
    },
    {
      "inputs": [],
      "name": "HD_KEY_DERIVER_CONTRACT",
      "outputs": [
        {
          "internalType": "bytes32",
          "name": "",
          "type": "bytes32"
        }
      ],
      "stateMutability": "view",
      "type": "function"
    },
    {
      "inputs": [],
      "name": "LIT_TOKEN_CONTRACT",
      "outputs": [
        {
          "internalType": "bytes32",
          "name": "",
          "type": "bytes32"
        }
      ],
      "stateMutability": "view",
      "type": "function"
    },
    {
      "inputs": [],
      "name": "MULTI_SENDER_CONTRACT",
      "outputs": [
        {
          "internalType": "bytes32",
          "name": "",
          "type": "bytes32"
        }
      ],
      "stateMutability": "view",
      "type": "function"
    },
    {
      "inputs": [],
      "name": "PKP_HELPER_CONTRACT",
      "outputs": [
        {
          "internalType": "bytes32",
          "name": "",
          "type": "bytes32"
        }
      ],
      "stateMutability": "view",
      "type": "function"
    },
    {
      "inputs": [],
      "name": "PKP_NFT_CONTRACT",
      "outputs": [
        {
          "internalType": "bytes32",
          "name": "",
          "type": "bytes32"
        }
      ],
      "stateMutability": "view",
      "type": "function"
    },
    {
      "inputs": [],
      "name": "PKP_NFT_METADATA_CONTRACT",
      "outputs": [
        {
          "internalType": "bytes32",
          "name": "",
          "type": "bytes32"
        }
      ],
      "stateMutability": "view",
      "type": "function"
    },
    {
      "inputs": [],
      "name": "PKP_PERMISSIONS_CONTRACT",
      "outputs": [
        {
          "internalType": "bytes32",
          "name": "",
          "type": "bytes32"
        }
      ],
      "stateMutability": "view",
      "type": "function"
    },
    {
      "inputs": [],
      "name": "PUB_KEY_ROUTER_CONTRACT",
      "outputs": [
        {
          "internalType": "bytes32",
          "name": "",
          "type": "bytes32"
        }
      ],
      "stateMutability": "view",
      "type": "function"
    },
    {
      "inputs": [],
      "name": "RATE_LIMIT_NFT_CONTRACT",
      "outputs": [
        {
          "internalType": "bytes32",
          "name": "",
          "type": "bytes32"
        }
      ],
      "stateMutability": "view",
      "type": "function"
    },
    {
      "inputs": [],
      "name": "RELEASE_REGISTER_CONTRACT",
      "outputs": [
        {
          "internalType": "bytes32",
          "name": "",
          "type": "bytes32"
        }
      ],
      "stateMutability": "view",
      "type": "function"
    },
    {
      "inputs": [],
      "name": "STAKING_BALANCES_CONTRACT",
      "outputs": [
        {
          "internalType": "bytes32",
          "name": "",
          "type": "bytes32"
        }
      ],
      "stateMutability": "view",
      "type": "function"
    },
    {
      "inputs": [],
      "name": "STAKING_CONTRACT",
      "outputs": [
        {
          "internalType": "bytes32",
          "name": "",
          "type": "bytes32"
        }
      ],
      "stateMutability": "view",
      "type": "function"
    },
    {
      "inputs": [
        {
          "internalType": "enum ContractResolver.Env",
          "name": "env",
          "type": "uint8"
        }
      ],
      "name": "addAllowedEnv",
      "outputs": [],
      "stateMutability": "nonpayable",
      "type": "function"
    },
    {
      "inputs": [
        {
          "internalType": "bytes32",
          "name": "typ",
          "type": "bytes32"
        },
        {
          "internalType": "enum ContractResolver.Env",
          "name": "env",
          "type": "uint8"
        }
      ],
      "name": "getContract",
      "outputs": [
        {
          "internalType": "address",
          "name": "",
          "type": "address"
        }
      ],
      "stateMutability": "view",
      "type": "function"
    },
    {
      "inputs": [
        {
          "internalType": "bytes32",
          "name": "role",
          "type": "bytes32"
        }
      ],
      "name": "getRoleAdmin",
      "outputs": [
        {
          "internalType": "bytes32",
          "name": "",
          "type": "bytes32"
        }
      ],
      "stateMutability": "view",
      "type": "function"
    },
    {
      "inputs": [
        {
          "internalType": "bytes32",
          "name": "role",
          "type": "bytes32"
        },
        {
          "internalType": "address",
          "name": "account",
          "type": "address"
        }
      ],
      "name": "grantRole",
      "outputs": [],
      "stateMutability": "nonpayable",
      "type": "function"
    },
    {
      "inputs": [
        {
          "internalType": "bytes32",
          "name": "role",
          "type": "bytes32"
        },
        {
          "internalType": "address",
          "name": "account",
          "type": "address"
        }
      ],
      "name": "hasRole",
      "outputs": [
        {
          "internalType": "bool",
          "name": "",
          "type": "bool"
        }
      ],
      "stateMutability": "view",
      "type": "function"
    },
    {
      "inputs": [
        {
          "internalType": "enum ContractResolver.Env",
          "name": "env",
          "type": "uint8"
        }
      ],
      "name": "removeAllowedEnv",
      "outputs": [],
      "stateMutability": "nonpayable",
      "type": "function"
    },
    {
      "inputs": [
        {
          "internalType": "bytes32",
          "name": "role",
          "type": "bytes32"
        },
        {
          "internalType": "address",
          "name": "account",
          "type": "address"
        }
      ],
      "name": "renounceRole",
      "outputs": [],
      "stateMutability": "nonpayable",
      "type": "function"
    },
    {
      "inputs": [
        {
          "internalType": "bytes32",
          "name": "role",
          "type": "bytes32"
        },
        {
          "internalType": "address",
          "name": "account",
          "type": "address"
        }
      ],
      "name": "revokeRole",
      "outputs": [],
      "stateMutability": "nonpayable",
      "type": "function"
    },
    {
      "inputs": [
        {
          "internalType": "address",
          "name": "newAdmin",
          "type": "address"
        }
      ],
      "name": "setAdmin",
      "outputs": [],
      "stateMutability": "nonpayable",
      "type": "function"
    },
    {
      "inputs": [
        {
          "internalType": "bytes32",
          "name": "typ",
          "type": "bytes32"
        },
        {
          "internalType": "enum ContractResolver.Env",
          "name": "env",
          "type": "uint8"
        },
        {
          "internalType": "address",
          "name": "addr",
          "type": "address"
        }
      ],
      "name": "setContract",
      "outputs": [],
      "stateMutability": "nonpayable",
      "type": "function"
    },
    {
      "inputs": [
        {
          "internalType": "bytes4",
          "name": "interfaceId",
          "type": "bytes4"
        }
      ],
      "name": "supportsInterface",
      "outputs": [
        {
          "internalType": "bool",
          "name": "",
          "type": "bool"
        }
      ],
      "stateMutability": "view",
      "type": "function"
    },
    {
      "inputs": [
        {
          "internalType": "bytes32",
          "name": "",
          "type": "bytes32"
        },
        {
          "internalType": "enum ContractResolver.Env",
          "name": "",
          "type": "uint8"
        }
      ],
      "name": "typeAddresses",
      "outputs": [
        {
          "internalType": "address",
          "name": "",
          "type": "address"
        }
      ],
      "stateMutability": "view",
      "type": "function"
    }
  ],
  "bytecode": "0x60806040523480156200001157600080fd5b506040516200209538038062002095833981810160405281019062000037919062000358565b620000697fdf8b4c520ffe197c5343c6f5aec59570151ef9a492f2c624fd45ddde6135ec42336200013060201b60201c565b6200009b7fdf8b4c520ffe197c5343c6f5aec59570151ef9a492f2c624fd45ddde6135ec42806200014660201b60201c565b6001806000836002811115620000b657620000b56200038a565b5b6002811115620000cb57620000ca6200038a565b5b815260200190815260200160002060006101000a81548160ff0219169083151502179055507f839ad2743d4062df579edf3818f642b71ee0688a35d6bc4438ef5314cece8015816040516200012191906200040a565b60405180910390a15062000427565b620001428282620001a960201b60201c565b5050565b600062000159836200029a60201b60201c565b905081600080858152602001908152602001600020600101819055508181847fbd79b86ffe0ab8e8776151514217cd7cacd52c909f66475c3af44e129f0b00ff60405160405180910390a4505050565b620001bb8282620002b960201b60201c565b6200029657600160008084815260200190815260200160002060000160008373ffffffffffffffffffffffffffffffffffffffff1673ffffffffffffffffffffffffffffffffffffffff16815260200190815260200160002060006101000a81548160ff0219169083151502179055506200023b6200032360201b60201c565b73ffffffffffffffffffffffffffffffffffffffff168173ffffffffffffffffffffffffffffffffffffffff16837f2f8788117e7eff1d82e926ec794901d17c78024a50270940304540a733656f0d60405160405180910390a45b5050565b6000806000838152602001908152602001600020600101549050919050565b600080600084815260200190815260200160002060000160008373ffffffffffffffffffffffffffffffffffffffff1673ffffffffffffffffffffffffffffffffffffffff16815260200190815260200160002060009054906101000a900460ff16905092915050565b600033905090565b600080fd5b600381106200033e57600080fd5b50565b600081519050620003528162000330565b92915050565b6000602082840312156200037157620003706200032b565b5b6000620003818482850162000341565b91505092915050565b7f4e487b7100000000000000000000000000000000000000000000000000000000600052602160045260246000fd5b60038110620003cd57620003cc6200038a565b5b50565b6000819050620003e082620003b9565b919050565b6000620003f282620003d0565b9050919050565b6200040481620003e5565b82525050565b6000602082019050620004216000830184620003f9565b92915050565b611c5e80620004376000396000f3fe608060405234801561001057600080fd5b50600436106101cf5760003560e01c806375b238fc1161010457806391d14854116100a2578063d547741f11610071578063d547741f14610510578063da19ddfb1461052c578063df3806931461054a578063f8ae93b414610568576101cf565b806391d1485414610486578063977a8070146104b6578063a217fddf146104d4578063ad1c8a86146104f2576101cf565b80638c1536df116100de5780638c1536df146103fe5780638deb38931461041c5780638e8dfd16146104385780639072f83814610468576101cf565b806375b238fc146103a45780637cadf69f146103c257806385cb1191146103e0576101cf565b806336568abe1161017157806351ad0a801161014b57806351ad0a8014610332578063704b6c021461034e57806372823fa71461036a57806374bc813914610388576101cf565b806336568abe146102c85780633ebf7985146102e45780634216e73a14610314576101cf565b80632668f305116101ad5780632668f305146102525780632c0b8bf7146102705780632e4885e81461028e5780632f2ff15d146102ac576101cf565b806301ffc9a7146101d457806316f76bbf14610204578063248a9ca314610222575b600080fd5b6101ee60048036038101906101e9919061140f565b610586565b6040516101fb9190611457565b60405180910390f35b61020c610600565b604051610219919061148b565b60405180910390f35b61023c600480360381019061023791906114d2565b610624565b604051610249919061148b565b60405180910390f35b61025a610643565b604051610267919061148b565b60405180910390f35b610278610667565b604051610285919061148b565b60405180910390f35b61029661068b565b6040516102a3919061148b565b60405180910390f35b6102c660048036038101906102c1919061155d565b6106af565b005b6102e260048036038101906102dd919061155d565b6106d0565b005b6102fe60048036038101906102f991906115c2565b610753565b60405161030b9190611611565b60405180910390f35b61031c610795565b604051610329919061148b565b60405180910390f35b61034c6004803603810190610347919061162c565b6107b9565b005b6103686004803603810190610363919061167f565b61096b565b005b610372610a22565b60405161037f919061148b565b60405180910390f35b6103a2600480360381019061039d91906116ac565b610a46565b005b6103ac610b2f565b6040516103b9919061148b565b60405180910390f35b6103ca610b53565b6040516103d7919061148b565b60405180910390f35b6103e8610b77565b6040516103f5919061148b565b60405180910390f35b610406610b9b565b604051610413919061148b565b60405180910390f35b610436600480360381019061043191906116ac565b610bbf565b005b610452600480360381019061044d91906115c2565b610ca0565b60405161045f9190611611565b60405180910390f35b610470610d13565b60405161047d919061148b565b60405180910390f35b6104a0600480360381019061049b919061155d565b610d37565b6040516104ad9190611457565b60405180910390f35b6104be610da1565b6040516104cb919061148b565b60405180910390f35b6104dc610dc5565b6040516104e9919061148b565b60405180910390f35b6104fa610dcc565b604051610507919061148b565b60405180910390f35b61052a6004803603810190610525919061155d565b610df0565b005b610534610e11565b604051610541919061148b565b60405180910390f35b610552610e35565b60405161055f919061148b565b60405180910390f35b610570610e59565b60405161057d919061148b565b60405180910390f35b60007f7965db0b000000000000000000000000000000000000000000000000000000007bffffffffffffffffffffffffffffffffffffffffffffffffffffffff1916827bffffffffffffffffffffffffffffffffffffffffffffffffffffffff191614806105f957506105f882610e7d565b5b9050919050565b7ff14f431dadc82e7dbc5e379f71234e5735c9187e4327a7c6ac014d55d1b7727a81565b6000806000838152602001908152602001600020600101549050919050565b7fb1f79813bc7630a52ae948bc99781397e409d0dd3521953bf7d8d7a2db6147f781565b7fb7b4fde9944d3c13e9a78835431c33a5084d90a7f0c73def76d7886315fe87b081565b7fb931b2719aeb2a65a5035fa0a190bfdc4c8622ce8cbff7a3d1ab42531fb1a91881565b6106b882610624565b6106c181610ee7565b6106cb8383610efb565b505050565b6106d8610fdb565b73ffffffffffffffffffffffffffffffffffffffff168173ffffffffffffffffffffffffffffffffffffffff1614610745576040517f08c379a000000000000000000000000000000000000000000000000000000000815260040161073c9061175c565b60405180910390fd5b61074f8282610fe3565b5050565b60026020528160005260406000206020528060005260406000206000915091509054906101000a900473ffffffffffffffffffffffffffffffffffffffff1681565b7f4c41ae454beb6bbbe9be50accc957a3b1536e48b835a86919af981b5244db75581565b6107e37fdf8b4c520ffe197c5343c6f5aec59570151ef9a492f2c624fd45ddde6135ec4233610d37565b610819576040517fc890f84a00000000000000000000000000000000000000000000000000000000815260040160405180910390fd5b60011515600160008460028111156108345761083361177c565b5b60028111156108465761084561177c565b5b815260200190815260200160002060009054906101000a900460ff161515146108a4576040517f08c379a000000000000000000000000000000000000000000000000000000000815260040161089b9061181d565b60405180910390fd5b806002600085815260200190815260200160002060008460028111156108cd576108cc61177c565b5b60028111156108df576108de61177c565b5b815260200190815260200160002060006101000a81548173ffffffffffffffffffffffffffffffffffffffff021916908373ffffffffffffffffffffffffffffffffffffffff1602179055507f33f014890f109229bbcf8dd47204c153a2c0ff1c572a61de220d10336530f53d83838360405161095e93929190611885565b60405180910390a1505050565b6109957fdf8b4c520ffe197c5343c6f5aec59570151ef9a492f2c624fd45ddde6135ec4233610d37565b6109cb576040517fc890f84a00000000000000000000000000000000000000000000000000000000815260040160405180910390fd5b6109f57fdf8b4c520ffe197c5343c6f5aec59570151ef9a492f2c624fd45ddde6135ec4282610efb565b610a1f7fdf8b4c520ffe197c5343c6f5aec59570151ef9a492f2c624fd45ddde6135ec4233610fe3565b50565b7fc293b28944ab4199ad0f77d42d49e33b15d60cc12ed2a0b94a0db1d0b719f56181565b610a707fdf8b4c520ffe197c5343c6f5aec59570151ef9a492f2c624fd45ddde6135ec4233610d37565b610aa6576040517fc890f84a00000000000000000000000000000000000000000000000000000000815260040160405180910390fd5b6001806000836002811115610abe57610abd61177c565b5b6002811115610ad057610acf61177c565b5b815260200190815260200160002060006101000a81548160ff0219169083151502179055507f839ad2743d4062df579edf3818f642b71ee0688a35d6bc4438ef5314cece801581604051610b2491906118bc565b60405180910390a150565b7fdf8b4c520ffe197c5343c6f5aec59570151ef9a492f2c624fd45ddde6135ec4281565b7f74845de37cfabd357633214b47fa91ccd19b05b7c5a08ac22c187f811fb62bca81565b7fae79a935737012d066e7183032692e521ffe1ade2beda267e23e02b1d6e9118781565b7faa06d108dbd7bf976b16b7bf5adb29d2d0ef2c385ca8b9d833cc802f33942d7281565b610be97fdf8b4c520ffe197c5343c6f5aec59570151ef9a492f2c624fd45ddde6135ec4233610d37565b610c1f576040517fc890f84a00000000000000000000000000000000000000000000000000000000815260040160405180910390fd5b60016000826002811115610c3657610c3561177c565b5b6002811115610c4857610c4761177c565b5b815260200190815260200160002060006101000a81549060ff02191690557f3f178f17dae6caf8ca09c4857502baf7744e8597de42d6596476fe9e06b8ad4781604051610c9591906118bc565b60405180910390a150565b6000600260008481526020019081526020016000206000836002811115610cca57610cc961177c565b5b6002811115610cdc57610cdb61177c565b5b815260200190815260200160002060009054906101000a900473ffffffffffffffffffffffffffffffffffffffff16905092915050565b7f54953c23068b8fc4c0736301b50f10027d6b469327de1fd42841a5072b1bcebe81565b600080600084815260200190815260200160002060000160008373ffffffffffffffffffffffffffffffffffffffff1673ffffffffffffffffffffffffffffffffffffffff16815260200190815260200160002060009054906101000a900460ff16905092915050565b7f27d764ea2a4a3865434bbf4a391110149644be31448f3479fd15b4438875576581565b6000801b81565b7f3a68dbfd8bbb64015c42bc131c388dea7965e28c1004d09b39f59500c3a763ec81565b610df982610624565b610e0281610ee7565b610e0c8383610fe3565b505050565b7f080909c18c958ce5a2d36481697824e477319323d03154ceba3b78f28a61887b81565b7fb4bf999b68d8085dbbf7a0ec2f5a2d660873935bdf1ed08eb421ac6dcbc0036281565b7fdd5b9b8a5e8e01f2962ed7e983d58fe32e1f66aa88dd7ab30770fa9b77da724381565b60007f01ffc9a7000000000000000000000000000000000000000000000000000000007bffffffffffffffffffffffffffffffffffffffffffffffffffffffff1916827bffffffffffffffffffffffffffffffffffffffffffffffffffffffff1916149050919050565b610ef881610ef3610fdb565b6110c4565b50565b610f058282610d37565b610fd757600160008084815260200190815260200160002060000160008373ffffffffffffffffffffffffffffffffffffffff1673ffffffffffffffffffffffffffffffffffffffff16815260200190815260200160002060006101000a81548160ff021916908315150217905550610f7c610fdb565b73ffffffffffffffffffffffffffffffffffffffff168173ffffffffffffffffffffffffffffffffffffffff16837f2f8788117e7eff1d82e926ec794901d17c78024a50270940304540a733656f0d60405160405180910390a45b5050565b600033905090565b610fed8282610d37565b156110c057600080600084815260200190815260200160002060000160008373ffffffffffffffffffffffffffffffffffffffff1673ffffffffffffffffffffffffffffffffffffffff16815260200190815260200160002060006101000a81548160ff021916908315150217905550611065610fdb565b73ffffffffffffffffffffffffffffffffffffffff168173ffffffffffffffffffffffffffffffffffffffff16837ff6391f5c32d9c69d2a47ea670b442974b53935d1edc7fd64eb21e047a839171b60405160405180910390a45b5050565b6110ce8282610d37565b611145576110db81611149565b6110e98360001c6020611176565b6040516020016110fa9291906119e0565b6040516020818303038152906040526040517f08c379a000000000000000000000000000000000000000000000000000000000815260040161113c9190611a64565b60405180910390fd5b5050565b606061116f8273ffffffffffffffffffffffffffffffffffffffff16601460ff16611176565b9050919050565b6060600060028360026111899190611abf565b6111939190611b01565b67ffffffffffffffff8111156111ac576111ab611b35565b5b6040519080825280601f01601f1916602001820160405280156111de5781602001600182028036833780820191505090505b5090507f30000000000000000000000000000000000000000000000000000000000000008160008151811061121657611215611b64565b5b60200101907effffffffffffffffffffffffffffffffffffffffffffffffffffffffffffff1916908160001a9053507f78000000000000000000000000000000000000000000000000000000000000008160018151811061127a57611279611b64565b5b60200101907effffffffffffffffffffffffffffffffffffffffffffffffffffffffffffff1916908160001a905350600060018460026112ba9190611abf565b6112c49190611b01565b90505b6001811115611364577f3031323334353637383961626364656600000000000000000000000000000000600f86166010811061130657611305611b64565b5b1a60f81b82828151811061131d5761131c611b64565b5b60200101907effffffffffffffffffffffffffffffffffffffffffffffffffffffffffffff1916908160001a905350600485901c94508061135d90611b93565b90506112c7565b50600084146113a8576040517f08c379a000000000000000000000000000000000000000000000000000000000815260040161139f90611c08565b60405180910390fd5b8091505092915050565b600080fd5b60007fffffffff0000000000000000000000000000000000000000000000000000000082169050919050565b6113ec816113b7565b81146113f757600080fd5b50565b600081359050611409816113e3565b92915050565b600060208284031215611425576114246113b2565b5b6000611433848285016113fa565b91505092915050565b60008115159050919050565b6114518161143c565b82525050565b600060208201905061146c6000830184611448565b92915050565b6000819050919050565b61148581611472565b82525050565b60006020820190506114a0600083018461147c565b92915050565b6114af81611472565b81146114ba57600080fd5b50565b6000813590506114cc816114a6565b92915050565b6000602082840312156114e8576114e76113b2565b5b60006114f6848285016114bd565b91505092915050565b600073ffffffffffffffffffffffffffffffffffffffff82169050919050565b600061152a826114ff565b9050919050565b61153a8161151f565b811461154557600080fd5b50565b60008135905061155781611531565b92915050565b60008060408385031215611574576115736113b2565b5b6000611582858286016114bd565b925050602061159385828601611548565b9150509250929050565b600381106115aa57600080fd5b50565b6000813590506115bc8161159d565b92915050565b600080604083850312156115d9576115d86113b2565b5b60006115e7858286016114bd565b92505060206115f8858286016115ad565b9150509250929050565b61160b8161151f565b82525050565b60006020820190506116266000830184611602565b92915050565b600080600060608486031215611645576116446113b2565b5b6000611653868287016114bd565b9350506020611664868287016115ad565b925050604061167586828701611548565b9150509250925092565b600060208284031215611695576116946113b2565b5b60006116a384828501611548565b91505092915050565b6000602082840312156116c2576116c16113b2565b5b60006116d0848285016115ad565b91505092915050565b600082825260208201905092915050565b7f416363657373436f6e74726f6c3a2063616e206f6e6c792072656e6f756e636560008201527f20726f6c657320666f722073656c660000000000000000000000000000000000602082015250565b6000611746602f836116d9565b9150611751826116ea565b604082019050919050565b6000602082019050818103600083015261177581611739565b9050919050565b7f4e487b7100000000000000000000000000000000000000000000000000000000600052602160045260246000fd5b7f5468652070726f766964656420456e76206973206e6f742076616c696420666f60008201527f72207468697320636f6e74726163740000000000000000000000000000000000602082015250565b6000611807602f836116d9565b9150611812826117ab565b604082019050919050565b60006020820190508181036000830152611836816117fa565b9050919050565b6003811061184e5761184d61177c565b5b50565b600081905061185f8261183d565b919050565b600061186f82611851565b9050919050565b61187f81611864565b82525050565b600060608201905061189a600083018661147c565b6118a76020830185611876565b6118b46040830184611602565b949350505050565b60006020820190506118d16000830184611876565b92915050565b600081905092915050565b7f416363657373436f6e74726f6c3a206163636f756e7420000000000000000000600082015250565b60006119186017836118d7565b9150611923826118e2565b601782019050919050565b600081519050919050565b60005b8381101561195757808201518184015260208101905061193c565b60008484015250505050565b600061196e8261192e565b61197881856118d7565b9350611988818560208601611939565b80840191505092915050565b7f206973206d697373696e6720726f6c6520000000000000000000000000000000600082015250565b60006119ca6011836118d7565b91506119d582611994565b601182019050919050565b60006119eb8261190b565b91506119f78285611963565b9150611a02826119bd565b9150611a0e8284611963565b91508190509392505050565b6000601f19601f8301169050919050565b6000611a368261192e565b611a4081856116d9565b9350611a50818560208601611939565b611a5981611a1a565b840191505092915050565b60006020820190508181036000830152611a7e8184611a2b565b905092915050565b6000819050919050565b7f4e487b7100000000000000000000000000000000000000000000000000000000600052601160045260246000fd5b6000611aca82611a86565b9150611ad583611a86565b9250828202611ae381611a86565b91508282048414831517611afa57611af9611a90565b5b5092915050565b6000611b0c82611a86565b9150611b1783611a86565b9250828201905080821115611b2f57611b2e611a90565b5b92915050565b7f4e487b7100000000000000000000000000000000000000000000000000000000600052604160045260246000fd5b7f4e487b7100000000000000000000000000000000000000000000000000000000600052603260045260246000fd5b6000611b9e82611a86565b915060008203611bb157611bb0611a90565b5b600182039050919050565b7f537472696e67733a20686578206c656e67746820696e73756666696369656e74600082015250565b6000611bf26020836116d9565b9150611bfd82611bbc565b602082019050919050565b60006020820190508181036000830152611c2181611be5565b905091905056fea26469706673582212209cfb64a4057ba9478cee57cf8096c4dcda3cc43308d8a232a381e7e2708797b764736f6c63430008110033",
  "linkReferences": {},
  "deployedLinkReferences": {}
}