{
  "_format": "hh-sol-artifact-1",
  "contractName": "DomainWalletRegistry",
  "sourceName": "contracts/domain-wallets/DomainWalletRegistry.sol",
  "abi": [
    {
      "inputs": [
        {
          "internalType": "address",
          "name": "_resolver",
          "type": "address"
        },
        {
          "internalType": "enum ContractResolver.Env",
          "name": "_env",
          "type": "uint8"
        }
      ],
      "stateMutability": "nonpayable",
      "type": "constructor"
    },
    {
      "inputs": [
        {
          "internalType": "uint256",
          "name": "metadataCount",
          "type": "uint256"
        },
        {
          "internalType": "uint256",
          "name": "validMetadataCount",
          "type": "uint256"
        }
      ],
      "name": "InvalidNftMetadataCollectionLength",
      "type": "error"
    },
    {
      "inputs": [
        {
          "internalType": "address",
          "name": "adminAddress",
          "type": "address"
        },
        {
          "internalType": "address",
          "name": "account",
          "type": "address"
        }
      ],
      "name": "NonAdminCaller",
      "type": "error"
    },
    {
      "anonymous": false,
      "inputs": [
        {
          "indexed": true,
          "internalType": "bytes32",
          "name": "role",
          "type": "bytes32"
        },
        {
          "indexed": true,
          "internalType": "bytes32",
          "name": "previousAdminRole",
          "type": "bytes32"
        },
        {
          "indexed": true,
          "internalType": "bytes32",
          "name": "newAdminRole",
          "type": "bytes32"
        }
      ],
      "name": "RoleAdminChanged",
      "type": "event"
    },
    {
      "anonymous": false,
      "inputs": [
        {
          "indexed": true,
          "internalType": "bytes32",
          "name": "role",
          "type": "bytes32"
        },
        {
          "indexed": true,
          "internalType": "address",
          "name": "account",
          "type": "address"
        },
        {
          "indexed": true,
          "internalType": "address",
          "name": "sender",
          "type": "address"
        }
      ],
      "name": "RoleGranted",
      "type": "event"
    },
    {
      "anonymous": false,
      "inputs": [
        {
          "indexed": true,
          "internalType": "bytes32",
          "name": "role",
          "type": "bytes32"
        },
        {
          "indexed": true,
          "internalType": "address",
          "name": "account",
          "type": "address"
        },
        {
          "indexed": true,
          "internalType": "address",
          "name": "sender",
          "type": "address"
        }
      ],
      "name": "RoleRevoked",
      "type": "event"
    },
    {
      "inputs": [],
      "name": "ADMIN_ROLE",
      "outputs": [
        {
          "internalType": "bytes32",
          "name": "",
          "type": "bytes32"
        }
      ],
      "stateMutability": "view",
      "type": "function"
    },
    {
      "inputs": [],
      "name": "DEFAULT_ADMIN_ROLE",
      "outputs": [
        {
          "internalType": "bytes32",
          "name": "",
          "type": "bytes32"
        }
      ],
      "stateMutability": "view",
      "type": "function"
    },
    {
      "inputs": [],
      "name": "contractResolver",
      "outputs": [
        {
          "internalType": "contract ContractResolver",
          "name": "",
          "type": "address"
        }
      ],
      "stateMutability": "view",
      "type": "function"
    },
    {
      "inputs": [],
      "name": "env",
      "outputs": [
        {
          "internalType": "enum ContractResolver.Env",
          "name": "",
          "type": "uint8"
        }
      ],
      "stateMutability": "view",
      "type": "function"
    },
    {
      "inputs": [
        {
          "internalType": "uint256",
          "name": "pkpTokenId",
          "type": "uint256"
        }
      ],
      "name": "getDomainIdByTokenId",
      "outputs": [
        {
          "internalType": "uint64",
          "name": "",
          "type": "uint64"
        }
      ],
      "stateMutability": "view",
      "type": "function"
    },
    {
      "inputs": [
        {
          "internalType": "bytes",
          "name": "uri",
          "type": "bytes"
        }
      ],
      "name": "getDomainTokenIdByUri",
      "outputs": [
        {
          "internalType": "uint256",
          "name": "",
          "type": "uint256"
        }
      ],
      "stateMutability": "view",
      "type": "function"
    },
    {
      "inputs": [
        {
          "internalType": "uint256",
          "name": "pkpTokenId",
          "type": "uint256"
        }
      ],
      "name": "getDomainUri",
      "outputs": [
        {
          "internalType": "bytes",
          "name": "",
          "type": "bytes"
        }
      ],
      "stateMutability": "view",
      "type": "function"
    },
    {
      "inputs": [
        {
          "internalType": "uint256",
          "name": "pkpTokenId",
          "type": "uint256"
        }
      ],
      "name": "getExpiration",
      "outputs": [
        {
          "internalType": "uint256",
          "name": "",
          "type": "uint256"
        }
      ],
      "stateMutability": "view",
      "type": "function"
    },
    {
      "inputs": [
        {
          "internalType": "uint64",
          "name": "id",
          "type": "uint64"
        }
      ],
      "name": "getPkpTokenId",
      "outputs": [
        {
          "internalType": "uint256",
          "name": "",
          "type": "uint256"
        }
      ],
      "stateMutability": "view",
      "type": "function"
    },
    {
      "inputs": [
        {
          "internalType": "bytes32",
          "name": "role",
          "type": "bytes32"
        }
      ],
      "name": "getRoleAdmin",
      "outputs": [
        {
          "internalType": "bytes32",
          "name": "",
          "type": "bytes32"
        }
      ],
      "stateMutability": "view",
      "type": "function"
    },
    {
      "inputs": [
        {
          "internalType": "bytes32",
          "name": "role",
          "type": "bytes32"
        },
        {
          "internalType": "address",
          "name": "account",
          "type": "address"
        }
      ],
      "name": "grantRole",
      "outputs": [],
      "stateMutability": "nonpayable",
      "type": "function"
    },
    {
      "inputs": [
        {
          "internalType": "uint256",
          "name": "pkpTokenId",
          "type": "uint256"
        }
      ],
      "name": "hasExpired",
      "outputs": [
        {
          "internalType": "bool",
          "name": "",
          "type": "bool"
        }
      ],
      "stateMutability": "nonpayable",
      "type": "function"
    },
    {
      "inputs": [
        {
          "internalType": "uint256",
          "name": "pkpTokenId",
          "type": "uint256"
        }
      ],
      "name": "hasOwner",
      "outputs": [
        {
          "internalType": "bool",
          "name": "",
          "type": "bool"
        }
      ],
      "stateMutability": "view",
      "type": "function"
    },
    {
      "inputs": [
        {
          "internalType": "bytes32",
          "name": "role",
          "type": "bytes32"
        },
        {
          "internalType": "address",
          "name": "account",
          "type": "address"
        }
      ],
      "name": "hasRole",
      "outputs": [
        {
          "internalType": "bool",
          "name": "",
          "type": "bool"
        }
      ],
      "stateMutability": "view",
      "type": "function"
    },
    {
      "inputs": [
        {
          "internalType": "uint256",
          "name": "pkpTokenId",
          "type": "uint256"
        }
      ],
      "name": "isOwner",
      "outputs": [
        {
          "internalType": "bool",
          "name": "",
          "type": "bool"
        }
      ],
      "stateMutability": "view",
      "type": "function"
    },
    {
      "inputs": [
        {
          "internalType": "uint256",
          "name": "pkpTokenId",
          "type": "uint256"
        }
      ],
      "name": "isRouted",
      "outputs": [
        {
          "internalType": "bool",
          "name": "",
          "type": "bool"
        }
      ],
      "stateMutability": "view",
      "type": "function"
    },
    {
      "inputs": [
        {
          "internalType": "bytes",
          "name": "userId",
          "type": "bytes"
        },
        {
          "internalType": "bytes",
          "name": "uri",
          "type": "bytes"
        },
        {
          "internalType": "uint256",
          "name": "ttl",
          "type": "uint256"
        },
        {
          "internalType": "uint256",
          "name": "pkpTokenId",
          "type": "uint256"
        },
        {
          "internalType": "string[]",
          "name": "nftMetadata",
          "type": "string[]"
        }
      ],
      "name": "registerDomain",
      "outputs": [
        {
          "internalType": "uint256",
          "name": "",
          "type": "uint256"
        }
      ],
      "stateMutability": "nonpayable",
      "type": "function"
    },
    {
      "inputs": [
        {
          "internalType": "bytes",
          "name": "userId",
          "type": "bytes"
        },
        {
          "internalType": "bytes",
          "name": "uri",
          "type": "bytes"
        },
        {
          "internalType": "uint256",
          "name": "ttl",
          "type": "uint256"
        },
        {
          "internalType": "uint256[]",
          "name": "permittedAuthMethodTypes",
          "type": "uint256[]"
        },
        {
          "internalType": "bytes[]",
          "name": "permittedAuthMethodIds",
          "type": "bytes[]"
        },
        {
          "internalType": "bytes[]",
          "name": "permittedAuthMethodPubkeys",
          "type": "bytes[]"
        },
        {
          "internalType": "uint256[][]",
          "name": "permittedAuthMethodScopes",
          "type": "uint256[][]"
        },
        {
          "internalType": "string[]",
          "name": "nftMetadata",
          "type": "string[]"
        }
      ],
      "name": "registerDomainAndMintNext",
      "outputs": [
        {
          "internalType": "uint256",
          "name": "",
          "type": "uint256"
        }
      ],
      "stateMutability": "payable",
      "type": "function"
    },
    {
      "inputs": [
        {
          "internalType": "uint64",
          "name": "id",
          "type": "uint64"
        },
        {
          "internalType": "uint256",
          "name": "pkpTokenId",
          "type": "uint256"
        }
      ],
      "name": "registerPKP",
      "outputs": [
        {
          "internalType": "bool",
          "name": "",
          "type": "bool"
        }
      ],
      "stateMutability": "nonpayable",
      "type": "function"
    },
    {
      "inputs": [
        {
          "internalType": "uint256",
          "name": "pkpTokenId",
          "type": "uint256"
        }
      ],
      "name": "removeDomain",
      "outputs": [
        {
          "internalType": "bool",
          "name": "",
          "type": "bool"
        }
      ],
      "stateMutability": "nonpayable",
      "type": "function"
    },
    {
      "inputs": [
        {
          "internalType": "bytes32",
          "name": "role",
          "type": "bytes32"
        },
        {
          "internalType": "address",
          "name": "account",
          "type": "address"
        }
      ],
      "name": "renounceRole",
      "outputs": [],
      "stateMutability": "nonpayable",
      "type": "function"
    },
    {
      "inputs": [
        {
          "internalType": "uint256",
          "name": "pkpTokenId",
          "type": "uint256"
        }
      ],
      "name": "revokeDomain",
      "outputs": [
        {
          "internalType": "bool",
          "name": "",
          "type": "bool"
        }
      ],
      "stateMutability": "nonpayable",
      "type": "function"
    },
    {
      "inputs": [
        {
          "internalType": "bytes32",
          "name": "role",
          "type": "bytes32"
        },
        {
          "internalType": "address",
          "name": "account",
          "type": "address"
        }
      ],
      "name": "revokeRole",
      "outputs": [],
      "stateMutability": "nonpayable",
      "type": "function"
    },
    {
      "inputs": [
        {
          "internalType": "address",
          "name": "adminAddress",
          "type": "address"
        }
      ],
      "name": "setAdmin",
      "outputs": [],
      "stateMutability": "nonpayable",
      "type": "function"
    },
    {
      "inputs": [
        {
          "internalType": "uint256",
          "name": "pkpTokenId",
          "type": "uint256"
        },
        {
          "internalType": "string[]",
          "name": "nftMetadata",
          "type": "string[]"
        }
      ],
      "name": "setPKPMetadata",
      "outputs": [],
      "stateMutability": "nonpayable",
      "type": "function"
    },
    {
      "inputs": [
        {
          "internalType": "bytes4",
          "name": "interfaceId",
          "type": "bytes4"
        }
      ],
      "name": "supportsInterface",
      "outputs": [
        {
          "internalType": "bool",
          "name": "",
          "type": "bool"
        }
      ],
      "stateMutability": "view",
      "type": "function"
    }
  ],
  "bytecode": "0x60806040523480156200001157600080fd5b5060405162003f5f38038062003f5f8339818101604052810190620000379190620003eb565b33600260006101000a81548173ffffffffffffffffffffffffffffffffffffffff021916908373ffffffffffffffffffffffffffffffffffffffff16021790555081600160006101000a81548173ffffffffffffffffffffffffffffffffffffffff021916908373ffffffffffffffffffffffffffffffffffffffff16021790555080600160146101000a81548160ff02191690836002811115620000e157620000e062000432565b5b02179055506200013a7fdf8b4c520ffe197c5343c6f5aec59570151ef9a492f2c624fd45ddde6135ec42600260009054906101000a900473ffffffffffffffffffffffffffffffffffffffff166200017460201b60201c565b6200016c7fdf8b4c520ffe197c5343c6f5aec59570151ef9a492f2c624fd45ddde6135ec42806200026560201b60201c565b505062000461565b620001868282620002c860201b60201c565b6200026157600160008084815260200190815260200160002060000160008373ffffffffffffffffffffffffffffffffffffffff1673ffffffffffffffffffffffffffffffffffffffff16815260200190815260200160002060006101000a81548160ff021916908315150217905550620002066200033260201b60201c565b73ffffffffffffffffffffffffffffffffffffffff168173ffffffffffffffffffffffffffffffffffffffff16837f2f8788117e7eff1d82e926ec794901d17c78024a50270940304540a733656f0d60405160405180910390a45b5050565b600062000278836200033a60201b60201c565b905081600080858152602001908152602001600020600101819055508181847fbd79b86ffe0ab8e8776151514217cd7cacd52c909f66475c3af44e129f0b00ff60405160405180910390a4505050565b600080600084815260200190815260200160002060000160008373ffffffffffffffffffffffffffffffffffffffff1673ffffffffffffffffffffffffffffffffffffffff16815260200190815260200160002060009054906101000a900460ff16905092915050565b600033905090565b6000806000838152602001908152602001600020600101549050919050565b600080fd5b600073ffffffffffffffffffffffffffffffffffffffff82169050919050565b60006200038b826200035e565b9050919050565b6200039d816200037e565b8114620003a957600080fd5b50565b600081519050620003bd8162000392565b92915050565b60038110620003d157600080fd5b50565b600081519050620003e581620003c3565b92915050565b6000806040838503121562000405576200040462000359565b5b60006200041585828601620003ac565b92505060206200042885828601620003d4565b9150509250929050565b7f4e487b7100000000000000000000000000000000000000000000000000000000600052602160045260246000fd5b613aee80620004716000396000f3fe6080604052600436106101815760003560e01c8063704b6c02116100d1578063a217fddf1161008a578063c9b2874911610064578063c9b287491461061f578063d547741f1461065c578063d964a37514610685578063f48d60ca146106c257610181565b8063a217fddf1461058e578063a2f42104146105b9578063b6e7f4d2146105f657610181565b8063704b6c021461045857806375b238fc14610481578063880bc4e6146104ac57806391d14854146104e95780639dca003214610526578063a05b775f1461055157610181565b806339c7639c1161013e5780635530adf8116101185780635530adf8146103715780635b045724146103a15780636a3000c4146103de5780636f50cd971461041b57610181565b806339c7639c146102cc57806349fcbc541461030957806350d17b5e1461034657610181565b806301c6d0351461018657806301ffc9a7146101c357806315d4647414610200578063248a9ca31461023d5780632f2ff15d1461027a57806336568abe146102a3575b600080fd5b34801561019257600080fd5b506101ad60048036038101906101a8919061211f565b6106ff565b6040516101ba9190612167565b60405180910390f35b3480156101cf57600080fd5b506101ea60048036038101906101e591906121da565b61078e565b6040516101f79190612167565b60405180910390f35b34801561020c57600080fd5b506102276004803603810190610222919061211f565b610808565b6040516102349190612167565b60405180910390f35b34801561024957600080fd5b50610264600480360381019061025f919061223d565b6109a1565b6040516102719190612279565b60405180910390f35b34801561028657600080fd5b506102a1600480360381019061029c91906122f2565b6109c0565b005b3480156102af57600080fd5b506102ca60048036038101906102c591906122f2565b6109e1565b005b3480156102d857600080fd5b506102f360048036038101906102ee919061211f565b610a64565b6040516103009190612167565b60405180910390f35b34801561031557600080fd5b50610330600480360381019061032b919061211f565b610af3565b60405161033d9190612167565b60405180910390f35b34801561035257600080fd5b5061035b610c14565b6040516103689190612391565b60405180910390f35b61038b600480360381019061038691906128fe565b610c3a565b6040516103989190612a87565b60405180910390f35b3480156103ad57600080fd5b506103c860048036038101906103c39190612aa2565b610eaa565b6040516103d59190612a87565b60405180910390f35b3480156103ea57600080fd5b506104056004803603810190610400919061211f565b6110cd565b6040516104129190612bf0565b60405180910390f35b34801561042757600080fd5b50610442600480360381019061043d9190612c12565b611162565b60405161044f9190612a87565b60405180910390f35b34801561046457600080fd5b5061047f600480360381019061047a9190612c5b565b6111f1565b005b34801561048d57600080fd5b50610496611249565b6040516104a39190612279565b60405180910390f35b3480156104b857600080fd5b506104d360048036038101906104ce919061211f565b61126d565b6040516104e09190612cab565b60405180910390f35b3480156104f557600080fd5b50610510600480360381019061050b91906122f2565b6112fc565b60405161051d9190612167565b60405180910390f35b34801561053257600080fd5b5061053b611366565b6040516105489190612d3d565b60405180910390f35b34801561055d57600080fd5b506105786004803603810190610573919061211f565b611379565b6040516105859190612a87565b60405180910390f35b34801561059a57600080fd5b506105a3611408565b6040516105b09190612279565b60405180910390f35b3480156105c557600080fd5b506105e060048036038101906105db9190612d84565b61140f565b6040516105ed9190612a87565b60405180910390f35b34801561060257600080fd5b5061061d60048036038101906106189190612db1565b61149e565b005b34801561062b57600080fd5b5061064660048036038101906106419190612e0d565b6115ab565b6040516106539190612167565b60405180910390f35b34801561066857600080fd5b50610683600480360381019061067e91906122f2565b6116cf565b005b34801561069157600080fd5b506106ac60048036038101906106a7919061211f565b6116f0565b6040516106b99190612167565b60405180910390f35b3480156106ce57600080fd5b506106e960048036038101906106e4919061211f565b611889565b6040516106f69190612167565b60405180910390f35b60008061070a611918565b90508073ffffffffffffffffffffffffffffffffffffffff166301c6d035846040518263ffffffff1660e01b81526004016107459190612a87565b602060405180830381865afa158015610762573d6000803e3d6000fd5b505050506040513d601f19601f820116820180604052508101906107869190612e79565b915050919050565b60007f7965db0b000000000000000000000000000000000000000000000000000000007bffffffffffffffffffffffffffffffffffffffffffffffffffffffff1916827bffffffffffffffffffffffffffffffffffffffffffffffffffffffff19161480610801575061080082611a5c565b5b9050919050565b60006108347fdf8b4c520ffe197c5343c6f5aec59570151ef9a492f2c624fd45ddde6135ec42336112fc565b61089957600260009054906101000a900473ffffffffffffffffffffffffffffffffffffffff16336040517f34a54232000000000000000000000000000000000000000000000000000000008152600401610890929190612eb5565b60405180910390fd5b60006108a3611918565b905060006108af611ac6565b90508073ffffffffffffffffffffffffffffffffffffffff16632b553551856040518263ffffffff1660e01b81526004016108ea9190612a87565b600060405180830381600087803b15801561090457600080fd5b505af1158015610918573d6000803e3d6000fd5b505050508173ffffffffffffffffffffffffffffffffffffffff166315d46474856040518263ffffffff1660e01b81526004016109559190612a87565b6020604051808303816000875af1158015610974573d6000803e3d6000fd5b505050506040513d601f19601f820116820180604052508101906109989190612e79565b92505050919050565b6000806000838152602001908152602001600020600101549050919050565b6109c9826109a1565b6109d281611c0a565b6109dc8383611c1e565b505050565b6109e9611cfe565b73ffffffffffffffffffffffffffffffffffffffff168173ffffffffffffffffffffffffffffffffffffffff1614610a56576040517f08c379a0000000000000000000000000000000000000000000000000000000008152600401610a4d90612f61565b60405180910390fd5b610a608282611d06565b5050565b600080610a6f611918565b90508073ffffffffffffffffffffffffffffffffffffffff166339c7639c846040518263ffffffff1660e01b8152600401610aaa9190612a87565b602060405180830381865afa158015610ac7573d6000803e3d6000fd5b505050506040513d601f19601f82011682018060405250810190610aeb9190612e79565b915050919050565b6000610b1f7fdf8b4c520ffe197c5343c6f5aec59570151ef9a492f2c624fd45ddde6135ec42336112fc565b610b8457600260009054906101000a900473ffffffffffffffffffffffffffffffffffffffff16336040517f34a54232000000000000000000000000000000000000000000000000000000008152600401610b7b929190612eb5565b60405180910390fd5b6000610b8e611918565b90508073ffffffffffffffffffffffffffffffffffffffff166349fcbc54846040518263ffffffff1660e01b8152600401610bc99190612a87565b6020604051808303816000875af1158015610be8573d6000803e3d6000fd5b505050506040513d601f19601f82011682018060405250810190610c0c9190612e79565b915050919050565b600160009054906101000a900473ffffffffffffffffffffffffffffffffffffffff1681565b6000610c667fdf8b4c520ffe197c5343c6f5aec59570151ef9a492f2c624fd45ddde6135ec42336112fc565b610ccb57600260009054906101000a900473ffffffffffffffffffffffffffffffffffffffff16336040517f34a54232000000000000000000000000000000000000000000000000000000008152600401610cc2929190612eb5565b60405180910390fd5b6000610cd5611918565b90506000610ce1611ac6565b90508173ffffffffffffffffffffffffffffffffffffffff166327bd069e8b6040518263ffffffff1660e01b8152600401610d1c9190612bf0565b60006040518083038186803b158015610d3457600080fd5b505afa158015610d48573d6000803e3d6000fd5b505050506002845114610d9657835160026040517f216aeb3f000000000000000000000000000000000000000000000000000000008152600401610d8d929190612fbc565b60405180910390fd5b60008173ffffffffffffffffffffffffffffffffffffffff1663ffc833253460028c8c8c8c8c6001806040518a63ffffffff1660e01b8152600401610de29897969594939291906133f7565b60206040518083038185885af1158015610e00573d6000803e3d6000fd5b50505050506040513d601f19601f82011682018060405250810190610e2591906134ad565b90508273ffffffffffffffffffffffffffffffffffffffff16639a2056f48d8d848e6040518563ffffffff1660e01b8152600401610e6694939291906134da565b600060405180830381600087803b158015610e8057600080fd5b505af1158015610e94573d6000803e3d6000fd5b5050505080935050505098975050505050505050565b6000610ed67fdf8b4c520ffe197c5343c6f5aec59570151ef9a492f2c624fd45ddde6135ec42336112fc565b610f3b57600260009054906101000a900473ffffffffffffffffffffffffffffffffffffffff16336040517f34a54232000000000000000000000000000000000000000000000000000000008152600401610f32929190612eb5565b60405180910390fd5b6002825114610f7f576040517f08c379a0000000000000000000000000000000000000000000000000000000008152600401610f76906135c5565b60405180910390fd5b6002825114610fc957815160026040517f216aeb3f000000000000000000000000000000000000000000000000000000008152600401610fc0929190612fbc565b60405180910390fd5b6000610fd3611918565b90506000610fdf611ac6565b90508173ffffffffffffffffffffffffffffffffffffffff16639a2056f48989888a6040518563ffffffff1660e01b815260040161102094939291906134da565b600060405180830381600087803b15801561103a57600080fd5b505af115801561104e573d6000803e3d6000fd5b505050508073ffffffffffffffffffffffffffffffffffffffff1663782e2ea586866040518363ffffffff1660e01b815260040161108d9291906135e5565b600060405180830381600087803b1580156110a757600080fd5b505af11580156110bb573d6000803e3d6000fd5b50505050849250505095945050505050565b606060006110d9611918565b90508073ffffffffffffffffffffffffffffffffffffffff16636a3000c4846040518263ffffffff1660e01b81526004016111149190612a87565b600060405180830381865afa158015611131573d6000803e3d6000fd5b505050506040513d6000823e3d601f19601f8201168201806040525081019061115a9190613685565b915050919050565b60008061116d611918565b90508073ffffffffffffffffffffffffffffffffffffffff16636f50cd97846040518263ffffffff1660e01b81526004016111a89190612bf0565b602060405180830381865afa1580156111c5573d6000803e3d6000fd5b505050506040513d601f19601f820116820180604052508101906111e991906134ad565b915050919050565b7fdf8b4c520ffe197c5343c6f5aec59570151ef9a492f2c624fd45ddde6135ec4261121b81611c0a565b6112457fdf8b4c520ffe197c5343c6f5aec59570151ef9a492f2c624fd45ddde6135ec4283611c1e565b5050565b7fdf8b4c520ffe197c5343c6f5aec59570151ef9a492f2c624fd45ddde6135ec4281565b600080611278611918565b90508073ffffffffffffffffffffffffffffffffffffffff1663880bc4e6846040518263ffffffff1660e01b81526004016112b39190612a87565b602060405180830381865afa1580156112d0573d6000803e3d6000fd5b505050506040513d601f19601f820116820180604052508101906112f491906136e3565b915050919050565b600080600084815260200190815260200160002060000160008373ffffffffffffffffffffffffffffffffffffffff1673ffffffffffffffffffffffffffffffffffffffff16815260200190815260200160002060009054906101000a900460ff16905092915050565b600160149054906101000a900460ff1681565b600080611384611918565b90508073ffffffffffffffffffffffffffffffffffffffff1663a05b775f846040518263ffffffff1660e01b81526004016113bf9190612a87565b602060405180830381865afa1580156113dc573d6000803e3d6000fd5b505050506040513d601f19601f8201168201806040525081019061140091906134ad565b915050919050565b6000801b81565b60008061141a611918565b90508073ffffffffffffffffffffffffffffffffffffffff1663a2f42104846040518263ffffffff1660e01b81526004016114559190612cab565b602060405180830381865afa158015611472573d6000803e3d6000fd5b505050506040513d601f19601f8201168201806040525081019061149691906134ad565b915050919050565b6114c87fdf8b4c520ffe197c5343c6f5aec59570151ef9a492f2c624fd45ddde6135ec42336112fc565b61152d57600260009054906101000a900473ffffffffffffffffffffffffffffffffffffffff16336040517f34a54232000000000000000000000000000000000000000000000000000000008152600401611524929190612eb5565b60405180910390fd5b6000611537611ac6565b90508073ffffffffffffffffffffffffffffffffffffffff1663782e2ea584846040518363ffffffff1660e01b81526004016115749291906135e5565b600060405180830381600087803b15801561158e57600080fd5b505af11580156115a2573d6000803e3d6000fd5b50505050505050565b60006115d77fdf8b4c520ffe197c5343c6f5aec59570151ef9a492f2c624fd45ddde6135ec42336112fc565b61163c57600260009054906101000a900473ffffffffffffffffffffffffffffffffffffffff16336040517f34a54232000000000000000000000000000000000000000000000000000000008152600401611633929190612eb5565b60405180910390fd5b6000611646611918565b90508073ffffffffffffffffffffffffffffffffffffffff1663c9b2874985856040518363ffffffff1660e01b8152600401611683929190613710565b6020604051808303816000875af11580156116a2573d6000803e3d6000fd5b505050506040513d601f19601f820116820180604052508101906116c69190612e79565b91505092915050565b6116d8826109a1565b6116e181611c0a565b6116eb8383611d06565b505050565b600061171c7fdf8b4c520ffe197c5343c6f5aec59570151ef9a492f2c624fd45ddde6135ec42336112fc565b61178157600260009054906101000a900473ffffffffffffffffffffffffffffffffffffffff16336040517f34a54232000000000000000000000000000000000000000000000000000000008152600401611778929190612eb5565b60405180910390fd5b600061178b611918565b90506000611797611ac6565b90508073ffffffffffffffffffffffffffffffffffffffff16632b553551856040518263ffffffff1660e01b81526004016117d29190612a87565b600060405180830381600087803b1580156117ec57600080fd5b505af1158015611800573d6000803e3d6000fd5b505050508173ffffffffffffffffffffffffffffffffffffffff1663d964a375856040518263ffffffff1660e01b815260040161183d9190612a87565b6020604051808303816000875af115801561185c573d6000803e3d6000fd5b505050506040513d601f19601f820116820180604052508101906118809190612e79565b92505050919050565b600080611894611918565b90508073ffffffffffffffffffffffffffffffffffffffff1663f48d60ca846040518263ffffffff1660e01b81526004016118cf9190612a87565b602060405180830381865afa1580156118ec573d6000803e3d6000fd5b505050506040513d601f19601f820116820180604052508101906119109190612e79565b915050919050565b6000600160009054906101000a900473ffffffffffffffffffffffffffffffffffffffff1673ffffffffffffffffffffffffffffffffffffffff16638e8dfd16600160009054906101000a900473ffffffffffffffffffffffffffffffffffffffff1673ffffffffffffffffffffffffffffffffffffffff166372823fa76040518163ffffffff1660e01b8152600401602060405180830381865afa1580156119c5573d6000803e3d6000fd5b505050506040513d601f19601f820116820180604052508101906119e9919061374e565b600160149054906101000a900460ff166040518363ffffffff1660e01b8152600401611a1692919061377b565b602060405180830381865afa158015611a33573d6000803e3d6000fd5b505050506040513d601f19601f82011682018060405250810190611a5791906137b9565b905090565b60007f01ffc9a7000000000000000000000000000000000000000000000000000000007bffffffffffffffffffffffffffffffffffffffffffffffffffffffff1916827bffffffffffffffffffffffffffffffffffffffffffffffffffffffff1916149050919050565b6000600160009054906101000a900473ffffffffffffffffffffffffffffffffffffffff1673ffffffffffffffffffffffffffffffffffffffff16638e8dfd16600160009054906101000a900473ffffffffffffffffffffffffffffffffffffffff1673ffffffffffffffffffffffffffffffffffffffff1663977a80706040518163ffffffff1660e01b8152600401602060405180830381865afa158015611b73573d6000803e3d6000fd5b505050506040513d601f19601f82011682018060405250810190611b97919061374e565b600160149054906101000a900460ff166040518363ffffffff1660e01b8152600401611bc492919061377b565b602060405180830381865afa158015611be1573d6000803e3d6000fd5b505050506040513d601f19601f82011682018060405250810190611c0591906137b9565b905090565b611c1b81611c16611cfe565b611de7565b50565b611c2882826112fc565b611cfa57600160008084815260200190815260200160002060000160008373ffffffffffffffffffffffffffffffffffffffff1673ffffffffffffffffffffffffffffffffffffffff16815260200190815260200160002060006101000a81548160ff021916908315150217905550611c9f611cfe565b73ffffffffffffffffffffffffffffffffffffffff168173ffffffffffffffffffffffffffffffffffffffff16837f2f8788117e7eff1d82e926ec794901d17c78024a50270940304540a733656f0d60405160405180910390a45b5050565b600033905090565b611d1082826112fc565b15611de357600080600084815260200190815260200160002060000160008373ffffffffffffffffffffffffffffffffffffffff1673ffffffffffffffffffffffffffffffffffffffff16815260200190815260200160002060006101000a81548160ff021916908315150217905550611d88611cfe565b73ffffffffffffffffffffffffffffffffffffffff168173ffffffffffffffffffffffffffffffffffffffff16837ff6391f5c32d9c69d2a47ea670b442974b53935d1edc7fd64eb21e047a839171b60405160405180910390a45b5050565b611df182826112fc565b611e6857611dfe81611e6c565b611e0c8360001c6020611e99565b604051602001611e1d9291906138ba565b6040516020818303038152906040526040517f08c379a0000000000000000000000000000000000000000000000000000000008152600401611e5f919061392d565b60405180910390fd5b5050565b6060611e928273ffffffffffffffffffffffffffffffffffffffff16601460ff16611e99565b9050919050565b606060006002836002611eac919061397e565b611eb691906139c0565b67ffffffffffffffff811115611ecf57611ece6123c7565b5b6040519080825280601f01601f191660200182016040528015611f015781602001600182028036833780820191505090505b5090507f300000000000000000000000000000000000000000000000000000000000000081600081518110611f3957611f386139f4565b5b60200101907effffffffffffffffffffffffffffffffffffffffffffffffffffffffffffff1916908160001a9053507f780000000000000000000000000000000000000000000000000000000000000081600181518110611f9d57611f9c6139f4565b5b60200101907effffffffffffffffffffffffffffffffffffffffffffffffffffffffffffff1916908160001a90535060006001846002611fdd919061397e565b611fe791906139c0565b90505b6001811115612087577f3031323334353637383961626364656600000000000000000000000000000000600f861660108110612029576120286139f4565b5b1a60f81b8282815181106120405761203f6139f4565b5b60200101907effffffffffffffffffffffffffffffffffffffffffffffffffffffffffffff1916908160001a905350600485901c94508061208090613a23565b9050611fea565b50600084146120cb576040517f08c379a00000000000000000000000000000000000000000000000000000000081526004016120c290613a98565b60405180910390fd5b8091505092915050565b6000604051905090565b600080fd5b600080fd5b6000819050919050565b6120fc816120e9565b811461210757600080fd5b50565b600081359050612119816120f3565b92915050565b600060208284031215612135576121346120df565b5b60006121438482850161210a565b91505092915050565b60008115159050919050565b6121618161214c565b82525050565b600060208201905061217c6000830184612158565b92915050565b60007fffffffff0000000000000000000000000000000000000000000000000000000082169050919050565b6121b781612182565b81146121c257600080fd5b50565b6000813590506121d4816121ae565b92915050565b6000602082840312156121f0576121ef6120df565b5b60006121fe848285016121c5565b91505092915050565b6000819050919050565b61221a81612207565b811461222557600080fd5b50565b60008135905061223781612211565b92915050565b600060208284031215612253576122526120df565b5b600061226184828501612228565b91505092915050565b61227381612207565b82525050565b600060208201905061228e600083018461226a565b92915050565b600073ffffffffffffffffffffffffffffffffffffffff82169050919050565b60006122bf82612294565b9050919050565b6122cf816122b4565b81146122da57600080fd5b50565b6000813590506122ec816122c6565b92915050565b60008060408385031215612309576123086120df565b5b600061231785828601612228565b9250506020612328858286016122dd565b9150509250929050565b6000819050919050565b600061235761235261234d84612294565b612332565b612294565b9050919050565b60006123698261233c565b9050919050565b600061237b8261235e565b9050919050565b61238b81612370565b82525050565b60006020820190506123a66000830184612382565b92915050565b600080fd5b600080fd5b6000601f19601f8301169050919050565b7f4e487b7100000000000000000000000000000000000000000000000000000000600052604160045260246000fd5b6123ff826123b6565b810181811067ffffffffffffffff8211171561241e5761241d6123c7565b5b80604052505050565b60006124316120d5565b905061243d82826123f6565b919050565b600067ffffffffffffffff82111561245d5761245c6123c7565b5b612466826123b6565b9050602081019050919050565b82818337600083830152505050565b600061249561249084612442565b612427565b9050828152602081018484840111156124b1576124b06123b1565b5b6124bc848285612473565b509392505050565b600082601f8301126124d9576124d86123ac565b5b81356124e9848260208601612482565b91505092915050565b600067ffffffffffffffff82111561250d5761250c6123c7565b5b602082029050602081019050919050565b600080fd5b6000612536612531846124f2565b612427565b905080838252602082019050602084028301858111156125595761255861251e565b5b835b81811015612582578061256e888261210a565b84526020840193505060208101905061255b565b5050509392505050565b600082601f8301126125a1576125a06123ac565b5b81356125b1848260208601612523565b91505092915050565b600067ffffffffffffffff8211156125d5576125d46123c7565b5b602082029050602081019050919050565b60006125f96125f4846125ba565b612427565b9050808382526020820190506020840283018581111561261c5761261b61251e565b5b835b8181101561266357803567ffffffffffffffff811115612641576126406123ac565b5b80860161264e89826124c4565b8552602085019450505060208101905061261e565b5050509392505050565b600082601f830112612682576126816123ac565b5b81356126928482602086016125e6565b91505092915050565b600067ffffffffffffffff8211156126b6576126b56123c7565b5b602082029050602081019050919050565b60006126da6126d58461269b565b612427565b905080838252602082019050602084028301858111156126fd576126fc61251e565b5b835b8181101561274457803567ffffffffffffffff811115612722576127216123ac565b5b80860161272f898261258c565b855260208501945050506020810190506126ff565b5050509392505050565b600082601f830112612763576127626123ac565b5b81356127738482602086016126c7565b91505092915050565b600067ffffffffffffffff821115612797576127966123c7565b5b602082029050602081019050919050565b600067ffffffffffffffff8211156127c3576127c26123c7565b5b6127cc826123b6565b9050602081019050919050565b60006127ec6127e7846127a8565b612427565b905082815260208101848484011115612808576128076123b1565b5b612813848285612473565b509392505050565b600082601f8301126128305761282f6123ac565b5b81356128408482602086016127d9565b91505092915050565b600061285c6128578461277c565b612427565b9050808382526020820190506020840283018581111561287f5761287e61251e565b5b835b818110156128c657803567ffffffffffffffff8111156128a4576128a36123ac565b5b8086016128b1898261281b565b85526020850194505050602081019050612881565b5050509392505050565b600082601f8301126128e5576128e46123ac565b5b81356128f5848260208601612849565b91505092915050565b600080600080600080600080610100898b03121561291f5761291e6120df565b5b600089013567ffffffffffffffff81111561293d5761293c6120e4565b5b6129498b828c016124c4565b985050602089013567ffffffffffffffff81111561296a576129696120e4565b5b6129768b828c016124c4565b97505060406129878b828c0161210a565b965050606089013567ffffffffffffffff8111156129a8576129a76120e4565b5b6129b48b828c0161258c565b955050608089013567ffffffffffffffff8111156129d5576129d46120e4565b5b6129e18b828c0161266d565b94505060a089013567ffffffffffffffff811115612a0257612a016120e4565b5b612a0e8b828c0161266d565b93505060c089013567ffffffffffffffff811115612a2f57612a2e6120e4565b5b612a3b8b828c0161274e565b92505060e089013567ffffffffffffffff811115612a5c57612a5b6120e4565b5b612a688b828c016128d0565b9150509295985092959890939650565b612a81816120e9565b82525050565b6000602082019050612a9c6000830184612a78565b92915050565b600080600080600060a08688031215612abe57612abd6120df565b5b600086013567ffffffffffffffff811115612adc57612adb6120e4565b5b612ae8888289016124c4565b955050602086013567ffffffffffffffff811115612b0957612b086120e4565b5b612b15888289016124c4565b9450506040612b268882890161210a565b9350506060612b378882890161210a565b925050608086013567ffffffffffffffff811115612b5857612b576120e4565b5b612b64888289016128d0565b9150509295509295909350565b600081519050919050565b600082825260208201905092915050565b60005b83811015612bab578082015181840152602081019050612b90565b60008484015250505050565b6000612bc282612b71565b612bcc8185612b7c565b9350612bdc818560208601612b8d565b612be5816123b6565b840191505092915050565b60006020820190508181036000830152612c0a8184612bb7565b905092915050565b600060208284031215612c2857612c276120df565b5b600082013567ffffffffffffffff811115612c4657612c456120e4565b5b612c52848285016124c4565b91505092915050565b600060208284031215612c7157612c706120df565b5b6000612c7f848285016122dd565b91505092915050565b600067ffffffffffffffff82169050919050565b612ca581612c88565b82525050565b6000602082019050612cc06000830184612c9c565b92915050565b7f4e487b7100000000000000000000000000000000000000000000000000000000600052602160045260246000fd5b60038110612d0657612d05612cc6565b5b50565b6000819050612d1782612cf5565b919050565b6000612d2782612d09565b9050919050565b612d3781612d1c565b82525050565b6000602082019050612d526000830184612d2e565b92915050565b612d6181612c88565b8114612d6c57600080fd5b50565b600081359050612d7e81612d58565b92915050565b600060208284031215612d9a57612d996120df565b5b6000612da884828501612d6f565b91505092915050565b60008060408385031215612dc857612dc76120df565b5b6000612dd68582860161210a565b925050602083013567ffffffffffffffff811115612df757612df66120e4565b5b612e03858286016128d0565b9150509250929050565b60008060408385031215612e2457612e236120df565b5b6000612e3285828601612d6f565b9250506020612e438582860161210a565b9150509250929050565b612e568161214c565b8114612e6157600080fd5b50565b600081519050612e7381612e4d565b92915050565b600060208284031215612e8f57612e8e6120df565b5b6000612e9d84828501612e64565b91505092915050565b612eaf816122b4565b82525050565b6000604082019050612eca6000830185612ea6565b612ed76020830184612ea6565b9392505050565b600082825260208201905092915050565b7f416363657373436f6e74726f6c3a2063616e206f6e6c792072656e6f756e636560008201527f20726f6c657320666f722073656c660000000000000000000000000000000000602082015250565b6000612f4b602f83612ede565b9150612f5682612eef565b604082019050919050565b60006020820190508181036000830152612f7a81612f3e565b9050919050565b6000819050919050565b6000612fa6612fa1612f9c84612f81565b612332565b6120e9565b9050919050565b612fb681612f8b565b82525050565b6000604082019050612fd16000830185612a78565b612fde6020830184612fad565b9392505050565b600081519050919050565b600082825260208201905092915050565b6000819050602082019050919050565b61301a816120e9565b82525050565b600061302c8383613011565b60208301905092915050565b6000602082019050919050565b600061305082612fe5565b61305a8185612ff0565b935061306583613001565b8060005b8381101561309657815161307d8882613020565b975061308883613038565b925050600181019050613069565b5085935050505092915050565b600081519050919050565b600082825260208201905092915050565b6000819050602082019050919050565b600082825260208201905092915050565b60006130eb82612b71565b6130f581856130cf565b9350613105818560208601612b8d565b61310e816123b6565b840191505092915050565b600061312583836130e0565b905092915050565b6000602082019050919050565b6000613145826130a3565b61314f81856130ae565b935083602082028501613161856130bf565b8060005b8581101561319d578484038952815161317e8582613119565b94506131898361312d565b925060208a01995050600181019050613165565b50829750879550505050505092915050565b600081519050919050565b600082825260208201905092915050565b6000819050602082019050919050565b600082825260208201905092915050565b60006131f782612fe5565b61320181856131db565b935061320c83613001565b8060005b8381101561323d5781516132248882613020565b975061322f83613038565b925050600181019050613210565b5085935050505092915050565b600061325683836131ec565b905092915050565b6000602082019050919050565b6000613276826131af565b61328081856131ba565b935083602082028501613292856131cb565b8060005b858110156132ce57848403895281516132af858261324a565b94506132ba8361325e565b925060208a01995050600181019050613296565b50829750879550505050505092915050565b600081519050919050565b600082825260208201905092915050565b6000819050602082019050919050565b600081519050919050565b600082825260208201905092915050565b60006133338261330c565b61333d8185613317565b935061334d818560208601612b8d565b613356816123b6565b840191505092915050565b600061336d8383613328565b905092915050565b6000602082019050919050565b600061338d826132e0565b61339781856132eb565b9350836020820285016133a9856132fc565b8060005b858110156133e557848403895281516133c68582613361565b94506133d183613375565b925060208a019950506001810190506133ad565b50829750879550505050505092915050565b60006101008201905061340d600083018b612fad565b818103602083015261341f818a613045565b90508181036040830152613433818961313a565b90508181036060830152613447818861313a565b9050818103608083015261345b818761326b565b905081810360a083015261346f8186613382565b905061347e60c0830185612158565b61348b60e0830184612158565b9998505050505050505050565b6000815190506134a7816120f3565b92915050565b6000602082840312156134c3576134c26120df565b5b60006134d184828501613498565b91505092915050565b600060808201905081810360008301526134f48187612bb7565b905081810360208301526135088186612bb7565b90506135176040830185612a78565b6135246060830184612a78565b95945050505050565b7f446f6d61696e57616c6c657452656769737472793a206d65746164617461206e60008201527f616d6520616e642075726c206d7573742062652073657420696e206d6574616460208201527f6174610000000000000000000000000000000000000000000000000000000000604082015250565b60006135af604383612ede565b91506135ba8261352d565b606082019050919050565b600060208201905081810360008301526135de816135a2565b9050919050565b60006040820190506135fa6000830185612a78565b818103602083015261360c8184613382565b90509392505050565b600061362861362384612442565b612427565b905082815260208101848484011115613644576136436123b1565b5b61364f848285612b8d565b509392505050565b600082601f83011261366c5761366b6123ac565b5b815161367c848260208601613615565b91505092915050565b60006020828403121561369b5761369a6120df565b5b600082015167ffffffffffffffff8111156136b9576136b86120e4565b5b6136c584828501613657565b91505092915050565b6000815190506136dd81612d58565b92915050565b6000602082840312156136f9576136f86120df565b5b6000613707848285016136ce565b91505092915050565b60006040820190506137256000830185612c9c565b6137326020830184612a78565b9392505050565b60008151905061374881612211565b92915050565b600060208284031215613764576137636120df565b5b600061377284828501613739565b91505092915050565b6000604082019050613790600083018561226a565b61379d6020830184612d2e565b9392505050565b6000815190506137b3816122c6565b92915050565b6000602082840312156137cf576137ce6120df565b5b60006137dd848285016137a4565b91505092915050565b600081905092915050565b7f416363657373436f6e74726f6c3a206163636f756e7420000000000000000000600082015250565b60006138276017836137e6565b9150613832826137f1565b601782019050919050565b60006138488261330c565b61385281856137e6565b9350613862818560208601612b8d565b80840191505092915050565b7f206973206d697373696e6720726f6c6520000000000000000000000000000000600082015250565b60006138a46011836137e6565b91506138af8261386e565b601182019050919050565b60006138c58261381a565b91506138d1828561383d565b91506138dc82613897565b91506138e8828461383d565b91508190509392505050565b60006138ff8261330c565b6139098185612ede565b9350613919818560208601612b8d565b613922816123b6565b840191505092915050565b6000602082019050818103600083015261394781846138f4565b905092915050565b7f4e487b7100000000000000000000000000000000000000000000000000000000600052601160045260246000fd5b6000613989826120e9565b9150613994836120e9565b92508282026139a2816120e9565b915082820484148315176139b9576139b861394f565b5b5092915050565b60006139cb826120e9565b91506139d6836120e9565b92508282019050808211156139ee576139ed61394f565b5b92915050565b7f4e487b7100000000000000000000000000000000000000000000000000000000600052603260045260246000fd5b6000613a2e826120e9565b915060008203613a4157613a4061394f565b5b600182039050919050565b7f537472696e67733a20686578206c656e67746820696e73756666696369656e74600082015250565b6000613a82602083612ede565b9150613a8d82613a4c565b602082019050919050565b60006020820190508181036000830152613ab181613a75565b905091905056fea264697066735822122097b1daaafeaad3657b9082e63ef5e68b4d87fdd5c849274c09c8d4c4955ff5ca64736f6c63430008110033",
  "linkReferences": {},
  "deployedLinkReferences": {}
}