{
  "_format": "hh-sol-artifact-1",
  "contractName": "DomainWalletOracle",
  "sourceName": "contracts/domain-wallets/DomainWalletOracle.sol",
  "abi": [
    {
      "inputs": [
        {
          "internalType": "address",
          "name": "_contractResolver",
          "type": "address"
        },
        {
          "internalType": "enum ContractResolver.Env",
          "name": "_env",
          "type": "uint8"
        }
      ],
      "stateMutability": "nonpayable",
      "type": "constructor"
    },
    {
      "inputs": [
        {
          "internalType": "bytes",
          "name": "uri",
          "type": "bytes"
        },
        {
          "internalType": "uint256",
          "name": "pkpTokenId",
          "type": "uint256"
        }
      ],
      "name": "DomainAlreadyRegistered",
      "type": "error"
    },
    {
      "inputs": [
        {
          "internalType": "address",
          "name": "registryAddress",
          "type": "address"
        },
        {
          "internalType": "address",
          "name": "account",
          "type": "address"
        }
      ],
      "name": "NonRegistryCaller",
      "type": "error"
    },
    {
      "anonymous": false,
      "inputs": [
        {
          "indexed": false,
          "internalType": "bytes",
          "name": "subDomain",
          "type": "bytes"
        },
        {
          "indexed": false,
          "internalType": "uint256",
          "name": "tokenId",
          "type": "uint256"
        },
        {
          "indexed": false,
          "internalType": "uint256",
          "name": "ttl",
          "type": "uint256"
        }
      ],
      "name": "Expired",
      "type": "event"
    },
    {
      "anonymous": false,
      "inputs": [
        {
          "indexed": false,
          "internalType": "uint64",
          "name": "id",
          "type": "uint64"
        },
        {
          "indexed": false,
          "internalType": "bytes",
          "name": "subDomain",
          "type": "bytes"
        },
        {
          "indexed": false,
          "internalType": "uint256",
          "name": "ttl",
          "type": "uint256"
        },
        {
          "indexed": false,
          "internalType": "uint256",
          "name": "tokenId",
          "type": "uint256"
        }
      ],
      "name": "Registered",
      "type": "event"
    },
    {
      "anonymous": false,
      "inputs": [
        {
          "indexed": false,
          "internalType": "uint256",
          "name": "tokenId",
          "type": "uint256"
        },
        {
          "indexed": false,
          "internalType": "bytes",
          "name": "subDomain",
          "type": "bytes"
        }
      ],
      "name": "Removed",
      "type": "event"
    },
    {
      "anonymous": false,
      "inputs": [
        {
          "indexed": false,
          "internalType": "uint256",
          "name": "tokenId",
          "type": "uint256"
        },
        {
          "indexed": false,
          "internalType": "bytes",
          "name": "subDomain",
          "type": "bytes"
        }
      ],
      "name": "Revoked",
      "type": "event"
    },
    {
      "anonymous": false,
      "inputs": [
        {
          "indexed": true,
          "internalType": "bytes32",
          "name": "role",
          "type": "bytes32"
        },
        {
          "indexed": true,
          "internalType": "bytes32",
          "name": "previousAdminRole",
          "type": "bytes32"
        },
        {
          "indexed": true,
          "internalType": "bytes32",
          "name": "newAdminRole",
          "type": "bytes32"
        }
      ],
      "name": "RoleAdminChanged",
      "type": "event"
    },
    {
      "anonymous": false,
      "inputs": [
        {
          "indexed": true,
          "internalType": "bytes32",
          "name": "role",
          "type": "bytes32"
        },
        {
          "indexed": true,
          "internalType": "address",
          "name": "account",
          "type": "address"
        },
        {
          "indexed": true,
          "internalType": "address",
          "name": "sender",
          "type": "address"
        }
      ],
      "name": "RoleGranted",
      "type": "event"
    },
    {
      "anonymous": false,
      "inputs": [
        {
          "indexed": true,
          "internalType": "bytes32",
          "name": "role",
          "type": "bytes32"
        },
        {
          "indexed": true,
          "internalType": "address",
          "name": "account",
          "type": "address"
        },
        {
          "indexed": true,
          "internalType": "address",
          "name": "sender",
          "type": "address"
        }
      ],
      "name": "RoleRevoked",
      "type": "event"
    },
    {
      "inputs": [],
      "name": "ADMIN_ROLE",
      "outputs": [
        {
          "internalType": "bytes32",
          "name": "",
          "type": "bytes32"
        }
      ],
      "stateMutability": "view",
      "type": "function"
    },
    {
      "inputs": [],
      "name": "DEFAULT_ADMIN_ROLE",
      "outputs": [
        {
          "internalType": "bytes32",
          "name": "",
          "type": "bytes32"
        }
      ],
      "stateMutability": "view",
      "type": "function"
    },
    {
      "inputs": [
        {
          "internalType": "bytes",
          "name": "uri",
          "type": "bytes"
        }
      ],
      "name": "checkRegistration",
      "outputs": [],
      "stateMutability": "view",
      "type": "function"
    },
    {
      "inputs": [],
      "name": "contractResolver",
      "outputs": [
        {
          "internalType": "contract ContractResolver",
          "name": "",
          "type": "address"
        }
      ],
      "stateMutability": "view",
      "type": "function"
    },
    {
      "inputs": [],
      "name": "env",
      "outputs": [
        {
          "internalType": "enum ContractResolver.Env",
          "name": "",
          "type": "uint8"
        }
      ],
      "stateMutability": "view",
      "type": "function"
    },
    {
      "inputs": [
        {
          "internalType": "uint256",
          "name": "pkpTokenId",
          "type": "uint256"
        }
      ],
      "name": "getDomainIdByTokenId",
      "outputs": [
        {
          "internalType": "uint64",
          "name": "",
          "type": "uint64"
        }
      ],
      "stateMutability": "view",
      "type": "function"
    },
    {
      "inputs": [
        {
          "internalType": "bytes",
          "name": "uri",
          "type": "bytes"
        }
      ],
      "name": "getDomainTokenIdByUri",
      "outputs": [
        {
          "internalType": "uint256",
          "name": "",
          "type": "uint256"
        }
      ],
      "stateMutability": "view",
      "type": "function"
    },
    {
      "inputs": [
        {
          "internalType": "uint256",
          "name": "pkpTokenId",
          "type": "uint256"
        }
      ],
      "name": "getDomainUri",
      "outputs": [
        {
          "internalType": "bytes",
          "name": "",
          "type": "bytes"
        }
      ],
      "stateMutability": "view",
      "type": "function"
    },
    {
      "inputs": [
        {
          "internalType": "uint256",
          "name": "pkpTokenId",
          "type": "uint256"
        }
      ],
      "name": "getExpiration",
      "outputs": [
        {
          "internalType": "uint256",
          "name": "",
          "type": "uint256"
        }
      ],
      "stateMutability": "view",
      "type": "function"
    },
    {
      "inputs": [
        {
          "internalType": "uint64",
          "name": "id",
          "type": "uint64"
        }
      ],
      "name": "getPkpTokenId",
      "outputs": [
        {
          "internalType": "uint256",
          "name": "",
          "type": "uint256"
        }
      ],
      "stateMutability": "view",
      "type": "function"
    },
    {
      "inputs": [
        {
          "internalType": "uint256",
          "name": "pkpTokenId",
          "type": "uint256"
        }
      ],
      "name": "getRecord",
      "outputs": [
        {
          "internalType": "bytes",
          "name": "",
          "type": "bytes"
        }
      ],
      "stateMutability": "view",
      "type": "function"
    },
    {
      "inputs": [
        {
          "internalType": "bytes32",
          "name": "role",
          "type": "bytes32"
        }
      ],
      "name": "getRoleAdmin",
      "outputs": [
        {
          "internalType": "bytes32",
          "name": "",
          "type": "bytes32"
        }
      ],
      "stateMutability": "view",
      "type": "function"
    },
    {
      "inputs": [
        {
          "internalType": "bytes32",
          "name": "role",
          "type": "bytes32"
        },
        {
          "internalType": "address",
          "name": "account",
          "type": "address"
        }
      ],
      "name": "grantRole",
      "outputs": [],
      "stateMutability": "nonpayable",
      "type": "function"
    },
    {
      "inputs": [
        {
          "internalType": "uint256",
          "name": "pkpTokenId",
          "type": "uint256"
        }
      ],
      "name": "hasExpired",
      "outputs": [
        {
          "internalType": "bool",
          "name": "",
          "type": "bool"
        }
      ],
      "stateMutability": "nonpayable",
      "type": "function"
    },
    {
      "inputs": [
        {
          "internalType": "uint256",
          "name": "pkpTokenId",
          "type": "uint256"
        }
      ],
      "name": "hasOwner",
      "outputs": [
        {
          "internalType": "bool",
          "name": "",
          "type": "bool"
        }
      ],
      "stateMutability": "view",
      "type": "function"
    },
    {
      "inputs": [
        {
          "internalType": "bytes32",
          "name": "role",
          "type": "bytes32"
        },
        {
          "internalType": "address",
          "name": "account",
          "type": "address"
        }
      ],
      "name": "hasRole",
      "outputs": [
        {
          "internalType": "bool",
          "name": "",
          "type": "bool"
        }
      ],
      "stateMutability": "view",
      "type": "function"
    },
    {
      "inputs": [
        {
          "internalType": "uint256",
          "name": "pkpTokenId",
          "type": "uint256"
        }
      ],
      "name": "isOwner",
      "outputs": [
        {
          "internalType": "bool",
          "name": "",
          "type": "bool"
        }
      ],
      "stateMutability": "view",
      "type": "function"
    },
    {
      "inputs": [
        {
          "internalType": "uint256",
          "name": "pkpTokenId",
          "type": "uint256"
        }
      ],
      "name": "isRouted",
      "outputs": [
        {
          "internalType": "bool",
          "name": "",
          "type": "bool"
        }
      ],
      "stateMutability": "view",
      "type": "function"
    },
    {
      "inputs": [
        {
          "internalType": "bytes",
          "name": "userId",
          "type": "bytes"
        },
        {
          "internalType": "bytes",
          "name": "uri",
          "type": "bytes"
        },
        {
          "internalType": "uint256",
          "name": "pkpTokenId",
          "type": "uint256"
        },
        {
          "internalType": "uint256",
          "name": "ttl",
          "type": "uint256"
        }
      ],
      "name": "registerDomain",
      "outputs": [],
      "stateMutability": "nonpayable",
      "type": "function"
    },
    {
      "inputs": [
        {
          "internalType": "uint64",
          "name": "id",
          "type": "uint64"
        },
        {
          "internalType": "uint256",
          "name": "pkpTokenId",
          "type": "uint256"
        }
      ],
      "name": "registerPKP",
      "outputs": [
        {
          "internalType": "bool",
          "name": "",
          "type": "bool"
        }
      ],
      "stateMutability": "nonpayable",
      "type": "function"
    },
    {
      "inputs": [
        {
          "internalType": "uint256",
          "name": "pkpTokenId",
          "type": "uint256"
        }
      ],
      "name": "removeDomain",
      "outputs": [
        {
          "internalType": "bool",
          "name": "",
          "type": "bool"
        }
      ],
      "stateMutability": "nonpayable",
      "type": "function"
    },
    {
      "inputs": [
        {
          "internalType": "bytes32",
          "name": "role",
          "type": "bytes32"
        },
        {
          "internalType": "address",
          "name": "account",
          "type": "address"
        }
      ],
      "name": "renounceRole",
      "outputs": [],
      "stateMutability": "nonpayable",
      "type": "function"
    },
    {
      "inputs": [
        {
          "internalType": "uint256",
          "name": "pkpTokenId",
          "type": "uint256"
        }
      ],
      "name": "revokeDomain",
      "outputs": [
        {
          "internalType": "bool",
          "name": "",
          "type": "bool"
        }
      ],
      "stateMutability": "nonpayable",
      "type": "function"
    },
    {
      "inputs": [
        {
          "internalType": "bytes32",
          "name": "role",
          "type": "bytes32"
        },
        {
          "internalType": "address",
          "name": "account",
          "type": "address"
        }
      ],
      "name": "revokeRole",
      "outputs": [],
      "stateMutability": "nonpayable",
      "type": "function"
    },
    {
      "inputs": [
        {
          "internalType": "address",
          "name": "acct",
          "type": "address"
        }
      ],
      "name": "setAdmin",
      "outputs": [],
      "stateMutability": "nonpayable",
      "type": "function"
    },
    {
      "inputs": [
        {
          "internalType": "bytes4",
          "name": "interfaceId",
          "type": "bytes4"
        }
      ],
      "name": "supportsInterface",
      "outputs": [
        {
          "internalType": "bool",
          "name": "",
          "type": "bool"
        }
      ],
      "stateMutability": "view",
      "type": "function"
    },
    {
      "inputs": [
        {
          "internalType": "uint256",
          "name": "pkpTokenId",
          "type": "uint256"
        },
        {
          "internalType": "bytes",
          "name": "record",
          "type": "bytes"
        }
      ],
      "name": "updateDomainRecord",
      "outputs": [
        {
          "internalType": "bool",
          "name": "",
          "type": "bool"
        }
      ],
      "stateMutability": "nonpayable",
      "type": "function"
    }
  ],
  "bytecode": "0x6080604052600060045560006005556000600660006101000a81548167ffffffffffffffff021916908367ffffffffffffffff1602179055503480156200004557600080fd5b5060405162003b9e38038062003b9e83398181016040528101906200006b91906200036b565b81600760006101000a81548173ffffffffffffffffffffffffffffffffffffffff021916908373ffffffffffffffffffffffffffffffffffffffff16021790555080600760146101000a81548160ff02191690836002811115620000d457620000d3620003b2565b5b021790555033600660086101000a81548173ffffffffffffffffffffffffffffffffffffffff021916908373ffffffffffffffffffffffffffffffffffffffff1602179055506200016e7fdf8b4c520ffe197c5343c6f5aec59570151ef9a492f2c624fd45ddde6135ec42600660089054906101000a900473ffffffffffffffffffffffffffffffffffffffff166200017660201b60201c565b5050620003e1565b6200018882826200026760201b60201c565b6200026357600160008084815260200190815260200160002060000160008373ffffffffffffffffffffffffffffffffffffffff1673ffffffffffffffffffffffffffffffffffffffff16815260200190815260200160002060006101000a81548160ff02191690831515021790555062000208620002d160201b60201c565b73ffffffffffffffffffffffffffffffffffffffff168173ffffffffffffffffffffffffffffffffffffffff16837f2f8788117e7eff1d82e926ec794901d17c78024a50270940304540a733656f0d60405160405180910390a45b5050565b600080600084815260200190815260200160002060000160008373ffffffffffffffffffffffffffffffffffffffff1673ffffffffffffffffffffffffffffffffffffffff16815260200190815260200160002060009054906101000a900460ff16905092915050565b600033905090565b600080fd5b600073ffffffffffffffffffffffffffffffffffffffff82169050919050565b60006200030b82620002de565b9050919050565b6200031d81620002fe565b81146200032957600080fd5b50565b6000815190506200033d8162000312565b92915050565b600381106200035157600080fd5b50565b600081519050620003658162000343565b92915050565b60008060408385031215620003855762000384620002d9565b5b600062000395858286016200032c565b9250506020620003a88582860162000354565b9150509250929050565b7f4e487b7100000000000000000000000000000000000000000000000000000000600052602160045260246000fd5b6137ad80620003f16000396000f3fe608060405234801561001057600080fd5b50600436106101a95760003560e01c80636f50cd97116100f9578063a05b775f11610097578063c9b2874911610071578063c9b2874914610552578063d547741f14610582578063d964a3751461059e578063f48d60ca146105ce576101a9565b8063a05b775f146104d4578063a217fddf14610504578063a2f4210414610522576101a9565b8063880bc4e6116100d3578063880bc4e61461043a57806391d148541461046a5780639a2056f41461049a5780639dca0032146104b6576101a9565b80636f50cd97146103d0578063704b6c021461040057806375b238fc1461041c576101a9565b806327bd069e1161016657806339c7639c1161014057806339c7639c1461032257806349fcbc541461035257806350d17b5e146103825780636a3000c4146103a0576101a9565b806327bd069e146102ce5780632f2ff15d146102ea57806336568abe14610306576101a9565b806301c6d035146101ae57806301ffc9a7146101de57806303e9e6091461020e57806306985fb11461023e57806315d464741461026e578063248a9ca31461029e575b600080fd5b6101c860048036038101906101c391906122eb565b6105fe565b6040516101d59190612333565b60405180910390f35b6101f860048036038101906101f391906123a6565b61062b565b6040516102059190612333565b60405180910390f35b610228600480360381019061022391906122eb565b6106a5565b6040516102359190612463565b60405180910390f35b610258600480360381019061025391906125ba565b61074d565b6040516102659190612333565b60405180910390f35b610288600480360381019061028391906122eb565b6108e2565b6040516102959190612333565b60405180910390f35b6102b860048036038101906102b3919061264c565b610ca3565b6040516102c59190612688565b60405180910390f35b6102e860048036038101906102e391906126a3565b610cc2565b005b61030460048036038101906102ff919061274a565b610d48565b005b610320600480360381019061031b919061274a565b610d69565b005b61033c600480360381019061033791906122eb565b610dec565b6040516103499190612333565b60405180910390f35b61036c600480360381019061036791906122eb565b610e19565b6040516103799190612333565b60405180910390f35b61038a610f39565b60405161039791906127e9565b60405180910390f35b6103ba60048036038101906103b591906122eb565b610f5f565b6040516103c79190612463565b60405180910390f35b6103ea60048036038101906103e591906126a3565b611007565b6040516103f79190612813565b60405180910390f35b61041a6004803603810190610415919061282e565b61102f565b005b6104246110c8565b6040516104319190612688565b60405180910390f35b610454600480360381019061044f91906122eb565b6110ec565b604051610461919061287e565b60405180910390f35b610484600480360381019061047f919061274a565b611120565b6040516104919190612333565b60405180910390f35b6104b460048036038101906104af9190612899565b61118a565b005b6104be61165f565b6040516104cb91906129af565b60405180910390f35b6104ee60048036038101906104e991906122eb565b611672565b6040516104fb9190612813565b60405180910390f35b61050c611692565b6040516105199190612688565b60405180910390f35b61053c600480360381019061053791906129f6565b611699565b6040516105499190612813565b60405180910390f35b61056c60048036038101906105679190612a23565b6116e3565b6040516105799190612333565b60405180910390f35b61059c6004803603810190610597919061274a565b611820565b005b6105b860048036038101906105b391906122eb565b611841565b6040516105c59190612333565b60405180910390f35b6105e860048036038101906105e391906122eb565b611b9e565b6040516105f59190612333565b60405180910390f35b60006002600083815260200190815260200160002060050160019054906101000a900460ff169050919050565b60007f7965db0b000000000000000000000000000000000000000000000000000000007bffffffffffffffffffffffffffffffffffffffffffffffffffffffff1916827bffffffffffffffffffffffffffffffffffffffffffffffffffffffff1916148061069e575061069d82611bcb565b5b9050919050565b60606002600083815260200190815260200160002060060180546106c890612a92565b80601f01602080910402602001604051908101604052809291908181526020018280546106f490612a92565b80156107415780601f1061071657610100808354040283529160200191610741565b820191906000526020600020905b81548152906001019060200180831161072457829003601f168201915b50505050509050919050565b6000610757611c35565b73ffffffffffffffffffffffffffffffffffffffff163373ffffffffffffffffffffffffffffffffffffffff16141580156107b957506107b77fdf8b4c520ffe197c5343c6f5aec59570151ef9a492f2c624fd45ddde6135ec4233611120565b155b15610804576107c6611c35565b336040517f3274939c0000000000000000000000000000000000000000000000000000000081526004016107fb929190612ad2565b60405180910390fd5b600015156002600085815260200190815260200160002060050160009054906101000a900460ff1615150361083c57600090506108dc565b8160026000858152602001908152602001600020600601908161085f9190612c9d565b5060026000848152602001908152602001600020600601600160006002600087815260200190815260200160002060010160009054906101000a900467ffffffffffffffff1667ffffffffffffffff1667ffffffffffffffff16815260200190815260200160002060060190816108d69190612d9a565b50600190505b92915050565b60006108ec611c35565b73ffffffffffffffffffffffffffffffffffffffff163373ffffffffffffffffffffffffffffffffffffffff161415801561094e575061094c7fdf8b4c520ffe197c5343c6f5aec59570151ef9a492f2c624fd45ddde6135ec4233611120565b155b156109995761095b611c35565b336040517f3274939c000000000000000000000000000000000000000000000000000000008152600401610990929190612ad2565b60405180910390fd5b600015156002600084815260200190815260200160002060050160009054906101000a900460ff161515036109d15760009050610c9e565b60006002600084815260200190815260200160002060010160009054906101000a900467ffffffffffffffff1690506002600084815260200190815260200160002060008082016000610a249190612244565b6001820160006101000a81549067ffffffffffffffff02191690556002820160009055600382016000610a579190612244565b60048201600090556005820160006101000a81549060ff02191690556005820160016101000a81549060ff0219169055600682016000610a979190612244565b50506003600160008367ffffffffffffffff1667ffffffffffffffff168152602001908152602001600020600301604051610ad29190612f10565b9081526020016040518091039020600090556000600160008367ffffffffffffffff1667ffffffffffffffff16815260200190815260200160002060050160016101000a81548160ff0219169083151502179055506000600160008367ffffffffffffffff1667ffffffffffffffff16815260200190815260200160002060050160006101000a81548160ff0219169083151502179055506000600160008367ffffffffffffffff1667ffffffffffffffff168152602001908152602001600020600201819055506040518060400160405280600181526020016000815250600160008367ffffffffffffffff1667ffffffffffffffff1681526020019081526020016000206000019081610be79190612f32565b506040518060400160405280600181526020016000815250600160008367ffffffffffffffff1667ffffffffffffffff1681526020019081526020016000206006019081610c359190612f32565b507fd4a95e28367a3ce6694042b01d34e7ba0198bcdaca1ffb38eaec9898c748b0ad81600160008467ffffffffffffffff1667ffffffffffffffff168152602001908152602001600020600001604051610c909291906130b9565b60405180910390a160019150505b919050565b6000806000838152602001908152602001600020600101549050919050565b6000600382604051610cd4919061311a565b90815260200160405180910390205414610d455780600382604051610cf9919061311a565b9081526020016040518091039020546040517f3bcbf6c4000000000000000000000000000000000000000000000000000000008152600401610d3c929190613131565b60405180910390fd5b50565b610d5182610ca3565b610d5a81611d79565b610d648383611d8d565b505050565b610d71611e6d565b73ffffffffffffffffffffffffffffffffffffffff168173ffffffffffffffffffffffffffffffffffffffff1614610dde576040517f08c379a0000000000000000000000000000000000000000000000000000000008152600401610dd5906131e4565b60405180910390fd5b610de88282611e75565b5050565b60006002600083815260200190815260200160002060050160019054906101000a900460ff169050919050565b600080600260008481526020019081526020016000206004015490506000600260008581526020019081526020016000206003018054610e5890612a92565b80601f0160208091040260200160405190810160405280929190818152602001828054610e8490612a92565b8015610ed15780601f10610ea657610100808354040283529160200191610ed1565b820191906000526020600020905b815481529060010190602001808311610eb457829003601f168201915b50505050509050600042831090508015610f2c577fb2363f688f7b32557c64bff90081959f0bb6c24f09ca465424c5afc5854dc58d828685604051610f1893929190613204565b60405180910390a160019350505050610f34565b600093505050505b919050565b600760009054906101000a900473ffffffffffffffffffffffffffffffffffffffff1681565b6060600260008381526020019081526020016000206003018054610f8290612a92565b80601f0160208091040260200160405190810160405280929190818152602001828054610fae90612a92565b8015610ffb5780601f10610fd057610100808354040283529160200191610ffb565b820191906000526020600020905b815481529060010190602001808311610fde57829003601f168201915b50505050509050919050565b6000600382604051611019919061311a565b9081526020016040518091039020549050919050565b7fdf8b4c520ffe197c5343c6f5aec59570151ef9a492f2c624fd45ddde6135ec4261105981611d79565b6110837fdf8b4c520ffe197c5343c6f5aec59570151ef9a492f2c624fd45ddde6135ec4283611d8d565b81600660086101000a81548173ffffffffffffffffffffffffffffffffffffffff021916908373ffffffffffffffffffffffffffffffffffffffff1602179055505050565b7fdf8b4c520ffe197c5343c6f5aec59570151ef9a492f2c624fd45ddde6135ec4281565b60006002600083815260200190815260200160002060010160009054906101000a900467ffffffffffffffff169050919050565b600080600084815260200190815260200160002060000160008373ffffffffffffffffffffffffffffffffffffffff1673ffffffffffffffffffffffffffffffffffffffff16815260200190815260200160002060009054906101000a900460ff16905092915050565b611192611c35565b73ffffffffffffffffffffffffffffffffffffffff163373ffffffffffffffffffffffffffffffffffffffff16141580156111f457506111f27fdf8b4c520ffe197c5343c6f5aec59570151ef9a492f2c624fd45ddde6135ec4233611120565b155b1561123f57611201611c35565b336040517f3274939c000000000000000000000000000000000000000000000000000000008152600401611236929190612ad2565b60405180910390fd5b6000600384604051611251919061311a565b908152602001604051809103902054146112c25782600384604051611276919061311a565b9081526020016040518091039020546040517f3bcbf6c40000000000000000000000000000000000000000000000000000000081526004016112b9929190613131565b60405180910390fd5b6001600660009054906101000a900467ffffffffffffffff166112e59190613271565b600660006101000a81548167ffffffffffffffff021916908367ffffffffffffffff1602179055506000600660009054906101000a900467ffffffffffffffff16905084600160008367ffffffffffffffff1667ffffffffffffffff168152602001908152602001600020600001908161135f9190612c9d565b5082600160008367ffffffffffffffff1667ffffffffffffffff1681526020019081526020016000206002018190555083600160008367ffffffffffffffff1667ffffffffffffffff16815260200190815260200160002060030190816113c69190612c9d565b5081600160008367ffffffffffffffff1667ffffffffffffffff1681526020019081526020016000206004018190555060018060008367ffffffffffffffff1667ffffffffffffffff16815260200190815260200160002060050160016101000a81548160ff02191690831515021790555060018060008367ffffffffffffffff1667ffffffffffffffff16815260200190815260200160002060050160006101000a81548160ff02191690831515021790555080600160008367ffffffffffffffff1667ffffffffffffffff16815260200190815260200160002060010160006101000a81548167ffffffffffffffff021916908367ffffffffffffffff160217905550600160008267ffffffffffffffff1667ffffffffffffffff168152602001908152602001600020600260008581526020019081526020016000206000820181600001908161151991906132c3565b506001820160009054906101000a900467ffffffffffffffff168160010160006101000a81548167ffffffffffffffff021916908367ffffffffffffffff160217905550600282015481600201556003820181600301908161157b91906132c3565b50600482015481600401556005820160009054906101000a900460ff168160050160006101000a81548160ff0219169083151502179055506005820160019054906101000a900460ff168160050160016101000a81548160ff021916908315150217905550600682018160060190816115f491906132c3565b5090505082600385604051611609919061311a565b9081526020016040518091039020819055507fc276b207558b882d6e0e49fc3e221e9fd140cced79dd16fae88e0de97f4a2f0d8186848660405161165094939291906133ab565b60405180910390a15050505050565b600760149054906101000a900460ff1681565b600060026000838152602001908152602001600020600401549050919050565b6000801b81565b600060026000600160008567ffffffffffffffff1667ffffffffffffffff168152602001908152602001600020600201548152602001908152602001600020600201549050919050565b60006116ed611c35565b73ffffffffffffffffffffffffffffffffffffffff163373ffffffffffffffffffffffffffffffffffffffff161415801561174f575061174d7fdf8b4c520ffe197c5343c6f5aec59570151ef9a492f2c624fd45ddde6135ec4233611120565b155b1561179a5761175c611c35565b336040517f3274939c000000000000000000000000000000000000000000000000000000008152600401611791929190612ad2565b60405180910390fd5b60001515600160008567ffffffffffffffff1667ffffffffffffffff16815260200190815260200160002060050160009054906101000a900460ff161515036117e6576000905061181a565b81600160008567ffffffffffffffff1667ffffffffffffffff16815260200190815260200160002060020181905550600190505b92915050565b61182982610ca3565b61183281611d79565b61183c8383611e75565b505050565b600061184b611c35565b73ffffffffffffffffffffffffffffffffffffffff163373ffffffffffffffffffffffffffffffffffffffff16141580156118ad57506118ab7fdf8b4c520ffe197c5343c6f5aec59570151ef9a492f2c624fd45ddde6135ec4233611120565b155b156118f8576118ba611c35565b336040517f3274939c0000000000000000000000000000000000000000000000000000000081526004016118ef929190612ad2565b60405180910390fd5b600015156002600084815260200190815260200160002060050160019054906101000a900460ff161515036119305760009050611b99565b60006002600084815260200190815260200160002060050160016101000a81548160ff0219169083151502179055506000600260008481526020019081526020016000206002018190555060405180604001604052806001815260200160008152506002600084815260200190815260200160002060000190816119b49190612f32565b5060405180604001604052806001815260200160008152506002600084815260200190815260200160002060060190816119ee9190612f32565b5060026000838152602001908152602001600020600160006002600086815260200190815260200160002060010160009054906101000a900467ffffffffffffffff1667ffffffffffffffff1667ffffffffffffffff16815260200190815260200160002060008201816000019081611a6791906132c3565b506001820160009054906101000a900467ffffffffffffffff168160010160006101000a81548167ffffffffffffffff021916908367ffffffffffffffff1602179055506002820154816002015560038201816003019081611ac991906132c3565b50600482015481600401556005820160009054906101000a900460ff168160050160006101000a81548160ff0219169083151502179055506005820160019054906101000a900460ff168160050160016101000a81548160ff02191690831515021790555060068201816006019081611b4291906132c3565b509050507fae179513beb9b19a22a2c82f794dfd4d379cbbd2e7e95c744a1ea89ad20032f78260026000858152602001908152602001600020600301604051611b8c9291906133f7565b60405180910390a1600190505b919050565b60006002600083815260200190815260200160002060050160019054906101000a900460ff169050919050565b60007f01ffc9a7000000000000000000000000000000000000000000000000000000007bffffffffffffffffffffffffffffffffffffffffffffffffffffffff1916827bffffffffffffffffffffffffffffffffffffffffffffffffffffffff1916149050919050565b6000600760009054906101000a900473ffffffffffffffffffffffffffffffffffffffff1673ffffffffffffffffffffffffffffffffffffffff16638e8dfd16600760009054906101000a900473ffffffffffffffffffffffffffffffffffffffff1673ffffffffffffffffffffffffffffffffffffffff16634216e73a6040518163ffffffff1660e01b8152600401602060405180830381865afa158015611ce2573d6000803e3d6000fd5b505050506040513d601f19601f82011682018060405250810190611d06919061343c565b600760149054906101000a900460ff166040518363ffffffff1660e01b8152600401611d33929190613469565b602060405180830381865afa158015611d50573d6000803e3d6000fd5b505050506040513d601f19601f82011682018060405250810190611d7491906134a7565b905090565b611d8a81611d85611e6d565b611f56565b50565b611d978282611120565b611e6957600160008084815260200190815260200160002060000160008373ffffffffffffffffffffffffffffffffffffffff1673ffffffffffffffffffffffffffffffffffffffff16815260200190815260200160002060006101000a81548160ff021916908315150217905550611e0e611e6d565b73ffffffffffffffffffffffffffffffffffffffff168173ffffffffffffffffffffffffffffffffffffffff16837f2f8788117e7eff1d82e926ec794901d17c78024a50270940304540a733656f0d60405160405180910390a45b5050565b600033905090565b611e7f8282611120565b15611f5257600080600084815260200190815260200160002060000160008373ffffffffffffffffffffffffffffffffffffffff1673ffffffffffffffffffffffffffffffffffffffff16815260200190815260200160002060006101000a81548160ff021916908315150217905550611ef7611e6d565b73ffffffffffffffffffffffffffffffffffffffff168173ffffffffffffffffffffffffffffffffffffffff16837ff6391f5c32d9c69d2a47ea670b442974b53935d1edc7fd64eb21e047a839171b60405160405180910390a45b5050565b611f608282611120565b611fd757611f6d81611fdb565b611f7b8360001c6020612008565b604051602001611f8c9291906135a8565b6040516020818303038152906040526040517f08c379a0000000000000000000000000000000000000000000000000000000008152600401611fce919061361b565b60405180910390fd5b5050565b60606120018273ffffffffffffffffffffffffffffffffffffffff16601460ff16612008565b9050919050565b60606000600283600261201b919061363d565b612025919061367f565b67ffffffffffffffff81111561203e5761203d61248f565b5b6040519080825280601f01601f1916602001820160405280156120705781602001600182028036833780820191505090505b5090507f3000000000000000000000000000000000000000000000000000000000000000816000815181106120a8576120a76136b3565b5b60200101907effffffffffffffffffffffffffffffffffffffffffffffffffffffffffffff1916908160001a9053507f78000000000000000000000000000000000000000000000000000000000000008160018151811061210c5761210b6136b3565b5b60200101907effffffffffffffffffffffffffffffffffffffffffffffffffffffffffffff1916908160001a9053506000600184600261214c919061363d565b612156919061367f565b90505b60018111156121f6577f3031323334353637383961626364656600000000000000000000000000000000600f861660108110612198576121976136b3565b5b1a60f81b8282815181106121af576121ae6136b3565b5b60200101907effffffffffffffffffffffffffffffffffffffffffffffffffffffffffffff1916908160001a905350600485901c9450806121ef906136e2565b9050612159565b506000841461223a576040517f08c379a000000000000000000000000000000000000000000000000000000000815260040161223190613757565b60405180910390fd5b8091505092915050565b50805461225090612a92565b6000825580601f106122625750612281565b601f0160209004906000526020600020908101906122809190612284565b5b50565b5b8082111561229d576000816000905550600101612285565b5090565b6000604051905090565b600080fd5b600080fd5b6000819050919050565b6122c8816122b5565b81146122d357600080fd5b50565b6000813590506122e5816122bf565b92915050565b600060208284031215612301576123006122ab565b5b600061230f848285016122d6565b91505092915050565b60008115159050919050565b61232d81612318565b82525050565b60006020820190506123486000830184612324565b92915050565b60007fffffffff0000000000000000000000000000000000000000000000000000000082169050919050565b6123838161234e565b811461238e57600080fd5b50565b6000813590506123a08161237a565b92915050565b6000602082840312156123bc576123bb6122ab565b5b60006123ca84828501612391565b91505092915050565b600081519050919050565b600082825260208201905092915050565b60005b8381101561240d5780820151818401526020810190506123f2565b60008484015250505050565b6000601f19601f8301169050919050565b6000612435826123d3565b61243f81856123de565b935061244f8185602086016123ef565b61245881612419565b840191505092915050565b6000602082019050818103600083015261247d818461242a565b905092915050565b600080fd5b600080fd5b7f4e487b7100000000000000000000000000000000000000000000000000000000600052604160045260246000fd5b6124c782612419565b810181811067ffffffffffffffff821117156124e6576124e561248f565b5b80604052505050565b60006124f96122a1565b905061250582826124be565b919050565b600067ffffffffffffffff8211156125255761252461248f565b5b61252e82612419565b9050602081019050919050565b82818337600083830152505050565b600061255d6125588461250a565b6124ef565b9050828152602081018484840111156125795761257861248a565b5b61258484828561253b565b509392505050565b600082601f8301126125a1576125a0612485565b5b81356125b184826020860161254a565b91505092915050565b600080604083850312156125d1576125d06122ab565b5b60006125df858286016122d6565b925050602083013567ffffffffffffffff811115612600576125ff6122b0565b5b61260c8582860161258c565b9150509250929050565b6000819050919050565b61262981612616565b811461263457600080fd5b50565b60008135905061264681612620565b92915050565b600060208284031215612662576126616122ab565b5b600061267084828501612637565b91505092915050565b61268281612616565b82525050565b600060208201905061269d6000830184612679565b92915050565b6000602082840312156126b9576126b86122ab565b5b600082013567ffffffffffffffff8111156126d7576126d66122b0565b5b6126e38482850161258c565b91505092915050565b600073ffffffffffffffffffffffffffffffffffffffff82169050919050565b6000612717826126ec565b9050919050565b6127278161270c565b811461273257600080fd5b50565b6000813590506127448161271e565b92915050565b60008060408385031215612761576127606122ab565b5b600061276f85828601612637565b925050602061278085828601612735565b9150509250929050565b6000819050919050565b60006127af6127aa6127a5846126ec565b61278a565b6126ec565b9050919050565b60006127c182612794565b9050919050565b60006127d3826127b6565b9050919050565b6127e3816127c8565b82525050565b60006020820190506127fe60008301846127da565b92915050565b61280d816122b5565b82525050565b60006020820190506128286000830184612804565b92915050565b600060208284031215612844576128436122ab565b5b600061285284828501612735565b91505092915050565b600067ffffffffffffffff82169050919050565b6128788161285b565b82525050565b6000602082019050612893600083018461286f565b92915050565b600080600080608085870312156128b3576128b26122ab565b5b600085013567ffffffffffffffff8111156128d1576128d06122b0565b5b6128dd8782880161258c565b945050602085013567ffffffffffffffff8111156128fe576128fd6122b0565b5b61290a8782880161258c565b935050604061291b878288016122d6565b925050606061292c878288016122d6565b91505092959194509250565b7f4e487b7100000000000000000000000000000000000000000000000000000000600052602160045260246000fd5b6003811061297857612977612938565b5b50565b600081905061298982612967565b919050565b60006129998261297b565b9050919050565b6129a98161298e565b82525050565b60006020820190506129c460008301846129a0565b92915050565b6129d38161285b565b81146129de57600080fd5b50565b6000813590506129f0816129ca565b92915050565b600060208284031215612a0c57612a0b6122ab565b5b6000612a1a848285016129e1565b91505092915050565b60008060408385031215612a3a57612a396122ab565b5b6000612a48858286016129e1565b9250506020612a59858286016122d6565b9150509250929050565b7f4e487b7100000000000000000000000000000000000000000000000000000000600052602260045260246000fd5b60006002820490506001821680612aaa57607f821691505b602082108103612abd57612abc612a63565b5b50919050565b612acc8161270c565b82525050565b6000604082019050612ae76000830185612ac3565b612af46020830184612ac3565b9392505050565b60008190508160005260206000209050919050565b60006020601f8301049050919050565b600082821b905092915050565b600060088302612b5d7fffffffffffffffffffffffffffffffffffffffffffffffffffffffffffffffff82612b20565b612b678683612b20565b95508019841693508086168417925050509392505050565b6000612b9a612b95612b90846122b5565b61278a565b6122b5565b9050919050565b6000819050919050565b612bb483612b7f565b612bc8612bc082612ba1565b848454612b2d565b825550505050565b600090565b612bdd612bd0565b612be8818484612bab565b505050565b5b81811015612c0c57612c01600082612bd5565b600181019050612bee565b5050565b601f821115612c5157612c2281612afb565b612c2b84612b10565b81016020851015612c3a578190505b612c4e612c4685612b10565b830182612bed565b50505b505050565b600082821c905092915050565b6000612c7460001984600802612c56565b1980831691505092915050565b6000612c8d8383612c63565b9150826002028217905092915050565b612ca6826123d3565b67ffffffffffffffff811115612cbf57612cbe61248f565b5b612cc98254612a92565b612cd4828285612c10565b600060209050601f831160018114612d075760008415612cf5578287015190505b612cff8582612c81565b865550612d67565b601f198416612d1586612afb565b60005b82811015612d3d57848901518255600182019150602085019450602081019050612d18565b86831015612d5a5784890151612d56601f891682612c63565b8355505b6001600288020188555050505b505050505050565b600081549050612d7e81612a92565b9050919050565b60008190508160005260206000209050919050565b818103612da8575050612e80565b612db182612d6f565b67ffffffffffffffff811115612dca57612dc961248f565b5b612dd48254612a92565b612ddf828285612c10565b6000601f831160018114612e0e5760008415612dfc578287015490505b612e068582612c81565b865550612e79565b601f198416612e1c87612d85565b9650612e2786612afb565b60005b82811015612e4f57848901548255600182019150600185019450602081019050612e2a565b86831015612e6c5784890154612e68601f891682612c63565b8355505b6001600288020188555050505b5050505050505b565b600081905092915050565b60008154612e9a81612a92565b612ea48186612e82565b94506001821660008114612ebf5760018114612ed457612f07565b60ff1983168652811515820286019350612f07565b612edd85612afb565b60005b83811015612eff57815481890152600182019150602081019050612ee0565b838801955050505b50505092915050565b6000612f1c8284612e8d565b915081905092915050565b600081519050919050565b612f3b82612f27565b67ffffffffffffffff811115612f5457612f5361248f565b5b612f5e8254612a92565b612f69828285612c10565b600060209050601f831160018114612f9c5760008415612f8a578287015190505b612f948582612c81565b865550612ffc565b601f198416612faa86612afb565b60005b82811015612fd257848901518255600182019150602085019450602081019050612fad565b86831015612fef5784890151612feb601f891682612c63565b8355505b6001600288020188555050505b505050505050565b600061301f61301a6130158461285b565b61278a565b6122b5565b9050919050565b61302f81613004565b82525050565b6000815461304281612a92565b61304c81866123de565b94506001821660008114613067576001811461307d576130b0565b60ff1983168652811515602002860193506130b0565b61308685612afb565b60005b838110156130a857815481890152600182019150602081019050613089565b808801955050505b50505092915050565b60006040820190506130ce6000830185613026565b81810360208301526130e08184613035565b90509392505050565b60006130f4826123d3565b6130fe8185612e82565b935061310e8185602086016123ef565b80840191505092915050565b600061312682846130e9565b915081905092915050565b6000604082019050818103600083015261314b818561242a565b905061315a6020830184612804565b9392505050565b600082825260208201905092915050565b7f416363657373436f6e74726f6c3a2063616e206f6e6c792072656e6f756e636560008201527f20726f6c657320666f722073656c660000000000000000000000000000000000602082015250565b60006131ce602f83613161565b91506131d982613172565b604082019050919050565b600060208201905081810360008301526131fd816131c1565b9050919050565b6000606082019050818103600083015261321e818661242a565b905061322d6020830185612804565b61323a6040830184612804565b949350505050565b7f4e487b7100000000000000000000000000000000000000000000000000000000600052601160045260246000fd5b600061327c8261285b565b91506132878361285b565b9250828201905067ffffffffffffffff8111156132a7576132a6613242565b5b92915050565b6000815490506132bc81612a92565b9050919050565b8181036132d15750506133a9565b6132da826132ad565b67ffffffffffffffff8111156132f3576132f261248f565b5b6132fd8254612a92565b613308828285612c10565b6000601f8311600181146133375760008415613325578287015490505b61332f8582612c81565b8655506133a2565b601f19841661334587612afb565b965061335086612afb565b60005b8281101561337857848901548255600182019150600185019450602081019050613353565b868310156133955784890154613391601f891682612c63565b8355505b6001600288020188555050505b5050505050505b565b60006080820190506133c0600083018761286f565b81810360208301526133d2818661242a565b90506133e16040830185612804565b6133ee6060830184612804565b95945050505050565b600060408201905061340c6000830185612804565b818103602083015261341e8184613035565b90509392505050565b60008151905061343681612620565b92915050565b600060208284031215613452576134516122ab565b5b600061346084828501613427565b91505092915050565b600060408201905061347e6000830185612679565b61348b60208301846129a0565b9392505050565b6000815190506134a18161271e565b92915050565b6000602082840312156134bd576134bc6122ab565b5b60006134cb84828501613492565b91505092915050565b600081905092915050565b7f416363657373436f6e74726f6c3a206163636f756e7420000000000000000000600082015250565b60006135156017836134d4565b9150613520826134df565b601782019050919050565b600061353682612f27565b61354081856134d4565b93506135508185602086016123ef565b80840191505092915050565b7f206973206d697373696e6720726f6c6520000000000000000000000000000000600082015250565b60006135926011836134d4565b915061359d8261355c565b601182019050919050565b60006135b382613508565b91506135bf828561352b565b91506135ca82613585565b91506135d6828461352b565b91508190509392505050565b60006135ed82612f27565b6135f78185613161565b93506136078185602086016123ef565b61361081612419565b840191505092915050565b6000602082019050818103600083015261363581846135e2565b905092915050565b6000613648826122b5565b9150613653836122b5565b9250828202613661816122b5565b9150828204841483151761367857613677613242565b5b5092915050565b600061368a826122b5565b9150613695836122b5565b92508282019050808211156136ad576136ac613242565b5b92915050565b7f4e487b7100000000000000000000000000000000000000000000000000000000600052603260045260246000fd5b60006136ed826122b5565b915060008203613700576136ff613242565b5b600182039050919050565b7f537472696e67733a20686578206c656e67746820696e73756666696369656e74600082015250565b6000613741602083613161565b915061374c8261370b565b602082019050919050565b6000602082019050818103600083015261377081613734565b905091905056fea26469706673582212201e2a01f7d42c95a37d43cc51d3acf63d45808136d4b730234342c6e614b2558164736f6c63430008110033",
  "linkReferences": {},
  "deployedLinkReferences": {}
}