{
  "_format": "hh-sol-artifact-1",
  "contractName": "KeyDeriver",
  "sourceName": "contracts/lit-node/HDKeyDeriver.sol",
  "abi": [
    {
      "inputs": [],
      "stateMutability": "nonpayable",
      "type": "constructor"
    },
    {
      "inputs": [],
      "name": "HD_KDF",
      "outputs": [
        {
          "internalType": "address",
          "name": "",
          "type": "address"
        }
      ],
      "stateMutability": "view",
      "type": "function"
    },
    {
      "inputs": [
        {
          "internalType": "bytes32",
          "name": "derivedKeyId",
          "type": "bytes32"
        },
        {
          "components": [
            {
              "internalType": "bytes",
              "name": "pubkey",
              "type": "bytes"
            },
            {
              "internalType": "uint256",
              "name": "keyType",
              "type": "uint256"
            }
          ],
          "internalType": "struct IPubkeyRouter.RootKey[]",
          "name": "rootHDKeys",
          "type": "tuple[]"
        },
        {
          "internalType": "uint256",
          "name": "keyType",
          "type": "uint256"
        }
      ],
      "name": "computeHDPubKey",
      "outputs": [
        {
          "internalType": "bool",
          "name": "",
          "type": "bool"
        },
        {
          "internalType": "bytes",
          "name": "",
          "type": "bytes"
        }
      ],
      "stateMutability": "view",
      "type": "function"
    }
  ],
  "bytecode": "0x608060405234801561001057600080fd5b506109c3806100206000396000f3fe608060405234801561001057600080fd5b50600436106100365760003560e01c806362e4c4641461003b578063a32c2b9914610059575b600080fd5b61004361008a565b604051610050919061029b565b60405180910390f35b610073600480360381019061006e91906105d8565b61008f565b6040516100819291906106e1565b60405180910390f35b60f581565b6000606060006100a0868686610121565b905060008060f573ffffffffffffffffffffffffffffffffffffffff16836040516100cb919061074d565b600060405180830381855afa9150503d8060008114610106576040519150601f19603f3d011682016040523d82523d6000602084013e61010b565b606091505b5091509150818194509450505050935093915050565b606060008067ffffffffffffffff81111561013f5761013e610316565b5b6040519080825280601f01601f1916602001820160405280156101715781602001600182028036833780820191505090505b50905060005b84518110156101d5578185828151811061019457610193610764565b5b6020026020010151600001516040516020016101b1929190610793565b604051602081830303815290604052915080806101cd906107e6565b915050610177565b5060006040518060600160405280602b8152602001610963602b9139905060008460f81b90506000602060ff1660e01b90506000835160e01b90506000885160e01b9050600084848c8589868c60405160200161023897969594939291906108e9565b6040516020818303038152906040529050809750505050505050509392505050565b600073ffffffffffffffffffffffffffffffffffffffff82169050919050565b60006102858261025a565b9050919050565b6102958161027a565b82525050565b60006020820190506102b0600083018461028c565b92915050565b6000604051905090565b600080fd5b600080fd5b6000819050919050565b6102dd816102ca565b81146102e857600080fd5b50565b6000813590506102fa816102d4565b92915050565b600080fd5b6000601f19601f8301169050919050565b7f4e487b7100000000000000000000000000000000000000000000000000000000600052604160045260246000fd5b61034e82610305565b810181811067ffffffffffffffff8211171561036d5761036c610316565b5b80604052505050565b60006103806102b6565b905061038c8282610345565b919050565b600067ffffffffffffffff8211156103ac576103ab610316565b5b602082029050602081019050919050565b600080fd5b600080fd5b600080fd5b600080fd5b600067ffffffffffffffff8211156103ec576103eb610316565b5b6103f582610305565b9050602081019050919050565b82818337600083830152505050565b600061042461041f846103d1565b610376565b9050828152602081018484840111156104405761043f6103cc565b5b61044b848285610402565b509392505050565b600082601f83011261046857610467610300565b5b8135610478848260208601610411565b91505092915050565b6000819050919050565b61049481610481565b811461049f57600080fd5b50565b6000813590506104b18161048b565b92915050565b6000604082840312156104cd576104cc6103c2565b5b6104d76040610376565b9050600082013567ffffffffffffffff8111156104f7576104f66103c7565b5b61050384828501610453565b6000830152506020610517848285016104a2565b60208301525092915050565b600061053661053184610391565b610376565b90508083825260208201905060208402830185811115610559576105586103bd565b5b835b818110156105a057803567ffffffffffffffff81111561057e5761057d610300565b5b80860161058b89826104b7565b8552602085019450505060208101905061055b565b5050509392505050565b600082601f8301126105bf576105be610300565b5b81356105cf848260208601610523565b91505092915050565b6000806000606084860312156105f1576105f06102c0565b5b60006105ff868287016102eb565b935050602084013567ffffffffffffffff8111156106205761061f6102c5565b5b61062c868287016105aa565b925050604061063d868287016104a2565b9150509250925092565b60008115159050919050565b61065c81610647565b82525050565b600081519050919050565b600082825260208201905092915050565b60005b8381101561069c578082015181840152602081019050610681565b60008484015250505050565b60006106b382610662565b6106bd818561066d565b93506106cd81856020860161067e565b6106d681610305565b840191505092915050565b60006040820190506106f66000830185610653565b818103602083015261070881846106a8565b90509392505050565b600081905092915050565b600061072782610662565b6107318185610711565b935061074181856020860161067e565b80840191505092915050565b6000610759828461071c565b915081905092915050565b7f4e487b7100000000000000000000000000000000000000000000000000000000600052603260045260246000fd5b600061079f828561071c565b91506107ab828461071c565b91508190509392505050565b7f4e487b7100000000000000000000000000000000000000000000000000000000600052601160045260246000fd5b60006107f182610481565b91507fffffffffffffffffffffffffffffffffffffffffffffffffffffffffffffffff8203610823576108226107b7565b5b600182019050919050565b60007fff0000000000000000000000000000000000000000000000000000000000000082169050919050565b6000819050919050565b6108756108708261082e565b61085a565b82525050565b60007fffffffff0000000000000000000000000000000000000000000000000000000082169050919050565b6000819050919050565b6108c26108bd8261087b565b6108a7565b82525050565b6000819050919050565b6108e36108de826102ca565b6108c8565b82525050565b60006108f5828a610864565b60018201915061090582896108b1565b60048201915061091582886108d2565b60208201915061092582876108b1565b600482019150610935828661071c565b915061094182856108b1565b600482019150610951828461071c565b91508190509897505050505050505056fe4c49545f48445f4b45595f49445f4b3235365f584d443a5348412d3235365f535357555f524f5f4e554c5fa2646970667358221220c238d7cb0b5fd2f9f9e8199e6da05a981315d9b205767ed3d30d4bf645fc7fbf64736f6c63430008110033",
  "linkReferences": {},
  "deployedLinkReferences": {}
}