{
  "_format": "hh-sol-artifact-1",
  "contractName": "PKPPermissions",
  "sourceName": "contracts/lit-node/PKPPermissions.sol",
  "abi": [
    {
      "inputs": [
        {
          "internalType": "address",
          "name": "_resolver",
          "type": "address"
        },
        {
          "internalType": "enum ContractResolver.Env",
          "name": "_env",
          "type": "uint8"
        }
      ],
      "stateMutability": "nonpayable",
      "type": "constructor"
    },
    {
      "anonymous": false,
      "inputs": [
        {
          "indexed": false,
          "internalType": "address",
          "name": "newResolverAddress",
          "type": "address"
        }
      ],
      "name": "ContractResolverAddressSet",
      "type": "event"
    },
    {
      "anonymous": false,
      "inputs": [
        {
          "indexed": true,
          "internalType": "address",
          "name": "previousOwner",
          "type": "address"
        },
        {
          "indexed": true,
          "internalType": "address",
          "name": "newOwner",
          "type": "address"
        }
      ],
      "name": "OwnershipTransferred",
      "type": "event"
    },
    {
      "anonymous": false,
      "inputs": [
        {
          "indexed": true,
          "internalType": "uint256",
          "name": "tokenId",
          "type": "uint256"
        },
        {
          "indexed": false,
          "internalType": "uint256",
          "name": "authMethodType",
          "type": "uint256"
        },
        {
          "indexed": false,
          "internalType": "bytes",
          "name": "id",
          "type": "bytes"
        },
        {
          "indexed": false,
          "internalType": "bytes",
          "name": "userPubkey",
          "type": "bytes"
        }
      ],
      "name": "PermittedAuthMethodAdded",
      "type": "event"
    },
    {
      "anonymous": false,
      "inputs": [
        {
          "indexed": true,
          "internalType": "uint256",
          "name": "tokenId",
          "type": "uint256"
        },
        {
          "indexed": false,
          "internalType": "uint256",
          "name": "authMethodType",
          "type": "uint256"
        },
        {
          "indexed": false,
          "internalType": "bytes",
          "name": "id",
          "type": "bytes"
        }
      ],
      "name": "PermittedAuthMethodRemoved",
      "type": "event"
    },
    {
      "anonymous": false,
      "inputs": [
        {
          "indexed": true,
          "internalType": "uint256",
          "name": "tokenId",
          "type": "uint256"
        },
        {
          "indexed": false,
          "internalType": "uint256",
          "name": "authMethodType",
          "type": "uint256"
        },
        {
          "indexed": false,
          "internalType": "bytes",
          "name": "id",
          "type": "bytes"
        },
        {
          "indexed": false,
          "internalType": "uint256",
          "name": "scopeId",
          "type": "uint256"
        }
      ],
      "name": "PermittedAuthMethodScopeAdded",
      "type": "event"
    },
    {
      "anonymous": false,
      "inputs": [
        {
          "indexed": true,
          "internalType": "uint256",
          "name": "tokenId",
          "type": "uint256"
        },
        {
          "indexed": false,
          "internalType": "uint256",
          "name": "authMethodType",
          "type": "uint256"
        },
        {
          "indexed": false,
          "internalType": "bytes",
          "name": "id",
          "type": "bytes"
        },
        {
          "indexed": false,
          "internalType": "uint256",
          "name": "scopeId",
          "type": "uint256"
        }
      ],
      "name": "PermittedAuthMethodScopeRemoved",
      "type": "event"
    },
    {
      "anonymous": false,
      "inputs": [
        {
          "indexed": true,
          "internalType": "uint256",
          "name": "tokenId",
          "type": "uint256"
        },
        {
          "indexed": true,
          "internalType": "uint256",
          "name": "group",
          "type": "uint256"
        },
        {
          "indexed": false,
          "internalType": "bytes32",
          "name": "root",
          "type": "bytes32"
        }
      ],
      "name": "RootHashUpdated",
      "type": "event"
    },
    {
      "inputs": [
        {
          "internalType": "uint256",
          "name": "tokenId",
          "type": "uint256"
        },
        {
          "internalType": "bytes",
          "name": "ipfsCID",
          "type": "bytes"
        },
        {
          "internalType": "uint256[]",
          "name": "scopes",
          "type": "uint256[]"
        }
      ],
      "name": "addPermittedAction",
      "outputs": [],
      "stateMutability": "nonpayable",
      "type": "function"
    },
    {
      "inputs": [
        {
          "internalType": "uint256",
          "name": "tokenId",
          "type": "uint256"
        },
        {
          "internalType": "address",
          "name": "user",
          "type": "address"
        },
        {
          "internalType": "uint256[]",
          "name": "scopes",
          "type": "uint256[]"
        }
      ],
      "name": "addPermittedAddress",
      "outputs": [],
      "stateMutability": "nonpayable",
      "type": "function"
    },
    {
      "inputs": [
        {
          "internalType": "uint256",
          "name": "tokenId",
          "type": "uint256"
        },
        {
          "components": [
            {
              "internalType": "uint256",
              "name": "authMethodType",
              "type": "uint256"
            },
            {
              "internalType": "bytes",
              "name": "id",
              "type": "bytes"
            },
            {
              "internalType": "bytes",
              "name": "userPubkey",
              "type": "bytes"
            }
          ],
          "internalType": "struct PKPPermissions.AuthMethod",
          "name": "authMethod",
          "type": "tuple"
        },
        {
          "internalType": "uint256[]",
          "name": "scopes",
          "type": "uint256[]"
        }
      ],
      "name": "addPermittedAuthMethod",
      "outputs": [],
      "stateMutability": "nonpayable",
      "type": "function"
    },
    {
      "inputs": [
        {
          "internalType": "uint256",
          "name": "tokenId",
          "type": "uint256"
        },
        {
          "internalType": "uint256",
          "name": "authMethodType",
          "type": "uint256"
        },
        {
          "internalType": "bytes",
          "name": "id",
          "type": "bytes"
        },
        {
          "internalType": "uint256",
          "name": "scopeId",
          "type": "uint256"
        }
      ],
      "name": "addPermittedAuthMethodScope",
      "outputs": [],
      "stateMutability": "nonpayable",
      "type": "function"
    },
    {
      "inputs": [
        {
          "internalType": "uint256",
          "name": "",
          "type": "uint256"
        }
      ],
      "name": "authMethods",
      "outputs": [
        {
          "internalType": "uint256",
          "name": "authMethodType",
          "type": "uint256"
        },
        {
          "internalType": "bytes",
          "name": "id",
          "type": "bytes"
        },
        {
          "internalType": "bytes",
          "name": "userPubkey",
          "type": "bytes"
        }
      ],
      "stateMutability": "view",
      "type": "function"
    },
    {
      "inputs": [
        {
          "internalType": "uint256",
          "name": "tokenId",
          "type": "uint256"
        },
        {
          "internalType": "uint256[]",
          "name": "permittedAuthMethodTypesToAdd",
          "type": "uint256[]"
        },
        {
          "internalType": "bytes[]",
          "name": "permittedAuthMethodIdsToAdd",
          "type": "bytes[]"
        },
        {
          "internalType": "bytes[]",
          "name": "permittedAuthMethodPubkeysToAdd",
          "type": "bytes[]"
        },
        {
          "internalType": "uint256[][]",
          "name": "permittedAuthMethodScopesToAdd",
          "type": "uint256[][]"
        },
        {
          "internalType": "uint256[]",
          "name": "permittedAuthMethodTypesToRemove",
          "type": "uint256[]"
        },
        {
          "internalType": "bytes[]",
          "name": "permittedAuthMethodIdsToRemove",
          "type": "bytes[]"
        }
      ],
      "name": "batchAddRemoveAuthMethods",
      "outputs": [],
      "stateMutability": "nonpayable",
      "type": "function"
    },
    {
      "inputs": [],
      "name": "contractResolver",
      "outputs": [
        {
          "internalType": "contract ContractResolver",
          "name": "",
          "type": "address"
        }
      ],
      "stateMutability": "view",
      "type": "function"
    },
    {
      "inputs": [],
      "name": "env",
      "outputs": [
        {
          "internalType": "enum ContractResolver.Env",
          "name": "",
          "type": "uint8"
        }
      ],
      "stateMutability": "view",
      "type": "function"
    },
    {
      "inputs": [
        {
          "internalType": "uint256",
          "name": "authMethodType",
          "type": "uint256"
        },
        {
          "internalType": "bytes",
          "name": "id",
          "type": "bytes"
        }
      ],
      "name": "getAuthMethodId",
      "outputs": [
        {
          "internalType": "uint256",
          "name": "",
          "type": "uint256"
        }
      ],
      "stateMutability": "pure",
      "type": "function"
    },
    {
      "inputs": [
        {
          "internalType": "uint256",
          "name": "tokenId",
          "type": "uint256"
        }
      ],
      "name": "getEthAddress",
      "outputs": [
        {
          "internalType": "address",
          "name": "",
          "type": "address"
        }
      ],
      "stateMutability": "view",
      "type": "function"
    },
    {
      "inputs": [
        {
          "internalType": "uint256",
          "name": "tokenId",
          "type": "uint256"
        }
      ],
      "name": "getPermittedActions",
      "outputs": [
        {
          "internalType": "bytes[]",
          "name": "",
          "type": "bytes[]"
        }
      ],
      "stateMutability": "view",
      "type": "function"
    },
    {
      "inputs": [
        {
          "internalType": "uint256",
          "name": "tokenId",
          "type": "uint256"
        }
      ],
      "name": "getPermittedAddresses",
      "outputs": [
        {
          "internalType": "address[]",
          "name": "",
          "type": "address[]"
        }
      ],
      "stateMutability": "view",
      "type": "function"
    },
    {
      "inputs": [
        {
          "internalType": "uint256",
          "name": "tokenId",
          "type": "uint256"
        },
        {
          "internalType": "uint256",
          "name": "authMethodType",
          "type": "uint256"
        },
        {
          "internalType": "bytes",
          "name": "id",
          "type": "bytes"
        },
        {
          "internalType": "uint256",
          "name": "maxScopeId",
          "type": "uint256"
        }
      ],
      "name": "getPermittedAuthMethodScopes",
      "outputs": [
        {
          "internalType": "bool[]",
          "name": "",
          "type": "bool[]"
        }
      ],
      "stateMutability": "view",
      "type": "function"
    },
    {
      "inputs": [
        {
          "internalType": "uint256",
          "name": "tokenId",
          "type": "uint256"
        }
      ],
      "name": "getPermittedAuthMethods",
      "outputs": [
        {
          "components": [
            {
              "internalType": "uint256",
              "name": "authMethodType",
              "type": "uint256"
            },
            {
              "internalType": "bytes",
              "name": "id",
              "type": "bytes"
            },
            {
              "internalType": "bytes",
              "name": "userPubkey",
              "type": "bytes"
            }
          ],
          "internalType": "struct PKPPermissions.AuthMethod[]",
          "name": "",
          "type": "tuple[]"
        }
      ],
      "stateMutability": "view",
      "type": "function"
    },
    {
      "inputs": [],
      "name": "getPkpNftAddress",
      "outputs": [
        {
          "internalType": "address",
          "name": "",
          "type": "address"
        }
      ],
      "stateMutability": "view",
      "type": "function"
    },
    {
      "inputs": [
        {
          "internalType": "uint256",
          "name": "tokenId",
          "type": "uint256"
        }
      ],
      "name": "getPubkey",
      "outputs": [
        {
          "internalType": "bytes",
          "name": "",
          "type": "bytes"
        }
      ],
      "stateMutability": "view",
      "type": "function"
    },
    {
      "inputs": [],
      "name": "getRouterAddress",
      "outputs": [
        {
          "internalType": "address",
          "name": "",
          "type": "address"
        }
      ],
      "stateMutability": "view",
      "type": "function"
    },
    {
      "inputs": [
        {
          "internalType": "uint256",
          "name": "authMethodType",
          "type": "uint256"
        },
        {
          "internalType": "bytes",
          "name": "id",
          "type": "bytes"
        }
      ],
      "name": "getTokenIdsForAuthMethod",
      "outputs": [
        {
          "internalType": "uint256[]",
          "name": "",
          "type": "uint256[]"
        }
      ],
      "stateMutability": "view",
      "type": "function"
    },
    {
      "inputs": [
        {
          "internalType": "uint256",
          "name": "authMethodType",
          "type": "uint256"
        },
        {
          "internalType": "bytes",
          "name": "id",
          "type": "bytes"
        }
      ],
      "name": "getUserPubkeyForAuthMethod",
      "outputs": [
        {
          "internalType": "bytes",
          "name": "",
          "type": "bytes"
        }
      ],
      "stateMutability": "view",
      "type": "function"
    },
    {
      "inputs": [
        {
          "internalType": "uint256",
          "name": "tokenId",
          "type": "uint256"
        },
        {
          "internalType": "bytes",
          "name": "ipfsCID",
          "type": "bytes"
        }
      ],
      "name": "isPermittedAction",
      "outputs": [
        {
          "internalType": "bool",
          "name": "",
          "type": "bool"
        }
      ],
      "stateMutability": "view",
      "type": "function"
    },
    {
      "inputs": [
        {
          "internalType": "uint256",
          "name": "tokenId",
          "type": "uint256"
        },
        {
          "internalType": "address",
          "name": "user",
          "type": "address"
        }
      ],
      "name": "isPermittedAddress",
      "outputs": [
        {
          "internalType": "bool",
          "name": "",
          "type": "bool"
        }
      ],
      "stateMutability": "view",
      "type": "function"
    },
    {
      "inputs": [
        {
          "internalType": "uint256",
          "name": "tokenId",
          "type": "uint256"
        },
        {
          "internalType": "uint256",
          "name": "authMethodType",
          "type": "uint256"
        },
        {
          "internalType": "bytes",
          "name": "id",
          "type": "bytes"
        }
      ],
      "name": "isPermittedAuthMethod",
      "outputs": [
        {
          "internalType": "bool",
          "name": "",
          "type": "bool"
        }
      ],
      "stateMutability": "view",
      "type": "function"
    },
    {
      "inputs": [
        {
          "internalType": "uint256",
          "name": "tokenId",
          "type": "uint256"
        },
        {
          "internalType": "uint256",
          "name": "authMethodType",
          "type": "uint256"
        },
        {
          "internalType": "bytes",
          "name": "id",
          "type": "bytes"
        },
        {
          "internalType": "uint256",
          "name": "scopeId",
          "type": "uint256"
        }
      ],
      "name": "isPermittedAuthMethodScopePresent",
      "outputs": [
        {
          "internalType": "bool",
          "name": "",
          "type": "bool"
        }
      ],
      "stateMutability": "view",
      "type": "function"
    },
    {
      "inputs": [],
      "name": "owner",
      "outputs": [
        {
          "internalType": "address",
          "name": "",
          "type": "address"
        }
      ],
      "stateMutability": "view",
      "type": "function"
    },
    {
      "inputs": [
        {
          "internalType": "uint256",
          "name": "tokenId",
          "type": "uint256"
        },
        {
          "internalType": "bytes",
          "name": "ipfsCID",
          "type": "bytes"
        }
      ],
      "name": "removePermittedAction",
      "outputs": [],
      "stateMutability": "nonpayable",
      "type": "function"
    },
    {
      "inputs": [
        {
          "internalType": "uint256",
          "name": "tokenId",
          "type": "uint256"
        },
        {
          "internalType": "address",
          "name": "user",
          "type": "address"
        }
      ],
      "name": "removePermittedAddress",
      "outputs": [],
      "stateMutability": "nonpayable",
      "type": "function"
    },
    {
      "inputs": [
        {
          "internalType": "uint256",
          "name": "tokenId",
          "type": "uint256"
        },
        {
          "internalType": "uint256",
          "name": "authMethodType",
          "type": "uint256"
        },
        {
          "internalType": "bytes",
          "name": "id",
          "type": "bytes"
        }
      ],
      "name": "removePermittedAuthMethod",
      "outputs": [],
      "stateMutability": "nonpayable",
      "type": "function"
    },
    {
      "inputs": [
        {
          "internalType": "uint256",
          "name": "tokenId",
          "type": "uint256"
        },
        {
          "internalType": "uint256",
          "name": "authMethodType",
          "type": "uint256"
        },
        {
          "internalType": "bytes",
          "name": "id",
          "type": "bytes"
        },
        {
          "internalType": "uint256",
          "name": "scopeId",
          "type": "uint256"
        }
      ],
      "name": "removePermittedAuthMethodScope",
      "outputs": [],
      "stateMutability": "nonpayable",
      "type": "function"
    },
    {
      "inputs": [],
      "name": "renounceOwnership",
      "outputs": [],
      "stateMutability": "nonpayable",
      "type": "function"
    },
    {
      "inputs": [
        {
          "internalType": "address",
          "name": "newResolverAddress",
          "type": "address"
        }
      ],
      "name": "setContractResolver",
      "outputs": [],
      "stateMutability": "nonpayable",
      "type": "function"
    },
    {
      "inputs": [
        {
          "internalType": "uint256",
          "name": "tokenId",
          "type": "uint256"
        },
        {
          "internalType": "uint256",
          "name": "group",
          "type": "uint256"
        },
        {
          "internalType": "bytes32",
          "name": "root",
          "type": "bytes32"
        }
      ],
      "name": "setRootHash",
      "outputs": [],
      "stateMutability": "nonpayable",
      "type": "function"
    },
    {
      "inputs": [
        {
          "internalType": "address",
          "name": "newOwner",
          "type": "address"
        }
      ],
      "name": "transferOwnership",
      "outputs": [],
      "stateMutability": "nonpayable",
      "type": "function"
    },
    {
      "inputs": [
        {
          "internalType": "uint256",
          "name": "tokenId",
          "type": "uint256"
        },
        {
          "internalType": "uint256",
          "name": "group",
          "type": "uint256"
        },
        {
          "internalType": "bytes32[]",
          "name": "proof",
          "type": "bytes32[]"
        },
        {
          "internalType": "bytes32",
          "name": "leaf",
          "type": "bytes32"
        }
      ],
      "name": "verifyState",
      "outputs": [
        {
          "internalType": "bool",
          "name": "",
          "type": "bool"
        }
      ],
      "stateMutability": "view",
      "type": "function"
    },
    {
      "inputs": [
        {
          "internalType": "uint256",
          "name": "tokenId",
          "type": "uint256"
        },
        {
          "internalType": "uint256",
          "name": "group",
          "type": "uint256"
        },
        {
          "internalType": "bytes32[]",
          "name": "proof",
          "type": "bytes32[]"
        },
        {
          "internalType": "bool[]",
          "name": "proofFlags",
          "type": "bool[]"
        },
        {
          "internalType": "bytes32[]",
          "name": "leaves",
          "type": "bytes32[]"
        }
      ],
      "name": "verifyStates",
      "outputs": [
        {
          "internalType": "bool",
          "name": "",
          "type": "bool"
        }
      ],
      "stateMutability": "view",
      "type": "function"
    }
  ],
  "bytecode": "0x60806040523480156200001157600080fd5b5060405162005d3238038062005d3283398181016040528101906200003791906200022b565b620000576200004b620000cd60201b60201c565b620000d560201b60201c565b81600160006101000a81548173ffffffffffffffffffffffffffffffffffffffff021916908373ffffffffffffffffffffffffffffffffffffffff16021790555080600160146101000a81548160ff02191690836002811115620000c057620000bf62000272565b5b02179055505050620002a1565b600033905090565b60008060009054906101000a900473ffffffffffffffffffffffffffffffffffffffff169050816000806101000a81548173ffffffffffffffffffffffffffffffffffffffff021916908373ffffffffffffffffffffffffffffffffffffffff1602179055508173ffffffffffffffffffffffffffffffffffffffff168173ffffffffffffffffffffffffffffffffffffffff167f8be0079c531659141344cd1fd0a4f28419497f9722a3daafe3b4186f6b6457e060405160405180910390a35050565b600080fd5b600073ffffffffffffffffffffffffffffffffffffffff82169050919050565b6000620001cb826200019e565b9050919050565b620001dd81620001be565b8114620001e957600080fd5b50565b600081519050620001fd81620001d2565b92915050565b600381106200021157600080fd5b50565b600081519050620002258162000203565b92915050565b6000806040838503121562000245576200024462000199565b5b60006200025585828601620001ec565b9250506020620002688582860162000214565b9150509250929050565b7f4e487b7100000000000000000000000000000000000000000000000000000000600052602160045260246000fd5b615a8180620002b16000396000f3fe608060405234801561001057600080fd5b50600436106102035760003560e01c806395e012941161011a578063bd4986a0116100ad578063ef6fd8781161007c578063ef6fd87814610632578063f2fde38b14610662578063f34f21ba1461067e578063f95d71b1146106ae578063fceb3983146106ca57610203565b8063bd4986a0146105aa578063caead0c7146105da578063d41a3272146105f8578063d54f7d5e1461061457610203565b8063a1c805fa116100e9578063a1c805fa146104fe578063abc541ae1461052e578063b997606f1461055e578063bb7a10701461057a57610203565b806395e01294146104785780639dca0032146104945780639dd4349b146104b2578063a1afdc6f146104ce57610203565b8063557b5eba1161019d578063715018a61161016c578063715018a6146103e857806378c49efa146103f257806382559561146104225780638a4315781461043e5780638da5cb5b1461045a57610203565b8063557b5eba1461036457806366fc6541146103945780636705c6f2146103b05780636821c8e2146103cc57610203565b80632657768b116101d95780632657768b146102b457806345b72bde146102e657806350d17b5e146103165780635521c4521461033457610203565b80618b4f14610208578062221c08146102385780630a60950d146102685780631663c12114610298575b600080fd5b610222600480360381019061021d9190613948565b6106fa565b60405161022f91906139a3565b60405180910390f35b610252600480360381019061024d9190613a23565b610888565b60405161025f9190613b69565b60405180910390f35b610282600480360381019061027d9190613ccc565b6109b7565b60405161028f9190613d37565b60405180910390f35b6102b260048036038101906102ad9190613da8565b6109ed565b005b6102ce60048036038101906102c99190613e1c565b610a5a565b6040516102dd93929190613ec8565b60405180910390f35b61030060048036038101906102fb9190614006565b610b94565b60405161030d91906139a3565b60405180910390f35b61031e610be9565b60405161032b91906140e8565b60405180910390f35b61034e60048036038101906103499190614103565b610c0f565b60405161035b9190614221565b60405180910390f35b61037e60048036038101906103799190614243565b610d3f565b60405161038b91906139a3565b60405180910390f35b6103ae60048036038101906103a99190614243565b610d95565b005b6103ca60048036038101906103c591906142b2565b610f37565b005b6103e660048036038101906103e19190613a23565b61109a565b005b6103f0611264565b005b61040c600480360381019061040791906143f4565b611278565b60405161041991906139a3565b60405180910390f35b61043c60048036038101906104379190613a23565b6112cf565b005b610458600480360381019061045391906144c3565b611499565b005b61046261152c565b60405161046f9190614567565b60405180910390f35b610492600480360381019061048d919061477c565b611555565b005b61049c611815565b6040516104a99190614941565b60405180910390f35b6104cc60048036038101906104c79190614a02565b611828565b005b6104e860048036038101906104e39190614103565b611ba8565b6040516104f59190614a92565b60405180910390f35b61051860048036038101906105139190613a23565b611d5c565b60405161052591906139a3565b60405180910390f35b61054860048036038101906105439190613e1c565b611df7565b6040516105559190614b72565b60405180910390f35b61057860048036038101906105739190613948565b61243d565b005b610594600480360381019061058f9190613e1c565b61247e565b6040516105a19190614ca0565b60405180910390f35b6105c460048036038101906105bf9190613e1c565b6128b0565b6040516105d19190614567565b60405180910390f35b6105e261293f565b6040516105ef9190614567565b60405180910390f35b610612600480360381019061060d9190614103565b612a83565b005b61061c612aea565b6040516106299190614567565b60405180910390f35b61064c60048036038101906106479190613e1c565b612c2e565b6040516106599190614a92565b60405180910390f35b61067c60048036038101906106779190614cc2565b612cc3565b005b61069860048036038101906106939190613e1c565b612d46565b6040516106a59190614e08565b60405180910390f35b6106c860048036038101906106c39190614cc2565b612f7c565b005b6106e460048036038101906106df9190614103565b612fff565b6040516106f191906139a3565b60405180910390f35b60008061070561293f565b905060008173ffffffffffffffffffffffffffffffffffffffff16634f558e79866040518263ffffffff1660e01b81526004016107429190613d37565b602060405180830381865afa15801561075f573d6000803e3d6000fd5b505050506040513d601f19601f820116820180604052508101906107839190614e3f565b156108395760008273ffffffffffffffffffffffffffffffffffffffff16636352211e876040518263ffffffff1660e01b81526004016107c39190613d37565b602060405180830381865afa1580156107e0573d6000803e3d6000fd5b505050506040513d601f19601f820116820180604052508101906108049190614e81565b90508473ffffffffffffffffffffffffffffffffffffffff168173ffffffffffffffffffffffffffffffffffffffff16149150505b6108768560016009811115610851576108506148ca565b5b866040516020016108629190614ef6565b604051602081830303815290604052610d3f565b8061087e5750805b9250505092915050565b606060006108da8686868080601f016020809104026020016040519081016040528093929190818152602001838380828437600081840152601f19601f820116905080830192505050505050506109b7565b90506000600360008981526020019081526020016000206000838152602001908152602001600020905060008467ffffffffffffffff8111156109205761091f613ba1565b5b60405190808252806020026020018201604052801561094e5781602001602082028036833780820191505090505b50905060005b858110156109a75761096f818461306c90919063ffffffff16565b82828151811061098257610981614f11565b5b602002602001019015159081151581525050808061099f90614f6f565b915050610954565b5080935050505095945050505050565b600082826040516020016109cc929190614fb7565b6040516020818303038152906040528051906020012060001c905092915050565b610a5484604051806060016040528060016009811115610a1057610a0f6148ca565b5b815260200186604051602001610a269190614ef6565b6040516020818303038152906040528152602001604051806020016040528060008152508152508484611828565b50505050565b6004602052806000526040600020600091509050806000015490806001018054610a8390615016565b80601f0160208091040260200160405190810160405280929190818152602001828054610aaf90615016565b8015610afc5780601f10610ad157610100808354040283529160200191610afc565b820191906000526020600020905b815481529060010190602001808311610adf57829003601f168201915b505050505090806002018054610b1190615016565b80601f0160208091040260200160405190810160405280929190818152602001828054610b3d90615016565b8015610b8a5780601f10610b5f57610100808354040283529160200191610b8a565b820191906000526020600020905b815481529060010190602001808311610b6d57829003601f168201915b5050505050905083565b6000806006600087815260200190815260200160002060008681526020019081526020016000205490506000801b8103610bd2576000915050610be1565b610bdd8482856130a8565b9150505b949350505050565b600160009054906101000a900473ffffffffffffffffffffffffffffffffffffffff1681565b60606000610c618585858080601f016020809104026020016040519081016040528093929190818152602001838380828437600081840152601f19601f820116905080830192505050505050506109b7565b90506000610c80600560008481526020019081526020016000206130bf565b905060008167ffffffffffffffff811115610c9e57610c9d613ba1565b5b604051908082528060200260200182016040528015610ccc5781602001602082028036833780820191505090505b50905060005b82811015610d3157610cff81600560008781526020019081526020016000206130d490919063ffffffff16565b828281518110610d1257610d11614f11565b5b6020026020010181815250508080610d2990614f6f565b915050610cd2565b508093505050509392505050565b600080610d4c84846109b7565b90506000610d7582600260008981526020019081526020016000206130ee90919063ffffffff16565b905080610d8757600092505050610d8e565b6001925050505b9392505050565b826000610da061293f565b905060008173ffffffffffffffffffffffffffffffffffffffff16636352211e846040518263ffffffff1660e01b8152600401610ddd9190613d37565b602060405180830381865afa158015610dfa573d6000803e3d6000fd5b505050506040513d601f19601f82011682018060405250810190610e1e9190614e81565b90508073ffffffffffffffffffffffffffffffffffffffff163373ffffffffffffffffffffffffffffffffffffffff1614610e8e576040517f08c379a0000000000000000000000000000000000000000000000000000000008152600401610e85906150a4565b60405180910390fd5b6000610e9a86866109b7565b90506000600260008981526020019081526020016000209050610ec6828261310890919063ffffffff16565b506000600560008481526020019081526020016000209050610ef1898261310890919063ffffffff16565b50887f9830658acd6a41f1cb12b425ed83cb2b8ccbfa753337cd13be80be51fc3f33738489604051610f24929190614fb7565b60405180910390a2505050505050505050565b826000610f4261293f565b905060008173ffffffffffffffffffffffffffffffffffffffff16636352211e846040518263ffffffff1660e01b8152600401610f7f9190613d37565b602060405180830381865afa158015610f9c573d6000803e3d6000fd5b505050506040513d601f19601f82011682018060405250810190610fc09190614e81565b90508073ffffffffffffffffffffffffffffffffffffffff163373ffffffffffffffffffffffffffffffffffffffff1614611030576040517f08c379a0000000000000000000000000000000000000000000000000000000008152600401611027906150a4565b60405180910390fd5b836006600088815260200190815260200160002060008781526020019081526020016000208190555084867fd4beb656267200ccd79d73dbdfbad162c213e10ebad16508f22cb4df8d3259ad8660405161108a91906150d3565b60405180910390a3505050505050565b8460006110a561293f565b905060008173ffffffffffffffffffffffffffffffffffffffff16636352211e846040518263ffffffff1660e01b81526004016110e29190613d37565b602060405180830381865afa1580156110ff573d6000803e3d6000fd5b505050506040513d601f19601f820116820180604052508101906111239190614e81565b90508073ffffffffffffffffffffffffffffffffffffffff163373ffffffffffffffffffffffffffffffffffffffff1614611193576040517f08c379a000000000000000000000000000000000000000000000000000000000815260040161118a906150a4565b60405180910390fd5b60006111e38888888080601f016020809104026020016040519081016040528093929190818152602001838380828437600081840152601f19601f820116905080830192505050505050506109b7565b905061121b85600360008c8152602001908152602001600020600084815260200190815260200160002061312290919063ffffffff16565b887f29eb060f266aff306ec81b612728a417406dd6298f8f7576a37b4e6830dcc60e82898989604051611251949392919061511b565b60405180910390a2505050505050505050565b61126c613160565b61127660006131de565b565b6000806006600088815260200190815260200160002060008781526020019081526020016000205490506000801b81036112b65760009150506112c6565b6112c2858583866132a2565b9150505b95945050505050565b8460006112da61293f565b905060008173ffffffffffffffffffffffffffffffffffffffff16636352211e846040518263ffffffff1660e01b81526004016113179190613d37565b602060405180830381865afa158015611334573d6000803e3d6000fd5b505050506040513d601f19601f820116820180604052508101906113589190614e81565b90508073ffffffffffffffffffffffffffffffffffffffff163373ffffffffffffffffffffffffffffffffffffffff16146113c8576040517f08c379a00000000000000000000000000000000000000000000000000000000081526004016113bf906150a4565b60405180910390fd5b60006114188888888080601f016020809104026020016040519081016040528093929190818152602001838380828437600081840152601f19601f820116905080830192505050505050506109b7565b905061145085600360008c815260200190815260200160002060008481526020019081526020016000206132bb90919063ffffffff16565b887f49bb3a0761ed218e1db1e9c41096ed35188868994cc37a32e1f25855745b424e89898989604051611486949392919061511b565b60405180910390a2505050505050505050565b611525856040518060600160405280600260098111156114bc576114bb6148ca565b5b815260200187878080601f016020809104026020016040519081016040528093929190818152602001838380828437600081840152601f19601f820116905080830192505050505050508152602001604051806020016040528060008152508152508484611828565b5050505050565b60008060009054906101000a900473ffffffffffffffffffffffffffffffffffffffff16905090565b87600061156061293f565b905060008173ffffffffffffffffffffffffffffffffffffffff16636352211e846040518263ffffffff1660e01b815260040161159d9190613d37565b602060405180830381865afa1580156115ba573d6000803e3d6000fd5b505050506040513d601f19601f820116820180604052508101906115de9190614e81565b90508073ffffffffffffffffffffffffffffffffffffffff163373ffffffffffffffffffffffffffffffffffffffff161461164e576040517f08c379a0000000000000000000000000000000000000000000000000000000008152600401611645906150a4565b60405180910390fd5b88518a51148015611660575087518951145b801561166f5750868690508851145b6116ae576040517f08c379a00000000000000000000000000000000000000000000000000000000081526004016116a5906151f3565b60405180910390fd5b83518551146116f2576040517f08c379a00000000000000000000000000000000000000000000000000000000081526004016116e990615285565b60405180910390fd5b60005b8a518110156117a8576117958c60405180606001604052808e85815181106117205761171f614f11565b5b602002602001015181526020018d85815181106117405761173f614f11565b5b602002602001015181526020018c85815181106117605761175f614f11565b5b60200260200101518152508a8a8581811061177e5761177d614f11565b5b905060200281019061179091906152b4565b611828565b80806117a090614f6f565b9150506116f5565b5060005b8551811015611807576117f48c8783815181106117cc576117cb614f11565b5b60200260200101518784815181106117e7576117e6614f11565b5b6020026020010151610d95565b80806117ff90614f6f565b9150506117ac565b505050505050505050505050565b600160149054906101000a900460ff1681565b83600061183361293f565b905060008173ffffffffffffffffffffffffffffffffffffffff16636352211e846040518263ffffffff1660e01b81526004016118709190613d37565b602060405180830381865afa15801561188d573d6000803e3d6000fd5b505050506040513d601f19601f820116820180604052508101906118b19190614e81565b90508073ffffffffffffffffffffffffffffffffffffffff163373ffffffffffffffffffffffffffffffffffffffff1614611921576040517f08c379a0000000000000000000000000000000000000000000000000000000008152600401611918906150a4565b60405180910390fd5b6000611935876000015188602001516109b7565b90506003600981111561194b5761194a6148ca565b5b8760000151036119fa57600060046000838152602001908152602001600020600201805461197890615016565b905014806119ba5750866040015180519060200120600460008381526020019081526020016000206002016040516119b091906153ba565b6040518091039020145b6119f9576040517f08c379a00000000000000000000000000000000000000000000000000000000081526004016119f090615469565b60405180910390fd5b5b8660046000838152602001908152602001600020600082015181600001556020820151816001019081611a2d9190615616565b506040820151816002019081611a439190615616565b509050506000600260008a81526020019081526020016000209050611a7182826132fa90919063ffffffff16565b506000600560008481526020019081526020016000209050611a9c8a826132fa90919063ffffffff16565b5060005b88889050811015611b53576000898983818110611ac057611abf614f11565b5b905060200201359050611aff81600360008f8152602001908152602001600020600088815260200190815260200160002061312290919063ffffffff16565b8b7f29eb060f266aff306ec81b612728a417406dd6298f8f7576a37b4e6830dcc60e868d6020015184604051611b37939291906156e8565b60405180910390a2508080611b4b90614f6f565b915050611aa0565b50897fd7db314a62650aaa1b15d4bb5c95c558a03cde3ee7f36e144b73126a3a8e839a8a600001518b602001518c60400151604051611b9493929190613ec8565b60405180910390a250505050505050505050565b60606000611bfa8585858080601f016020809104026020016040519081016040528093929190818152602001838380828437600081840152601f19601f820116905080830192505050505050506109b7565b905060006004600083815260200190815260200160002060405180606001604052908160008201548152602001600182018054611c3690615016565b80601f0160208091040260200160405190810160405280929190818152602001828054611c6290615016565b8015611caf5780601f10611c8457610100808354040283529160200191611caf565b820191906000526020600020905b815481529060010190602001808311611c9257829003601f168201915b50505050508152602001600282018054611cc890615016565b80601f0160208091040260200160405190810160405280929190818152602001828054611cf490615016565b8015611d415780601f10611d1657610100808354040283529160200191611d41565b820191906000526020600020905b815481529060010190602001808311611d2457829003601f168201915b50505050508152505090508060400151925050509392505050565b600080611dad8686868080601f016020809104026020016040519081016040528093929190818152602001838380828437600081840152601f19601f820116905080830192505050505050506109b7565b90506000611de784600360008b8152602001908152602001600020600085815260200190815260200160002061306c90919063ffffffff16565b9050809250505095945050505050565b60606000611e16600260008581526020019081526020016000206130bf565b90506000805b82811015611fdf576000611e4b82600260008981526020019081526020016000206130d490919063ffffffff16565b905060006004600083815260200190815260200160002060405180606001604052908160008201548152602001600182018054611e8790615016565b80601f0160208091040260200160405190810160405280929190818152602001828054611eb390615016565b8015611f005780601f10611ed557610100808354040283529160200191611f00565b820191906000526020600020905b815481529060010190602001808311611ee357829003601f168201915b50505050508152602001600282018054611f1990615016565b80601f0160208091040260200160405190810160405280929190818152602001828054611f4590615016565b8015611f925780601f10611f6757610100808354040283529160200191611f92565b820191906000526020600020905b815481529060010190602001808311611f7557829003601f168201915b505050505081525050905060016009811115611fb157611fb06148ca565b5b816000015103611fca578380611fc690614f6f565b9450505b50508080611fd790614f6f565b915050611e1c565b506000611fea61293f565b905060008173ffffffffffffffffffffffffffffffffffffffff16634f558e79876040518263ffffffff1660e01b81526004016120279190613d37565b602060405180830381865afa158015612044573d6000803e3d6000fd5b505050506040513d601f19601f820116820180604052508101906120689190614e3f565b90506060600082156121ac576001856120819190615726565b67ffffffffffffffff81111561209a57612099613ba1565b5b6040519080825280602002602001820160405280156120c85781602001602082028036833780820191505090505b50915060008473ffffffffffffffffffffffffffffffffffffffff16636352211e8a6040518263ffffffff1660e01b81526004016121069190613d37565b602060405180830381865afa158015612123573d6000803e3d6000fd5b505050506040513d601f19601f820116820180604052508101906121479190614e81565b9050808360008151811061215e5761215d614f11565b5b602002602001019073ffffffffffffffffffffffffffffffffffffffff16908173ffffffffffffffffffffffffffffffffffffffff168152505081806121a390614f6f565b925050506121f8565b8467ffffffffffffffff8111156121c6576121c5613ba1565b5b6040519080825280602002602001820160405280156121f45781602001602082028036833780820191505090505b5091505b60005b8681101561242e57600061222a82600260008d81526020019081526020016000206130d490919063ffffffff16565b90506000600460008381526020019081526020016000206040518060600160405290816000820154815260200160018201805461226690615016565b80601f016020809104026020016040519081016040528092919081815260200182805461229290615016565b80156122df5780601f106122b4576101008083540402835291602001916122df565b820191906000526020600020905b8154815290600101906020018083116122c257829003601f168201915b505050505081526020016002820180546122f890615016565b80601f016020809104026020016040519081016040528092919081815260200182805461232490615016565b80156123715780601f1061234657610100808354040283529160200191612371565b820191906000526020600020905b81548152906001019060200180831161235457829003601f168201915b5050505050815250509050600160098111156123905761238f6148ca565b5b81600001510361241957600080826020015190506c010000000000000000000000006020820151049150818787815181106123ce576123cd614f11565b5b602002602001019073ffffffffffffffffffffffffffffffffffffffff16908173ffffffffffffffffffffffffffffffffffffffff1681525050858061241390614f6f565b96505050505b5050808061242690614f6f565b9150506121fb565b50819650505050505050919050565b61247a8260016009811115612455576124546148ca565b5b836040516020016124669190614ef6565b604051602081830303815290604052610d95565b5050565b6060600061249d600260008581526020019081526020016000206130bf565b90506000805b828110156126665760006124d282600260008981526020019081526020016000206130d490919063ffffffff16565b90506000600460008381526020019081526020016000206040518060600160405290816000820154815260200160018201805461250e90615016565b80601f016020809104026020016040519081016040528092919081815260200182805461253a90615016565b80156125875780601f1061255c57610100808354040283529160200191612587565b820191906000526020600020905b81548152906001019060200180831161256a57829003601f168201915b505050505081526020016002820180546125a090615016565b80601f01602080910402602001604051908101604052809291908181526020018280546125cc90615016565b80156126195780601f106125ee57610100808354040283529160200191612619565b820191906000526020600020905b8154815290600101906020018083116125fc57829003601f168201915b505050505081525050905060026009811115612638576126376148ca565b5b81600001510361265157838061264d90614f6f565b9450505b5050808061265e90614f6f565b9150506124a3565b5060008167ffffffffffffffff81111561268357612682613ba1565b5b6040519080825280602002602001820160405280156126b657816020015b60608152602001906001900390816126a15790505b5090506000805b848110156128a35760006126ec82600260008b81526020019081526020016000206130d490919063ffffffff16565b90506000600460008381526020019081526020016000206040518060600160405290816000820154815260200160018201805461272890615016565b80601f016020809104026020016040519081016040528092919081815260200182805461275490615016565b80156127a15780601f10612776576101008083540402835291602001916127a1565b820191906000526020600020905b81548152906001019060200180831161278457829003601f168201915b505050505081526020016002820180546127ba90615016565b80601f01602080910402602001604051908101604052809291908181526020018280546127e690615016565b80156128335780601f1061280857610100808354040283529160200191612833565b820191906000526020600020905b81548152906001019060200180831161281657829003601f168201915b505050505081525050905060026009811115612852576128516148ca565b5b81600001510361288e57806020015185858151811061287457612873614f11565b5b6020026020010181905250838061288a90614f6f565b9450505b5050808061289b90614f6f565b9150506126bd565b5081945050505050919050565b6000806128bb612aea565b90508073ffffffffffffffffffffffffffffffffffffffff1663bd4986a0846040518263ffffffff1660e01b81526004016128f69190613d37565b602060405180830381865afa158015612913573d6000803e3d6000fd5b505050506040513d601f19601f820116820180604052508101906129379190614e81565b915050919050565b6000600160009054906101000a900473ffffffffffffffffffffffffffffffffffffffff1673ffffffffffffffffffffffffffffffffffffffff16638e8dfd16600160009054906101000a900473ffffffffffffffffffffffffffffffffffffffff1673ffffffffffffffffffffffffffffffffffffffff16632c0b8bf76040518163ffffffff1660e01b8152600401602060405180830381865afa1580156129ec573d6000803e3d6000fd5b505050506040513d601f19601f82011682018060405250810190612a10919061576f565b600160149054906101000a900460ff166040518363ffffffff1660e01b8152600401612a3d92919061579c565b602060405180830381865afa158015612a5a573d6000803e3d6000fd5b505050506040513d601f19601f82011682018060405250810190612a7e9190614e81565b905090565b612ae58360026009811115612a9b57612a9a6148ca565b5b84848080601f016020809104026020016040519081016040528093929190818152602001838380828437600081840152601f19601f82011690508083019250505050505050610d95565b505050565b6000600160009054906101000a900473ffffffffffffffffffffffffffffffffffffffff1673ffffffffffffffffffffffffffffffffffffffff16638e8dfd16600160009054906101000a900473ffffffffffffffffffffffffffffffffffffffff1673ffffffffffffffffffffffffffffffffffffffff16632668f3056040518163ffffffff1660e01b8152600401602060405180830381865afa158015612b97573d6000803e3d6000fd5b505050506040513d601f19601f82011682018060405250810190612bbb919061576f565b600160149054906101000a900460ff166040518363ffffffff1660e01b8152600401612be892919061579c565b602060405180830381865afa158015612c05573d6000803e3d6000fd5b505050506040513d601f19601f82011682018060405250810190612c299190614e81565b905090565b60606000612c3a612aea565b90508073ffffffffffffffffffffffffffffffffffffffff1663ef6fd878846040518263ffffffff1660e01b8152600401612c759190613d37565b600060405180830381865afa158015612c92573d6000803e3d6000fd5b505050506040513d6000823e3d601f19601f82011682018060405250810190612cbb9190615835565b915050919050565b612ccb613160565b600073ffffffffffffffffffffffffffffffffffffffff168173ffffffffffffffffffffffffffffffffffffffff1603612d3a576040517f08c379a0000000000000000000000000000000000000000000000000000000008152600401612d31906158f0565b60405180910390fd5b612d43816131de565b50565b60606000612d65600260008581526020019081526020016000206130bf565b905060008167ffffffffffffffff811115612d8357612d82613ba1565b5b604051908082528060200260200182016040528015612dbc57816020015b612da961387f565b815260200190600190039081612da15790505b50905060005b82811015612f71576000612df182600260008981526020019081526020016000206130d490919063ffffffff16565b90506004600082815260200190815260200160002060405180606001604052908160008201548152602001600182018054612e2b90615016565b80601f0160208091040260200160405190810160405280929190818152602001828054612e5790615016565b8015612ea45780601f10612e7957610100808354040283529160200191612ea4565b820191906000526020600020905b815481529060010190602001808311612e8757829003601f168201915b50505050508152602001600282018054612ebd90615016565b80601f0160208091040260200160405190810160405280929190818152602001828054612ee990615016565b8015612f365780601f10612f0b57610100808354040283529160200191612f36565b820191906000526020600020905b815481529060010190602001808311612f1957829003601f168201915b505050505081525050838381518110612f5257612f51614f11565b5b6020026020010181905250508080612f6990614f6f565b915050612dc2565b508092505050919050565b612f84613160565b80600160006101000a81548173ffffffffffffffffffffffffffffffffffffffff021916908373ffffffffffffffffffffffffffffffffffffffff1602179055507f2760073c7cd8cac531d7f643becbfbb74d8b8156443eacf879622532dbbb3cd581604051612ff49190614567565b60405180910390a150565b60006130638460026009811115613019576130186148ca565b5b85858080601f016020809104026020016040519081016040528093929190818152602001838380828437600081840152601f19601f82011690508083019250505050505050610d3f565b90509392505050565b600080600883901c9050600060ff84166001901b9050600081866000016000858152602001908152602001600020541614159250505092915050565b6000826130b58584613314565b1490509392505050565b60006130cd8260000161336a565b9050919050565b60006130e3836000018361337b565b60001c905092915050565b6000613100836000018360001b6133a6565b905092915050565b600061311a836000018360001b6133c9565b905092915050565b6000600882901c9050600060ff83166001901b9050808460000160008481526020019081526020016000206000828254179250508190555050505050565b6131686134dd565b73ffffffffffffffffffffffffffffffffffffffff1661318661152c565b73ffffffffffffffffffffffffffffffffffffffff16146131dc576040517f08c379a00000000000000000000000000000000000000000000000000000000081526004016131d39061595c565b60405180910390fd5b565b60008060009054906101000a900473ffffffffffffffffffffffffffffffffffffffff169050816000806101000a81548173ffffffffffffffffffffffffffffffffffffffff021916908373ffffffffffffffffffffffffffffffffffffffff1602179055508173ffffffffffffffffffffffffffffffffffffffff168173ffffffffffffffffffffffffffffffffffffffff167f8be0079c531659141344cd1fd0a4f28419497f9722a3daafe3b4186f6b6457e060405160405180910390a35050565b6000826132b08686856134e5565b149050949350505050565b6000600882901c9050600060ff83166001901b905080198460000160008481526020019081526020016000206000828254169250508190555050505050565b600061330c836000018360001b6137cd565b905092915050565b60008082905060005b845181101561335f5761334a8286838151811061333d5761333c614f11565b5b602002602001015161383d565b9150808061335790614f6f565b91505061331d565b508091505092915050565b600081600001805490509050919050565b600082600001828154811061339357613392614f11565b5b9060005260206000200154905092915050565b600080836001016000848152602001908152602001600020541415905092915050565b600080836001016000848152602001908152602001600020549050600081146134d15760006001826133fb919061597c565b9050600060018660000180549050613413919061597c565b905081811461348257600086600001828154811061343457613433614f11565b5b906000526020600020015490508087600001848154811061345857613457614f11565b5b90600052602060002001819055508387600101600083815260200190815260200160002081905550505b85600001805480613496576134956159b0565b5b6001900381819060005260206000200160009055905585600101600086815260200190815260200160002060009055600193505050506134d7565b60009150505b92915050565b600033905090565b6000808251905060008551905060008551905080600183856135079190615726565b613511919061597c565b14613551576040517f08c379a000000000000000000000000000000000000000000000000000000000815260040161354890615a2b565b60405180910390fd5b60008167ffffffffffffffff81111561356d5761356c613ba1565b5b60405190808252806020026020018201604052801561359b5781602001602082028036833780820191505090505b5090506000806000805b858110156136f55760008885106135e2578584806135c290614f6f565b9550815181106135d5576135d4614f11565b5b602002602001015161360a565b8a85806135ee90614f6f565b96508151811061360157613600614f11565b5b60200260200101515b905060008c838151811061362157613620614f11565b5b6020026020010151613659578d848061363990614f6f565b95508151811061364c5761364b614f11565b5b60200260200101516136b5565b89861061368c5786858061366c90614f6f565b96508151811061367f5761367e614f11565b5b60200260200101516136b4565b8b868061369890614f6f565b9750815181106136ab576136aa614f11565b5b60200260200101515b5b90506136c1828261383d565b8784815181106136d4576136d3614f11565b5b602002602001018181525050505080806136ed90614f6f565b9150506135a5565b50600085111561376d57858114613741576040517f08c379a000000000000000000000000000000000000000000000000000000000815260040161373890615a2b565b60405180910390fd5b83600186038151811061375757613756614f11565b5b60200260200101519750505050505050506137c6565b60008711156137a0578860008151811061378a57613789614f11565b5b60200260200101519750505050505050506137c6565b8a6000815181106137b4576137b3614f11565b5b60200260200101519750505050505050505b9392505050565b60006137d983836133a6565b613832578260000182908060018154018082558091505060019003906000526020600020016000909190919091505582600001805490508360010160008481526020019081526020016000208190555060019050613837565b600090505b92915050565b6000818310613855576138508284613868565b613860565b61385f8383613868565b5b905092915050565b600082600052816020526040600020905092915050565b60405180606001604052806000815260200160608152602001606081525090565b6000604051905090565b600080fd5b600080fd5b6000819050919050565b6138c7816138b4565b81146138d257600080fd5b50565b6000813590506138e4816138be565b92915050565b600073ffffffffffffffffffffffffffffffffffffffff82169050919050565b6000613915826138ea565b9050919050565b6139258161390a565b811461393057600080fd5b50565b6000813590506139428161391c565b92915050565b6000806040838503121561395f5761395e6138aa565b5b600061396d858286016138d5565b925050602061397e85828601613933565b9150509250929050565b60008115159050919050565b61399d81613988565b82525050565b60006020820190506139b86000830184613994565b92915050565b600080fd5b600080fd5b600080fd5b60008083601f8401126139e3576139e26139be565b5b8235905067ffffffffffffffff811115613a00576139ff6139c3565b5b602083019150836001820283011115613a1c57613a1b6139c8565b5b9250929050565b600080600080600060808688031215613a3f57613a3e6138aa565b5b6000613a4d888289016138d5565b9550506020613a5e888289016138d5565b945050604086013567ffffffffffffffff811115613a7f57613a7e6138af565b5b613a8b888289016139cd565b93509350506060613a9e888289016138d5565b9150509295509295909350565b600081519050919050565b600082825260208201905092915050565b6000819050602082019050919050565b613ae081613988565b82525050565b6000613af28383613ad7565b60208301905092915050565b6000602082019050919050565b6000613b1682613aab565b613b208185613ab6565b9350613b2b83613ac7565b8060005b83811015613b5c578151613b438882613ae6565b9750613b4e83613afe565b925050600181019050613b2f565b5085935050505092915050565b60006020820190508181036000830152613b838184613b0b565b905092915050565b600080fd5b6000601f19601f8301169050919050565b7f4e487b7100000000000000000000000000000000000000000000000000000000600052604160045260246000fd5b613bd982613b90565b810181811067ffffffffffffffff82111715613bf857613bf7613ba1565b5b80604052505050565b6000613c0b6138a0565b9050613c178282613bd0565b919050565b600067ffffffffffffffff821115613c3757613c36613ba1565b5b613c4082613b90565b9050602081019050919050565b82818337600083830152505050565b6000613c6f613c6a84613c1c565b613c01565b905082815260208101848484011115613c8b57613c8a613b8b565b5b613c96848285613c4d565b509392505050565b600082601f830112613cb357613cb26139be565b5b8135613cc3848260208601613c5c565b91505092915050565b60008060408385031215613ce357613ce26138aa565b5b6000613cf1858286016138d5565b925050602083013567ffffffffffffffff811115613d1257613d116138af565b5b613d1e85828601613c9e565b9150509250929050565b613d31816138b4565b82525050565b6000602082019050613d4c6000830184613d28565b92915050565b60008083601f840112613d6857613d676139be565b5b8235905067ffffffffffffffff811115613d8557613d846139c3565b5b602083019150836020820283011115613da157613da06139c8565b5b9250929050565b60008060008060608587031215613dc257613dc16138aa565b5b6000613dd0878288016138d5565b9450506020613de187828801613933565b935050604085013567ffffffffffffffff811115613e0257613e016138af565b5b613e0e87828801613d52565b925092505092959194509250565b600060208284031215613e3257613e316138aa565b5b6000613e40848285016138d5565b91505092915050565b600081519050919050565b600082825260208201905092915050565b60005b83811015613e83578082015181840152602081019050613e68565b60008484015250505050565b6000613e9a82613e49565b613ea48185613e54565b9350613eb4818560208601613e65565b613ebd81613b90565b840191505092915050565b6000606082019050613edd6000830186613d28565b8181036020830152613eef8185613e8f565b90508181036040830152613f038184613e8f565b9050949350505050565b600067ffffffffffffffff821115613f2857613f27613ba1565b5b602082029050602081019050919050565b6000819050919050565b613f4c81613f39565b8114613f5757600080fd5b50565b600081359050613f6981613f43565b92915050565b6000613f82613f7d84613f0d565b613c01565b90508083825260208201905060208402830185811115613fa557613fa46139c8565b5b835b81811015613fce5780613fba8882613f5a565b845260208401935050602081019050613fa7565b5050509392505050565b600082601f830112613fed57613fec6139be565b5b8135613ffd848260208601613f6f565b91505092915050565b600080600080608085870312156140205761401f6138aa565b5b600061402e878288016138d5565b945050602061403f878288016138d5565b935050604085013567ffffffffffffffff8111156140605761405f6138af565b5b61406c87828801613fd8565b925050606061407d87828801613f5a565b91505092959194509250565b6000819050919050565b60006140ae6140a96140a4846138ea565b614089565b6138ea565b9050919050565b60006140c082614093565b9050919050565b60006140d2826140b5565b9050919050565b6140e2816140c7565b82525050565b60006020820190506140fd60008301846140d9565b92915050565b60008060006040848603121561411c5761411b6138aa565b5b600061412a868287016138d5565b935050602084013567ffffffffffffffff81111561414b5761414a6138af565b5b614157868287016139cd565b92509250509250925092565b600081519050919050565b600082825260208201905092915050565b6000819050602082019050919050565b614198816138b4565b82525050565b60006141aa838361418f565b60208301905092915050565b6000602082019050919050565b60006141ce82614163565b6141d8818561416e565b93506141e38361417f565b8060005b838110156142145781516141fb888261419e565b9750614206836141b6565b9250506001810190506141e7565b5085935050505092915050565b6000602082019050818103600083015261423b81846141c3565b905092915050565b60008060006060848603121561425c5761425b6138aa565b5b600061426a868287016138d5565b935050602061427b868287016138d5565b925050604084013567ffffffffffffffff81111561429c5761429b6138af565b5b6142a886828701613c9e565b9150509250925092565b6000806000606084860312156142cb576142ca6138aa565b5b60006142d9868287016138d5565b93505060206142ea868287016138d5565b92505060406142fb86828701613f5a565b9150509250925092565b600067ffffffffffffffff8211156143205761431f613ba1565b5b602082029050602081019050919050565b61433a81613988565b811461434557600080fd5b50565b60008135905061435781614331565b92915050565b600061437061436b84614305565b613c01565b90508083825260208201905060208402830185811115614393576143926139c8565b5b835b818110156143bc57806143a88882614348565b845260208401935050602081019050614395565b5050509392505050565b600082601f8301126143db576143da6139be565b5b81356143eb84826020860161435d565b91505092915050565b600080600080600060a086880312156144105761440f6138aa565b5b600061441e888289016138d5565b955050602061442f888289016138d5565b945050604086013567ffffffffffffffff8111156144505761444f6138af565b5b61445c88828901613fd8565b935050606086013567ffffffffffffffff81111561447d5761447c6138af565b5b614489888289016143c6565b925050608086013567ffffffffffffffff8111156144aa576144a96138af565b5b6144b688828901613fd8565b9150509295509295909350565b6000806000806000606086880312156144df576144de6138aa565b5b60006144ed888289016138d5565b955050602086013567ffffffffffffffff81111561450e5761450d6138af565b5b61451a888289016139cd565b9450945050604086013567ffffffffffffffff81111561453d5761453c6138af565b5b61454988828901613d52565b92509250509295509295909350565b6145618161390a565b82525050565b600060208201905061457c6000830184614558565b92915050565b600067ffffffffffffffff82111561459d5761459c613ba1565b5b602082029050602081019050919050565b60006145c16145bc84614582565b613c01565b905080838252602082019050602084028301858111156145e4576145e36139c8565b5b835b8181101561460d57806145f988826138d5565b8452602084019350506020810190506145e6565b5050509392505050565b600082601f83011261462c5761462b6139be565b5b813561463c8482602086016145ae565b91505092915050565b600067ffffffffffffffff8211156146605761465f613ba1565b5b602082029050602081019050919050565b600061468461467f84614645565b613c01565b905080838252602082019050602084028301858111156146a7576146a66139c8565b5b835b818110156146ee57803567ffffffffffffffff8111156146cc576146cb6139be565b5b8086016146d98982613c9e565b855260208501945050506020810190506146a9565b5050509392505050565b600082601f83011261470d5761470c6139be565b5b813561471d848260208601614671565b91505092915050565b60008083601f84011261473c5761473b6139be565b5b8235905067ffffffffffffffff811115614759576147586139c3565b5b602083019150836020820283011115614775576147746139c8565b5b9250929050565b60008060008060008060008060e0898b03121561479c5761479b6138aa565b5b60006147aa8b828c016138d5565b985050602089013567ffffffffffffffff8111156147cb576147ca6138af565b5b6147d78b828c01614617565b975050604089013567ffffffffffffffff8111156147f8576147f76138af565b5b6148048b828c016146f8565b965050606089013567ffffffffffffffff811115614825576148246138af565b5b6148318b828c016146f8565b955050608089013567ffffffffffffffff811115614852576148516138af565b5b61485e8b828c01614726565b945094505060a089013567ffffffffffffffff811115614881576148806138af565b5b61488d8b828c01614617565b92505060c089013567ffffffffffffffff8111156148ae576148ad6138af565b5b6148ba8b828c016146f8565b9150509295985092959890939650565b7f4e487b7100000000000000000000000000000000000000000000000000000000600052602160045260246000fd5b6003811061490a576149096148ca565b5b50565b600081905061491b826148f9565b919050565b600061492b8261490d565b9050919050565b61493b81614920565b82525050565b60006020820190506149566000830184614932565b92915050565b600080fd5b600080fd5b60006060828403121561497c5761497b61495c565b5b6149866060613c01565b90506000614996848285016138d5565b600083015250602082013567ffffffffffffffff8111156149ba576149b9614961565b5b6149c684828501613c9e565b602083015250604082013567ffffffffffffffff8111156149ea576149e9614961565b5b6149f684828501613c9e565b60408301525092915050565b60008060008060608587031215614a1c57614a1b6138aa565b5b6000614a2a878288016138d5565b945050602085013567ffffffffffffffff811115614a4b57614a4a6138af565b5b614a5787828801614966565b935050604085013567ffffffffffffffff811115614a7857614a776138af565b5b614a8487828801613d52565b925092505092959194509250565b60006020820190508181036000830152614aac8184613e8f565b905092915050565b600081519050919050565b600082825260208201905092915050565b6000819050602082019050919050565b614ae98161390a565b82525050565b6000614afb8383614ae0565b60208301905092915050565b6000602082019050919050565b6000614b1f82614ab4565b614b298185614abf565b9350614b3483614ad0565b8060005b83811015614b65578151614b4c8882614aef565b9750614b5783614b07565b925050600181019050614b38565b5085935050505092915050565b60006020820190508181036000830152614b8c8184614b14565b905092915050565b600081519050919050565b600082825260208201905092915050565b6000819050602082019050919050565b600082825260208201905092915050565b6000614bdc82613e49565b614be68185614bc0565b9350614bf6818560208601613e65565b614bff81613b90565b840191505092915050565b6000614c168383614bd1565b905092915050565b6000602082019050919050565b6000614c3682614b94565b614c408185614b9f565b935083602082028501614c5285614bb0565b8060005b85811015614c8e5784840389528151614c6f8582614c0a565b9450614c7a83614c1e565b925060208a01995050600181019050614c56565b50829750879550505050505092915050565b60006020820190508181036000830152614cba8184614c2b565b905092915050565b600060208284031215614cd857614cd76138aa565b5b6000614ce684828501613933565b91505092915050565b600081519050919050565b600082825260208201905092915050565b6000819050602082019050919050565b6000606083016000830151614d33600086018261418f565b5060208301518482036020860152614d4b8282614bd1565b91505060408301518482036040860152614d658282614bd1565b9150508091505092915050565b6000614d7e8383614d1b565b905092915050565b6000602082019050919050565b6000614d9e82614cef565b614da88185614cfa565b935083602082028501614dba85614d0b565b8060005b85811015614df65784840389528151614dd78582614d72565b9450614de283614d86565b925060208a01995050600181019050614dbe565b50829750879550505050505092915050565b60006020820190508181036000830152614e228184614d93565b905092915050565b600081519050614e3981614331565b92915050565b600060208284031215614e5557614e546138aa565b5b6000614e6384828501614e2a565b91505092915050565b600081519050614e7b8161391c565b92915050565b600060208284031215614e9757614e966138aa565b5b6000614ea584828501614e6c565b91505092915050565b60008160601b9050919050565b6000614ec682614eae565b9050919050565b6000614ed882614ebb565b9050919050565b614ef0614eeb8261390a565b614ecd565b82525050565b6000614f028284614edf565b60148201915081905092915050565b7f4e487b7100000000000000000000000000000000000000000000000000000000600052603260045260246000fd5b7f4e487b7100000000000000000000000000000000000000000000000000000000600052601160045260246000fd5b6000614f7a826138b4565b91507fffffffffffffffffffffffffffffffffffffffffffffffffffffffffffffffff8203614fac57614fab614f40565b5b600182019050919050565b6000604082019050614fcc6000830185613d28565b8181036020830152614fde8184613e8f565b90509392505050565b7f4e487b7100000000000000000000000000000000000000000000000000000000600052602260045260246000fd5b6000600282049050600182168061502e57607f821691505b60208210810361504157615040614fe7565b5b50919050565b600082825260208201905092915050565b7f4e6f7420504b50204e4654206f776e6572000000000000000000000000000000600082015250565b600061508e601183615047565b915061509982615058565b602082019050919050565b600060208201905081810360008301526150bd81615081565b9050919050565b6150cd81613f39565b82525050565b60006020820190506150e860008301846150c4565b92915050565b60006150fa8385613e54565b9350615107838584613c4d565b61511083613b90565b840190509392505050565b60006060820190506151306000830187613d28565b81810360208301526151438185876150ee565b90506151526040830184613d28565b95945050505050565b7f4d75737420686176652073616d65206e756d626572206f662061757468206d6560008201527f74686f64732c206964732c207075626b6579732c20616e642073636f7065732060208201527f746f206164640000000000000000000000000000000000000000000000000000604082015250565b60006151dd604683615047565b91506151e88261515b565b606082019050919050565b6000602082019050818103600083015261520c816151d0565b9050919050565b7f4d75737420686176652073616d65206e756d626572206f662061757468206d6560008201527f74686f647320616e642069647320746f2072656d6f7665000000000000000000602082015250565b600061526f603783615047565b915061527a82615213565b604082019050919050565b6000602082019050818103600083015261529e81615262565b9050919050565b600080fd5b600080fd5b600080fd5b600080833560016020038436030381126152d1576152d06152a5565b5b80840192508235915067ffffffffffffffff8211156152f3576152f26152aa565b5b60208301925060208202360383131561530f5761530e6152af565b5b509250929050565b600081905092915050565b60008190508160005260206000209050919050565b6000815461534481615016565b61534e8186615317565b94506001821660008114615369576001811461537e576153b1565b60ff19831686528115158202860193506153b1565b61538785615322565b60005b838110156153a95781548189015260018201915060208101905061538a565b838801955050505b50505092915050565b60006153c68284615337565b915081905092915050565b7f43616e6e6f7420616464206120646966666572656e74207075626b657920666f60008201527f72207468652073616d652061757468206d6574686f64207479706520616e642060208201527f6964000000000000000000000000000000000000000000000000000000000000604082015250565b6000615453604283615047565b915061545e826153d1565b606082019050919050565b6000602082019050818103600083015261548281615446565b9050919050565b60006020601f8301049050919050565b600082821b905092915050565b6000600883026154d67fffffffffffffffffffffffffffffffffffffffffffffffffffffffffffffffff82615499565b6154e08683615499565b95508019841693508086168417925050509392505050565b600061551361550e615509846138b4565b614089565b6138b4565b9050919050565b6000819050919050565b61552d836154f8565b6155416155398261551a565b8484546154a6565b825550505050565b600090565b615556615549565b615561818484615524565b505050565b5b818110156155855761557a60008261554e565b600181019050615567565b5050565b601f8211156155ca5761559b81615322565b6155a484615489565b810160208510156155b3578190505b6155c76155bf85615489565b830182615566565b50505b505050565b600082821c905092915050565b60006155ed600019846008026155cf565b1980831691505092915050565b600061560683836155dc565b9150826002028217905092915050565b61561f82613e49565b67ffffffffffffffff81111561563857615637613ba1565b5b6156428254615016565b61564d828285615589565b600060209050601f831160018114615680576000841561566e578287015190505b61567885826155fa565b8655506156e0565b601f19841661568e86615322565b60005b828110156156b657848901518255600182019150602085019450602081019050615691565b868310156156d357848901516156cf601f8916826155dc565b8355505b6001600288020188555050505b505050505050565b60006060820190506156fd6000830186613d28565b818103602083015261570f8185613e8f565b905061571e6040830184613d28565b949350505050565b6000615731826138b4565b915061573c836138b4565b925082820190508082111561575457615753614f40565b5b92915050565b60008151905061576981613f43565b92915050565b600060208284031215615785576157846138aa565b5b60006157938482850161575a565b91505092915050565b60006040820190506157b160008301856150c4565b6157be6020830184614932565b9392505050565b60006157d86157d384613c1c565b613c01565b9050828152602081018484840111156157f4576157f3613b8b565b5b6157ff848285613e65565b509392505050565b600082601f83011261581c5761581b6139be565b5b815161582c8482602086016157c5565b91505092915050565b60006020828403121561584b5761584a6138aa565b5b600082015167ffffffffffffffff811115615869576158686138af565b5b61587584828501615807565b91505092915050565b7f4f776e61626c653a206e6577206f776e657220697320746865207a65726f206160008201527f6464726573730000000000000000000000000000000000000000000000000000602082015250565b60006158da602683615047565b91506158e58261587e565b604082019050919050565b60006020820190508181036000830152615909816158cd565b9050919050565b7f4f776e61626c653a2063616c6c6572206973206e6f7420746865206f776e6572600082015250565b6000615946602083615047565b915061595182615910565b602082019050919050565b6000602082019050818103600083015261597581615939565b9050919050565b6000615987826138b4565b9150615992836138b4565b92508282039050818111156159aa576159a9614f40565b5b92915050565b7f4e487b7100000000000000000000000000000000000000000000000000000000600052603160045260246000fd5b7f4d65726b6c6550726f6f663a20696e76616c6964206d756c746970726f6f6600600082015250565b6000615a15601f83615047565b9150615a20826159df565b602082019050919050565b60006020820190508181036000830152615a4481615a08565b905091905056fea26469706673582212209678f742819d024bef74099a9e7331619e76119835e8731bc86f90563ce18f4864736f6c63430008110033",
  "linkReferences": {},
  "deployedLinkReferences": {}
}