{
  "_format": "hh-sol-artifact-1",
  "contractName": "PubkeyRouter",
  "sourceName": "contracts/lit-node/PubkeyRouter.sol",
  "abi": [
    {
      "inputs": [
        {
          "internalType": "address",
          "name": "_resolver",
          "type": "address"
        },
        {
          "internalType": "enum ContractResolver.Env",
          "name": "_env",
          "type": "uint8"
        }
      ],
      "stateMutability": "nonpayable",
      "type": "constructor"
    },
    {
      "anonymous": false,
      "inputs": [
        {
          "indexed": false,
          "internalType": "address",
          "name": "newResolverAddress",
          "type": "address"
        }
      ],
      "name": "ContractResolverAddressSet",
      "type": "event"
    },
    {
      "anonymous": false,
      "inputs": [
        {
          "indexed": true,
          "internalType": "uint256",
          "name": "tokenId",
          "type": "uint256"
        },
        {
          "indexed": false,
          "internalType": "bytes",
          "name": "pubkey",
          "type": "bytes"
        },
        {
          "indexed": false,
          "internalType": "address",
          "name": "stakingContract",
          "type": "address"
        },
        {
          "indexed": false,
          "internalType": "uint256",
          "name": "keyType",
          "type": "uint256"
        },
        {
          "indexed": false,
          "internalType": "bytes32",
          "name": "derivedKeyId",
          "type": "bytes32"
        }
      ],
      "name": "PubkeyRoutingDataSet",
      "type": "event"
    },
    {
      "anonymous": false,
      "inputs": [
        {
          "indexed": true,
          "internalType": "bytes32",
          "name": "role",
          "type": "bytes32"
        },
        {
          "indexed": true,
          "internalType": "bytes32",
          "name": "previousAdminRole",
          "type": "bytes32"
        },
        {
          "indexed": true,
          "internalType": "bytes32",
          "name": "newAdminRole",
          "type": "bytes32"
        }
      ],
      "name": "RoleAdminChanged",
      "type": "event"
    },
    {
      "anonymous": false,
      "inputs": [
        {
          "indexed": true,
          "internalType": "bytes32",
          "name": "role",
          "type": "bytes32"
        },
        {
          "indexed": true,
          "internalType": "address",
          "name": "account",
          "type": "address"
        },
        {
          "indexed": true,
          "internalType": "address",
          "name": "sender",
          "type": "address"
        }
      ],
      "name": "RoleGranted",
      "type": "event"
    },
    {
      "anonymous": false,
      "inputs": [
        {
          "indexed": true,
          "internalType": "bytes32",
          "name": "role",
          "type": "bytes32"
        },
        {
          "indexed": true,
          "internalType": "address",
          "name": "account",
          "type": "address"
        },
        {
          "indexed": true,
          "internalType": "address",
          "name": "sender",
          "type": "address"
        }
      ],
      "name": "RoleRevoked",
      "type": "event"
    },
    {
      "anonymous": false,
      "inputs": [
        {
          "indexed": false,
          "internalType": "address",
          "name": "stakingContract",
          "type": "address"
        },
        {
          "components": [
            {
              "internalType": "bytes",
              "name": "pubkey",
              "type": "bytes"
            },
            {
              "internalType": "uint256",
              "name": "keyType",
              "type": "uint256"
            }
          ],
          "indexed": false,
          "internalType": "struct IPubkeyRouter.RootKey",
          "name": "rootKey",
          "type": "tuple"
        }
      ],
      "name": "RootKeySet",
      "type": "event"
    },
    {
      "inputs": [],
      "name": "ADMIN_ROLE",
      "outputs": [
        {
          "internalType": "bytes32",
          "name": "",
          "type": "bytes32"
        }
      ],
      "stateMutability": "view",
      "type": "function"
    },
    {
      "inputs": [],
      "name": "DEFAULT_ADMIN_ROLE",
      "outputs": [
        {
          "internalType": "bytes32",
          "name": "",
          "type": "bytes32"
        }
      ],
      "stateMutability": "view",
      "type": "function"
    },
    {
      "inputs": [
        {
          "components": [
            {
              "internalType": "bytes32",
              "name": "r",
              "type": "bytes32"
            },
            {
              "internalType": "bytes32",
              "name": "s",
              "type": "bytes32"
            },
            {
              "internalType": "uint8",
              "name": "v",
              "type": "uint8"
            }
          ],
          "internalType": "struct IPubkeyRouter.Signature[]",
          "name": "signatures",
          "type": "tuple[]"
        },
        {
          "internalType": "bytes",
          "name": "signedMessage",
          "type": "bytes"
        },
        {
          "internalType": "address",
          "name": "stakingContractAddress",
          "type": "address"
        }
      ],
      "name": "checkNodeSignatures",
      "outputs": [
        {
          "internalType": "bool",
          "name": "",
          "type": "bool"
        }
      ],
      "stateMutability": "view",
      "type": "function"
    },
    {
      "inputs": [],
      "name": "contractResolver",
      "outputs": [
        {
          "internalType": "contract ContractResolver",
          "name": "",
          "type": "address"
        }
      ],
      "stateMutability": "view",
      "type": "function"
    },
    {
      "inputs": [
        {
          "internalType": "bytes",
          "name": "pubkey",
          "type": "bytes"
        }
      ],
      "name": "deriveEthAddressFromPubkey",
      "outputs": [
        {
          "internalType": "address",
          "name": "",
          "type": "address"
        }
      ],
      "stateMutability": "pure",
      "type": "function"
    },
    {
      "inputs": [],
      "name": "env",
      "outputs": [
        {
          "internalType": "enum ContractResolver.Env",
          "name": "",
          "type": "uint8"
        }
      ],
      "stateMutability": "view",
      "type": "function"
    },
    {
      "inputs": [
        {
          "internalType": "address",
          "name": "",
          "type": "address"
        }
      ],
      "name": "ethAddressToPkpId",
      "outputs": [
        {
          "internalType": "uint256",
          "name": "",
          "type": "uint256"
        }
      ],
      "stateMutability": "view",
      "type": "function"
    },
    {
      "inputs": [
        {
          "internalType": "address",
          "name": "stakingContract",
          "type": "address"
        },
        {
          "internalType": "bytes32",
          "name": "derivedKeyId",
          "type": "bytes32"
        }
      ],
      "name": "getDerivedPubkey",
      "outputs": [
        {
          "internalType": "bytes",
          "name": "",
          "type": "bytes"
        }
      ],
      "stateMutability": "view",
      "type": "function"
    },
    {
      "inputs": [
        {
          "internalType": "uint256",
          "name": "tokenId",
          "type": "uint256"
        }
      ],
      "name": "getEthAddress",
      "outputs": [
        {
          "internalType": "address",
          "name": "",
          "type": "address"
        }
      ],
      "stateMutability": "view",
      "type": "function"
    },
    {
      "inputs": [],
      "name": "getPkpNftAddress",
      "outputs": [
        {
          "internalType": "address",
          "name": "",
          "type": "address"
        }
      ],
      "stateMutability": "view",
      "type": "function"
    },
    {
      "inputs": [
        {
          "internalType": "uint256",
          "name": "tokenId",
          "type": "uint256"
        }
      ],
      "name": "getPubkey",
      "outputs": [
        {
          "internalType": "bytes",
          "name": "",
          "type": "bytes"
        }
      ],
      "stateMutability": "view",
      "type": "function"
    },
    {
      "inputs": [
        {
          "internalType": "bytes32",
          "name": "role",
          "type": "bytes32"
        }
      ],
      "name": "getRoleAdmin",
      "outputs": [
        {
          "internalType": "bytes32",
          "name": "",
          "type": "bytes32"
        }
      ],
      "stateMutability": "view",
      "type": "function"
    },
    {
      "inputs": [
        {
          "internalType": "address",
          "name": "stakingContract",
          "type": "address"
        }
      ],
      "name": "getRootKeys",
      "outputs": [
        {
          "components": [
            {
              "internalType": "bytes",
              "name": "pubkey",
              "type": "bytes"
            },
            {
              "internalType": "uint256",
              "name": "keyType",
              "type": "uint256"
            }
          ],
          "internalType": "struct IPubkeyRouter.RootKey[]",
          "name": "",
          "type": "tuple[]"
        }
      ],
      "stateMutability": "view",
      "type": "function"
    },
    {
      "inputs": [
        {
          "internalType": "uint256",
          "name": "tokenId",
          "type": "uint256"
        }
      ],
      "name": "getRoutingData",
      "outputs": [
        {
          "components": [
            {
              "internalType": "bytes",
              "name": "pubkey",
              "type": "bytes"
            },
            {
              "internalType": "uint256",
              "name": "keyType",
              "type": "uint256"
            },
            {
              "internalType": "bytes32",
              "name": "derivedKeyId",
              "type": "bytes32"
            }
          ],
          "internalType": "struct PubkeyRouter.PubkeyRoutingData",
          "name": "",
          "type": "tuple"
        }
      ],
      "stateMutability": "view",
      "type": "function"
    },
    {
      "inputs": [
        {
          "internalType": "bytes32",
          "name": "role",
          "type": "bytes32"
        },
        {
          "internalType": "address",
          "name": "account",
          "type": "address"
        }
      ],
      "name": "grantRole",
      "outputs": [],
      "stateMutability": "nonpayable",
      "type": "function"
    },
    {
      "inputs": [
        {
          "internalType": "bytes32",
          "name": "role",
          "type": "bytes32"
        },
        {
          "internalType": "address",
          "name": "account",
          "type": "address"
        }
      ],
      "name": "hasRole",
      "outputs": [
        {
          "internalType": "bool",
          "name": "",
          "type": "bool"
        }
      ],
      "stateMutability": "view",
      "type": "function"
    },
    {
      "inputs": [
        {
          "internalType": "uint256",
          "name": "tokenId",
          "type": "uint256"
        }
      ],
      "name": "isRouted",
      "outputs": [
        {
          "internalType": "bool",
          "name": "",
          "type": "bool"
        }
      ],
      "stateMutability": "view",
      "type": "function"
    },
    {
      "inputs": [
        {
          "internalType": "uint256",
          "name": "",
          "type": "uint256"
        }
      ],
      "name": "pubkeys",
      "outputs": [
        {
          "internalType": "bytes",
          "name": "pubkey",
          "type": "bytes"
        },
        {
          "internalType": "uint256",
          "name": "keyType",
          "type": "uint256"
        },
        {
          "internalType": "bytes32",
          "name": "derivedKeyId",
          "type": "bytes32"
        }
      ],
      "stateMutability": "view",
      "type": "function"
    },
    {
      "inputs": [
        {
          "internalType": "bytes32",
          "name": "role",
          "type": "bytes32"
        },
        {
          "internalType": "address",
          "name": "account",
          "type": "address"
        }
      ],
      "name": "renounceRole",
      "outputs": [],
      "stateMutability": "nonpayable",
      "type": "function"
    },
    {
      "inputs": [
        {
          "internalType": "bytes32",
          "name": "role",
          "type": "bytes32"
        },
        {
          "internalType": "address",
          "name": "account",
          "type": "address"
        }
      ],
      "name": "revokeRole",
      "outputs": [],
      "stateMutability": "nonpayable",
      "type": "function"
    },
    {
      "inputs": [
        {
          "internalType": "address",
          "name": "",
          "type": "address"
        },
        {
          "internalType": "uint256",
          "name": "",
          "type": "uint256"
        }
      ],
      "name": "rootKeys",
      "outputs": [
        {
          "internalType": "bytes",
          "name": "pubkey",
          "type": "bytes"
        },
        {
          "internalType": "uint256",
          "name": "keyType",
          "type": "uint256"
        }
      ],
      "stateMutability": "view",
      "type": "function"
    },
    {
      "inputs": [
        {
          "internalType": "address",
          "name": "newResolverAddress",
          "type": "address"
        }
      ],
      "name": "setContractResolver",
      "outputs": [],
      "stateMutability": "nonpayable",
      "type": "function"
    },
    {
      "inputs": [
        {
          "internalType": "uint256",
          "name": "tokenId",
          "type": "uint256"
        },
        {
          "internalType": "bytes",
          "name": "pubkey",
          "type": "bytes"
        },
        {
          "internalType": "address",
          "name": "stakingContractAddress",
          "type": "address"
        },
        {
          "internalType": "uint256",
          "name": "keyType",
          "type": "uint256"
        },
        {
          "internalType": "bytes32",
          "name": "derivedKeyId",
          "type": "bytes32"
        }
      ],
      "name": "setRoutingData",
      "outputs": [],
      "stateMutability": "nonpayable",
      "type": "function"
    },
    {
      "inputs": [
        {
          "internalType": "uint256",
          "name": "tokenId",
          "type": "uint256"
        },
        {
          "internalType": "bytes",
          "name": "pubkey",
          "type": "bytes"
        },
        {
          "internalType": "address",
          "name": "stakingContract",
          "type": "address"
        },
        {
          "internalType": "uint256",
          "name": "keyType",
          "type": "uint256"
        },
        {
          "internalType": "bytes32",
          "name": "derivedKeyId",
          "type": "bytes32"
        }
      ],
      "name": "setRoutingDataAsAdmin",
      "outputs": [],
      "stateMutability": "nonpayable",
      "type": "function"
    },
    {
      "inputs": [
        {
          "internalType": "bytes4",
          "name": "interfaceId",
          "type": "bytes4"
        }
      ],
      "name": "supportsInterface",
      "outputs": [
        {
          "internalType": "bool",
          "name": "",
          "type": "bool"
        }
      ],
      "stateMutability": "view",
      "type": "function"
    },
    {
      "inputs": [
        {
          "internalType": "address",
          "name": "stakingContractAddress",
          "type": "address"
        },
        {
          "components": [
            {
              "internalType": "bytes",
              "name": "pubkey",
              "type": "bytes"
            },
            {
              "internalType": "uint256",
              "name": "keyType",
              "type": "uint256"
            }
          ],
          "internalType": "struct IPubkeyRouter.RootKey[]",
          "name": "newRootKeys",
          "type": "tuple[]"
        }
      ],
      "name": "voteForRootKeys",
      "outputs": [],
      "stateMutability": "nonpayable",
      "type": "function"
    },
    {
      "inputs": [
        {
          "internalType": "address",
          "name": "",
          "type": "address"
        },
        {
          "internalType": "bytes",
          "name": "",
          "type": "bytes"
        }
      ],
      "name": "votesToRegisterRootKeys",
      "outputs": [
        {
          "internalType": "uint256",
          "name": "votes",
          "type": "uint256"
        }
      ],
      "stateMutability": "view",
      "type": "function"
    }
  ],
  "bytecode": "0x60806040523480156200001157600080fd5b5060405162004d5038038062004d50833981810160405281019062000037919062000388565b81600160006101000a81548173ffffffffffffffffffffffffffffffffffffffff021916908373ffffffffffffffffffffffffffffffffffffffff16021790555080600160146101000a81548160ff02191690836002811115620000a0576200009f620003cf565b5b0217905550620000d77fdf8b4c520ffe197c5343c6f5aec59570151ef9a492f2c624fd45ddde6135ec42336200011160201b60201c565b620001097fdf8b4c520ffe197c5343c6f5aec59570151ef9a492f2c624fd45ddde6135ec42806200020260201b60201c565b5050620003fe565b6200012382826200026560201b60201c565b620001fe57600160008084815260200190815260200160002060000160008373ffffffffffffffffffffffffffffffffffffffff1673ffffffffffffffffffffffffffffffffffffffff16815260200190815260200160002060006101000a81548160ff021916908315150217905550620001a3620002cf60201b60201c565b73ffffffffffffffffffffffffffffffffffffffff168173ffffffffffffffffffffffffffffffffffffffff16837f2f8788117e7eff1d82e926ec794901d17c78024a50270940304540a733656f0d60405160405180910390a45b5050565b60006200021583620002d760201b60201c565b905081600080858152602001908152602001600020600101819055508181847fbd79b86ffe0ab8e8776151514217cd7cacd52c909f66475c3af44e129f0b00ff60405160405180910390a4505050565b600080600084815260200190815260200160002060000160008373ffffffffffffffffffffffffffffffffffffffff1673ffffffffffffffffffffffffffffffffffffffff16815260200190815260200160002060009054906101000a900460ff16905092915050565b600033905090565b6000806000838152602001908152602001600020600101549050919050565b600080fd5b600073ffffffffffffffffffffffffffffffffffffffff82169050919050565b60006200032882620002fb565b9050919050565b6200033a816200031b565b81146200034657600080fd5b50565b6000815190506200035a816200032f565b92915050565b600381106200036e57600080fd5b50565b600081519050620003828162000360565b92915050565b60008060408385031215620003a257620003a1620002f6565b5b6000620003b28582860162000349565b9250506020620003c58582860162000371565b9150509250929050565b7f4e487b7100000000000000000000000000000000000000000000000000000000600052602160045260246000fd5b614942806200040e6000396000f3fe608060405234801561001057600080fd5b50600436106101a95760003560e01c80637bd3e3f6116100f9578063bd4986a011610097578063d547741f11610071578063d547741f14610543578063de18a5081461055f578063ef6fd8781461058f578063f95d71b1146105bf576101a9565b8063bd4986a0146104c5578063caead0c7146104f5578063cc609d2714610513576101a9565b80639dca0032116100d35780639dca0032146104295780639e45c02c14610447578063a217fddf14610477578063b4da9d7914610495576101a9565b80637bd3e3f6146103965780637cc3c6b7146103c857806391d14854146103f9576101a9565b80632f2ff15d116101665780634abc064d116101405780634abc064d1461032257806350d17b5e1461033e5780636e289d8e1461035c57806375b238fc14610378576101a9565b80632f2ff15d146102ba57806336568abe146102d657806343a2705f146102f2576101a9565b806301c6d035146101ae57806301ffc9a7146101de5780630fccbd621461020e578063191fe5331461022a578063248a9ca31461025a57806325c836f91461028a575b600080fd5b6101c860048036038101906101c391906128cf565b6105db565b6040516101d59190612917565b60405180910390f35b6101f860048036038101906101f3919061298a565b6106da565b6040516102059190612917565b60405180910390f35b61022860048036038101906102239190612b91565b610754565b005b610244600480360381019061023f9190612c28565b61094f565b6040516102519190612c93565b60405180910390f35b610274600480360381019061026f9190612cae565b610990565b6040516102819190612cea565b60405180910390f35b6102a4600480360381019061029f91906128cf565b6109af565b6040516102b19190612df2565b60405180910390f35b6102d460048036038101906102cf9190612e14565b610a82565b005b6102f060048036038101906102eb9190612e14565b610aa3565b005b61030c60048036038101906103079190612e54565b610b26565b6040516103199190612ede565b60405180910390f35b61033c6004803603810190610337919061305c565b610b74565b005b6103466110bd565b6040516103539190613117565b60405180910390f35b61037660048036038101906103719190612b91565b6110e3565b005b61038061123d565b60405161038d9190612cea565b60405180910390f35b6103b060048036038101906103ab91906128cf565b611261565b6040516103bf93929190613132565b60405180910390f35b6103e260048036038101906103dd9190613170565b611313565b6040516103f09291906131b0565b60405180910390f35b610413600480360381019061040e9190612e14565b6113dc565b6040516104209190612917565b60405180910390f35b610431611446565b60405161043e9190613257565b60405180910390f35b610461600480360381019061045c91906133d2565b611459565b60405161046e9190612917565b60405180910390f35b61047f61163a565b60405161048c9190612cea565b60405180910390f35b6104af60048036038101906104aa919061345d565b611641565b6040516104bc9190613589565b60405180910390f35b6104df60048036038101906104da91906128cf565b61177b565b6040516104ec91906135ba565b60405180910390f35b6104fd61182b565b60405161050a91906135ba565b60405180910390f35b61052d600480360381019061052891906135d5565b61196f565b60405161053a91906135ba565b60405180910390f35b61055d60048036038101906105589190612e14565b61199e565b005b6105796004803603810190610574919061345d565b6119bf565b6040516105869190612c93565b60405180910390f35b6105a960048036038101906105a491906128cf565b6119d7565b6040516105b69190612ede565b60405180910390f35b6105d960048036038101906105d4919061345d565b611a7f565b005b6000806003600084815260200190815260200160002060405180606001604052908160008201805461060c9061364d565b80601f01602080910402602001604051908101604052809291908181526020018280546106389061364d565b80156106855780601f1061065a57610100808354040283529160200191610685565b820191906000526020600020905b81548152906001019060200180831161066857829003601f168201915b505050505081526020016001820154815260200160028201548152505090506000816000015151141580156106bf57506000816020015114155b80156106d257506000801b816040015114155b915050919050565b60007f7965db0b000000000000000000000000000000000000000000000000000000007bffffffffffffffffffffffffffffffffffffffffffffffffffffffff1916827bffffffffffffffffffffffffffffffffffffffffffffffffffffffff1916148061074d575061074c82611b25565b5b9050919050565b61075c61182b565b73ffffffffffffffffffffffffffffffffffffffff163373ffffffffffffffffffffffffffffffffffffffff16146107c9576040517f08c379a00000000000000000000000000000000000000000000000000000000081526004016107c090613701565b60405180910390fd5b838051906020012060001c8514610815576040517f08c379a000000000000000000000000000000000000000000000000000000000815260040161080c90613793565b60405180910390fd5b61081e856105db565b1561085e576040517f08c379a000000000000000000000000000000000000000000000000000000000815260040161085590613825565b60405180910390fd5b8360036000878152602001908152602001600020600001908161088191906139e7565b5081600360008781526020019081526020016000206001018190555080600360008781526020019081526020016000206002018190555060006108c38561196f565b905085600460008373ffffffffffffffffffffffffffffffffffffffff1673ffffffffffffffffffffffffffffffffffffffff16815260200190815260200160002081905550857f0651cc1852188054ab1dc1f39e0a543b236620b2d303cdcf5ca15adc97c272be8686868660405161093f9493929190613ab9565b60405180910390a2505050505050565b600260205281600052604060002081805160208101820180518482526020830160208501208183528095505050505050600091509150508060000154905081565b6000806000838152602001908152602001600020600101549050919050565b6109b7612861565b600360008381526020019081526020016000206040518060600160405290816000820180546109e59061364d565b80601f0160208091040260200160405190810160405280929190818152602001828054610a119061364d565b8015610a5e5780601f10610a3357610100808354040283529160200191610a5e565b820191906000526020600020905b815481529060010190602001808311610a4157829003601f168201915b50505050508152602001600182015481526020016002820154815250509050919050565b610a8b82610990565b610a9481611b8f565b610a9e8383611ba3565b505050565b610aab611c83565b73ffffffffffffffffffffffffffffffffffffffff168173ffffffffffffffffffffffffffffffffffffffff1614610b18576040517f08c379a0000000000000000000000000000000000000000000000000000000008152600401610b0f90613b77565b60405180910390fd5b610b228282611c8b565b5050565b60606000610b3384611641565b9050600081600081518110610b4b57610b4a613b97565b5b60200260200101516020015190506000610b66858484611d6c565b905080935050505092915050565b60008290508073ffffffffffffffffffffffffffffffffffffffff1663a25e49a4336040518263ffffffff1660e01b8152600401610bb291906135ba565b602060405180830381865afa158015610bcf573d6000803e3d6000fd5b505050506040513d601f19601f82011682018060405250810190610bf39190613bf2565b610c32576040517f08c379a0000000000000000000000000000000000000000000000000000000008152600401610c2990613c91565b60405180910390fd5b6000600560008573ffffffffffffffffffffffffffffffffffffffff1673ffffffffffffffffffffffffffffffffffffffff1681526020019081526020016000208054905014610cb7576040517f08c379a0000000000000000000000000000000000000000000000000000000008152600401610cae90613d23565b60405180910390fd5b60005b82518110156110b7576000838281518110610cd857610cd7613b97565b5b6020026020010151905060001515600260008773ffffffffffffffffffffffffffffffffffffffff1673ffffffffffffffffffffffffffffffffffffffff1681526020019081526020016000208260000151604051610d379190613d7f565b908152602001604051809103902060010160003373ffffffffffffffffffffffffffffffffffffffff1673ffffffffffffffffffffffffffffffffffffffff16815260200190815260200160002060009054906101000a900460ff16151514610dd5576040517f08c379a0000000000000000000000000000000000000000000000000000000008152600401610dcc90613e08565b60405180910390fd5b6001600260008773ffffffffffffffffffffffffffffffffffffffff1673ffffffffffffffffffffffffffffffffffffffff1681526020019081526020016000208260000151604051610e289190613d7f565b90815260200160405180910390206000016000828254610e489190613e57565b925050819055506001600260008773ffffffffffffffffffffffffffffffffffffffff1673ffffffffffffffffffffffffffffffffffffffff1681526020019081526020016000208260000151604051610ea29190613d7f565b908152602001604051809103902060010160003373ffffffffffffffffffffffffffffffffffffffff1673ffffffffffffffffffffffffffffffffffffffff16815260200190815260200160002060006101000a81548160ff0219169083151502179055508273ffffffffffffffffffffffffffffffffffffffff1663d4818fca6040518163ffffffff1660e01b8152600401602060405180830381865afa158015610f52573d6000803e3d6000fd5b505050506040513d601f19601f82011682018060405250810190610f769190613ea0565b600260008773ffffffffffffffffffffffffffffffffffffffff1673ffffffffffffffffffffffffffffffffffffffff1681526020019081526020016000208260000151604051610fc79190613d7f565b908152602001604051809103902060000154036110a357600560008673ffffffffffffffffffffffffffffffffffffffff1673ffffffffffffffffffffffffffffffffffffffff168152602001908152602001600020819080600181540180825580915050600190039060005260206000209060020201600090919091909150600082015181600001908161105c91906139e7565b506020820151816001015550507f960d418a88263b5c477aa3833dd1f4c69784abcbc0014ec8c21fb76b7a1f145c858260405161109a929190613f0a565b60405180910390a15b5080806110af90613f3a565b915050610cba565b50505050565b600160009054906101000a900473ffffffffffffffffffffffffffffffffffffffff1681565b61110d7fdf8b4c520ffe197c5343c6f5aec59570151ef9a492f2c624fd45ddde6135ec42336113dc565b61114c576040517f08c379a000000000000000000000000000000000000000000000000000000000815260040161114390613ff4565b60405180910390fd5b8360036000878152602001908152602001600020600001908161116f91906139e7565b5081600360008781526020019081526020016000206001018190555080600360008781526020019081526020016000206002018190555060006111b18561196f565b905085600460008373ffffffffffffffffffffffffffffffffffffffff1673ffffffffffffffffffffffffffffffffffffffff16815260200190815260200160002081905550857f0651cc1852188054ab1dc1f39e0a543b236620b2d303cdcf5ca15adc97c272be8686868660405161122d9493929190613ab9565b60405180910390a2505050505050565b7fdf8b4c520ffe197c5343c6f5aec59570151ef9a492f2c624fd45ddde6135ec4281565b60036020528060005260406000206000915090508060000180546112849061364d565b80601f01602080910402602001604051908101604052809291908181526020018280546112b09061364d565b80156112fd5780601f106112d2576101008083540402835291602001916112fd565b820191906000526020600020905b8154815290600101906020018083116112e057829003601f168201915b5050505050908060010154908060020154905083565b6005602052816000526040600020818154811061132f57600080fd5b9060005260206000209060020201600091509150508060000180546113539061364d565b80601f016020809104026020016040519081016040528092919081815260200182805461137f9061364d565b80156113cc5780601f106113a1576101008083540402835291602001916113cc565b820191906000526020600020905b8154815290600101906020018083116113af57829003601f168201915b5050505050908060010154905082565b600080600084815260200190815260200160002060000160008373ffffffffffffffffffffffffffffffffffffffff1673ffffffffffffffffffffffffffffffffffffffff16815260200190815260200160002060009054906101000a900460ff16905092915050565b600160149054906101000a900460ff1681565b6000808290508073ffffffffffffffffffffffffffffffffffffffff1663d4818fca6040518163ffffffff1660e01b8152600401602060405180830381865afa1580156114aa573d6000803e3d6000fd5b505050506040513d601f19601f820116820180604052508101906114ce9190613ea0565b855114611510576040517f08c379a000000000000000000000000000000000000000000000000000000000815260040161150790614086565b60405180910390fd5b60005b855181101561162d57600086828151811061153157611530613b97565b5b60200260200101519050600061155d61154988611f86565b836040015184600001518560200151611fc1565b90508373ffffffffffffffffffffffffffffffffffffffff1663a25e49a4826040518263ffffffff1660e01b815260040161159891906135ba565b602060405180830381865afa1580156115b5573d6000803e3d6000fd5b505050506040513d601f19601f820116820180604052508101906115d99190613bf2565b611618576040517f08c379a000000000000000000000000000000000000000000000000000000000815260040161160f90614118565b60405180910390fd5b5050808061162590613f3a565b915050611513565b5060019150509392505050565b6000801b81565b6060600560008373ffffffffffffffffffffffffffffffffffffffff1673ffffffffffffffffffffffffffffffffffffffff168152602001908152602001600020805480602002602001604051908101604052809291908181526020016000905b8282101561177057838290600052602060002090600202016040518060400160405290816000820180546116d59061364d565b80601f01602080910402602001604051908101604052809291908181526020018280546117019061364d565b801561174e5780601f106117235761010080835404028352916020019161174e565b820191906000526020600020905b81548152906001019060200180831161173157829003601f168201915b50505050508152602001600182015481525050815260200190600101906116a2565b505050509050919050565b60006118246003600084815260200190815260200160002060000180546117a19061364d565b80601f01602080910402602001604051908101604052809291908181526020018280546117cd9061364d565b801561181a5780601f106117ef5761010080835404028352916020019161181a565b820191906000526020600020905b8154815290600101906020018083116117fd57829003601f168201915b505050505061196f565b9050919050565b6000600160009054906101000a900473ffffffffffffffffffffffffffffffffffffffff1673ffffffffffffffffffffffffffffffffffffffff16638e8dfd16600160009054906101000a900473ffffffffffffffffffffffffffffffffffffffff1673ffffffffffffffffffffffffffffffffffffffff16632c0b8bf76040518163ffffffff1660e01b8152600401602060405180830381865afa1580156118d8573d6000803e3d6000fd5b505050506040513d601f19601f820116820180604052508101906118fc919061414d565b600160149054906101000a900460ff166040518363ffffffff1660e01b815260040161192992919061417a565b602060405180830381865afa158015611946573d6000803e3d6000fd5b505050506040513d601f19601f8201168201806040525081019061196a91906141b8565b905090565b6000806119896001604085611fec9092919063ffffffff16565b8051906020012090508060001c915050919050565b6119a782610990565b6119b081611b8f565b6119ba8383611c8b565b505050565b60046020528060005260406000206000915090505481565b60606003600083815260200190815260200160002060000180546119fa9061364d565b80601f0160208091040260200160405190810160405280929190818152602001828054611a269061364d565b8015611a735780601f10611a4857610100808354040283529160200191611a73565b820191906000526020600020905b815481529060010190602001808311611a5657829003601f168201915b50505050509050919050565b7fdf8b4c520ffe197c5343c6f5aec59570151ef9a492f2c624fd45ddde6135ec42611aa981611b8f565b81600160006101000a81548173ffffffffffffffffffffffffffffffffffffffff021916908373ffffffffffffffffffffffffffffffffffffffff1602179055507f2760073c7cd8cac531d7f643becbfbb74d8b8156443eacf879622532dbbb3cd582604051611b1991906135ba565b60405180910390a15050565b60007f01ffc9a7000000000000000000000000000000000000000000000000000000007bffffffffffffffffffffffffffffffffffffffffffffffffffffffff1916827bffffffffffffffffffffffffffffffffffffffffffffffffffffffff1916149050919050565b611ba081611b9b611c83565b61210a565b50565b611bad82826113dc565b611c7f57600160008084815260200190815260200160002060000160008373ffffffffffffffffffffffffffffffffffffffff1673ffffffffffffffffffffffffffffffffffffffff16815260200190815260200160002060006101000a81548160ff021916908315150217905550611c24611c83565b73ffffffffffffffffffffffffffffffffffffffff168173ffffffffffffffffffffffffffffffffffffffff16837f2f8788117e7eff1d82e926ec794901d17c78024a50270940304540a733656f0d60405160405180910390a45b5050565b600033905090565b611c9582826113dc565b15611d6857600080600084815260200190815260200160002060000160008373ffffffffffffffffffffffffffffffffffffffff1673ffffffffffffffffffffffffffffffffffffffff16815260200190815260200160002060006101000a81548160ff021916908315150217905550611d0d611c83565b73ffffffffffffffffffffffffffffffffffffffff168173ffffffffffffffffffffffffffffffffffffffff16837ff6391f5c32d9c69d2a47ea670b442974b53935d1edc7fd64eb21e047a839171b60405160405180910390a45b5050565b60606000600160009054906101000a900473ffffffffffffffffffffffffffffffffffffffff1673ffffffffffffffffffffffffffffffffffffffff16638e8dfd16600160009054906101000a900473ffffffffffffffffffffffffffffffffffffffff1673ffffffffffffffffffffffffffffffffffffffff166385cb11916040518163ffffffff1660e01b8152600401602060405180830381865afa158015611e1b573d6000803e3d6000fd5b505050506040513d601f19601f82011682018060405250810190611e3f919061414d565b600160149054906101000a900460ff166040518363ffffffff1660e01b8152600401611e6c92919061417a565b602060405180830381865afa158015611e89573d6000803e3d6000fd5b505050506040513d601f19601f82011682018060405250810190611ead91906141b8565b90506000808273ffffffffffffffffffffffffffffffffffffffff1663a32c2b998888886040518463ffffffff1660e01b8152600401611eef939291906141e5565b600060405180830381865afa158015611f0c573d6000803e3d6000fd5b505050506040513d6000823e3d601f19601f82011682018060405250810190611f359190614293565b9150915081611f79576040517f08c379a0000000000000000000000000000000000000000000000000000000008152600401611f7090614361565b60405180910390fd5b8093505050509392505050565b6000611f92825161218f565b82604051602001611fa4929190614414565b604051602081830303815290604052805190602001209050919050565b6000806000611fd28787878761225d565b91509150611fdf8161233f565b8192505050949350505050565b606081601f83611ffc9190613e57565b101561203d576040517f08c379a00000000000000000000000000000000000000000000000000000000081526004016120349061448f565b60405180910390fd5b81836120499190613e57565b8451101561208c576040517f08c379a0000000000000000000000000000000000000000000000000000000008152600401612083906144fb565b60405180910390fd5b60608215600081146120ad57604051915060008252602082016040526120fe565b6040519150601f8416801560200281840101858101878315602002848b0101015b818310156120eb57805183526020830192506020810190506120ce565b50868552601f19601f8301166040525050505b50809150509392505050565b61211482826113dc565b61218b57612121816124a5565b61212f8360001c60206124d2565b6040516020016121409291906145b3565b6040516020818303038152906040526040517f08c379a00000000000000000000000000000000000000000000000000000000081526004016121829190614626565b60405180910390fd5b5050565b60606000600161219e8461270e565b01905060008167ffffffffffffffff8111156121bd576121bc6129d2565b5b6040519080825280601f01601f1916602001820160405280156121ef5781602001600182028036833780820191505090505b509050600082602001820190505b600115612252578080600190039150507f3031323334353637383961626364656600000000000000000000000000000000600a86061a8153600a858161224657612245614648565b5b049450600085036121fd575b819350505050919050565b6000807f7fffffffffffffffffffffffffffffff5d576e7357a4501ddfe92f46681b20a08360001c1115612298576000600391509150612336565b6000600187878787604051600081526020016040526040516122bd9493929190614686565b6020604051602081039080840390855afa1580156122df573d6000803e3d6000fd5b505050602060405103519050600073ffffffffffffffffffffffffffffffffffffffff168173ffffffffffffffffffffffffffffffffffffffff160361232d57600060019250925050612336565b80600092509250505b94509492505050565b60006004811115612353576123526131e0565b5b816004811115612366576123656131e0565b5b03156124a257600160048111156123805761237f6131e0565b5b816004811115612393576123926131e0565b5b036123d3576040517f08c379a00000000000000000000000000000000000000000000000000000000081526004016123ca90614717565b60405180910390fd5b600260048111156123e7576123e66131e0565b5b8160048111156123fa576123f96131e0565b5b0361243a576040517f08c379a000000000000000000000000000000000000000000000000000000000815260040161243190614783565b60405180910390fd5b6003600481111561244e5761244d6131e0565b5b816004811115612461576124606131e0565b5b036124a1576040517f08c379a000000000000000000000000000000000000000000000000000000000815260040161249890614815565b60405180910390fd5b5b50565b60606124cb8273ffffffffffffffffffffffffffffffffffffffff16601460ff166124d2565b9050919050565b6060600060028360026124e59190614835565b6124ef9190613e57565b67ffffffffffffffff811115612508576125076129d2565b5b6040519080825280601f01601f19166020018201604052801561253a5781602001600182028036833780820191505090505b5090507f30000000000000000000000000000000000000000000000000000000000000008160008151811061257257612571613b97565b5b60200101907effffffffffffffffffffffffffffffffffffffffffffffffffffffffffffff1916908160001a9053507f7800000000000000000000000000000000000000000000000000000000000000816001815181106125d6576125d5613b97565b5b60200101907effffffffffffffffffffffffffffffffffffffffffffffffffffffffffffff1916908160001a905350600060018460026126169190614835565b6126209190613e57565b90505b60018111156126c0577f3031323334353637383961626364656600000000000000000000000000000000600f86166010811061266257612661613b97565b5b1a60f81b82828151811061267957612678613b97565b5b60200101907effffffffffffffffffffffffffffffffffffffffffffffffffffffffffffff1916908160001a905350600485901c9450806126b990614877565b9050612623565b5060008414612704576040517f08c379a00000000000000000000000000000000000000000000000000000000081526004016126fb906148ec565b60405180910390fd5b8091505092915050565b600080600090507a184f03e93ff9f4daa797ed6e38ed64bf6a1f010000000000000000831061276c577a184f03e93ff9f4daa797ed6e38ed64bf6a1f010000000000000000838161276257612761614648565b5b0492506040810190505b6d04ee2d6d415b85acef810000000083106127a9576d04ee2d6d415b85acef8100000000838161279f5761279e614648565b5b0492506020810190505b662386f26fc1000083106127d857662386f26fc1000083816127ce576127cd614648565b5b0492506010810190505b6305f5e1008310612801576305f5e10083816127f7576127f6614648565b5b0492506008810190505b612710831061282657612710838161281c5761281b614648565b5b0492506004810190505b60648310612849576064838161283f5761283e614648565b5b0492506002810190505b600a8310612858576001810190505b80915050919050565b60405180606001604052806060815260200160008152602001600080191681525090565b6000604051905090565b600080fd5b600080fd5b6000819050919050565b6128ac81612899565b81146128b757600080fd5b50565b6000813590506128c9816128a3565b92915050565b6000602082840312156128e5576128e461288f565b5b60006128f3848285016128ba565b91505092915050565b60008115159050919050565b612911816128fc565b82525050565b600060208201905061292c6000830184612908565b92915050565b60007fffffffff0000000000000000000000000000000000000000000000000000000082169050919050565b61296781612932565b811461297257600080fd5b50565b6000813590506129848161295e565b92915050565b6000602082840312156129a05761299f61288f565b5b60006129ae84828501612975565b91505092915050565b600080fd5b600080fd5b6000601f19601f8301169050919050565b7f4e487b7100000000000000000000000000000000000000000000000000000000600052604160045260246000fd5b612a0a826129c1565b810181811067ffffffffffffffff82111715612a2957612a286129d2565b5b80604052505050565b6000612a3c612885565b9050612a488282612a01565b919050565b600067ffffffffffffffff821115612a6857612a676129d2565b5b612a71826129c1565b9050602081019050919050565b82818337600083830152505050565b6000612aa0612a9b84612a4d565b612a32565b905082815260208101848484011115612abc57612abb6129bc565b5b612ac7848285612a7e565b509392505050565b600082601f830112612ae457612ae36129b7565b5b8135612af4848260208601612a8d565b91505092915050565b600073ffffffffffffffffffffffffffffffffffffffff82169050919050565b6000612b2882612afd565b9050919050565b612b3881612b1d565b8114612b4357600080fd5b50565b600081359050612b5581612b2f565b92915050565b6000819050919050565b612b6e81612b5b565b8114612b7957600080fd5b50565b600081359050612b8b81612b65565b92915050565b600080600080600060a08688031215612bad57612bac61288f565b5b6000612bbb888289016128ba565b955050602086013567ffffffffffffffff811115612bdc57612bdb612894565b5b612be888828901612acf565b9450506040612bf988828901612b46565b9350506060612c0a888289016128ba565b9250506080612c1b88828901612b7c565b9150509295509295909350565b60008060408385031215612c3f57612c3e61288f565b5b6000612c4d85828601612b46565b925050602083013567ffffffffffffffff811115612c6e57612c6d612894565b5b612c7a85828601612acf565b9150509250929050565b612c8d81612899565b82525050565b6000602082019050612ca86000830184612c84565b92915050565b600060208284031215612cc457612cc361288f565b5b6000612cd284828501612b7c565b91505092915050565b612ce481612b5b565b82525050565b6000602082019050612cff6000830184612cdb565b92915050565b600081519050919050565b600082825260208201905092915050565b60005b83811015612d3f578082015181840152602081019050612d24565b60008484015250505050565b6000612d5682612d05565b612d608185612d10565b9350612d70818560208601612d21565b612d79816129c1565b840191505092915050565b612d8d81612899565b82525050565b612d9c81612b5b565b82525050565b60006060830160008301518482036000860152612dbf8282612d4b565b9150506020830151612dd46020860182612d84565b506040830151612de76040860182612d93565b508091505092915050565b60006020820190508181036000830152612e0c8184612da2565b905092915050565b60008060408385031215612e2b57612e2a61288f565b5b6000612e3985828601612b7c565b9250506020612e4a85828601612b46565b9150509250929050565b60008060408385031215612e6b57612e6a61288f565b5b6000612e7985828601612b46565b9250506020612e8a85828601612b7c565b9150509250929050565b600082825260208201905092915050565b6000612eb082612d05565b612eba8185612e94565b9350612eca818560208601612d21565b612ed3816129c1565b840191505092915050565b60006020820190508181036000830152612ef88184612ea5565b905092915050565b600067ffffffffffffffff821115612f1b57612f1a6129d2565b5b602082029050602081019050919050565b600080fd5b600080fd5b600080fd5b600060408284031215612f5157612f50612f31565b5b612f5b6040612a32565b9050600082013567ffffffffffffffff811115612f7b57612f7a612f36565b5b612f8784828501612acf565b6000830152506020612f9b848285016128ba565b60208301525092915050565b6000612fba612fb584612f00565b612a32565b90508083825260208201905060208402830185811115612fdd57612fdc612f2c565b5b835b8181101561302457803567ffffffffffffffff811115613002576130016129b7565b5b80860161300f8982612f3b565b85526020850194505050602081019050612fdf565b5050509392505050565b600082601f830112613043576130426129b7565b5b8135613053848260208601612fa7565b91505092915050565b600080604083850312156130735761307261288f565b5b600061308185828601612b46565b925050602083013567ffffffffffffffff8111156130a2576130a1612894565b5b6130ae8582860161302e565b9150509250929050565b6000819050919050565b60006130dd6130d86130d384612afd565b6130b8565b612afd565b9050919050565b60006130ef826130c2565b9050919050565b6000613101826130e4565b9050919050565b613111816130f6565b82525050565b600060208201905061312c6000830184613108565b92915050565b6000606082019050818103600083015261314c8186612ea5565b905061315b6020830185612c84565b6131686040830184612cdb565b949350505050565b600080604083850312156131875761318661288f565b5b600061319585828601612b46565b92505060206131a6858286016128ba565b9150509250929050565b600060408201905081810360008301526131ca8185612ea5565b90506131d96020830184612c84565b9392505050565b7f4e487b7100000000000000000000000000000000000000000000000000000000600052602160045260246000fd5b600381106132205761321f6131e0565b5b50565b60008190506132318261320f565b919050565b600061324182613223565b9050919050565b61325181613236565b82525050565b600060208201905061326c6000830184613248565b92915050565b600067ffffffffffffffff82111561328d5761328c6129d2565b5b602082029050602081019050919050565b600060ff82169050919050565b6132b48161329e565b81146132bf57600080fd5b50565b6000813590506132d1816132ab565b92915050565b6000606082840312156132ed576132ec612f31565b5b6132f76060612a32565b9050600061330784828501612b7c565b600083015250602061331b84828501612b7c565b602083015250604061332f848285016132c2565b60408301525092915050565b600061334e61334984613272565b612a32565b9050808382526020820190506060840283018581111561337157613370612f2c565b5b835b8181101561339a578061338688826132d7565b845260208401935050606081019050613373565b5050509392505050565b600082601f8301126133b9576133b86129b7565b5b81356133c984826020860161333b565b91505092915050565b6000806000606084860312156133eb576133ea61288f565b5b600084013567ffffffffffffffff81111561340957613408612894565b5b613415868287016133a4565b935050602084013567ffffffffffffffff81111561343657613435612894565b5b61344286828701612acf565b925050604061345386828701612b46565b9150509250925092565b6000602082840312156134735761347261288f565b5b600061348184828501612b46565b91505092915050565b600081519050919050565b600082825260208201905092915050565b6000819050602082019050919050565b600060408301600083015184820360008601526134d38282612d4b565b91505060208301516134e86020860182612d84565b508091505092915050565b60006134ff83836134b6565b905092915050565b6000602082019050919050565b600061351f8261348a565b6135298185613495565b93508360208202850161353b856134a6565b8060005b85811015613577578484038952815161355885826134f3565b945061356383613507565b925060208a0199505060018101905061353f565b50829750879550505050505092915050565b600060208201905081810360008301526135a38184613514565b905092915050565b6135b481612b1d565b82525050565b60006020820190506135cf60008301846135ab565b92915050565b6000602082840312156135eb576135ea61288f565b5b600082013567ffffffffffffffff81111561360957613608612894565b5b61361584828501612acf565b91505092915050565b7f4e487b7100000000000000000000000000000000000000000000000000000000600052602260045260246000fd5b6000600282049050600182168061366557607f821691505b6020821081036136785761367761361e565b5b50919050565b600082825260208201905092915050565b7f736574526f7574696e6744617461206d7573742062652063616c6c656420627960008201527f20504b504e465420636f6e747261637400000000000000000000000000000000602082015250565b60006136eb60308361367e565b91506136f68261368f565b604082019050919050565b6000602082019050818103600083015261371a816136de565b9050919050565b7f746f6b656e496420646f6573206e6f74206d617463682068617368656420707560008201527f626b657900000000000000000000000000000000000000000000000000000000602082015250565b600061377d60248361367e565b915061378882613721565b604082019050919050565b600060208201905081810360008301526137ac81613770565b9050919050565b7f5075626b6579526f757465723a207075626b657920616c72656164792068617360008201527f20726f7574696e67206461746100000000000000000000000000000000000000602082015250565b600061380f602d8361367e565b915061381a826137b3565b604082019050919050565b6000602082019050818103600083015261383e81613802565b9050919050565b60008190508160005260206000209050919050565b60006020601f8301049050919050565b600082821b905092915050565b6000600883026138a77fffffffffffffffffffffffffffffffffffffffffffffffffffffffffffffffff8261386a565b6138b1868361386a565b95508019841693508086168417925050509392505050565b60006138e46138df6138da84612899565b6130b8565b612899565b9050919050565b6000819050919050565b6138fe836138c9565b61391261390a826138eb565b848454613877565b825550505050565b600090565b61392761391a565b6139328184846138f5565b505050565b5b818110156139565761394b60008261391f565b600181019050613938565b5050565b601f82111561399b5761396c81613845565b6139758461385a565b81016020851015613984578190505b6139986139908561385a565b830182613937565b50505b505050565b600082821c905092915050565b60006139be600019846008026139a0565b1980831691505092915050565b60006139d783836139ad565b9150826002028217905092915050565b6139f082612d05565b67ffffffffffffffff811115613a0957613a086129d2565b5b613a13825461364d565b613a1e82828561395a565b600060209050601f831160018114613a515760008415613a3f578287015190505b613a4985826139cb565b865550613ab1565b601f198416613a5f86613845565b60005b82811015613a8757848901518255600182019150602085019450602081019050613a62565b86831015613aa45784890151613aa0601f8916826139ad565b8355505b6001600288020188555050505b505050505050565b60006080820190508181036000830152613ad38187612ea5565b9050613ae260208301866135ab565b613aef6040830185612c84565b613afc6060830184612cdb565b95945050505050565b7f416363657373436f6e74726f6c3a2063616e206f6e6c792072656e6f756e636560008201527f20726f6c657320666f722073656c660000000000000000000000000000000000602082015250565b6000613b61602f8361367e565b9150613b6c82613b05565b604082019050919050565b60006020820190508181036000830152613b9081613b54565b9050919050565b7f4e487b7100000000000000000000000000000000000000000000000000000000600052603260045260246000fd5b613bcf816128fc565b8114613bda57600080fd5b50565b600081519050613bec81613bc6565b92915050565b600060208284031215613c0857613c0761288f565b5b6000613c1684828501613bdd565b91505092915050565b7f5075626b6579526f757465723a2074786e2073656e646572206973206e6f742060008201527f6163746976652076616c696461746f7200000000000000000000000000000000602082015250565b6000613c7b60308361367e565b9150613c8682613c1f565b604082019050919050565b60006020820190508181036000830152613caa81613c6e565b9050919050565b7f5075626b6579526f757465723a20726f6f74206b65797320616c72656164792060008201527f73657420666f722074686973207374616b696e6720636f6e7472616374000000602082015250565b6000613d0d603d8361367e565b9150613d1882613cb1565b604082019050919050565b60006020820190508181036000830152613d3c81613d00565b9050919050565b600081905092915050565b6000613d5982612d05565b613d638185613d43565b9350613d73818560208601612d21565b80840191505092915050565b6000613d8b8284613d4e565b915081905092915050565b7f5075626b6579526f757465723a2076616c696461746f722068617320616c726560008201527f61647920766f74656420666f72207468697320726f6f74206b65790000000000602082015250565b6000613df2603b8361367e565b9150613dfd82613d96565b604082019050919050565b60006020820190508181036000830152613e2181613de5565b9050919050565b7f4e487b7100000000000000000000000000000000000000000000000000000000600052601160045260246000fd5b6000613e6282612899565b9150613e6d83612899565b9250828201905080821115613e8557613e84613e28565b5b92915050565b600081519050613e9a816128a3565b92915050565b600060208284031215613eb657613eb561288f565b5b6000613ec484828501613e8b565b91505092915050565b60006040830160008301518482036000860152613eea8282612d4b565b9150506020830151613eff6020860182612d84565b508091505092915050565b6000604082019050613f1f60008301856135ab565b8181036020830152613f318184613ecd565b90509392505050565b6000613f4582612899565b91507fffffffffffffffffffffffffffffffffffffffffffffffffffffffffffffffff8203613f7757613f76613e28565b5b600182019050919050565b7f5075626b6579526f757465723a206d75737420686176652061646d696e20726f60008201527f6c65000000000000000000000000000000000000000000000000000000000000602082015250565b6000613fde60228361367e565b9150613fe982613f82565b604082019050919050565b6000602082019050818103600083015261400d81613fd1565b9050919050565b7f5075626b6579526f757465723a20696e636f7272656374206e756d626572206f60008201527f66207369676e617475726573206f6e206120676976656e20726f6f74206b6579602082015250565b600061407060408361367e565b915061407b82614014565b604082019050919050565b6000602082019050818103600083015261409f81614063565b9050919050565b7f5075626b6579526f757465723a207369676e6572206973206e6f74206163746960008201527f76652076616c696461746f720000000000000000000000000000000000000000602082015250565b6000614102602c8361367e565b915061410d826140a6565b604082019050919050565b60006020820190508181036000830152614131816140f5565b9050919050565b60008151905061414781612b65565b92915050565b6000602082840312156141635761416261288f565b5b600061417184828501614138565b91505092915050565b600060408201905061418f6000830185612cdb565b61419c6020830184613248565b9392505050565b6000815190506141b281612b2f565b92915050565b6000602082840312156141ce576141cd61288f565b5b60006141dc848285016141a3565b91505092915050565b60006060820190506141fa6000830186612cdb565b818103602083015261420c8185613514565b905061421b6040830184612c84565b949350505050565b600061423661423184612a4d565b612a32565b905082815260208101848484011115614252576142516129bc565b5b61425d848285612d21565b509392505050565b600082601f83011261427a576142796129b7565b5b815161428a848260208601614223565b91505092915050565b600080604083850312156142aa576142a961288f565b5b60006142b885828601613bdd565b925050602083015167ffffffffffffffff8111156142d9576142d8612894565b5b6142e585828601614265565b9150509250929050565b7f5075626b6579526f757465723a204661696c6564207075626c6963206b65792060008201527f63616c63756c6174696f6e000000000000000000000000000000000000000000602082015250565b600061434b602b8361367e565b9150614356826142ef565b604082019050919050565b6000602082019050818103600083015261437a8161433e565b9050919050565b600081905092915050565b7f19457468657265756d205369676e6564204d6573736167653a0a000000000000600082015250565b60006143c2601a83614381565b91506143cd8261438c565b601a82019050919050565b600081519050919050565b60006143ee826143d8565b6143f88185614381565b9350614408818560208601612d21565b80840191505092915050565b600061441f826143b5565b915061442b82856143e3565b91506144378284613d4e565b91508190509392505050565b7f736c6963655f6f766572666c6f77000000000000000000000000000000000000600082015250565b6000614479600e8361367e565b915061448482614443565b602082019050919050565b600060208201905081810360008301526144a88161446c565b9050919050565b7f736c6963655f6f75744f66426f756e6473000000000000000000000000000000600082015250565b60006144e560118361367e565b91506144f0826144af565b602082019050919050565b60006020820190508181036000830152614514816144d8565b9050919050565b7f416363657373436f6e74726f6c3a206163636f756e7420000000000000000000600082015250565b6000614551601783614381565b915061455c8261451b565b601782019050919050565b7f206973206d697373696e6720726f6c6520000000000000000000000000000000600082015250565b600061459d601183614381565b91506145a882614567565b601182019050919050565b60006145be82614544565b91506145ca82856143e3565b91506145d582614590565b91506145e182846143e3565b91508190509392505050565b60006145f8826143d8565b614602818561367e565b9350614612818560208601612d21565b61461b816129c1565b840191505092915050565b6000602082019050818103600083015261464081846145ed565b905092915050565b7f4e487b7100000000000000000000000000000000000000000000000000000000600052601260045260246000fd5b6146808161329e565b82525050565b600060808201905061469b6000830187612cdb565b6146a86020830186614677565b6146b56040830185612cdb565b6146c26060830184612cdb565b95945050505050565b7f45434453413a20696e76616c6964207369676e61747572650000000000000000600082015250565b600061470160188361367e565b915061470c826146cb565b602082019050919050565b60006020820190508181036000830152614730816146f4565b9050919050565b7f45434453413a20696e76616c6964207369676e6174757265206c656e67746800600082015250565b600061476d601f8361367e565b915061477882614737565b602082019050919050565b6000602082019050818103600083015261479c81614760565b9050919050565b7f45434453413a20696e76616c6964207369676e6174757265202773272076616c60008201527f7565000000000000000000000000000000000000000000000000000000000000602082015250565b60006147ff60228361367e565b915061480a826147a3565b604082019050919050565b6000602082019050818103600083015261482e816147f2565b9050919050565b600061484082612899565b915061484b83612899565b925082820261485981612899565b915082820484148315176148705761486f613e28565b5b5092915050565b600061488282612899565b91506000820361489557614894613e28565b5b600182039050919050565b7f537472696e67733a20686578206c656e67746820696e73756666696369656e74600082015250565b60006148d660208361367e565b91506148e1826148a0565b602082019050919050565b60006020820190508181036000830152614905816148c9565b905091905056fea264697066735822122079b45996561a97a17945e0c02b38e5cf699f0d7ef895e04093ccbdeacefe740164736f6c63430008110033",
  "linkReferences": {},
  "deployedLinkReferences": {}
}