{
    "_format": "hh-sol-artifact-1",
    "contractName": "SoloNetPKPHelper",
    "sourceName": "contracts/lit-node/SoloNetPKPHelper.sol",
    "abi": [
        {
            "inputs": [
                {
                    "internalType": "address",
                    "name": "_pkpNft",
                    "type": "address"
                },
                {
                    "internalType": "address",
                    "name": "_pkpPermissions",
                    "type": "address"
                }
            ],
            "stateMutability": "nonpayable",
            "type": "constructor"
        },
        {
            "anonymous": false,
            "inputs": [
                {
                    "indexed": true,
                    "internalType": "address",
                    "name": "previousOwner",
                    "type": "address"
                },
                {
                    "indexed": true,
                    "internalType": "address",
                    "name": "newOwner",
                    "type": "address"
                }
            ],
            "name": "OwnershipTransferred",
            "type": "event"
        },
        {
            "inputs": [
                {
                    "internalType": "bytes",
                    "name": "pubkey",
                    "type": "bytes"
                },
                {
                    "internalType": "uint256[]",
                    "name": "permittedAuthMethodTypes",
                    "type": "uint256[]"
                },
                {
                    "internalType": "bytes[]",
                    "name": "permittedAuthMethodIds",
                    "type": "bytes[]"
                },
                {
                    "internalType": "bytes[]",
                    "name": "permittedAuthMethodPubkeys",
                    "type": "bytes[]"
                },
                {
                    "internalType": "uint256[][]",
                    "name": "permittedAuthMethodScopes",
                    "type": "uint256[][]"
                },
                {
                    "internalType": "bool",
                    "name": "addPkpEthAddressAsPermittedAddress",
                    "type": "bool"
                },
                {
                    "internalType": "bool",
                    "name": "sendPkpToItself",
                    "type": "bool"
                }
            ],
            "name": "mintAndAddAuthMethods",
            "outputs": [
                {
                    "internalType": "uint256",
                    "name": "",
                    "type": "uint256"
                }
            ],
            "stateMutability": "payable",
            "type": "function"
        },
        {
            "inputs": [
                {
                    "internalType": "bytes",
                    "name": "pubkey",
                    "type": "bytes"
                },
                {
                    "internalType": "bytes[]",
                    "name": "permittedIpfsCIDs",
                    "type": "bytes[]"
                },
                {
                    "internalType": "uint256[][]",
                    "name": "permittedIpfsCIDScopes",
                    "type": "uint256[][]"
                },
                {
                    "internalType": "address[]",
                    "name": "permittedAddresses",
                    "type": "address[]"
                },
                {
                    "internalType": "uint256[][]",
                    "name": "permittedAddressScopes",
                    "type": "uint256[][]"
                },
                {
                    "internalType": "uint256[]",
                    "name": "permittedAuthMethodTypes",
                    "type": "uint256[]"
                },
                {
                    "internalType": "bytes[]",
                    "name": "permittedAuthMethodIds",
                    "type": "bytes[]"
                },
                {
                    "internalType": "bytes[]",
                    "name": "permittedAuthMethodPubkeys",
                    "type": "bytes[]"
                },
                {
                    "internalType": "uint256[][]",
                    "name": "permittedAuthMethodScopes",
                    "type": "uint256[][]"
                },
                {
                    "internalType": "bool",
                    "name": "addPkpEthAddressAsPermittedAddress",
                    "type": "bool"
                },
                {
                    "internalType": "bool",
                    "name": "sendPkpToItself",
                    "type": "bool"
                }
            ],
            "name": "mintAndAddAuthMethodsWithTypes",
            "outputs": [
                {
                    "internalType": "uint256",
                    "name": "",
                    "type": "uint256"
                }
            ],
            "stateMutability": "payable",
            "type": "function"
        },
        {
            "inputs": [
                {
                    "internalType": "address",
                    "name": "",
                    "type": "address"
                },
                {
                    "internalType": "address",
                    "name": "",
                    "type": "address"
                },
                {
                    "internalType": "uint256",
                    "name": "",
                    "type": "uint256"
                },
                {
                    "internalType": "bytes",
                    "name": "",
                    "type": "bytes"
                }
            ],
            "name": "onERC721Received",
            "outputs": [
                {
                    "internalType": "bytes4",
                    "name": "",
                    "type": "bytes4"
                }
            ],
            "stateMutability": "view",
            "type": "function"
        },
        {
            "inputs": [],
            "name": "owner",
            "outputs": [
                {
                    "internalType": "address",
                    "name": "",
                    "type": "address"
                }
            ],
            "stateMutability": "view",
            "type": "function"
        },
        {
            "inputs": [],
            "name": "pkpNFT",
            "outputs": [
                {
                    "internalType": "contract SoloNetPKP",
                    "name": "",
                    "type": "address"
                }
            ],
            "stateMutability": "view",
            "type": "function"
        },
        {
            "inputs": [],
            "name": "pkpPermissions",
            "outputs": [
                {
                    "internalType": "contract PKPPermissions",
                    "name": "",
                    "type": "address"
                }
            ],
            "stateMutability": "view",
            "type": "function"
        },
        {
            "inputs": [],
            "name": "renounceOwnership",
            "outputs": [],
            "stateMutability": "nonpayable",
            "type": "function"
        },
        {
            "inputs": [
                {
                    "internalType": "address",
                    "name": "newPkpNftAddress",
                    "type": "address"
                }
            ],
            "name": "setPkpNftAddress",
            "outputs": [],
            "stateMutability": "nonpayable",
            "type": "function"
        },
        {
            "inputs": [
                {
                    "internalType": "address",
                    "name": "newPkpPermissionsAddress",
                    "type": "address"
                }
            ],
            "name": "setPkpPermissionsAddress",
            "outputs": [],
            "stateMutability": "nonpayable",
            "type": "function"
        },
        {
            "inputs": [
                {
                    "internalType": "address",
                    "name": "newOwner",
                    "type": "address"
                }
            ],
            "name": "transferOwnership",
            "outputs": [],
            "stateMutability": "nonpayable",
            "type": "function"
        }
    ],
    "bytecode": "0x60806040523480156200001157600080fd5b506040516200254d3803806200254d833981810160405281019062000037919062000217565b620000576200004b620000e160201b60201c565b620000e960201b60201c565b81600160006101000a81548173ffffffffffffffffffffffffffffffffffffffff021916908373ffffffffffffffffffffffffffffffffffffffff16021790555080600260006101000a81548173ffffffffffffffffffffffffffffffffffffffff021916908373ffffffffffffffffffffffffffffffffffffffff16021790555050506200025e565b600033905090565b60008060009054906101000a900473ffffffffffffffffffffffffffffffffffffffff169050816000806101000a81548173ffffffffffffffffffffffffffffffffffffffff021916908373ffffffffffffffffffffffffffffffffffffffff1602179055508173ffffffffffffffffffffffffffffffffffffffff168173ffffffffffffffffffffffffffffffffffffffff167f8be0079c531659141344cd1fd0a4f28419497f9722a3daafe3b4186f6b6457e060405160405180910390a35050565b600080fd5b600073ffffffffffffffffffffffffffffffffffffffff82169050919050565b6000620001df82620001b2565b9050919050565b620001f181620001d2565b8114620001fd57600080fd5b50565b6000815190506200021181620001e6565b92915050565b60008060408385031215620002315762000230620001ad565b5b6000620002418582860162000200565b9250506020620002548582860162000200565b9150509250929050565b6122df806200026e6000396000f3fe6080604052600436106100915760003560e01c8063715018a611610059578063715018a6146101855780638da5cb5b1461019c57806397016f3f146101c7578063f2fde38b146101f2578063ffa2e9531461021b57610091565b8063150b7a0214610096578063176354fd146100d35780631ea89a22146100fc578063208f08c41461012557806358176bce14610155575b600080fd5b3480156100a257600080fd5b506100bd60048036038101906100b89190611011565b610246565b6040516100ca91906110d4565b60405180910390f35b3480156100df57600080fd5b506100fa60048036038101906100f591906110ef565b6102eb565b005b34801561010857600080fd5b50610123600480360381019061011e91906110ef565b610337565b005b61013f600480360381019061013a91906115dd565b610383565b60405161014c91906117dc565b60405180910390f35b61016f600480360381019061016a91906117f7565b610b59565b60405161017c91906117dc565b60405180910390f35b34801561019157600080fd5b5061019a610cae565b005b3480156101a857600080fd5b506101b1610cc2565b6040516101be9190611934565b60405180910390f35b3480156101d357600080fd5b506101dc610ceb565b6040516101e991906119ae565b60405180910390f35b3480156101fe57600080fd5b50610219600480360381019061021491906110ef565b610d11565b005b34801561022757600080fd5b50610230610d94565b60405161023d91906119ea565b60405180910390f35b6000600160009054906101000a900473ffffffffffffffffffffffffffffffffffffffff1673ffffffffffffffffffffffffffffffffffffffff163373ffffffffffffffffffffffffffffffffffffffff16146102d8576040517f08c379a00000000000000000000000000000000000000000000000000000000081526004016102cf90611a88565b60405180910390fd5b63150b7a0260e01b905095945050505050565b6102f3610dba565b80600160006101000a81548173ffffffffffffffffffffffffffffffffffffffff021916908373ffffffffffffffffffffffffffffffffffffffff16021790555050565b61033f610dba565b80600260006101000a81548173ffffffffffffffffffffffffffffffffffffffff021916908373ffffffffffffffffffffffffffffffffffffffff16021790555050565b600080600160009054906101000a900473ffffffffffffffffffffffffffffffffffffffff1673ffffffffffffffffffffffffffffffffffffffff16637ba0e2e7348f6040518363ffffffff1660e01b81526004016103e29190611b27565b60206040518083038185885af1158015610400573d6000803e3d6000fd5b50505050506040513d601f19601f820116820180604052508101906104259190611b5e565b90508a518c511461046b576040517f08c379a000000000000000000000000000000000000000000000000000000000815260040161046290611bfd565b60405180910390fd5b88518a51146104af576040517f08c379a00000000000000000000000000000000000000000000000000000000081526004016104a690611c8f565b60405180910390fd5b86518851146104f3576040517f08c379a00000000000000000000000000000000000000000000000000000000081526004016104ea90611d21565b60405180910390fd5b8551885114610537576040517f08c379a000000000000000000000000000000000000000000000000000000000815260040161052e90611db3565b60405180910390fd5b845188511461057b576040517f08c379a000000000000000000000000000000000000000000000000000000000815260040161057290611e45565b60405180910390fd5b60008c511461066a5760005b8c5181101561066857600260009054906101000a900473ffffffffffffffffffffffffffffffffffffffff1673ffffffffffffffffffffffffffffffffffffffff16638a431578838f84815181106105e2576105e1611e65565b5b60200260200101518f85815181106105fd576105fc611e65565b5b60200260200101516040518463ffffffff1660e01b815260040161062393929190611f52565b600060405180830381600087803b15801561063d57600080fd5b505af1158015610651573d6000803e3d6000fd5b50505050808061066090611fc6565b915050610587565b505b60008a51146107595760005b8a5181101561075757600260009054906101000a900473ffffffffffffffffffffffffffffffffffffffff1673ffffffffffffffffffffffffffffffffffffffff16631663c121838d84815181106106d1576106d0611e65565b5b60200260200101518d85815181106106ec576106eb611e65565b5b60200260200101516040518463ffffffff1660e01b81526004016107129392919061200e565b600060405180830381600087803b15801561072c57600080fd5b505af1158015610740573d6000803e3d6000fd5b50505050808061074f90611fc6565b915050610676565b505b60008851146108965760005b885181101561089457600260009054906101000a900473ffffffffffffffffffffffffffffffffffffffff1673ffffffffffffffffffffffffffffffffffffffff16639dd4349b8360405180606001604052808d86815181106107cb576107ca611e65565b5b602002602001015181526020018c86815181106107eb576107ea611e65565b5b602002602001015181526020018b868151811061080b5761080a611e65565b5b602002602001015181525089858151811061082957610828611e65565b5b60200260200101516040518463ffffffff1660e01b815260040161084f939291906120ed565b600060405180830381600087803b15801561086957600080fd5b505af115801561087d573d6000803e3d6000fd5b50505050808061088c90611fc6565b915050610765565b505b6000600160009054906101000a900473ffffffffffffffffffffffffffffffffffffffff1673ffffffffffffffffffffffffffffffffffffffff1663bd4986a0836040518263ffffffff1660e01b81526004016108f391906117dc565b602060405180830381865afa158015610910573d6000803e3d6000fd5b505050506040513d601f19601f820116820180604052508101906109349190612147565b90508415610a1757600260009054906101000a900473ffffffffffffffffffffffffffffffffffffffff1673ffffffffffffffffffffffffffffffffffffffff16631663c1218383600067ffffffffffffffff81111561099757610996611132565b5b6040519080825280602002602001820160405280156109c55781602001602082028036833780820191505090505b506040518463ffffffff1660e01b81526004016109e49392919061200e565b600060405180830381600087803b1580156109fe57600080fd5b505af1158015610a12573d6000803e3d6000fd5b505050505b8315610ab357600160009054906101000a900473ffffffffffffffffffffffffffffffffffffffff1673ffffffffffffffffffffffffffffffffffffffff166342842e0e3083856040518463ffffffff1660e01b8152600401610a7c93929190612174565b600060405180830381600087803b158015610a9657600080fd5b505af1158015610aaa573d6000803e3d6000fd5b50505050610b45565b600160009054906101000a900473ffffffffffffffffffffffffffffffffffffffff1673ffffffffffffffffffffffffffffffffffffffff166342842e0e3033856040518463ffffffff1660e01b8152600401610b1293929190612174565b600060405180830381600087803b158015610b2c57600080fd5b505af1158015610b40573d6000803e3d6000fd5b505050505b81925050509b9a5050505050505050505050565b6000610ca188600067ffffffffffffffff811115610b7a57610b79611132565b5b604051908082528060200260200182016040528015610bad57816020015b6060815260200190600190039081610b985790505b50600067ffffffffffffffff811115610bc957610bc8611132565b5b604051908082528060200260200182016040528015610bfc57816020015b6060815260200190600190039081610be75790505b50600067ffffffffffffffff811115610c1857610c17611132565b5b604051908082528060200260200182016040528015610c465781602001602082028036833780820191505090505b50600067ffffffffffffffff811115610c6257610c61611132565b5b604051908082528060200260200182016040528015610c9557816020015b6060815260200190600190039081610c805790505b508c8c8c8c8c8c610383565b9050979650505050505050565b610cb6610dba565b610cc06000610e38565b565b60008060009054906101000a900473ffffffffffffffffffffffffffffffffffffffff16905090565b600260009054906101000a900473ffffffffffffffffffffffffffffffffffffffff1681565b610d19610dba565b600073ffffffffffffffffffffffffffffffffffffffff168173ffffffffffffffffffffffffffffffffffffffff1603610d88576040517f08c379a0000000000000000000000000000000000000000000000000000000008152600401610d7f9061221d565b60405180910390fd5b610d9181610e38565b50565b600160009054906101000a900473ffffffffffffffffffffffffffffffffffffffff1681565b610dc2610efc565b73ffffffffffffffffffffffffffffffffffffffff16610de0610cc2565b73ffffffffffffffffffffffffffffffffffffffff1614610e36576040517f08c379a0000000000000000000000000000000000000000000000000000000008152600401610e2d90612289565b60405180910390fd5b565b60008060009054906101000a900473ffffffffffffffffffffffffffffffffffffffff169050816000806101000a81548173ffffffffffffffffffffffffffffffffffffffff021916908373ffffffffffffffffffffffffffffffffffffffff1602179055508173ffffffffffffffffffffffffffffffffffffffff168173ffffffffffffffffffffffffffffffffffffffff167f8be0079c531659141344cd1fd0a4f28419497f9722a3daafe3b4186f6b6457e060405160405180910390a35050565b600033905090565b6000604051905090565b600080fd5b600080fd5b600073ffffffffffffffffffffffffffffffffffffffff82169050919050565b6000610f4382610f18565b9050919050565b610f5381610f38565b8114610f5e57600080fd5b50565b600081359050610f7081610f4a565b92915050565b6000819050919050565b610f8981610f76565b8114610f9457600080fd5b50565b600081359050610fa681610f80565b92915050565b600080fd5b600080fd5b600080fd5b60008083601f840112610fd157610fd0610fac565b5b8235905067ffffffffffffffff811115610fee57610fed610fb1565b5b60208301915083600182028301111561100a57611009610fb6565b5b9250929050565b60008060008060006080868803121561102d5761102c610f0e565b5b600061103b88828901610f61565b955050602061104c88828901610f61565b945050604061105d88828901610f97565b935050606086013567ffffffffffffffff81111561107e5761107d610f13565b5b61108a88828901610fbb565b92509250509295509295909350565b60007fffffffff0000000000000000000000000000000000000000000000000000000082169050919050565b6110ce81611099565b82525050565b60006020820190506110e960008301846110c5565b92915050565b60006020828403121561110557611104610f0e565b5b600061111384828501610f61565b91505092915050565b600080fd5b6000601f19601f8301169050919050565b7f4e487b7100000000000000000000000000000000000000000000000000000000600052604160045260246000fd5b61116a82611121565b810181811067ffffffffffffffff8211171561118957611188611132565b5b80604052505050565b600061119c610f04565b90506111a88282611161565b919050565b600067ffffffffffffffff8211156111c8576111c7611132565b5b6111d182611121565b9050602081019050919050565b82818337600083830152505050565b60006112006111fb846111ad565b611192565b90508281526020810184848401111561121c5761121b61111c565b5b6112278482856111de565b509392505050565b600082601f83011261124457611243610fac565b5b81356112548482602086016111ed565b91505092915050565b600067ffffffffffffffff82111561127857611277611132565b5b602082029050602081019050919050565b600061129c6112978461125d565b611192565b905080838252602082019050602084028301858111156112bf576112be610fb6565b5b835b8181101561130657803567ffffffffffffffff8111156112e4576112e3610fac565b5b8086016112f1898261122f565b855260208501945050506020810190506112c1565b5050509392505050565b600082601f83011261132557611324610fac565b5b8135611335848260208601611289565b91505092915050565b600067ffffffffffffffff82111561135957611358611132565b5b602082029050602081019050919050565b600067ffffffffffffffff82111561138557611384611132565b5b602082029050602081019050919050565b60006113a96113a48461136a565b611192565b905080838252602082019050602084028301858111156113cc576113cb610fb6565b5b835b818110156113f557806113e18882610f97565b8452602084019350506020810190506113ce565b5050509392505050565b600082601f83011261141457611413610fac565b5b8135611424848260208601611396565b91505092915050565b600061144061143b8461133e565b611192565b9050808382526020820190506020840283018581111561146357611462610fb6565b5b835b818110156114aa57803567ffffffffffffffff81111561148857611487610fac565b5b80860161149589826113ff565b85526020850194505050602081019050611465565b5050509392505050565b600082601f8301126114c9576114c8610fac565b5b81356114d984826020860161142d565b91505092915050565b600067ffffffffffffffff8211156114fd576114fc611132565b5b602082029050602081019050919050565b600061152161151c846114e2565b611192565b9050808382526020820190506020840283018581111561154457611543610fb6565b5b835b8181101561156d57806115598882610f61565b845260208401935050602081019050611546565b5050509392505050565b600082601f83011261158c5761158b610fac565b5b813561159c84826020860161150e565b91505092915050565b60008115159050919050565b6115ba816115a5565b81146115c557600080fd5b50565b6000813590506115d7816115b1565b92915050565b60008060008060008060008060008060006101608c8e03121561160357611602610f0e565b5b60008c013567ffffffffffffffff81111561162157611620610f13565b5b61162d8e828f0161122f565b9b505060208c013567ffffffffffffffff81111561164e5761164d610f13565b5b61165a8e828f01611310565b9a505060408c013567ffffffffffffffff81111561167b5761167a610f13565b5b6116878e828f016114b4565b99505060608c013567ffffffffffffffff8111156116a8576116a7610f13565b5b6116b48e828f01611577565b98505060808c013567ffffffffffffffff8111156116d5576116d4610f13565b5b6116e18e828f016114b4565b97505060a08c013567ffffffffffffffff81111561170257611701610f13565b5b61170e8e828f016113ff565b96505060c08c013567ffffffffffffffff81111561172f5761172e610f13565b5b61173b8e828f01611310565b95505060e08c013567ffffffffffffffff81111561175c5761175b610f13565b5b6117688e828f01611310565b9450506101008c013567ffffffffffffffff81111561178a57611789610f13565b5b6117968e828f016114b4565b9350506101206117a88e828f016115c8565b9250506101406117ba8e828f016115c8565b9150509295989b509295989b9093969950565b6117d681610f76565b82525050565b60006020820190506117f160008301846117cd565b92915050565b600080600080600080600060e0888a03121561181657611815610f0e565b5b600088013567ffffffffffffffff81111561183457611833610f13565b5b6118408a828b0161122f565b975050602088013567ffffffffffffffff81111561186157611860610f13565b5b61186d8a828b016113ff565b965050604088013567ffffffffffffffff81111561188e5761188d610f13565b5b61189a8a828b01611310565b955050606088013567ffffffffffffffff8111156118bb576118ba610f13565b5b6118c78a828b01611310565b945050608088013567ffffffffffffffff8111156118e8576118e7610f13565b5b6118f48a828b016114b4565b93505060a06119058a828b016115c8565b92505060c06119168a828b016115c8565b91505092959891949750929550565b61192e81610f38565b82525050565b60006020820190506119496000830184611925565b92915050565b6000819050919050565b600061197461196f61196a84610f18565b61194f565b610f18565b9050919050565b600061198682611959565b9050919050565b60006119988261197b565b9050919050565b6119a88161198d565b82525050565b60006020820190506119c3600083018461199f565b92915050565b60006119d48261197b565b9050919050565b6119e4816119c9565b82525050565b60006020820190506119ff60008301846119db565b92915050565b600082825260208201905092915050565b7f504b5048656c7065723a206f6e6c792061636365707473207472616e7366657260008201527f732066726f6d2074686520504b504e465420636f6e7472616374000000000000602082015250565b6000611a72603a83611a05565b9150611a7d82611a16565b604082019050919050565b60006020820190508181036000830152611aa181611a65565b9050919050565b600081519050919050565b600082825260208201905092915050565b60005b83811015611ae2578082015181840152602081019050611ac7565b60008484015250505050565b6000611af982611aa8565b611b038185611ab3565b9350611b13818560208601611ac4565b611b1c81611121565b840191505092915050565b60006020820190508181036000830152611b418184611aee565b905092915050565b600081519050611b5881610f80565b92915050565b600060208284031215611b7457611b73610f0e565b5b6000611b8284828501611b49565b91505092915050565b7f504b5048656c7065723a20697066732063696420616e642073636f706520617260008201527f726179206c656e67746873206d757374206d6174636800000000000000000000602082015250565b6000611be7603683611a05565b9150611bf282611b8b565b604082019050919050565b60006020820190508181036000830152611c1681611bda565b9050919050565b7f504b5048656c7065723a206164647265737320616e642073636f70652061727260008201527f6179206c656e67746873206d757374206d617463680000000000000000000000602082015250565b6000611c79603583611a05565b9150611c8482611c1d565b604082019050919050565b60006020820190508181036000830152611ca881611c6c565b9050919050565b7f504b5048656c7065723a2061757468206d6574686f64207479706520616e642060008201527f6964206172726179206c656e67746873206d757374206d617463680000000000602082015250565b6000611d0b603b83611a05565b9150611d1682611caf565b604082019050919050565b60006020820190508181036000830152611d3a81611cfe565b9050919050565b7f504b5048656c7065723a2061757468206d6574686f64207479706520616e642060008201527f7075626b6579206172726179206c656e67746873206d757374206d6174636800602082015250565b6000611d9d603f83611a05565b9150611da882611d41565b604082019050919050565b60006020820190508181036000830152611dcc81611d90565b9050919050565b7f504b5048656c7065723a2061757468206d6574686f64207479706520616e642060008201527f73636f706573206172726179206c656e67746873206d757374206d6174636800602082015250565b6000611e2f603f83611a05565b9150611e3a82611dd3565b604082019050919050565b60006020820190508181036000830152611e5e81611e22565b9050919050565b7f4e487b7100000000000000000000000000000000000000000000000000000000600052603260045260246000fd5b600081519050919050565b600082825260208201905092915050565b6000819050602082019050919050565b611ec981610f76565b82525050565b6000611edb8383611ec0565b60208301905092915050565b6000602082019050919050565b6000611eff82611e94565b611f098185611e9f565b9350611f1483611eb0565b8060005b83811015611f45578151611f2c8882611ecf565b9750611f3783611ee7565b925050600181019050611f18565b5085935050505092915050565b6000606082019050611f6760008301866117cd565b8181036020830152611f798185611aee565b90508181036040830152611f8d8184611ef4565b9050949350505050565b7f4e487b7100000000000000000000000000000000000000000000000000000000600052601160045260246000fd5b6000611fd182610f76565b91507fffffffffffffffffffffffffffffffffffffffffffffffffffffffffffffffff820361200357612002611f97565b5b600182019050919050565b600060608201905061202360008301866117cd565b6120306020830185611925565b81810360408301526120428184611ef4565b9050949350505050565b600082825260208201905092915050565b600061206882611aa8565b612072818561204c565b9350612082818560208601611ac4565b61208b81611121565b840191505092915050565b60006060830160008301516120ae6000860182611ec0565b50602083015184820360208601526120c6828261205d565b915050604083015184820360408601526120e0828261205d565b9150508091505092915050565b600060608201905061210260008301866117cd565b81810360208301526121148185612096565b905081810360408301526121288184611ef4565b9050949350505050565b60008151905061214181610f4a565b92915050565b60006020828403121561215d5761215c610f0e565b5b600061216b84828501612132565b91505092915050565b60006060820190506121896000830186611925565b6121966020830185611925565b6121a360408301846117cd565b949350505050565b7f4f776e61626c653a206e6577206f776e657220697320746865207a65726f206160008201527f6464726573730000000000000000000000000000000000000000000000000000602082015250565b6000612207602683611a05565b9150612212826121ab565b604082019050919050565b60006020820190508181036000830152612236816121fa565b9050919050565b7f4f776e61626c653a2063616c6c6572206973206e6f7420746865206f776e6572600082015250565b6000612273602083611a05565b915061227e8261223d565b602082019050919050565b600060208201905081810360008301526122a281612266565b905091905056fea264697066735822122090079f0b3bed973232b9c152868afe25957743699355a172a4fe6a5534afb08864736f6c63430008110033",
    "linkReferences": {},
    "deployedLinkReferences": {}
}