{
    "_format": "hh-sol-artifact-1",
    "contractName": "SoloNetPKP",
    "sourceName": "contracts/lit-node/SoloNetPKP.sol",
    "abi": [
        {
            "inputs": [],
            "stateMutability": "nonpayable",
            "type": "constructor"
        },
        {
            "anonymous": false,
            "inputs": [
                {
                    "indexed": true,
                    "internalType": "address",
                    "name": "owner",
                    "type": "address"
                },
                {
                    "indexed": true,
                    "internalType": "address",
                    "name": "approved",
                    "type": "address"
                },
                {
                    "indexed": true,
                    "internalType": "uint256",
                    "name": "tokenId",
                    "type": "uint256"
                }
            ],
            "name": "Approval",
            "type": "event"
        },
        {
            "anonymous": false,
            "inputs": [
                {
                    "indexed": true,
                    "internalType": "address",
                    "name": "owner",
                    "type": "address"
                },
                {
                    "indexed": true,
                    "internalType": "address",
                    "name": "operator",
                    "type": "address"
                },
                {
                    "indexed": false,
                    "internalType": "bool",
                    "name": "approved",
                    "type": "bool"
                }
            ],
            "name": "ApprovalForAll",
            "type": "event"
        },
        {
            "anonymous": false,
            "inputs": [
                {
                    "indexed": true,
                    "internalType": "address",
                    "name": "newFreeMintSigner",
                    "type": "address"
                }
            ],
            "name": "FreeMintSignerSet",
            "type": "event"
        },
        {
            "anonymous": false,
            "inputs": [
                {
                    "indexed": false,
                    "internalType": "uint256",
                    "name": "newMintCost",
                    "type": "uint256"
                }
            ],
            "name": "MintCostSet",
            "type": "event"
        },
        {
            "anonymous": false,
            "inputs": [
                {
                    "indexed": true,
                    "internalType": "address",
                    "name": "minter",
                    "type": "address"
                }
            ],
            "name": "MinterPermitted",
            "type": "event"
        },
        {
            "anonymous": false,
            "inputs": [
                {
                    "indexed": true,
                    "internalType": "address",
                    "name": "minter",
                    "type": "address"
                }
            ],
            "name": "MinterRevoked",
            "type": "event"
        },
        {
            "anonymous": false,
            "inputs": [
                {
                    "indexed": true,
                    "internalType": "address",
                    "name": "previousOwner",
                    "type": "address"
                },
                {
                    "indexed": true,
                    "internalType": "address",
                    "name": "newOwner",
                    "type": "address"
                }
            ],
            "name": "OwnershipTransferred",
            "type": "event"
        },
        {
            "anonymous": false,
            "inputs": [
                {
                    "indexed": true,
                    "internalType": "address",
                    "name": "pkpNftMetadataAddress",
                    "type": "address"
                }
            ],
            "name": "PkpNftMetadataAddressSet",
            "type": "event"
        },
        {
            "anonymous": false,
            "inputs": [
                {
                    "indexed": true,
                    "internalType": "address",
                    "name": "pkpPermissionsAddress",
                    "type": "address"
                }
            ],
            "name": "PkpPermissionsAddressSet",
            "type": "event"
        },
        {
            "anonymous": false,
            "inputs": [
                {
                    "indexed": true,
                    "internalType": "uint256",
                    "name": "tokenId",
                    "type": "uint256"
                },
                {
                    "indexed": true,
                    "internalType": "uint256",
                    "name": "keyType",
                    "type": "uint256"
                }
            ],
            "name": "PkpRouted",
            "type": "event"
        },
        {
            "anonymous": false,
            "inputs": [
                {
                    "indexed": true,
                    "internalType": "address",
                    "name": "stakingAddress",
                    "type": "address"
                }
            ],
            "name": "StakingAddressSet",
            "type": "event"
        },
        {
            "anonymous": false,
            "inputs": [
                {
                    "indexed": true,
                    "internalType": "address",
                    "name": "from",
                    "type": "address"
                },
                {
                    "indexed": true,
                    "internalType": "address",
                    "name": "to",
                    "type": "address"
                },
                {
                    "indexed": true,
                    "internalType": "uint256",
                    "name": "tokenId",
                    "type": "uint256"
                }
            ],
            "name": "Transfer",
            "type": "event"
        },
        {
            "anonymous": false,
            "inputs": [
                {
                    "indexed": false,
                    "internalType": "uint256",
                    "name": "amount",
                    "type": "uint256"
                }
            ],
            "name": "Withdrew",
            "type": "event"
        },
        {
            "inputs": [
                {
                    "internalType": "bytes",
                    "name": "pubkey",
                    "type": "bytes"
                }
            ],
            "name": "_getTokenIdToMint",
            "outputs": [
                {
                    "internalType": "uint256",
                    "name": "",
                    "type": "uint256"
                }
            ],
            "stateMutability": "view",
            "type": "function"
        },
        {
            "inputs": [
                {
                    "internalType": "address",
                    "name": "newPermittedMinter",
                    "type": "address"
                }
            ],
            "name": "addPermittedMinter",
            "outputs": [],
            "stateMutability": "nonpayable",
            "type": "function"
        },
        {
            "inputs": [
                {
                    "internalType": "address",
                    "name": "to",
                    "type": "address"
                },
                {
                    "internalType": "uint256",
                    "name": "tokenId",
                    "type": "uint256"
                }
            ],
            "name": "approve",
            "outputs": [],
            "stateMutability": "nonpayable",
            "type": "function"
        },
        {
            "inputs": [
                {
                    "internalType": "address",
                    "name": "owner",
                    "type": "address"
                }
            ],
            "name": "balanceOf",
            "outputs": [
                {
                    "internalType": "uint256",
                    "name": "",
                    "type": "uint256"
                }
            ],
            "stateMutability": "view",
            "type": "function"
        },
        {
            "inputs": [
                {
                    "internalType": "uint256",
                    "name": "tokenId",
                    "type": "uint256"
                }
            ],
            "name": "burn",
            "outputs": [],
            "stateMutability": "nonpayable",
            "type": "function"
        },
        {
            "inputs": [
                {
                    "internalType": "address",
                    "name": "",
                    "type": "address"
                }
            ],
            "name": "ethAddressToPkpId",
            "outputs": [
                {
                    "internalType": "uint256",
                    "name": "",
                    "type": "uint256"
                }
            ],
            "stateMutability": "view",
            "type": "function"
        },
        {
            "inputs": [
                {
                    "internalType": "uint256",
                    "name": "tokenId",
                    "type": "uint256"
                }
            ],
            "name": "exists",
            "outputs": [
                {
                    "internalType": "bool",
                    "name": "",
                    "type": "bool"
                }
            ],
            "stateMutability": "view",
            "type": "function"
        },
        {
            "inputs": [
                {
                    "internalType": "bytes",
                    "name": "pubkey",
                    "type": "bytes"
                },
                {
                    "internalType": "uint256",
                    "name": "freeMintId",
                    "type": "uint256"
                },
                {
                    "internalType": "bytes32",
                    "name": "msgHash",
                    "type": "bytes32"
                },
                {
                    "internalType": "uint8",
                    "name": "v",
                    "type": "uint8"
                },
                {
                    "internalType": "bytes32",
                    "name": "r",
                    "type": "bytes32"
                },
                {
                    "internalType": "bytes32",
                    "name": "s",
                    "type": "bytes32"
                }
            ],
            "name": "freeMint",
            "outputs": [
                {
                    "internalType": "uint256",
                    "name": "",
                    "type": "uint256"
                }
            ],
            "stateMutability": "nonpayable",
            "type": "function"
        },
        {
            "inputs": [
                {
                    "internalType": "bytes",
                    "name": "pubkey",
                    "type": "bytes"
                },
                {
                    "internalType": "uint256",
                    "name": "freeMintId",
                    "type": "uint256"
                },
                {
                    "internalType": "bytes",
                    "name": "ipfsCID",
                    "type": "bytes"
                },
                {
                    "internalType": "bytes32",
                    "name": "msgHash",
                    "type": "bytes32"
                },
                {
                    "internalType": "uint8",
                    "name": "v",
                    "type": "uint8"
                },
                {
                    "internalType": "bytes32",
                    "name": "r",
                    "type": "bytes32"
                },
                {
                    "internalType": "bytes32",
                    "name": "s",
                    "type": "bytes32"
                }
            ],
            "name": "freeMintGrantAndBurn",
            "outputs": [
                {
                    "internalType": "uint256",
                    "name": "",
                    "type": "uint256"
                }
            ],
            "stateMutability": "nonpayable",
            "type": "function"
        },
        {
            "inputs": [
                {
                    "internalType": "uint256",
                    "name": "freeMintId",
                    "type": "uint256"
                },
                {
                    "internalType": "bytes32",
                    "name": "msgHash",
                    "type": "bytes32"
                },
                {
                    "internalType": "uint8",
                    "name": "v",
                    "type": "uint8"
                },
                {
                    "internalType": "bytes32",
                    "name": "r",
                    "type": "bytes32"
                },
                {
                    "internalType": "bytes32",
                    "name": "s",
                    "type": "bytes32"
                }
            ],
            "name": "freeMintSigTest",
            "outputs": [],
            "stateMutability": "view",
            "type": "function"
        },
        {
            "inputs": [],
            "name": "freeMintSigner",
            "outputs": [
                {
                    "internalType": "address",
                    "name": "",
                    "type": "address"
                }
            ],
            "stateMutability": "view",
            "type": "function"
        },
        {
            "inputs": [
                {
                    "internalType": "uint256",
                    "name": "tokenId",
                    "type": "uint256"
                }
            ],
            "name": "getApproved",
            "outputs": [
                {
                    "internalType": "address",
                    "name": "",
                    "type": "address"
                }
            ],
            "stateMutability": "view",
            "type": "function"
        },
        {
            "inputs": [
                {
                    "internalType": "uint256",
                    "name": "tokenId",
                    "type": "uint256"
                }
            ],
            "name": "getEthAddress",
            "outputs": [
                {
                    "internalType": "address",
                    "name": "",
                    "type": "address"
                }
            ],
            "stateMutability": "view",
            "type": "function"
        },
        {
            "inputs": [
                {
                    "internalType": "uint256",
                    "name": "tokenId",
                    "type": "uint256"
                }
            ],
            "name": "getPubkey",
            "outputs": [
                {
                    "internalType": "bytes",
                    "name": "",
                    "type": "bytes"
                }
            ],
            "stateMutability": "view",
            "type": "function"
        },
        {
            "inputs": [
                {
                    "internalType": "address",
                    "name": "owner",
                    "type": "address"
                },
                {
                    "internalType": "address",
                    "name": "operator",
                    "type": "address"
                }
            ],
            "name": "isApprovedForAll",
            "outputs": [
                {
                    "internalType": "bool",
                    "name": "",
                    "type": "bool"
                }
            ],
            "stateMutability": "view",
            "type": "function"
        },
        {
            "inputs": [
                {
                    "internalType": "bytes",
                    "name": "pubkey",
                    "type": "bytes"
                }
            ],
            "name": "mint",
            "outputs": [
                {
                    "internalType": "uint256",
                    "name": "",
                    "type": "uint256"
                }
            ],
            "stateMutability": "payable",
            "type": "function"
        },
        {
            "inputs": [],
            "name": "mintCost",
            "outputs": [
                {
                    "internalType": "uint256",
                    "name": "",
                    "type": "uint256"
                }
            ],
            "stateMutability": "view",
            "type": "function"
        },
        {
            "inputs": [
                {
                    "internalType": "bytes",
                    "name": "pubkey",
                    "type": "bytes"
                },
                {
                    "internalType": "bytes",
                    "name": "ipfsCID",
                    "type": "bytes"
                }
            ],
            "name": "mintGrantAndBurn",
            "outputs": [
                {
                    "internalType": "uint256",
                    "name": "",
                    "type": "uint256"
                }
            ],
            "stateMutability": "payable",
            "type": "function"
        },
        {
            "inputs": [],
            "name": "name",
            "outputs": [
                {
                    "internalType": "string",
                    "name": "",
                    "type": "string"
                }
            ],
            "stateMutability": "view",
            "type": "function"
        },
        {
            "inputs": [],
            "name": "owner",
            "outputs": [
                {
                    "internalType": "address",
                    "name": "",
                    "type": "address"
                }
            ],
            "stateMutability": "view",
            "type": "function"
        },
        {
            "inputs": [
                {
                    "internalType": "uint256",
                    "name": "tokenId",
                    "type": "uint256"
                }
            ],
            "name": "ownerOf",
            "outputs": [
                {
                    "internalType": "address",
                    "name": "",
                    "type": "address"
                }
            ],
            "stateMutability": "view",
            "type": "function"
        },
        {
            "inputs": [],
            "name": "pkpNftMetadata",
            "outputs": [
                {
                    "internalType": "contract PKPNFTMetadata",
                    "name": "",
                    "type": "address"
                }
            ],
            "stateMutability": "view",
            "type": "function"
        },
        {
            "inputs": [],
            "name": "pkpPermissions",
            "outputs": [
                {
                    "internalType": "contract PKPPermissions",
                    "name": "",
                    "type": "address"
                }
            ],
            "stateMutability": "view",
            "type": "function"
        },
        {
            "inputs": [
                {
                    "internalType": "bytes32",
                    "name": "hash",
                    "type": "bytes32"
                }
            ],
            "name": "prefixed",
            "outputs": [
                {
                    "internalType": "bytes32",
                    "name": "",
                    "type": "bytes32"
                }
            ],
            "stateMutability": "pure",
            "type": "function"
        },
        {
            "inputs": [
                {
                    "internalType": "uint256",
                    "name": "",
                    "type": "uint256"
                }
            ],
            "name": "pubkeys",
            "outputs": [
                {
                    "internalType": "bytes",
                    "name": "",
                    "type": "bytes"
                }
            ],
            "stateMutability": "view",
            "type": "function"
        },
        {
            "inputs": [
                {
                    "internalType": "uint256",
                    "name": "",
                    "type": "uint256"
                }
            ],
            "name": "redeemedFreeMintIds",
            "outputs": [
                {
                    "internalType": "bool",
                    "name": "",
                    "type": "bool"
                }
            ],
            "stateMutability": "view",
            "type": "function"
        },
        {
            "inputs": [
                {
                    "internalType": "address",
                    "name": "newPermittedMinter",
                    "type": "address"
                }
            ],
            "name": "removePermittedMinter",
            "outputs": [],
            "stateMutability": "nonpayable",
            "type": "function"
        },
        {
            "inputs": [],
            "name": "renounceOwnership",
            "outputs": [],
            "stateMutability": "nonpayable",
            "type": "function"
        },
        {
            "inputs": [
                {
                    "internalType": "address",
                    "name": "from",
                    "type": "address"
                },
                {
                    "internalType": "address",
                    "name": "to",
                    "type": "address"
                },
                {
                    "internalType": "uint256",
                    "name": "tokenId",
                    "type": "uint256"
                }
            ],
            "name": "safeTransferFrom",
            "outputs": [],
            "stateMutability": "nonpayable",
            "type": "function"
        },
        {
            "inputs": [
                {
                    "internalType": "address",
                    "name": "from",
                    "type": "address"
                },
                {
                    "internalType": "address",
                    "name": "to",
                    "type": "address"
                },
                {
                    "internalType": "uint256",
                    "name": "tokenId",
                    "type": "uint256"
                },
                {
                    "internalType": "bytes",
                    "name": "data",
                    "type": "bytes"
                }
            ],
            "name": "safeTransferFrom",
            "outputs": [],
            "stateMutability": "nonpayable",
            "type": "function"
        },
        {
            "inputs": [
                {
                    "internalType": "address",
                    "name": "operator",
                    "type": "address"
                },
                {
                    "internalType": "bool",
                    "name": "approved",
                    "type": "bool"
                }
            ],
            "name": "setApprovalForAll",
            "outputs": [],
            "stateMutability": "nonpayable",
            "type": "function"
        },
        {
            "inputs": [
                {
                    "internalType": "address",
                    "name": "newFreeMintSigner",
                    "type": "address"
                }
            ],
            "name": "setFreeMintSigner",
            "outputs": [],
            "stateMutability": "nonpayable",
            "type": "function"
        },
        {
            "inputs": [
                {
                    "internalType": "uint256",
                    "name": "newMintCost",
                    "type": "uint256"
                }
            ],
            "name": "setMintCost",
            "outputs": [],
            "stateMutability": "nonpayable",
            "type": "function"
        },
        {
            "inputs": [
                {
                    "internalType": "address",
                    "name": "pkpNftMetadataAddress",
                    "type": "address"
                }
            ],
            "name": "setPkpNftMetadataAddress",
            "outputs": [],
            "stateMutability": "nonpayable",
            "type": "function"
        },
        {
            "inputs": [
                {
                    "internalType": "address",
                    "name": "pkpPermissionsAddress",
                    "type": "address"
                }
            ],
            "name": "setPkpPermissionsAddress",
            "outputs": [],
            "stateMutability": "nonpayable",
            "type": "function"
        },
        {
            "inputs": [
                {
                    "internalType": "address",
                    "name": "stakingAddress",
                    "type": "address"
                }
            ],
            "name": "setStakingAddress",
            "outputs": [],
            "stateMutability": "nonpayable",
            "type": "function"
        },
        {
            "inputs": [],
            "name": "staking",
            "outputs": [
                {
                    "internalType": "contract Staking",
                    "name": "",
                    "type": "address"
                }
            ],
            "stateMutability": "view",
            "type": "function"
        },
        {
            "inputs": [
                {
                    "internalType": "bytes4",
                    "name": "interfaceId",
                    "type": "bytes4"
                }
            ],
            "name": "supportsInterface",
            "outputs": [
                {
                    "internalType": "bool",
                    "name": "",
                    "type": "bool"
                }
            ],
            "stateMutability": "view",
            "type": "function"
        },
        {
            "inputs": [],
            "name": "symbol",
            "outputs": [
                {
                    "internalType": "string",
                    "name": "",
                    "type": "string"
                }
            ],
            "stateMutability": "view",
            "type": "function"
        },
        {
            "inputs": [
                {
                    "internalType": "uint256",
                    "name": "index",
                    "type": "uint256"
                }
            ],
            "name": "tokenByIndex",
            "outputs": [
                {
                    "internalType": "uint256",
                    "name": "",
                    "type": "uint256"
                }
            ],
            "stateMutability": "view",
            "type": "function"
        },
        {
            "inputs": [
                {
                    "internalType": "address",
                    "name": "owner",
                    "type": "address"
                },
                {
                    "internalType": "uint256",
                    "name": "index",
                    "type": "uint256"
                }
            ],
            "name": "tokenOfOwnerByIndex",
            "outputs": [
                {
                    "internalType": "uint256",
                    "name": "",
                    "type": "uint256"
                }
            ],
            "stateMutability": "view",
            "type": "function"
        },
        {
            "inputs": [
                {
                    "internalType": "uint256",
                    "name": "tokenId",
                    "type": "uint256"
                }
            ],
            "name": "tokenURI",
            "outputs": [
                {
                    "internalType": "string",
                    "name": "",
                    "type": "string"
                }
            ],
            "stateMutability": "view",
            "type": "function"
        },
        {
            "inputs": [],
            "name": "totalSupply",
            "outputs": [
                {
                    "internalType": "uint256",
                    "name": "",
                    "type": "uint256"
                }
            ],
            "stateMutability": "view",
            "type": "function"
        },
        {
            "inputs": [
                {
                    "internalType": "address",
                    "name": "from",
                    "type": "address"
                },
                {
                    "internalType": "address",
                    "name": "to",
                    "type": "address"
                },
                {
                    "internalType": "uint256",
                    "name": "tokenId",
                    "type": "uint256"
                }
            ],
            "name": "transferFrom",
            "outputs": [],
            "stateMutability": "nonpayable",
            "type": "function"
        },
        {
            "inputs": [
                {
                    "internalType": "address",
                    "name": "newOwner",
                    "type": "address"
                }
            ],
            "name": "transferOwnership",
            "outputs": [],
            "stateMutability": "nonpayable",
            "type": "function"
        },
        {
            "inputs": [],
            "name": "withdraw",
            "outputs": [],
            "stateMutability": "nonpayable",
            "type": "function"
        }
    ],
    "bytecode": "0x60806040523480156200001157600080fd5b506040518060400160405280601481526020017f50726f6772616d6d61626c65204b6579706169720000000000000000000000008152506040518060400160405280600381526020017f504b50000000000000000000000000000000000000000000000000000000000081525081600090816200008f919062000554565b508060019081620000a1919062000554565b505050620000c4620000b86200013760201b60201c565b6200013f60201b60201c565b6001600b819055506001600e8190555033600f60006101000a81548173ffffffffffffffffffffffffffffffffffffffff021916908373ffffffffffffffffffffffffffffffffffffffff160217905550620001303360116200020560201b6200239d1790919060201c565b506200063b565b600033905090565b6000600660009054906101000a900473ffffffffffffffffffffffffffffffffffffffff16905081600660006101000a81548173ffffffffffffffffffffffffffffffffffffffff021916908373ffffffffffffffffffffffffffffffffffffffff1602179055508173ffffffffffffffffffffffffffffffffffffffff168173ffffffffffffffffffffffffffffffffffffffff167f8be0079c531659141344cd1fd0a4f28419497f9722a3daafe3b4186f6b6457e060405160405180910390a35050565b600062000235836000018373ffffffffffffffffffffffffffffffffffffffff1660001b6200023d60201b60201c565b905092915050565b6000620002518383620002b760201b60201c565b620002ac578260000182908060018154018082558091505060019003906000526020600020016000909190919091505582600001805490508360010160008481526020019081526020016000208190555060019050620002b1565b600090505b92915050565b600080836001016000848152602001908152602001600020541415905092915050565b600081519050919050565b7f4e487b7100000000000000000000000000000000000000000000000000000000600052604160045260246000fd5b7f4e487b7100000000000000000000000000000000000000000000000000000000600052602260045260246000fd5b600060028204905060018216806200035c57607f821691505b60208210810362000372576200037162000314565b5b50919050565b60008190508160005260206000209050919050565b60006020601f8301049050919050565b600082821b905092915050565b600060088302620003dc7fffffffffffffffffffffffffffffffffffffffffffffffffffffffffffffffff826200039d565b620003e886836200039d565b95508019841693508086168417925050509392505050565b6000819050919050565b6000819050919050565b6000620004356200042f620004298462000400565b6200040a565b62000400565b9050919050565b6000819050919050565b620004518362000414565b6200046962000460826200043c565b848454620003aa565b825550505050565b600090565b6200048062000471565b6200048d81848462000446565b505050565b5b81811015620004b557620004a960008262000476565b60018101905062000493565b5050565b601f8211156200050457620004ce8162000378565b620004d9846200038d565b81016020851015620004e9578190505b62000501620004f8856200038d565b83018262000492565b50505b505050565b600082821c905092915050565b6000620005296000198460080262000509565b1980831691505092915050565b600062000544838362000516565b9150826002028217905092915050565b6200055f82620002da565b67ffffffffffffffff8111156200057b576200057a620002e5565b5b62000587825462000343565b62000594828285620004b9565b600060209050601f831160018114620005cc5760008415620005b7578287015190505b620005c3858262000536565b86555062000633565b601f198416620005dc8662000378565b60005b828110156200060657848901518255600182019150602085019450602081019050620005df565b8683101562000626578489015162000622601f89168262000516565b8355505b6001600288020188555050505b505050505050565b615b70806200064b6000396000f3fe60806040526004361061027d5760003560e01c8063715018a61161014f578063a22cb465116100c1578063cc293a2d1161007a578063cc293a2d14610a0b578063de18a50814610a3b578063e985e9c514610a78578063ef6fd87814610ab5578063f2fde38b14610af2578063f4e0d9ac14610b1b5761027d565b8063a22cb465146108e9578063b88d4fde14610912578063b94a21021461093b578063bd4986a014610966578063bdb4b848146109a3578063c87b56dd146109ce5761027d565b80638545f4ea116101135780638545f4ea146107d75780638da5cb5b146108005780639004525f1461082b5780639388f12e1461086857806395d89b411461089357806397016f3f146108be5761027d565b8063715018a6146106ed57806371c9ce13146107045780637ba0e2e7146107415780637bd3e3f614610771578063831324ea146107ae5761027d565b806342842e0e116101f357806356e3a1ae116101ac57806356e3a1ae146105a75780635f49663c146105e45780636352211e1461060d57806364c7605e1461064a5780636f2096371461068757806370a08231146106b05761027d565b806342842e0e1461048757806342966c68146104b05780634c19eae6146104d95780634cf088d9146105025780634f558e791461052d5780634f6ccce71461056a5761027d565b80631ea89a22116102455780631ea89a221461037b5780631f275713146103a457806323b872dd146103e15780632f745c591461040a5780633b189852146104475780633ccfd60b146104705761027d565b806301ffc9a71461028257806306fdde03146102bf578063081812fc146102ea578063095ea7b31461032757806318160ddd14610350575b600080fd5b34801561028e57600080fd5b506102a960048036038101906102a49190613be9565b610b44565b6040516102b69190613c31565b60405180910390f35b3480156102cb57600080fd5b506102d4610c7e565b6040516102e19190613cdc565b60405180910390f35b3480156102f657600080fd5b50610311600480360381019061030c9190613d34565b610d10565b60405161031e9190613da2565b60405180910390f35b34801561033357600080fd5b5061034e60048036038101906103499190613de9565b610d56565b005b34801561035c57600080fd5b50610365610e6d565b6040516103729190613e38565b60405180910390f35b34801561038757600080fd5b506103a2600480360381019061039d9190613e53565b610e7a565b005b3480156103b057600080fd5b506103cb60048036038101906103c69190613eb6565b610f09565b6040516103d89190613ef2565b60405180910390f35b3480156103ed57600080fd5b5061040860048036038101906104039190613f0d565b610f39565b005b34801561041657600080fd5b50610431600480360381019061042c9190613de9565b610f99565b60405161043e9190613e38565b60405180910390f35b34801561045357600080fd5b5061046e60048036038101906104699190613e53565b61103e565b005b34801561047c57600080fd5b506104856110cd565b005b34801561049357600080fd5b506104ae60048036038101906104a99190613f0d565b61119b565b005b3480156104bc57600080fd5b506104d760048036038101906104d29190613d34565b6111bb565b005b3480156104e557600080fd5b5061050060048036038101906104fb9190613f99565b611217565b005b34801561050e57600080fd5b506105176113e1565b6040516105249190614073565b60405180910390f35b34801561053957600080fd5b50610554600480360381019061054f9190613d34565b611407565b6040516105619190613c31565b60405180910390f35b34801561057657600080fd5b50610591600480360381019061058c9190613d34565b611419565b60405161059e9190613e38565b60405180910390f35b3480156105b357600080fd5b506105ce60048036038101906105c99190613d34565b61148a565b6040516105db9190613c31565b60405180910390f35b3480156105f057600080fd5b5061060b60048036038101906106069190613e53565b6114aa565b005b34801561061957600080fd5b50610634600480360381019061062f9190613d34565b611539565b6040516106419190613da2565b60405180910390f35b34801561065657600080fd5b50610671600480360381019061066c91906141c3565b6115bf565b60405161067e9190613e38565b60405180910390f35b34801561069357600080fd5b506106ae60048036038101906106a99190613e53565b61174d565b005b3480156106bc57600080fd5b506106d760048036038101906106d29190613e53565b6117b0565b6040516106e49190613e38565b60405180910390f35b3480156106f957600080fd5b50610702611867565b005b34801561071057600080fd5b5061072b6004803603810190610726919061429d565b61187b565b6040516107389190613e38565b60405180910390f35b61075b6004803603810190610756919061429d565b6118f6565b6040516107689190613e38565b60405180910390f35b34801561077d57600080fd5b5061079860048036038101906107939190613d34565b6119b0565b6040516107a5919061433b565b60405180910390f35b3480156107ba57600080fd5b506107d560048036038101906107d09190613e53565b611a50565b005b3480156107e357600080fd5b506107fe60048036038101906107f99190613d34565b611ab3565b005b34801561080c57600080fd5b50610815611afc565b6040516108229190613da2565b60405180910390f35b34801561083757600080fd5b50610852600480360381019061084d919061435d565b611b26565b60405161085f9190613e38565b60405180910390f35b34801561087457600080fd5b5061087d611bd0565b60405161088a9190614427565b60405180910390f35b34801561089f57600080fd5b506108a8611bf6565b6040516108b59190613cdc565b60405180910390f35b3480156108ca57600080fd5b506108d3611c88565b6040516108e09190614463565b60405180910390f35b3480156108f557600080fd5b50610910600480360381019061090b91906144aa565b611cae565b005b34801561091e57600080fd5b50610939600480360381019061093491906144ea565b611cc4565b005b34801561094757600080fd5b50610950611d26565b60405161095d9190613da2565b60405180910390f35b34801561097257600080fd5b5061098d60048036038101906109889190613d34565b611d4c565b60405161099a9190613da2565b60405180910390f35b3480156109af57600080fd5b506109b8611e1c565b6040516109c59190613e38565b60405180910390f35b3480156109da57600080fd5b506109f560048036038101906109f09190613d34565b611e22565b604051610a029190613cdc565b60405180910390f35b610a256004803603810190610a20919061456d565b611fa6565b604051610a329190613e38565b60405180910390f35b348015610a4757600080fd5b50610a626004803603810190610a5d9190613e53565b61213a565b604051610a6f9190613e38565b60405180910390f35b348015610a8457600080fd5b50610a9f6004803603810190610a9a91906145e5565b612152565b604051610aac9190613c31565b60405180910390f35b348015610ac157600080fd5b50610adc6004803603810190610ad79190613d34565b6121e6565b604051610ae9919061433b565b60405180910390f35b348015610afe57600080fd5b50610b196004803603810190610b149190613e53565b61228b565b005b348015610b2757600080fd5b50610b426004803603810190610b3d9190613e53565b61230e565b005b60007f780e9d63000000000000000000000000000000000000000000000000000000007bffffffffffffffffffffffffffffffffffffffffffffffffffffffff1916827bffffffffffffffffffffffffffffffffffffffffffffffffffffffff19161480610c0f57507f5b5e139f000000000000000000000000000000000000000000000000000000007bffffffffffffffffffffffffffffffffffffffffffffffffffffffff1916827bffffffffffffffffffffffffffffffffffffffffffffffffffffffff1916145b80610c7757507f80ac58cd000000000000000000000000000000000000000000000000000000007bffffffffffffffffffffffffffffffffffffffffffffffffffffffff1916827bffffffffffffffffffffffffffffffffffffffffffffffffffffffff1916145b9050919050565b606060008054610c8d90614654565b80601f0160208091040260200160405190810160405280929190818152602001828054610cb990614654565b8015610d065780601f10610cdb57610100808354040283529160200191610d06565b820191906000526020600020905b815481529060010190602001808311610ce957829003601f168201915b5050505050905090565b6000610d1b826123cd565b6004600083815260200190815260200160002060009054906101000a900473ffffffffffffffffffffffffffffffffffffffff169050919050565b6000610d6182611539565b90508073ffffffffffffffffffffffffffffffffffffffff168373ffffffffffffffffffffffffffffffffffffffff1603610dd1576040517f08c379a0000000000000000000000000000000000000000000000000000000008152600401610dc8906146f7565b60405180910390fd5b8073ffffffffffffffffffffffffffffffffffffffff16610df0612418565b73ffffffffffffffffffffffffffffffffffffffff161480610e1f5750610e1e81610e19612418565b612152565b5b610e5e576040517f08c379a0000000000000000000000000000000000000000000000000000000008152600401610e5590614789565b60405180910390fd5b610e688383612420565b505050565b6000600980549050905090565b610e826124d9565b80600c60006101000a81548173ffffffffffffffffffffffffffffffffffffffff021916908373ffffffffffffffffffffffffffffffffffffffff1602179055508073ffffffffffffffffffffffffffffffffffffffff167f42d2ac2cd8a457cf976d513bacdc167baa2ff2cd2706c98d222bb035b89d496960405160405180910390a250565b600081604051602001610f1c9190614821565b604051602081830303815290604052805190602001209050919050565b610f4a610f44612418565b82612557565b610f89576040517f08c379a0000000000000000000000000000000000000000000000000000000008152600401610f80906148b9565b60405180910390fd5b610f948383836125ec565b505050565b6000610fa4836117b0565b8210610fe5576040517f08c379a0000000000000000000000000000000000000000000000000000000008152600401610fdc9061494b565b60405180910390fd5b600760008473ffffffffffffffffffffffffffffffffffffffff1673ffffffffffffffffffffffffffffffffffffffff168152602001908152602001600020600083815260200190815260200160002054905092915050565b6110466124d9565b80600f60006101000a81548173ffffffffffffffffffffffffffffffffffffffff021916908373ffffffffffffffffffffffffffffffffffffffff1602179055508073ffffffffffffffffffffffffffffffffffffffff167f65d3e06a561c77a07da59b8b2ca10214ae08fe21cc2953a90db0ac8b5b7c437160405160405180910390a250565b6110d56124d9565b6110dd6128e5565b600047905060003373ffffffffffffffffffffffffffffffffffffffff16826040516111089061499c565b60006040518083038185875af1925050503d8060008114611145576040519150601f19603f3d011682016040523d82523d6000602084013e61114a565b606091505b505090508061115857600080fd5b7fb6b476da71cea8275cac6b1720c04966afaff5e637472cedb6cbd32c43a23251826040516111879190613e38565b60405180910390a15050611199612934565b565b6111b683838360405180602001604052806000815250611cc4565b505050565b6111cc6111c6612418565b82612557565b61120b576040517f08c379a0000000000000000000000000000000000000000000000000000000008152600401611202906148b9565b60405180910390fd5b6112148161293e565b50565b600061124a308760405160200161122f929190614a1a565b60405160208183030381529060405280519060200120610f09565b905084811461128e576040517f08c379a000000000000000000000000000000000000000000000000000000000815260040161128590614ab8565b60405180910390fd5b6000600186868686604051600081526020016040526040516112b39493929190614ae7565b6020604051602081039080840390855afa1580156112d5573d6000803e3d6000fd5b505050602060405103519050600f60009054906101000a900473ffffffffffffffffffffffffffffffffffffffff1673ffffffffffffffffffffffffffffffffffffffff168173ffffffffffffffffffffffffffffffffffffffff1614611371576040517f08c379a000000000000000000000000000000000000000000000000000000000815260040161136890614bc4565b60405180910390fd5b600015156015600089815260200190815260200160002060009054906101000a900460ff161515146113d8576040517f08c379a00000000000000000000000000000000000000000000000000000000081526004016113cf90614c56565b60405180910390fd5b50505050505050565b601060009054906101000a900473ffffffffffffffffffffffffffffffffffffffff1681565b600061141282612a8c565b9050919050565b6000611423610e6d565b8210611464576040517f08c379a000000000000000000000000000000000000000000000000000000000815260040161145b90614ce8565b60405180910390fd5b6009828154811061147857611477614d08565b5b90600052602060002001549050919050565b60156020528060005260406000206000915054906101000a900460ff1681565b6114b26124d9565b80600d60006101000a81548173ffffffffffffffffffffffffffffffffffffffff021916908373ffffffffffffffffffffffffffffffffffffffff1602179055508073ffffffffffffffffffffffffffffffffffffffff167f446c3422d569626abc16e1497dfa8270f1192bd56ea9ec8890b09705ddc275ad60405160405180910390a250565b60008061154583612acd565b9050600073ffffffffffffffffffffffffffffffffffffffff168173ffffffffffffffffffffffffffffffffffffffff16036115b6576040517f08c379a00000000000000000000000000000000000000000000000000000000081526004016115ad90614d83565b60405180910390fd5b80915050919050565b60006115d5326011612b0a90919063ffffffff16565b611614576040517f08c379a000000000000000000000000000000000000000000000000000000000815260040161160b90614def565b60405180910390fd5b6116218786868686611217565b600061162d8930612b3a565b90506001601560008a815260200190815260200160002060006101000a81548160ff021916908315150217905550600c60009054906101000a900473ffffffffffffffffffffffffffffffffffffffff1673ffffffffffffffffffffffffffffffffffffffff16638a4315788289600067ffffffffffffffff8111156116b6576116b5614098565b5b6040519080825280602002602001820160405280156116e45781602001602082028036833780820191505090505b506040518463ffffffff1660e01b815260040161170393929190614ecd565b600060405180830381600087803b15801561171d57600080fd5b505af1158015611731573d6000803e3d6000fd5b5050505061173e8161293e565b80915050979650505050505050565b6117556124d9565b611769816011612c7690919063ffffffff16565b508073ffffffffffffffffffffffffffffffffffffffff167f44f4322f8daa225d5f4877ad0f7d3dfba248a774396f3ca99405ed40a044fe8160405160405180910390a250565b60008073ffffffffffffffffffffffffffffffffffffffff168273ffffffffffffffffffffffffffffffffffffffff1603611820576040517f08c379a000000000000000000000000000000000000000000000000000000000815260040161181790614f84565b60405180910390fd5b600360008373ffffffffffffffffffffffffffffffffffffffff1673ffffffffffffffffffffffffffffffffffffffff168152602001908152602001600020549050919050565b61186f6124d9565b6118796000612ca6565b565b600080828051906020012060001c905060006013600083815260200190815260200160002080546118ab90614654565b9050146118ed576040517f08c379a00000000000000000000000000000000000000000000000000000000081526004016118e490614ff0565b60405180910390fd5b80915050919050565b6000600e54341461193c576040517f08c379a00000000000000000000000000000000000000000000000000000000081526004016119339061505c565b60405180910390fd5b611950326011612b0a90919063ffffffff16565b61198f576040517f08c379a000000000000000000000000000000000000000000000000000000000815260040161198690614def565b60405180910390fd5b600061199a8361187b565b90506119a68333612b3a565b5080915050919050565b601360205280600052604060002060009150905080546119cf90614654565b80601f01602080910402602001604051908101604052809291908181526020018280546119fb90614654565b8015611a485780601f10611a1d57610100808354040283529160200191611a48565b820191906000526020600020905b815481529060010190602001808311611a2b57829003601f168201915b505050505081565b611a586124d9565b611a6c81601161239d90919063ffffffff16565b508073ffffffffffffffffffffffffffffffffffffffff167fcddac40078270fda4a2cd64a6089b372413df61e8de795e484d9c054c44ce16f60405160405180910390a250565b611abb6124d9565b80600e819055507f653b8b44976b2e5c016e082d134653d04dea9dbef92055038cca38c93007035581604051611af19190613e38565b60405180910390a150565b6000600660009054906101000a900473ffffffffffffffffffffffffffffffffffffffff16905090565b6000611b3c326011612b0a90919063ffffffff16565b611b7b576040517f08c379a0000000000000000000000000000000000000000000000000000000008152600401611b7290614def565b60405180910390fd5b611b888686868686611217565b6000611b948833612b3a565b905060016015600089815260200190815260200160002060006101000a81548160ff021916908315150217905550809150509695505050505050565b600d60009054906101000a900473ffffffffffffffffffffffffffffffffffffffff1681565b606060018054611c0590614654565b80601f0160208091040260200160405190810160405280929190818152602001828054611c3190614654565b8015611c7e5780601f10611c5357610100808354040283529160200191611c7e565b820191906000526020600020905b815481529060010190602001808311611c6157829003601f168201915b5050505050905090565b600c60009054906101000a900473ffffffffffffffffffffffffffffffffffffffff1681565b611cc0611cb9612418565b8383612d6c565b5050565b611cd5611ccf612418565b83612557565b611d14576040517f08c379a0000000000000000000000000000000000000000000000000000000008152600401611d0b906148b9565b60405180910390fd5b611d2084848484612ed8565b50505050565b600f60009054906101000a900473ffffffffffffffffffffffffffffffffffffffff1681565b600080611e0160016040601360008781526020019081526020016000208054611d7490614654565b80601f0160208091040260200160405190810160405280929190818152602001828054611da090614654565b8015611ded5780601f10611dc257610100808354040283529160200191611ded565b820191906000526020600020905b815481529060010190602001808311611dd057829003601f168201915b5050505050612f349092919063ffffffff16565b90506000818051906020012090508060001c92505050919050565b600e5481565b6060611e626040518060400160405280601181526020017f67657474696e6720746f6b656e20757269000000000000000000000000000000815250613052565b6000611e6d836121e6565b9050611ead6040518060400160405280601f81526020017f676f74207075626b65792c2067657474696e6720657468206164647265737300815250613052565b6000611eb884611d4c565b9050611ef86040518060400160405280601081526020017f63616c6c696e6720746f6b656e55524900000000000000000000000000000000815250613052565b600d60009054906101000a900473ffffffffffffffffffffffffffffffffffffffff1673ffffffffffffffffffffffffffffffffffffffff1663950462ee8584846040518463ffffffff1660e01b8152600401611f579392919061507c565b600060405180830381865afa158015611f74573d6000803e3d6000fd5b505050506040513d6000823e3d601f19601f82011682018060405250810190611f9d919061515b565b92505050919050565b6000600e543414611fec576040517f08c379a0000000000000000000000000000000000000000000000000000000008152600401611fe39061505c565b60405180910390fd5b612000326011612b0a90919063ffffffff16565b61203f576040517f08c379a000000000000000000000000000000000000000000000000000000000815260040161203690614def565b60405180910390fd5b600061204b8430612b3a565b9050600c60009054906101000a900473ffffffffffffffffffffffffffffffffffffffff1673ffffffffffffffffffffffffffffffffffffffff16638a4315788285600067ffffffffffffffff8111156120a8576120a7614098565b5b6040519080825280602002602001820160405280156120d65781602001602082028036833780820191505090505b506040518463ffffffff1660e01b81526004016120f593929190614ecd565b600060405180830381600087803b15801561210f57600080fd5b505af1158015612123573d6000803e3d6000fd5b505050506121308161293e565b8091505092915050565b60146020528060005260406000206000915090505481565b6000600560008473ffffffffffffffffffffffffffffffffffffffff1673ffffffffffffffffffffffffffffffffffffffff16815260200190815260200160002060008373ffffffffffffffffffffffffffffffffffffffff1673ffffffffffffffffffffffffffffffffffffffff16815260200190815260200160002060009054906101000a900460ff16905092915050565b606060136000838152602001908152602001600020805461220690614654565b80601f016020809104026020016040519081016040528092919081815260200182805461223290614654565b801561227f5780601f106122545761010080835404028352916020019161227f565b820191906000526020600020905b81548152906001019060200180831161226257829003601f168201915b50505050509050919050565b6122936124d9565b600073ffffffffffffffffffffffffffffffffffffffff168173ffffffffffffffffffffffffffffffffffffffff1603612302576040517f08c379a00000000000000000000000000000000000000000000000000000000081526004016122f990615216565b60405180910390fd5b61230b81612ca6565b50565b6123166124d9565b80601060006101000a81548173ffffffffffffffffffffffffffffffffffffffff021916908373ffffffffffffffffffffffffffffffffffffffff1602179055508073ffffffffffffffffffffffffffffffffffffffff167f524b317898d91e941d8311edbdd1bf568e07309f08e11f7ef94c053a9e35f91860405160405180910390a250565b60006123c5836000018373ffffffffffffffffffffffffffffffffffffffff1660001b6130eb565b905092915050565b6123d681612a8c565b612415576040517f08c379a000000000000000000000000000000000000000000000000000000000815260040161240c90614d83565b60405180910390fd5b50565b600033905090565b816004600083815260200190815260200160002060006101000a81548173ffffffffffffffffffffffffffffffffffffffff021916908373ffffffffffffffffffffffffffffffffffffffff160217905550808273ffffffffffffffffffffffffffffffffffffffff1661249383611539565b73ffffffffffffffffffffffffffffffffffffffff167f8c5be1e5ebec7d5bd14f71427d1e84f3dd0314c0f7b2291e5b200ac8c7c3b92560405160405180910390a45050565b6124e1612418565b73ffffffffffffffffffffffffffffffffffffffff166124ff611afc565b73ffffffffffffffffffffffffffffffffffffffff1614612555576040517f08c379a000000000000000000000000000000000000000000000000000000000815260040161254c90615282565b60405180910390fd5b565b60008061256383611539565b90508073ffffffffffffffffffffffffffffffffffffffff168473ffffffffffffffffffffffffffffffffffffffff1614806125a557506125a48185612152565b5b806125e357508373ffffffffffffffffffffffffffffffffffffffff166125cb84610d10565b73ffffffffffffffffffffffffffffffffffffffff16145b91505092915050565b8273ffffffffffffffffffffffffffffffffffffffff1661260c82611539565b73ffffffffffffffffffffffffffffffffffffffff1614612662576040517f08c379a000000000000000000000000000000000000000000000000000000000815260040161265990615314565b60405180910390fd5b600073ffffffffffffffffffffffffffffffffffffffff168273ffffffffffffffffffffffffffffffffffffffff16036126d1576040517f08c379a00000000000000000000000000000000000000000000000000000000081526004016126c8906153a6565b60405180910390fd5b6126de838383600161315b565b8273ffffffffffffffffffffffffffffffffffffffff166126fe82611539565b73ffffffffffffffffffffffffffffffffffffffff1614612754576040517f08c379a000000000000000000000000000000000000000000000000000000000815260040161274b90615314565b60405180910390fd5b6004600082815260200190815260200160002060006101000a81549073ffffffffffffffffffffffffffffffffffffffff02191690556001600360008573ffffffffffffffffffffffffffffffffffffffff1673ffffffffffffffffffffffffffffffffffffffff168152602001908152602001600020600082825403925050819055506001600360008473ffffffffffffffffffffffffffffffffffffffff1673ffffffffffffffffffffffffffffffffffffffff16815260200190815260200160002060008282540192505081905550816002600083815260200190815260200160002060006101000a81548173ffffffffffffffffffffffffffffffffffffffff021916908373ffffffffffffffffffffffffffffffffffffffff160217905550808273ffffffffffffffffffffffffffffffffffffffff168473ffffffffffffffffffffffffffffffffffffffff167fddf252ad1be2c89b69c2b068fc378daa952ba7f163c4a11628f55a4df523b3ef60405160405180910390a46128e0838383600161316d565b505050565b6002600b540361292a576040517f08c379a000000000000000000000000000000000000000000000000000000000815260040161292190615412565b60405180910390fd5b6002600b81905550565b6001600b81905550565b600061294982611539565b905061295981600084600161315b565b61296282611539565b90506004600083815260200190815260200160002060006101000a81549073ffffffffffffffffffffffffffffffffffffffff02191690556001600360008373ffffffffffffffffffffffffffffffffffffffff1673ffffffffffffffffffffffffffffffffffffffff168152602001908152602001600020600082825403925050819055506002600083815260200190815260200160002060006101000a81549073ffffffffffffffffffffffffffffffffffffffff021916905581600073ffffffffffffffffffffffffffffffffffffffff168273ffffffffffffffffffffffffffffffffffffffff167fddf252ad1be2c89b69c2b068fc378daa952ba7f163c4a11628f55a4df523b3ef60405160405180910390a4612a8881600084600161316d565b5050565b60008073ffffffffffffffffffffffffffffffffffffffff16612aae83612acd565b73ffffffffffffffffffffffffffffffffffffffff1614159050919050565b60006002600083815260200190815260200160002060009054906101000a900473ffffffffffffffffffffffffffffffffffffffff169050919050565b6000612b32836000018373ffffffffffffffffffffffffffffffffffffffff1660001b613173565b905092915050565b600080838051906020012060001c90506000601360008381526020019081526020016000208054612b6a90614654565b905014612bac576040517f08c379a0000000000000000000000000000000000000000000000000000000008152600401612ba390614ff0565b60405180910390fd5b83601360008381526020019081526020016000209081612bcc91906155d4565b506000612bd882611d4c565b905081601460008373ffffffffffffffffffffffffffffffffffffffff1673ffffffffffffffffffffffffffffffffffffffff168152602001908152602001600020819055503073ffffffffffffffffffffffffffffffffffffffff168473ffffffffffffffffffffffffffffffffffffffff1603612c6057612c5b8483613196565b612c6b565b612c6a84836133b3565b5b819250505092915050565b6000612c9e836000018373ffffffffffffffffffffffffffffffffffffffff1660001b6133d1565b905092915050565b6000600660009054906101000a900473ffffffffffffffffffffffffffffffffffffffff16905081600660006101000a81548173ffffffffffffffffffffffffffffffffffffffff021916908373ffffffffffffffffffffffffffffffffffffffff1602179055508173ffffffffffffffffffffffffffffffffffffffff168173ffffffffffffffffffffffffffffffffffffffff167f8be0079c531659141344cd1fd0a4f28419497f9722a3daafe3b4186f6b6457e060405160405180910390a35050565b8173ffffffffffffffffffffffffffffffffffffffff168373ffffffffffffffffffffffffffffffffffffffff1603612dda576040517f08c379a0000000000000000000000000000000000000000000000000000000008152600401612dd1906156f2565b60405180910390fd5b80600560008573ffffffffffffffffffffffffffffffffffffffff1673ffffffffffffffffffffffffffffffffffffffff16815260200190815260200160002060008473ffffffffffffffffffffffffffffffffffffffff1673ffffffffffffffffffffffffffffffffffffffff16815260200190815260200160002060006101000a81548160ff0219169083151502179055508173ffffffffffffffffffffffffffffffffffffffff168373ffffffffffffffffffffffffffffffffffffffff167f17307eab39ab6107e8899845ad3d59bd9653f200f220920489ca2b5937696c3183604051612ecb9190613c31565b60405180910390a3505050565b612ee38484846125ec565b612eef848484846134e5565b612f2e576040517f08c379a0000000000000000000000000000000000000000000000000000000008152600401612f2590615784565b60405180910390fd5b50505050565b606081601f83612f4491906157d3565b1015612f85576040517f08c379a0000000000000000000000000000000000000000000000000000000008152600401612f7c90615853565b60405180910390fd5b8183612f9191906157d3565b84511015612fd4576040517f08c379a0000000000000000000000000000000000000000000000000000000008152600401612fcb906158bf565b60405180910390fd5b6060821560008114612ff55760405191506000825260208201604052613046565b6040519150601f8416801560200281840101858101878315602002848b0101015b818310156130335780518352602083019250602081019050613016565b50868552601f19601f8301166040525050505b50809150509392505050565b6130e8816040516024016130669190613cdc565b6040516020818303038152906040527f41304fac000000000000000000000000000000000000000000000000000000007bffffffffffffffffffffffffffffffffffffffffffffffffffffffff19166020820180517bffffffffffffffffffffffffffffffffffffffffffffffffffffffff838183161783525050505061366c565b50565b60006130f78383613173565b613150578260000182908060018154018082558091505060019003906000526020600020016000909190919091505582600001805490508360010160008481526020019081526020016000208190555060019050613155565b600090505b92915050565b61316784848484613695565b50505050565b50505050565b600080836001016000848152602001908152602001600020541415905092915050565b600073ffffffffffffffffffffffffffffffffffffffff168273ffffffffffffffffffffffffffffffffffffffff1603613205576040517f08c379a00000000000000000000000000000000000000000000000000000000081526004016131fc9061592b565b60405180910390fd5b61320e81612a8c565b1561324e576040517f08c379a000000000000000000000000000000000000000000000000000000000815260040161324590615997565b60405180910390fd5b61325c60008383600161315b565b61326581612a8c565b156132a5576040517f08c379a000000000000000000000000000000000000000000000000000000000815260040161329c90615997565b60405180910390fd5b6001600360008473ffffffffffffffffffffffffffffffffffffffff1673ffffffffffffffffffffffffffffffffffffffff16815260200190815260200160002060008282540192505081905550816002600083815260200190815260200160002060006101000a81548173ffffffffffffffffffffffffffffffffffffffff021916908373ffffffffffffffffffffffffffffffffffffffff160217905550808273ffffffffffffffffffffffffffffffffffffffff16600073ffffffffffffffffffffffffffffffffffffffff167fddf252ad1be2c89b69c2b068fc378daa952ba7f163c4a11628f55a4df523b3ef60405160405180910390a46133af60008383600161316d565b5050565b6133cd8282604051806020016040528060008152506137f3565b5050565b600080836001016000848152602001908152602001600020549050600081146134d957600060018261340391906159b7565b905060006001866000018054905061341b91906159b7565b905081811461348a57600086600001828154811061343c5761343b614d08565b5b90600052602060002001549050808760000184815481106134605761345f614d08565b5b90600052602060002001819055508387600101600083815260200190815260200160002081905550505b8560000180548061349e5761349d6159eb565b5b6001900381819060005260206000200160009055905585600101600086815260200190815260200160002060009055600193505050506134df565b60009150505b92915050565b60006135068473ffffffffffffffffffffffffffffffffffffffff1661384e565b1561365f578373ffffffffffffffffffffffffffffffffffffffff1663150b7a0261352f612418565b8786866040518563ffffffff1660e01b81526004016135519493929190615a1a565b6020604051808303816000875af192505050801561358d57506040513d601f19601f8201168201806040525081019061358a9190615a7b565b60015b61360f573d80600081146135bd576040519150601f19603f3d011682016040523d82523d6000602084013e6135c2565b606091505b506000815103613607576040517f08c379a00000000000000000000000000000000000000000000000000000000081526004016135fe90615784565b60405180910390fd5b805181602001fd5b63150b7a0260e01b7bffffffffffffffffffffffffffffffffffffffffffffffffffffffff1916817bffffffffffffffffffffffffffffffffffffffffffffffffffffffff191614915050613664565b600190505b949350505050565b60008151905060006a636f6e736f6c652e6c6f679050602083016000808483855afa5050505050565b6136a184848484613871565b60018111156136e5576040517f08c379a00000000000000000000000000000000000000000000000000000000081526004016136dc90615b1a565b60405180910390fd5b6000829050600073ffffffffffffffffffffffffffffffffffffffff168573ffffffffffffffffffffffffffffffffffffffff160361372c5761372781613877565b61376b565b8373ffffffffffffffffffffffffffffffffffffffff168573ffffffffffffffffffffffffffffffffffffffff161461376a5761376985826138c0565b5b5b600073ffffffffffffffffffffffffffffffffffffffff168473ffffffffffffffffffffffffffffffffffffffff16036137ad576137a881613a2d565b6137ec565b8473ffffffffffffffffffffffffffffffffffffffff168473ffffffffffffffffffffffffffffffffffffffff16146137eb576137ea8482613afe565b5b5b5050505050565b6137fd8383613196565b61380a60008484846134e5565b613849576040517f08c379a000000000000000000000000000000000000000000000000000000000815260040161384090615784565b60405180910390fd5b505050565b6000808273ffffffffffffffffffffffffffffffffffffffff163b119050919050565b50505050565b600980549050600a600083815260200190815260200160002081905550600981908060018154018082558091505060019003906000526020600020016000909190919091505550565b600060016138cd846117b0565b6138d791906159b7565b90506000600860008481526020019081526020016000205490508181146139bc576000600760008673ffffffffffffffffffffffffffffffffffffffff1673ffffffffffffffffffffffffffffffffffffffff168152602001908152602001600020600084815260200190815260200160002054905080600760008773ffffffffffffffffffffffffffffffffffffffff1673ffffffffffffffffffffffffffffffffffffffff168152602001908152602001600020600084815260200190815260200160002081905550816008600083815260200190815260200160002081905550505b6008600084815260200190815260200160002060009055600760008573ffffffffffffffffffffffffffffffffffffffff1673ffffffffffffffffffffffffffffffffffffffff16815260200190815260200160002060008381526020019081526020016000206000905550505050565b60006001600980549050613a4191906159b7565b90506000600a6000848152602001908152602001600020549050600060098381548110613a7157613a70614d08565b5b906000526020600020015490508060098381548110613a9357613a92614d08565b5b906000526020600020018190555081600a600083815260200190815260200160002081905550600a6000858152602001908152602001600020600090556009805480613ae257613ae16159eb565b5b6001900381819060005260206000200160009055905550505050565b6000613b09836117b0565b905081600760008573ffffffffffffffffffffffffffffffffffffffff1673ffffffffffffffffffffffffffffffffffffffff168152602001908152602001600020600083815260200190815260200160002081905550806008600084815260200190815260200160002081905550505050565b6000604051905090565b600080fd5b600080fd5b60007fffffffff0000000000000000000000000000000000000000000000000000000082169050919050565b613bc681613b91565b8114613bd157600080fd5b50565b600081359050613be381613bbd565b92915050565b600060208284031215613bff57613bfe613b87565b5b6000613c0d84828501613bd4565b91505092915050565b60008115159050919050565b613c2b81613c16565b82525050565b6000602082019050613c466000830184613c22565b92915050565b600081519050919050565b600082825260208201905092915050565b60005b83811015613c86578082015181840152602081019050613c6b565b60008484015250505050565b6000601f19601f8301169050919050565b6000613cae82613c4c565b613cb88185613c57565b9350613cc8818560208601613c68565b613cd181613c92565b840191505092915050565b60006020820190508181036000830152613cf68184613ca3565b905092915050565b6000819050919050565b613d1181613cfe565b8114613d1c57600080fd5b50565b600081359050613d2e81613d08565b92915050565b600060208284031215613d4a57613d49613b87565b5b6000613d5884828501613d1f565b91505092915050565b600073ffffffffffffffffffffffffffffffffffffffff82169050919050565b6000613d8c82613d61565b9050919050565b613d9c81613d81565b82525050565b6000602082019050613db76000830184613d93565b92915050565b613dc681613d81565b8114613dd157600080fd5b50565b600081359050613de381613dbd565b92915050565b60008060408385031215613e0057613dff613b87565b5b6000613e0e85828601613dd4565b9250506020613e1f85828601613d1f565b9150509250929050565b613e3281613cfe565b82525050565b6000602082019050613e4d6000830184613e29565b92915050565b600060208284031215613e6957613e68613b87565b5b6000613e7784828501613dd4565b91505092915050565b6000819050919050565b613e9381613e80565b8114613e9e57600080fd5b50565b600081359050613eb081613e8a565b92915050565b600060208284031215613ecc57613ecb613b87565b5b6000613eda84828501613ea1565b91505092915050565b613eec81613e80565b82525050565b6000602082019050613f076000830184613ee3565b92915050565b600080600060608486031215613f2657613f25613b87565b5b6000613f3486828701613dd4565b9350506020613f4586828701613dd4565b9250506040613f5686828701613d1f565b9150509250925092565b600060ff82169050919050565b613f7681613f60565b8114613f8157600080fd5b50565b600081359050613f9381613f6d565b92915050565b600080600080600060a08688031215613fb557613fb4613b87565b5b6000613fc388828901613d1f565b9550506020613fd488828901613ea1565b9450506040613fe588828901613f84565b9350506060613ff688828901613ea1565b925050608061400788828901613ea1565b9150509295509295909350565b6000819050919050565b600061403961403461402f84613d61565b614014565b613d61565b9050919050565b600061404b8261401e565b9050919050565b600061405d82614040565b9050919050565b61406d81614052565b82525050565b60006020820190506140886000830184614064565b92915050565b600080fd5b600080fd5b7f4e487b7100000000000000000000000000000000000000000000000000000000600052604160045260246000fd5b6140d082613c92565b810181811067ffffffffffffffff821117156140ef576140ee614098565b5b80604052505050565b6000614102613b7d565b905061410e82826140c7565b919050565b600067ffffffffffffffff82111561412e5761412d614098565b5b61413782613c92565b9050602081019050919050565b82818337600083830152505050565b600061416661416184614113565b6140f8565b90508281526020810184848401111561418257614181614093565b5b61418d848285614144565b509392505050565b600082601f8301126141aa576141a961408e565b5b81356141ba848260208601614153565b91505092915050565b600080600080600080600060e0888a0312156141e2576141e1613b87565b5b600088013567ffffffffffffffff811115614200576141ff613b8c565b5b61420c8a828b01614195565b975050602061421d8a828b01613d1f565b965050604088013567ffffffffffffffff81111561423e5761423d613b8c565b5b61424a8a828b01614195565b955050606061425b8a828b01613ea1565b945050608061426c8a828b01613f84565b93505060a061427d8a828b01613ea1565b92505060c061428e8a828b01613ea1565b91505092959891949750929550565b6000602082840312156142b3576142b2613b87565b5b600082013567ffffffffffffffff8111156142d1576142d0613b8c565b5b6142dd84828501614195565b91505092915050565b600081519050919050565b600082825260208201905092915050565b600061430d826142e6565b61431781856142f1565b9350614327818560208601613c68565b61433081613c92565b840191505092915050565b600060208201905081810360008301526143558184614302565b905092915050565b60008060008060008060c0878903121561437a57614379613b87565b5b600087013567ffffffffffffffff81111561439857614397613b8c565b5b6143a489828a01614195565b96505060206143b589828a01613d1f565b95505060406143c689828a01613ea1565b94505060606143d789828a01613f84565b93505060806143e889828a01613ea1565b92505060a06143f989828a01613ea1565b9150509295509295509295565b600061441182614040565b9050919050565b61442181614406565b82525050565b600060208201905061443c6000830184614418565b92915050565b600061444d82614040565b9050919050565b61445d81614442565b82525050565b60006020820190506144786000830184614454565b92915050565b61448781613c16565b811461449257600080fd5b50565b6000813590506144a48161447e565b92915050565b600080604083850312156144c1576144c0613b87565b5b60006144cf85828601613dd4565b92505060206144e085828601614495565b9150509250929050565b6000806000806080858703121561450457614503613b87565b5b600061451287828801613dd4565b945050602061452387828801613dd4565b935050604061453487828801613d1f565b925050606085013567ffffffffffffffff81111561455557614554613b8c565b5b61456187828801614195565b91505092959194509250565b6000806040838503121561458457614583613b87565b5b600083013567ffffffffffffffff8111156145a2576145a1613b8c565b5b6145ae85828601614195565b925050602083013567ffffffffffffffff8111156145cf576145ce613b8c565b5b6145db85828601614195565b9150509250929050565b600080604083850312156145fc576145fb613b87565b5b600061460a85828601613dd4565b925050602061461b85828601613dd4565b9150509250929050565b7f4e487b7100000000000000000000000000000000000000000000000000000000600052602260045260246000fd5b6000600282049050600182168061466c57607f821691505b60208210810361467f5761467e614625565b5b50919050565b7f4552433732313a20617070726f76616c20746f2063757272656e74206f776e6560008201527f7200000000000000000000000000000000000000000000000000000000000000602082015250565b60006146e1602183613c57565b91506146ec82614685565b604082019050919050565b60006020820190508181036000830152614710816146d4565b9050919050565b7f4552433732313a20617070726f76652063616c6c6572206973206e6f7420746f60008201527f6b656e206f776e6572206f7220617070726f76656420666f7220616c6c000000602082015250565b6000614773603d83613c57565b915061477e82614717565b604082019050919050565b600060208201905081810360008301526147a281614766565b9050919050565b600081905092915050565b7f19457468657265756d205369676e6564204d6573736167653a0a333200000000600082015250565b60006147ea601c836147a9565b91506147f5826147b4565b601c82019050919050565b6000819050919050565b61481b61481682613e80565b614800565b82525050565b600061482c826147dd565b9150614838828461480a565b60208201915081905092915050565b7f4552433732313a2063616c6c6572206973206e6f7420746f6b656e206f776e6560008201527f72206f7220617070726f76656400000000000000000000000000000000000000602082015250565b60006148a3602d83613c57565b91506148ae82614847565b604082019050919050565b600060208201905081810360008301526148d281614896565b9050919050565b7f455243373231456e756d657261626c653a206f776e657220696e646578206f7560008201527f74206f6620626f756e6473000000000000000000000000000000000000000000602082015250565b6000614935602b83613c57565b9150614940826148d9565b604082019050919050565b6000602082019050818103600083015261496481614928565b9050919050565b600081905092915050565b50565b600061498660008361496b565b915061499182614976565b600082019050919050565b60006149a782614979565b9150819050919050565b60008160601b9050919050565b60006149c9826149b1565b9050919050565b60006149db826149be565b9050919050565b6149f36149ee82613d81565b6149d0565b82525050565b6000819050919050565b614a14614a0f82613cfe565b6149f9565b82525050565b6000614a2682856149e2565b601482019150614a368284614a03565b6020820191508190509392505050565b7f546865206d736748617368206973206e6f7420612068617368206f662074686560008201527f20746f6b656e49642e20204578706c61696e20796f757273656c662100000000602082015250565b6000614aa2603c83613c57565b9150614aad82614a46565b604082019050919050565b60006020820190508181036000830152614ad181614a95565b9050919050565b614ae181613f60565b82525050565b6000608082019050614afc6000830187613ee3565b614b096020830186614ad8565b614b166040830185613ee3565b614b236060830184613ee3565b95945050505050565b7f5468697320667265654d696e7420776173206e6f74207369676e65642062792060008201527f667265654d696e745369676e65722e2020486f7720656d626172617373696e6760208201527f2e00000000000000000000000000000000000000000000000000000000000000604082015250565b6000614bae604183613c57565b9150614bb982614b2c565b606082019050919050565b60006020820190508181036000830152614bdd81614ba1565b9050919050565b7f546869732066726565206d696e742049442068617320616c726561647920626560008201527f656e2072656465656d6564000000000000000000000000000000000000000000602082015250565b6000614c40602b83613c57565b9150614c4b82614be4565b604082019050919050565b60006020820190508181036000830152614c6f81614c33565b9050919050565b7f455243373231456e756d657261626c653a20676c6f62616c20696e646578206f60008201527f7574206f6620626f756e64730000000000000000000000000000000000000000602082015250565b6000614cd2602c83613c57565b9150614cdd82614c76565b604082019050919050565b60006020820190508181036000830152614d0181614cc5565b9050919050565b7f4e487b7100000000000000000000000000000000000000000000000000000000600052603260045260246000fd5b7f4552433732313a20696e76616c696420746f6b656e2049440000000000000000600082015250565b6000614d6d601883613c57565b9150614d7882614d37565b602082019050919050565b60006020820190508181036000830152614d9c81614d60565b9050919050565b7f596f7520617265206e6f74207065726d697474656420746f206d696e74000000600082015250565b6000614dd9601d83613c57565b9150614de482614da3565b602082019050919050565b60006020820190508181036000830152614e0881614dcc565b9050919050565b600081519050919050565b600082825260208201905092915050565b6000819050602082019050919050565b614e4481613cfe565b82525050565b6000614e568383614e3b565b60208301905092915050565b6000602082019050919050565b6000614e7a82614e0f565b614e848185614e1a565b9350614e8f83614e2b565b8060005b83811015614ec0578151614ea78882614e4a565b9750614eb283614e62565b925050600181019050614e93565b5085935050505092915050565b6000606082019050614ee26000830186613e29565b8181036020830152614ef48185614302565b90508181036040830152614f088184614e6f565b9050949350505050565b7f4552433732313a2061646472657373207a65726f206973206e6f74206120766160008201527f6c6964206f776e65720000000000000000000000000000000000000000000000602082015250565b6000614f6e602983613c57565b9150614f7982614f12565b604082019050919050565b60006020820190508181036000830152614f9d81614f61565b9050919050565b7f54686973207075626b657920616c726561647920657869737473000000000000600082015250565b6000614fda601a83613c57565b9150614fe582614fa4565b602082019050919050565b6000602082019050818103600083015261500981614fcd565b9050919050565b7f596f75206d757374207061792065786163746c79206d696e7420636f73740000600082015250565b6000615046601e83613c57565b915061505182615010565b602082019050919050565b6000602082019050818103600083015261507581615039565b9050919050565b60006060820190506150916000830186613e29565b81810360208301526150a38185614302565b90506150b26040830184613d93565b949350505050565b600067ffffffffffffffff8211156150d5576150d4614098565b5b6150de82613c92565b9050602081019050919050565b60006150fe6150f9846150ba565b6140f8565b90508281526020810184848401111561511a57615119614093565b5b615125848285613c68565b509392505050565b600082601f8301126151425761514161408e565b5b81516151528482602086016150eb565b91505092915050565b60006020828403121561517157615170613b87565b5b600082015167ffffffffffffffff81111561518f5761518e613b8c565b5b61519b8482850161512d565b91505092915050565b7f4f776e61626c653a206e6577206f776e657220697320746865207a65726f206160008201527f6464726573730000000000000000000000000000000000000000000000000000602082015250565b6000615200602683613c57565b915061520b826151a4565b604082019050919050565b6000602082019050818103600083015261522f816151f3565b9050919050565b7f4f776e61626c653a2063616c6c6572206973206e6f7420746865206f776e6572600082015250565b600061526c602083613c57565b915061527782615236565b602082019050919050565b6000602082019050818103600083015261529b8161525f565b9050919050565b7f4552433732313a207472616e736665722066726f6d20696e636f72726563742060008201527f6f776e6572000000000000000000000000000000000000000000000000000000602082015250565b60006152fe602583613c57565b9150615309826152a2565b604082019050919050565b6000602082019050818103600083015261532d816152f1565b9050919050565b7f4552433732313a207472616e7366657220746f20746865207a65726f2061646460008201527f7265737300000000000000000000000000000000000000000000000000000000602082015250565b6000615390602483613c57565b915061539b82615334565b604082019050919050565b600060208201905081810360008301526153bf81615383565b9050919050565b7f5265656e7472616e637947756172643a207265656e7472616e742063616c6c00600082015250565b60006153fc601f83613c57565b9150615407826153c6565b602082019050919050565b6000602082019050818103600083015261542b816153ef565b9050919050565b60008190508160005260206000209050919050565b60006020601f8301049050919050565b600082821b905092915050565b6000600883026154947fffffffffffffffffffffffffffffffffffffffffffffffffffffffffffffffff82615457565b61549e8683615457565b95508019841693508086168417925050509392505050565b60006154d16154cc6154c784613cfe565b614014565b613cfe565b9050919050565b6000819050919050565b6154eb836154b6565b6154ff6154f7826154d8565b848454615464565b825550505050565b600090565b615514615507565b61551f8184846154e2565b505050565b5b818110156155435761553860008261550c565b600181019050615525565b5050565b601f8211156155885761555981615432565b61556284615447565b81016020851015615571578190505b61558561557d85615447565b830182615524565b50505b505050565b600082821c905092915050565b60006155ab6000198460080261558d565b1980831691505092915050565b60006155c4838361559a565b9150826002028217905092915050565b6155dd826142e6565b67ffffffffffffffff8111156155f6576155f5614098565b5b6156008254614654565b61560b828285615547565b600060209050601f83116001811461563e576000841561562c578287015190505b61563685826155b8565b86555061569e565b601f19841661564c86615432565b60005b828110156156745784890151825560018201915060208501945060208101905061564f565b86831015615691578489015161568d601f89168261559a565b8355505b6001600288020188555050505b505050505050565b7f4552433732313a20617070726f766520746f2063616c6c657200000000000000600082015250565b60006156dc601983613c57565b91506156e7826156a6565b602082019050919050565b6000602082019050818103600083015261570b816156cf565b9050919050565b7f4552433732313a207472616e7366657220746f206e6f6e20455243373231526560008201527f63656976657220696d706c656d656e7465720000000000000000000000000000602082015250565b600061576e603283613c57565b915061577982615712565b604082019050919050565b6000602082019050818103600083015261579d81615761565b9050919050565b7f4e487b7100000000000000000000000000000000000000000000000000000000600052601160045260246000fd5b60006157de82613cfe565b91506157e983613cfe565b9250828201905080821115615801576158006157a4565b5b92915050565b7f736c6963655f6f766572666c6f77000000000000000000000000000000000000600082015250565b600061583d600e83613c57565b915061584882615807565b602082019050919050565b6000602082019050818103600083015261586c81615830565b9050919050565b7f736c6963655f6f75744f66426f756e6473000000000000000000000000000000600082015250565b60006158a9601183613c57565b91506158b482615873565b602082019050919050565b600060208201905081810360008301526158d88161589c565b9050919050565b7f4552433732313a206d696e7420746f20746865207a65726f2061646472657373600082015250565b6000615915602083613c57565b9150615920826158df565b602082019050919050565b6000602082019050818103600083015261594481615908565b9050919050565b7f4552433732313a20746f6b656e20616c7265616479206d696e74656400000000600082015250565b6000615981601c83613c57565b915061598c8261594b565b602082019050919050565b600060208201905081810360008301526159b081615974565b9050919050565b60006159c282613cfe565b91506159cd83613cfe565b92508282039050818111156159e5576159e46157a4565b5b92915050565b7f4e487b7100000000000000000000000000000000000000000000000000000000600052603160045260246000fd5b6000608082019050615a2f6000830187613d93565b615a3c6020830186613d93565b615a496040830185613e29565b8181036060830152615a5b8184614302565b905095945050505050565b600081519050615a7581613bbd565b92915050565b600060208284031215615a9157615a90613b87565b5b6000615a9f84828501615a66565b91505092915050565b7f455243373231456e756d657261626c653a20636f6e736563757469766520747260008201527f616e7366657273206e6f7420737570706f727465640000000000000000000000602082015250565b6000615b04603583613c57565b9150615b0f82615aa8565b604082019050919050565b60006020820190508181036000830152615b3381615af7565b905091905056fea26469706673582212201cc65dd2f4cc79db46807c646ae037456b3e6cdb172239e1669f0d80a3f8f5cd64736f6c63430008110033",
    "linkReferences": {},
    "deployedLinkReferences": {}
}