{
  "_format": "hh-sol-artifact-1",
  "contractName": "StakingBalances",
  "sourceName": "contracts/lit-node/StakingBalances.sol",
  "abi": [
    {
      "inputs": [
        {
          "internalType": "address",
          "name": "_resolver",
          "type": "address"
        },
        {
          "internalType": "enum ContractResolver.Env",
          "name": "_env",
          "type": "uint8"
        }
      ],
      "stateMutability": "nonpayable",
      "type": "constructor"
    },
    {
      "inputs": [],
      "name": "ActiveValidatorsCannotLeave",
      "type": "error"
    },
    {
      "inputs": [
        {
          "internalType": "address",
          "name": "aliasAccount",
          "type": "address"
        },
        {
          "internalType": "address",
          "name": "stakerAddress",
          "type": "address"
        }
      ],
      "name": "AliasNotOwnedBySender",
      "type": "error"
    },
    {
      "inputs": [
        {
          "internalType": "address",
          "name": "aliasAccount",
          "type": "address"
        }
      ],
      "name": "CannotRemoveAliasOfActiveValidator",
      "type": "error"
    },
    {
      "inputs": [],
      "name": "CannotStakeZero",
      "type": "error"
    },
    {
      "inputs": [],
      "name": "CannotWithdrawZero",
      "type": "error"
    },
    {
      "inputs": [
        {
          "internalType": "uint256",
          "name": "aliasCount",
          "type": "uint256"
        }
      ],
      "name": "MaxAliasCountReached",
      "type": "error"
    },
    {
      "inputs": [
        {
          "internalType": "address",
          "name": "sender",
          "type": "address"
        }
      ],
      "name": "OnlyStakingContract",
      "type": "error"
    },
    {
      "inputs": [
        {
          "internalType": "uint256",
          "name": "amountStaked",
          "type": "uint256"
        },
        {
          "internalType": "uint256",
          "name": "minimumStake",
          "type": "uint256"
        }
      ],
      "name": "StakeMustBeGreaterThanMinimumStake",
      "type": "error"
    },
    {
      "inputs": [
        {
          "internalType": "uint256",
          "name": "amountStaked",
          "type": "uint256"
        },
        {
          "internalType": "uint256",
          "name": "maximumStake",
          "type": "uint256"
        }
      ],
      "name": "StakeMustBeLessThanMaximumStake",
      "type": "error"
    },
    {
      "inputs": [
        {
          "internalType": "address",
          "name": "stakerAddress",
          "type": "address"
        }
      ],
      "name": "StakerNotPermitted",
      "type": "error"
    },
    {
      "inputs": [
        {
          "internalType": "uint256",
          "name": "yourBalance",
          "type": "uint256"
        },
        {
          "internalType": "uint256",
          "name": "requestedWithdrawlAmount",
          "type": "uint256"
        }
      ],
      "name": "TryingToWithdrawMoreThanStaked",
      "type": "error"
    },
    {
      "anonymous": false,
      "inputs": [
        {
          "indexed": true,
          "internalType": "address",
          "name": "staker",
          "type": "address"
        },
        {
          "indexed": false,
          "internalType": "address",
          "name": "aliasAccount",
          "type": "address"
        }
      ],
      "name": "AliasAdded",
      "type": "event"
    },
    {
      "anonymous": false,
      "inputs": [
        {
          "indexed": true,
          "internalType": "address",
          "name": "staker",
          "type": "address"
        },
        {
          "indexed": false,
          "internalType": "address",
          "name": "aliasAccount",
          "type": "address"
        }
      ],
      "name": "AliasRemoved",
      "type": "event"
    },
    {
      "anonymous": false,
      "inputs": [
        {
          "indexed": false,
          "internalType": "uint256",
          "name": "newMaxAliasCount",
          "type": "uint256"
        }
      ],
      "name": "MaxAliasCountSet",
      "type": "event"
    },
    {
      "anonymous": false,
      "inputs": [
        {
          "indexed": false,
          "internalType": "uint256",
          "name": "newMaximumStake",
          "type": "uint256"
        }
      ],
      "name": "MaximumStakeSet",
      "type": "event"
    },
    {
      "anonymous": false,
      "inputs": [
        {
          "indexed": false,
          "internalType": "uint256",
          "name": "newMinimumStake",
          "type": "uint256"
        }
      ],
      "name": "MinimumStakeSet",
      "type": "event"
    },
    {
      "anonymous": false,
      "inputs": [
        {
          "indexed": true,
          "internalType": "address",
          "name": "previousOwner",
          "type": "address"
        },
        {
          "indexed": true,
          "internalType": "address",
          "name": "newOwner",
          "type": "address"
        }
      ],
      "name": "OwnershipTransferred",
      "type": "event"
    },
    {
      "anonymous": false,
      "inputs": [
        {
          "indexed": false,
          "internalType": "address",
          "name": "staker",
          "type": "address"
        }
      ],
      "name": "PermittedStakerAdded",
      "type": "event"
    },
    {
      "anonymous": false,
      "inputs": [
        {
          "indexed": false,
          "internalType": "address",
          "name": "staker",
          "type": "address"
        }
      ],
      "name": "PermittedStakerRemoved",
      "type": "event"
    },
    {
      "anonymous": false,
      "inputs": [
        {
          "indexed": false,
          "internalType": "bool",
          "name": "permittedStakersOn",
          "type": "bool"
        }
      ],
      "name": "PermittedStakersOnChanged",
      "type": "event"
    },
    {
      "anonymous": false,
      "inputs": [
        {
          "indexed": false,
          "internalType": "address",
          "name": "newResolverAddress",
          "type": "address"
        }
      ],
      "name": "ResolverContractAddressSet",
      "type": "event"
    },
    {
      "anonymous": false,
      "inputs": [
        {
          "indexed": true,
          "internalType": "address",
          "name": "staker",
          "type": "address"
        },
        {
          "indexed": false,
          "internalType": "uint256",
          "name": "reward",
          "type": "uint256"
        }
      ],
      "name": "RewardPaid",
      "type": "event"
    },
    {
      "anonymous": false,
      "inputs": [
        {
          "indexed": true,
          "internalType": "address",
          "name": "staker",
          "type": "address"
        },
        {
          "indexed": false,
          "internalType": "uint256",
          "name": "amount",
          "type": "uint256"
        }
      ],
      "name": "Staked",
      "type": "event"
    },
    {
      "anonymous": false,
      "inputs": [
        {
          "indexed": false,
          "internalType": "uint256",
          "name": "newTokenRewardPerTokenPerEpoch",
          "type": "uint256"
        }
      ],
      "name": "TokenRewardPerTokenPerEpochSet",
      "type": "event"
    },
    {
      "anonymous": false,
      "inputs": [
        {
          "indexed": true,
          "internalType": "address",
          "name": "staker",
          "type": "address"
        },
        {
          "indexed": false,
          "internalType": "address",
          "name": "aliasAccount",
          "type": "address"
        }
      ],
      "name": "ValidatorNotRewardedBecauseAlias",
      "type": "event"
    },
    {
      "anonymous": false,
      "inputs": [
        {
          "indexed": true,
          "internalType": "address",
          "name": "staker",
          "type": "address"
        },
        {
          "indexed": false,
          "internalType": "uint256",
          "name": "amount",
          "type": "uint256"
        }
      ],
      "name": "ValidatorRewarded",
      "type": "event"
    },
    {
      "anonymous": false,
      "inputs": [
        {
          "indexed": true,
          "internalType": "address",
          "name": "staker",
          "type": "address"
        },
        {
          "indexed": false,
          "internalType": "uint256",
          "name": "amount",
          "type": "uint256"
        }
      ],
      "name": "ValidatorTokensPenalized",
      "type": "event"
    },
    {
      "anonymous": false,
      "inputs": [
        {
          "indexed": true,
          "internalType": "address",
          "name": "staker",
          "type": "address"
        },
        {
          "indexed": false,
          "internalType": "uint256",
          "name": "amount",
          "type": "uint256"
        }
      ],
      "name": "Withdrawn",
      "type": "event"
    },
    {
      "inputs": [
        {
          "internalType": "address",
          "name": "aliasAccount",
          "type": "address"
        }
      ],
      "name": "addAlias",
      "outputs": [],
      "stateMutability": "nonpayable",
      "type": "function"
    },
    {
      "inputs": [
        {
          "internalType": "address",
          "name": "staker",
          "type": "address"
        }
      ],
      "name": "addPermittedStaker",
      "outputs": [],
      "stateMutability": "nonpayable",
      "type": "function"
    },
    {
      "inputs": [
        {
          "internalType": "address[]",
          "name": "stakers",
          "type": "address[]"
        }
      ],
      "name": "addPermittedStakers",
      "outputs": [],
      "stateMutability": "nonpayable",
      "type": "function"
    },
    {
      "inputs": [
        {
          "internalType": "address",
          "name": "",
          "type": "address"
        }
      ],
      "name": "aliasCounts",
      "outputs": [
        {
          "internalType": "uint256",
          "name": "",
          "type": "uint256"
        }
      ],
      "stateMutability": "view",
      "type": "function"
    },
    {
      "inputs": [
        {
          "internalType": "address",
          "name": "",
          "type": "address"
        }
      ],
      "name": "aliases",
      "outputs": [
        {
          "internalType": "address",
          "name": "",
          "type": "address"
        }
      ],
      "stateMutability": "view",
      "type": "function"
    },
    {
      "inputs": [
        {
          "internalType": "address",
          "name": "account",
          "type": "address"
        }
      ],
      "name": "balanceOf",
      "outputs": [
        {
          "internalType": "uint256",
          "name": "",
          "type": "uint256"
        }
      ],
      "stateMutability": "view",
      "type": "function"
    },
    {
      "inputs": [
        {
          "internalType": "address",
          "name": "",
          "type": "address"
        }
      ],
      "name": "balances",
      "outputs": [
        {
          "internalType": "uint256",
          "name": "",
          "type": "uint256"
        }
      ],
      "stateMutability": "view",
      "type": "function"
    },
    {
      "inputs": [
        {
          "internalType": "address",
          "name": "account",
          "type": "address"
        }
      ],
      "name": "checkStakingAmounts",
      "outputs": [
        {
          "internalType": "bool",
          "name": "",
          "type": "bool"
        }
      ],
      "stateMutability": "view",
      "type": "function"
    },
    {
      "inputs": [],
      "name": "contractResolver",
      "outputs": [
        {
          "internalType": "contract ContractResolver",
          "name": "",
          "type": "address"
        }
      ],
      "stateMutability": "view",
      "type": "function"
    },
    {
      "inputs": [],
      "name": "env",
      "outputs": [
        {
          "internalType": "enum ContractResolver.Env",
          "name": "",
          "type": "uint8"
        }
      ],
      "stateMutability": "view",
      "type": "function"
    },
    {
      "inputs": [
        {
          "internalType": "address",
          "name": "account",
          "type": "address"
        }
      ],
      "name": "getReward",
      "outputs": [],
      "stateMutability": "nonpayable",
      "type": "function"
    },
    {
      "inputs": [],
      "name": "getStakingAddress",
      "outputs": [
        {
          "internalType": "address",
          "name": "",
          "type": "address"
        }
      ],
      "stateMutability": "view",
      "type": "function"
    },
    {
      "inputs": [],
      "name": "getTokenAddress",
      "outputs": [
        {
          "internalType": "address",
          "name": "",
          "type": "address"
        }
      ],
      "stateMutability": "view",
      "type": "function"
    },
    {
      "inputs": [
        {
          "internalType": "address",
          "name": "staker",
          "type": "address"
        }
      ],
      "name": "isPermittedStaker",
      "outputs": [
        {
          "internalType": "bool",
          "name": "",
          "type": "bool"
        }
      ],
      "stateMutability": "view",
      "type": "function"
    },
    {
      "inputs": [],
      "name": "maxAliasCount",
      "outputs": [
        {
          "internalType": "uint256",
          "name": "",
          "type": "uint256"
        }
      ],
      "stateMutability": "view",
      "type": "function"
    },
    {
      "inputs": [],
      "name": "maximumStake",
      "outputs": [
        {
          "internalType": "uint256",
          "name": "",
          "type": "uint256"
        }
      ],
      "stateMutability": "view",
      "type": "function"
    },
    {
      "inputs": [],
      "name": "minimumStake",
      "outputs": [
        {
          "internalType": "uint256",
          "name": "",
          "type": "uint256"
        }
      ],
      "stateMutability": "view",
      "type": "function"
    },
    {
      "inputs": [],
      "name": "owner",
      "outputs": [
        {
          "internalType": "address",
          "name": "",
          "type": "address"
        }
      ],
      "stateMutability": "view",
      "type": "function"
    },
    {
      "inputs": [
        {
          "internalType": "uint256",
          "name": "amount",
          "type": "uint256"
        },
        {
          "internalType": "address",
          "name": "account",
          "type": "address"
        }
      ],
      "name": "penalizeTokens",
      "outputs": [],
      "stateMutability": "nonpayable",
      "type": "function"
    },
    {
      "inputs": [],
      "name": "penaltyBalance",
      "outputs": [
        {
          "internalType": "uint256",
          "name": "",
          "type": "uint256"
        }
      ],
      "stateMutability": "view",
      "type": "function"
    },
    {
      "inputs": [
        {
          "internalType": "address",
          "name": "",
          "type": "address"
        }
      ],
      "name": "permittedStakers",
      "outputs": [
        {
          "internalType": "bool",
          "name": "",
          "type": "bool"
        }
      ],
      "stateMutability": "view",
      "type": "function"
    },
    {
      "inputs": [],
      "name": "permittedStakersOn",
      "outputs": [
        {
          "internalType": "bool",
          "name": "",
          "type": "bool"
        }
      ],
      "stateMutability": "view",
      "type": "function"
    },
    {
      "inputs": [
        {
          "internalType": "address",
          "name": "aliasAccount",
          "type": "address"
        }
      ],
      "name": "removeAlias",
      "outputs": [],
      "stateMutability": "nonpayable",
      "type": "function"
    },
    {
      "inputs": [
        {
          "internalType": "address",
          "name": "staker",
          "type": "address"
        }
      ],
      "name": "removePermittedStaker",
      "outputs": [],
      "stateMutability": "nonpayable",
      "type": "function"
    },
    {
      "inputs": [],
      "name": "renounceOwnership",
      "outputs": [],
      "stateMutability": "nonpayable",
      "type": "function"
    },
    {
      "inputs": [
        {
          "internalType": "address",
          "name": "staker",
          "type": "address"
        },
        {
          "internalType": "uint256",
          "name": "balance",
          "type": "uint256"
        }
      ],
      "name": "restakePenaltyTokens",
      "outputs": [],
      "stateMutability": "nonpayable",
      "type": "function"
    },
    {
      "inputs": [
        {
          "internalType": "address",
          "name": "account",
          "type": "address"
        }
      ],
      "name": "rewardOf",
      "outputs": [
        {
          "internalType": "uint256",
          "name": "",
          "type": "uint256"
        }
      ],
      "stateMutability": "view",
      "type": "function"
    },
    {
      "inputs": [
        {
          "internalType": "uint256",
          "name": "amount",
          "type": "uint256"
        },
        {
          "internalType": "address",
          "name": "account",
          "type": "address"
        }
      ],
      "name": "rewardValidator",
      "outputs": [],
      "stateMutability": "nonpayable",
      "type": "function"
    },
    {
      "inputs": [
        {
          "internalType": "address",
          "name": "",
          "type": "address"
        }
      ],
      "name": "rewards",
      "outputs": [
        {
          "internalType": "uint256",
          "name": "",
          "type": "uint256"
        }
      ],
      "stateMutability": "view",
      "type": "function"
    },
    {
      "inputs": [
        {
          "internalType": "address",
          "name": "newResolverAddress",
          "type": "address"
        }
      ],
      "name": "setContractResolver",
      "outputs": [],
      "stateMutability": "nonpayable",
      "type": "function"
    },
    {
      "inputs": [
        {
          "internalType": "uint256",
          "name": "newMaxAliasCount",
          "type": "uint256"
        }
      ],
      "name": "setMaxAliasCount",
      "outputs": [],
      "stateMutability": "nonpayable",
      "type": "function"
    },
    {
      "inputs": [
        {
          "internalType": "uint256",
          "name": "newMaximumStake",
          "type": "uint256"
        }
      ],
      "name": "setMaximumStake",
      "outputs": [],
      "stateMutability": "nonpayable",
      "type": "function"
    },
    {
      "inputs": [
        {
          "internalType": "uint256",
          "name": "newMinimumStake",
          "type": "uint256"
        }
      ],
      "name": "setMinimumStake",
      "outputs": [],
      "stateMutability": "nonpayable",
      "type": "function"
    },
    {
      "inputs": [
        {
          "internalType": "bool",
          "name": "permitted",
          "type": "bool"
        }
      ],
      "name": "setPermittedStakersOn",
      "outputs": [],
      "stateMutability": "nonpayable",
      "type": "function"
    },
    {
      "inputs": [
        {
          "internalType": "uint256",
          "name": "amount",
          "type": "uint256"
        },
        {
          "internalType": "address",
          "name": "account",
          "type": "address"
        }
      ],
      "name": "stake",
      "outputs": [],
      "stateMutability": "nonpayable",
      "type": "function"
    },
    {
      "inputs": [],
      "name": "totalStaked",
      "outputs": [
        {
          "internalType": "uint256",
          "name": "",
          "type": "uint256"
        }
      ],
      "stateMutability": "view",
      "type": "function"
    },
    {
      "inputs": [
        {
          "internalType": "address",
          "name": "newOwner",
          "type": "address"
        }
      ],
      "name": "transferOwnership",
      "outputs": [],
      "stateMutability": "nonpayable",
      "type": "function"
    },
    {
      "inputs": [
        {
          "internalType": "uint256",
          "name": "balance",
          "type": "uint256"
        },
        {
          "internalType": "address",
          "name": "recipient",
          "type": "address"
        }
      ],
      "name": "transferPenaltyTokens",
      "outputs": [],
      "stateMutability": "nonpayable",
      "type": "function"
    },
    {
      "inputs": [
        {
          "internalType": "uint256",
          "name": "amount",
          "type": "uint256"
        },
        {
          "internalType": "address",
          "name": "account",
          "type": "address"
        }
      ],
      "name": "withdraw",
      "outputs": [],
      "stateMutability": "nonpayable",
      "type": "function"
    },
    {
      "inputs": [],
      "name": "withdraw",
      "outputs": [],
      "stateMutability": "nonpayable",
      "type": "function"
    },
    {
      "inputs": [
        {
          "internalType": "uint256",
          "name": "balance",
          "type": "uint256"
        }
      ],
      "name": "withdrawPenaltyTokens",
      "outputs": [],
      "stateMutability": "nonpayable",
      "type": "function"
    }
  ],
  "bytecode": "0x60806040523480156200001157600080fd5b506040516200414738038062004147833981810160405281019062000037919062000431565b620000576200004b6200018760201b60201c565b6200018f60201b60201c565b81600160006101000a81548173ffffffffffffffffffffffffffffffffffffffff021916908373ffffffffffffffffffffffffffffffffffffffff16021790555080600a60006101000a81548160ff02191690836002811115620000c057620000bf62000478565b5b02179055506000620000d76200025360201b60201c565b90508073ffffffffffffffffffffffffffffffffffffffff1663313ce5676040518163ffffffff1660e01b8152600401602060405180830381865afa15801562000125573d6000803e3d6000fd5b505050506040513d601f19601f820116820180604052508101906200014b9190620004e5565b600a620001599190620006a4565b6001620001679190620006f5565b6007819055506007546008819055506001600b819055505050506200086e565b600033905090565b60008060009054906101000a900473ffffffffffffffffffffffffffffffffffffffff169050816000806101000a81548173ffffffffffffffffffffffffffffffffffffffff021916908373ffffffffffffffffffffffffffffffffffffffff1602179055508173ffffffffffffffffffffffffffffffffffffffff168173ffffffffffffffffffffffffffffffffffffffff167f8be0079c531659141344cd1fd0a4f28419497f9722a3daafe3b4186f6b6457e060405160405180910390a35050565b6000600160009054906101000a900473ffffffffffffffffffffffffffffffffffffffff1673ffffffffffffffffffffffffffffffffffffffff16638e8dfd16600160009054906101000a900473ffffffffffffffffffffffffffffffffffffffff1673ffffffffffffffffffffffffffffffffffffffff1663df3806936040518163ffffffff1660e01b8152600401602060405180830381865afa15801562000301573d6000803e3d6000fd5b505050506040513d601f19601f820116820180604052508101906200032791906200077b565b600a60009054906101000a900460ff166040518363ffffffff1660e01b8152600401620003569291906200080f565b602060405180830381865afa15801562000374573d6000803e3d6000fd5b505050506040513d601f19601f820116820180604052508101906200039a91906200083c565b905090565b600080fd5b600073ffffffffffffffffffffffffffffffffffffffff82169050919050565b6000620003d182620003a4565b9050919050565b620003e381620003c4565b8114620003ef57600080fd5b50565b6000815190506200040381620003d8565b92915050565b600381106200041757600080fd5b50565b6000815190506200042b8162000409565b92915050565b600080604083850312156200044b576200044a6200039f565b5b60006200045b85828601620003f2565b92505060206200046e858286016200041a565b9150509250929050565b7f4e487b7100000000000000000000000000000000000000000000000000000000600052602160045260246000fd5b600060ff82169050919050565b620004bf81620004a7565b8114620004cb57600080fd5b50565b600081519050620004df81620004b4565b92915050565b600060208284031215620004fe57620004fd6200039f565b5b60006200050e84828501620004ce565b91505092915050565b7f4e487b7100000000000000000000000000000000000000000000000000000000600052601160045260246000fd5b60008160011c9050919050565b6000808291508390505b6001851115620005a5578086048111156200057d576200057c62000517565b5b60018516156200058d5780820291505b80810290506200059d8562000546565b94506200055d565b94509492505050565b600082620005c0576001905062000693565b81620005d0576000905062000693565b8160018114620005e95760028114620005f4576200062a565b600191505062000693565b60ff84111562000609576200060862000517565b5b8360020a91508482111562000623576200062262000517565b5b5062000693565b5060208310610133831016604e8410600b8410161715620006645782820a9050838111156200065e576200065d62000517565b5b62000693565b62000673848484600162000553565b925090508184048111156200068d576200068c62000517565b5b81810290505b9392505050565b6000819050919050565b6000620006b1826200069a565b9150620006be83620004a7565b9250620006ed7fffffffffffffffffffffffffffffffffffffffffffffffffffffffffffffffff8484620005ae565b905092915050565b600062000702826200069a565b91506200070f836200069a565b92508282026200071f816200069a565b9150828204841483151762000739576200073862000517565b5b5092915050565b6000819050919050565b620007558162000740565b81146200076157600080fd5b50565b60008151905062000775816200074a565b92915050565b6000602082840312156200079457620007936200039f565b5b6000620007a48482850162000764565b91505092915050565b620007b88162000740565b82525050565b60038110620007d257620007d162000478565b5b50565b6000819050620007e582620007be565b919050565b6000620007f782620007d5565b9050919050565b6200080981620007ea565b82525050565b6000604082019050620008266000830185620007ad565b620008356020830184620007fe565b9392505050565b6000602082840312156200085557620008546200039f565b5b60006200086584828501620003f2565b91505092915050565b6138c9806200087e6000396000f3fe608060405234801561001057600080fd5b50600436106102525760003560e01c8063715018a611610146578063bc979787116100c3578063dc157ce211610087578063dc157ce2146106cf578063ddb6e6e1146106eb578063ec5ffac214610707578063f21aec0614610725578063f2fde38b14610741578063f95d71b11461075d57610252565b8063bc9797871461061b578063bcb5c63614610637578063c00007b014610653578063c3bf2ba41461066f578063d3dbad7d1461069f57610252565b8063842648c21161010a578063842648c2146105895780638da5cb5b146105a55780639dca0032146105c3578063a498072c146105e1578063b5c6b453146105fd57610252565b8063715018a61461050b57806374c2e2fc1461051557806375402829146105315780637acb77571461054f578063817b1cd21461056b57610252565b806327e235e3116101d45780634d3342b9116101985780634d3342b91461043f57806350d17b5e1461046f57806351243d5a1461048d578063706c62d3146104bd57806370a08231146104db57610252565b806327e235e31461039d5780633560db3c146103cd5780633ccfd60b146103e957806340b96482146103f3578063499199661461040f57610252565b806310fe9ae81161021b57806310fe9ae8146102f95780631d62ebd9146103175780631dc4ab3c14610347578063233e99031461036357806327a199d01461037f57610252565b8062f714ce1461025757806302fa04c9146102735780630700037d1461028f5780630a0e3dea146102bf5780630e9ed68b146102db575b600080fd5b610271600480360381019061026c9190612ea8565b610779565b005b61028d60048036038101906102889190612ea8565b610ba5565b005b6102a960048036038101906102a49190612ee8565b610f59565b6040516102b69190612f24565b60405180910390f35b6102d960048036038101906102d49190612ea8565b610f71565b005b6102e36111b8565b6040516102f09190612f4e565b60405180910390f35b6103016112fc565b60405161030e9190612f4e565b60405180910390f35b610331600480360381019061032c9190612ee8565b611440565b60405161033e9190612f24565b60405180910390f35b610361600480360381019061035c91906130c2565b61157e565b005b61037d6004803603810190610378919061310b565b6115cc565b005b610387611615565b6040516103949190613153565b60405180910390f35b6103b760048036038101906103b29190612ee8565b611628565b6040516103c49190612f24565b60405180910390f35b6103e760048036038101906103e29190612ea8565b611640565b005b6103f1611736565b005b61040d60048036038101906104089190612ee8565b6117bd565b005b61042960048036038101906104249190612ee8565b6119a7565b6040516104369190613153565b60405180910390f35b61045960048036038101906104549190612ee8565b611b82565b6040516104669190612f24565b60405180910390f35b610477611b9a565b60405161048491906131cd565b60405180910390f35b6104a760048036038101906104a29190612ee8565b611bc0565b6040516104b49190613153565b60405180910390f35b6104c5611be0565b6040516104d29190612f24565b60405180910390f35b6104f560048036038101906104f09190612ee8565b611be6565b6040516105029190612f24565b60405180910390f35b610513611d24565b005b61052f600480360381019061052a9190612ee8565b611d38565b005b610539611dd2565b6040516105469190612f24565b60405180910390f35b61056960048036038101906105649190612ea8565b611dd8565b005b610573612080565b6040516105809190612f24565b60405180910390f35b6105a3600480360381019061059e9190613214565b612086565b005b6105ad6120e2565b6040516105ba9190612f4e565b60405180910390f35b6105cb61210b565b6040516105d891906132b8565b60405180910390f35b6105fb60048036038101906105f69190612ee8565b61211e565b005b6106056121b8565b6040516106129190612f24565b60405180910390f35b61063560048036038101906106309190612ee8565b6121be565b005b610651600480360381019061064c919061310b565b612462565b005b61066d60048036038101906106689190612ee8565b6124ab565b005b61068960048036038101906106849190612ee8565b612789565b6040516106969190612f4e565b60405180910390f35b6106b960048036038101906106b49190612ee8565b6127bc565b6040516106c69190613153565b60405180910390f35b6106e960048036038101906106e4919061310b565b612907565b005b6107056004803603810190610700919061310b565b6129fc565b005b61070f612a45565b60405161071c9190612f24565b60405180910390f35b61073f600480360381019061073a91906132d3565b612a4b565b005b61075b60048036038101906107569190612ee8565b612bb0565b005b61077760048036038101906107729190612ee8565b612c33565b005b6107816111b8565b73ffffffffffffffffffffffffffffffffffffffff163373ffffffffffffffffffffffffffffffffffffffff16146107f057336040517fc95e6e490000000000000000000000000000000000000000000000000000000081526004016107e79190612f4e565b60405180910390fd5b6000820361082a576040517fc377136000000000000000000000000000000000000000000000000000000000815260040160405180910390fd5b60006108346111b8565b905060008173ffffffffffffffffffffffffffffffffffffffff1663857b76636040518163ffffffff1660e01b8152600401600060405180830381865afa158015610883573d6000803e3d6000fd5b505050506040513d6000823e3d601f19601f820116820180604052508101906108ac91906133bf565b90506000805b8251811015610924578473ffffffffffffffffffffffffffffffffffffffff168382815181106108e5576108e4613408565b5b602002602001015173ffffffffffffffffffffffffffffffffffffffff16036109115760019150610924565b808061091c90613466565b9150506108b2565b50801561095d576040517f74fc692a00000000000000000000000000000000000000000000000000000000815260040160405180910390fd5b84600260008673ffffffffffffffffffffffffffffffffffffffff1673ffffffffffffffffffffffffffffffffffffffff168152602001908152602001600020541015610a2257600260008573ffffffffffffffffffffffffffffffffffffffff1673ffffffffffffffffffffffffffffffffffffffff16815260200190815260200160002054856040517ffdf3c18d000000000000000000000000000000000000000000000000000000008152600401610a199291906134ae565b60405180910390fd5b84600954610a3091906134d7565b60098190555084600260008673ffffffffffffffffffffffffffffffffffffffff1673ffffffffffffffffffffffffffffffffffffffff16815260200190815260200160002054610a8191906134d7565b600260008673ffffffffffffffffffffffffffffffffffffffff1673ffffffffffffffffffffffffffffffffffffffff168152602001908152602001600020819055506000610ace6112fc565b90508073ffffffffffffffffffffffffffffffffffffffff1663a9059cbb86886040518363ffffffff1660e01b8152600401610b0b92919061350b565b6020604051808303816000875af1158015610b2a573d6000803e3d6000fd5b505050506040513d601f19601f82011682018060405250810190610b4e9190613549565b508473ffffffffffffffffffffffffffffffffffffffff167f7084f5476618d8e60b11ef0d7d3f06914655adb8793e28ff7f018d4c76d505d587604051610b959190612f24565b60405180910390a2505050505050565b610bad6111b8565b73ffffffffffffffffffffffffffffffffffffffff163373ffffffffffffffffffffffffffffffffffffffff1614610c1c57336040517fc95e6e49000000000000000000000000000000000000000000000000000000008152600401610c139190612f4e565b60405180910390fd5b600073ffffffffffffffffffffffffffffffffffffffff16600560008373ffffffffffffffffffffffffffffffffffffffff1673ffffffffffffffffffffffffffffffffffffffff16815260200190815260200160002060009054906101000a900473ffffffffffffffffffffffffffffffffffffffff1673ffffffffffffffffffffffffffffffffffffffff1614610eb0576000610cb96111b8565b90508073ffffffffffffffffffffffffffffffffffffffff166340550a1c600560008573ffffffffffffffffffffffffffffffffffffffff1673ffffffffffffffffffffffffffffffffffffffff16815260200190815260200160002060009054906101000a900473ffffffffffffffffffffffffffffffffffffffff166040518263ffffffff1660e01b8152600401610d539190612f4e565b602060405180830381865afa158015610d70573d6000803e3d6000fd5b505050506040513d601f19601f82011682018060405250810190610d949190613549565b15610e4c57600560008373ffffffffffffffffffffffffffffffffffffffff1673ffffffffffffffffffffffffffffffffffffffff16815260200190815260200160002060009054906101000a900473ffffffffffffffffffffffffffffffffffffffff1673ffffffffffffffffffffffffffffffffffffffff167fa9e8db6c256a1ab8ca3b7b20e4e5c2e09f608d9f4fa22cb330ef2da1850fcdb583604051610e3e9190612f4e565b60405180910390a250610f55565b600560008373ffffffffffffffffffffffffffffffffffffffff1673ffffffffffffffffffffffffffffffffffffffff16815260200190815260200160002060009054906101000a900473ffffffffffffffffffffffffffffffffffffffff169150505b81600360008373ffffffffffffffffffffffffffffffffffffffff1673ffffffffffffffffffffffffffffffffffffffff1681526020019081526020016000206000828254610eff9190613576565b925050819055508073ffffffffffffffffffffffffffffffffffffffff167f38cbdc591b5cf62cc9a88b92dcee4809f0d0ca6cd9bdad9f818d74c38e78bf2983604051610f4c9190612f24565b60405180910390a25b5050565b60036020528060005260406000206000915090505481565b610f796111b8565b73ffffffffffffffffffffffffffffffffffffffff163373ffffffffffffffffffffffffffffffffffffffff1614610fe857336040517fc95e6e49000000000000000000000000000000000000000000000000000000008152600401610fdf9190612f4e565b60405180910390fd5b600073ffffffffffffffffffffffffffffffffffffffff16600560008373ffffffffffffffffffffffffffffffffffffffff1673ffffffffffffffffffffffffffffffffffffffff16815260200190815260200160002060009054906101000a900473ffffffffffffffffffffffffffffffffffffffff1673ffffffffffffffffffffffffffffffffffffffff16146110de57600560008273ffffffffffffffffffffffffffffffffffffffff1673ffffffffffffffffffffffffffffffffffffffff16815260200190815260200160002060009054906101000a900473ffffffffffffffffffffffffffffffffffffffff1690505b81600260008373ffffffffffffffffffffffffffffffffffffffff1673ffffffffffffffffffffffffffffffffffffffff168152602001908152602001600020600082825461112d91906134d7565b92505081905550816009600082825461114691906134d7565b9250508190555081600c600082825461115f9190613576565b925050819055508073ffffffffffffffffffffffffffffffffffffffff167f3c3e99c9508723e2a5fd42a570a42b3bd7781ff4900273df394dcc1a9d066036836040516111ac9190612f24565b60405180910390a25050565b6000600160009054906101000a900473ffffffffffffffffffffffffffffffffffffffff1673ffffffffffffffffffffffffffffffffffffffff16638e8dfd16600160009054906101000a900473ffffffffffffffffffffffffffffffffffffffff1673ffffffffffffffffffffffffffffffffffffffff1663da19ddfb6040518163ffffffff1660e01b8152600401602060405180830381865afa158015611265573d6000803e3d6000fd5b505050506040513d601f19601f8201168201806040525081019061128991906135e0565b600a60009054906101000a900460ff166040518363ffffffff1660e01b81526004016112b692919061361c565b602060405180830381865afa1580156112d3573d6000803e3d6000fd5b505050506040513d601f19601f820116820180604052508101906112f79190613645565b905090565b6000600160009054906101000a900473ffffffffffffffffffffffffffffffffffffffff1673ffffffffffffffffffffffffffffffffffffffff16638e8dfd16600160009054906101000a900473ffffffffffffffffffffffffffffffffffffffff1673ffffffffffffffffffffffffffffffffffffffff1663df3806936040518163ffffffff1660e01b8152600401602060405180830381865afa1580156113a9573d6000803e3d6000fd5b505050506040513d601f19601f820116820180604052508101906113cd91906135e0565b600a60009054906101000a900460ff166040518363ffffffff1660e01b81526004016113fa92919061361c565b602060405180830381865afa158015611417573d6000803e3d6000fd5b505050506040513d601f19601f8201168201806040525081019061143b9190613645565b905090565b60008073ffffffffffffffffffffffffffffffffffffffff16600560008473ffffffffffffffffffffffffffffffffffffffff1673ffffffffffffffffffffffffffffffffffffffff16815260200190815260200160002060009054906101000a900473ffffffffffffffffffffffffffffffffffffffff1673ffffffffffffffffffffffffffffffffffffffff161461153757600560008373ffffffffffffffffffffffffffffffffffffffff1673ffffffffffffffffffffffffffffffffffffffff16815260200190815260200160002060009054906101000a900473ffffffffffffffffffffffffffffffffffffffff1691505b600360008373ffffffffffffffffffffffffffffffffffffffff1673ffffffffffffffffffffffffffffffffffffffff168152602001908152602001600020549050919050565b611586612cb6565b60005b81518110156115c8576115b58282815181106115a8576115a7613408565b5b6020026020010151611d38565b80806115c090613466565b915050611589565b5050565b6115d4612cb6565b806007819055507fe933824a81d0b6aa53640e0e8df82b08c3f5297409b86d5beb73c41253518b298160405161160a9190612f24565b60405180910390a150565b600a60019054906101000a900460ff1681565b60026020528060005260406000206000915090505481565b611648612cb6565b600c5482111561168d576040517f08c379a0000000000000000000000000000000000000000000000000000000008152600401611684906136cf565b60405180910390fd5b81600c600082825461169f91906134d7565b9250508190555060006116b06112fc565b90508073ffffffffffffffffffffffffffffffffffffffff1663a9059cbb83856040518363ffffffff1660e01b81526004016116ed92919061350b565b6020604051808303816000875af115801561170c573d6000803e3d6000fd5b505050506040513d601f19601f820116820180604052508101906117309190613549565b50505050565b61173e612cb6565b600047905060003373ffffffffffffffffffffffffffffffffffffffff168260405161176990613720565b60006040518083038185875af1925050503d80600081146117a6576040519150601f19603f3d011682016040523d82523d6000602084013e6117ab565b606091505b50509050806117b957600080fd5b5050565b600b54600660003373ffffffffffffffffffffffffffffffffffffffff1673ffffffffffffffffffffffffffffffffffffffff168152602001908152602001600020541061188157600660003373ffffffffffffffffffffffffffffffffffffffff1673ffffffffffffffffffffffffffffffffffffffff168152602001908152602001600020546040517f2176682c0000000000000000000000000000000000000000000000000000000081526004016118789190612f24565b60405180910390fd5b33600560008373ffffffffffffffffffffffffffffffffffffffff1673ffffffffffffffffffffffffffffffffffffffff16815260200190815260200160002060006101000a81548173ffffffffffffffffffffffffffffffffffffffff021916908373ffffffffffffffffffffffffffffffffffffffff1602179055506001600660003373ffffffffffffffffffffffffffffffffffffffff1673ffffffffffffffffffffffffffffffffffffffff168152602001908152602001600020600082825461194f9190613576565b925050819055503373ffffffffffffffffffffffffffffffffffffffff167f7f05f6fc05d05f3345962cb9fd7d4e4e1ec2546697378950c0901cea523dfaa18260405161199c9190612f4e565b60405180910390a250565b60008073ffffffffffffffffffffffffffffffffffffffff16600560008473ffffffffffffffffffffffffffffffffffffffff1673ffffffffffffffffffffffffffffffffffffffff16815260200190815260200160002060009054906101000a900473ffffffffffffffffffffffffffffffffffffffff1673ffffffffffffffffffffffffffffffffffffffff1614611a9e57600560008373ffffffffffffffffffffffffffffffffffffffff1673ffffffffffffffffffffffffffffffffffffffff16815260200190815260200160002060009054906101000a900473ffffffffffffffffffffffffffffffffffffffff1691505b6000600260008473ffffffffffffffffffffffffffffffffffffffff1673ffffffffffffffffffffffffffffffffffffffff168152602001908152602001600020549050600754811015611b2d57806007546040517f4806a505000000000000000000000000000000000000000000000000000000008152600401611b249291906134ae565b60405180910390fd5b600854811115611b7857806008546040517f2b3c6b63000000000000000000000000000000000000000000000000000000008152600401611b6f9291906134ae565b60405180910390fd5b6001915050919050565b60066020528060005260406000206000915090505481565b600160009054906101000a900473ffffffffffffffffffffffffffffffffffffffff1681565b60046020528060005260406000206000915054906101000a900460ff1681565b600c5481565b60008073ffffffffffffffffffffffffffffffffffffffff16600560008473ffffffffffffffffffffffffffffffffffffffff1673ffffffffffffffffffffffffffffffffffffffff16815260200190815260200160002060009054906101000a900473ffffffffffffffffffffffffffffffffffffffff1673ffffffffffffffffffffffffffffffffffffffff1614611cdd57600560008373ffffffffffffffffffffffffffffffffffffffff1673ffffffffffffffffffffffffffffffffffffffff16815260200190815260200160002060009054906101000a900473ffffffffffffffffffffffffffffffffffffffff1691505b600260008373ffffffffffffffffffffffffffffffffffffffff1673ffffffffffffffffffffffffffffffffffffffff168152602001908152602001600020549050919050565b611d2c612cb6565b611d366000612d34565b565b611d40612cb6565b6001600460008373ffffffffffffffffffffffffffffffffffffffff1673ffffffffffffffffffffffffffffffffffffffff16815260200190815260200160002060006101000a81548160ff0219169083151502179055507f35126091a4da6c3bafab49ae849a4e1e1fdf396d951f2d6fadb89417927e931b81604051611dc79190612f4e565b60405180910390a150565b600b5481565b611de06111b8565b73ffffffffffffffffffffffffffffffffffffffff163373ffffffffffffffffffffffffffffffffffffffff1614611e4f57336040517fc95e6e49000000000000000000000000000000000000000000000000000000008152600401611e469190612f4e565b60405180910390fd5b60008203611e89576040517f6a76ff9f00000000000000000000000000000000000000000000000000000000815260040160405180910390fd5b600a60019054906101000a900460ff168015611eef5750600460008273ffffffffffffffffffffffffffffffffffffffff1673ffffffffffffffffffffffffffffffffffffffff16815260200190815260200160002060009054906101000a900460ff16155b15611f3157806040517f924a5910000000000000000000000000000000000000000000000000000000008152600401611f289190612f4e565b60405180910390fd5b6000611f3b6112fc565b90508073ffffffffffffffffffffffffffffffffffffffff166323b872dd8330866040518463ffffffff1660e01b8152600401611f7a93929190613735565b6020604051808303816000875af1158015611f99573d6000803e3d6000fd5b505050506040513d601f19601f82011682018060405250810190611fbd9190613549565b5082600260008473ffffffffffffffffffffffffffffffffffffffff1673ffffffffffffffffffffffffffffffffffffffff168152602001908152602001600020600082825461200d9190613576565b9250508190555082600960008282546120269190613576565b925050819055508173ffffffffffffffffffffffffffffffffffffffff167f9e71bc8eea02a63969f509818f2dafb9254532904319f9dbda79b67bd34a5f3d846040516120739190612f24565b60405180910390a2505050565b60095481565b61208e612cb6565b80600a60016101000a81548160ff0219169083151502179055507fe1138a93dc3399cb895e183d0551777813ef4cdb31cae3f89e5fbded2a6e8a1f816040516120d79190613153565b60405180910390a150565b60008060009054906101000a900473ffffffffffffffffffffffffffffffffffffffff16905090565b600a60009054906101000a900460ff1681565b612126612cb6565b6000600460008373ffffffffffffffffffffffffffffffffffffffff1673ffffffffffffffffffffffffffffffffffffffff16815260200190815260200160002060006101000a81548160ff0219169083151502179055507f56c24084818c4d30108b4d428745a95153b8e6dafb1c7094c2c65e19de2c1a9a816040516121ad9190612f4e565b60405180910390a150565b60085481565b3373ffffffffffffffffffffffffffffffffffffffff16600560008373ffffffffffffffffffffffffffffffffffffffff1673ffffffffffffffffffffffffffffffffffffffff16815260200190815260200160002060009054906101000a900473ffffffffffffffffffffffffffffffffffffffff1673ffffffffffffffffffffffffffffffffffffffff161461228f5780336040517fb1b82d7900000000000000000000000000000000000000000000000000000000815260040161228692919061376c565b60405180910390fd5b60006122996111b8565b90508073ffffffffffffffffffffffffffffffffffffffff166340550a1c836040518263ffffffff1660e01b81526004016122d49190612f4e565b602060405180830381865afa1580156122f1573d6000803e3d6000fd5b505050506040513d601f19601f820116820180604052508101906123159190613549565b1561235757816040517fc400065d00000000000000000000000000000000000000000000000000000000815260040161234e9190612f4e565b60405180910390fd5b600560008373ffffffffffffffffffffffffffffffffffffffff1673ffffffffffffffffffffffffffffffffffffffff16815260200190815260200160002060006101000a81549073ffffffffffffffffffffffffffffffffffffffff02191690556001600660003373ffffffffffffffffffffffffffffffffffffffff1673ffffffffffffffffffffffffffffffffffffffff168152602001908152602001600020600082825461240991906134d7565b925050819055503373ffffffffffffffffffffffffffffffffffffffff167f8ece38c85474a2f8e9e848069caf92d8134ec2d972bf868889161ebe8ce3c485836040516124569190612f4e565b60405180910390a25050565b61246a612cb6565b806008819055507f723c6a8b97a26222f03a0b1afb5bd5da562f1fdaee45f114f392b66a512951d5816040516124a09190612f24565b60405180910390a150565b6124b36111b8565b73ffffffffffffffffffffffffffffffffffffffff163373ffffffffffffffffffffffffffffffffffffffff161461252257336040517fc95e6e490000000000000000000000000000000000000000000000000000000081526004016125199190612f4e565b60405180910390fd5b600073ffffffffffffffffffffffffffffffffffffffff16600560008373ffffffffffffffffffffffffffffffffffffffff1673ffffffffffffffffffffffffffffffffffffffff16815260200190815260200160002060009054906101000a900473ffffffffffffffffffffffffffffffffffffffff1673ffffffffffffffffffffffffffffffffffffffff161461261857600560008273ffffffffffffffffffffffffffffffffffffffff1673ffffffffffffffffffffffffffffffffffffffff16815260200190815260200160002060009054906101000a900473ffffffffffffffffffffffffffffffffffffffff1690505b6000600360008373ffffffffffffffffffffffffffffffffffffffff1673ffffffffffffffffffffffffffffffffffffffff1681526020019081526020016000205490506000811115612785576000600360008473ffffffffffffffffffffffffffffffffffffffff1673ffffffffffffffffffffffffffffffffffffffff1681526020019081526020016000208190555060006126b46111b8565b90508073ffffffffffffffffffffffffffffffffffffffff1663a9059cbb84846040518363ffffffff1660e01b81526004016126f192919061350b565b6020604051808303816000875af1158015612710573d6000803e3d6000fd5b505050506040513d601f19601f820116820180604052508101906127349190613549565b508273ffffffffffffffffffffffffffffffffffffffff167fe2403640ba68fed3a2f88b7557551d1993f84b99bb10ff833f0cf8db0c5e04868360405161277b9190612f24565b60405180910390a2505b5050565b60056020528060005260406000206000915054906101000a900473ffffffffffffffffffffffffffffffffffffffff1681565b60008073ffffffffffffffffffffffffffffffffffffffff16600560008473ffffffffffffffffffffffffffffffffffffffff1673ffffffffffffffffffffffffffffffffffffffff16815260200190815260200160002060009054906101000a900473ffffffffffffffffffffffffffffffffffffffff1673ffffffffffffffffffffffffffffffffffffffff16146128b357600560008373ffffffffffffffffffffffffffffffffffffffff1673ffffffffffffffffffffffffffffffffffffffff16815260200190815260200160002060009054906101000a900473ffffffffffffffffffffffffffffffffffffffff1691505b600460008373ffffffffffffffffffffffffffffffffffffffff1673ffffffffffffffffffffffffffffffffffffffff16815260200190815260200160002060009054906101000a900460ff169050919050565b61290f612cb6565b600c54811115612954576040517f08c379a000000000000000000000000000000000000000000000000000000000815260040161294b906136cf565b60405180910390fd5b80600c600082825461296691906134d7565b9250508190555060006129776112fc565b90508073ffffffffffffffffffffffffffffffffffffffff1663a9059cbb33846040518363ffffffff1660e01b81526004016129b492919061350b565b6020604051808303816000875af11580156129d3573d6000803e3d6000fd5b505050506040513d601f19601f820116820180604052508101906129f79190613549565b505050565b612a04612cb6565b80600b819055507f25cb00833e709e42533f8e7818f46cff79dbaf85d1a141eb0416f2c30c36228781604051612a3a9190612f24565b60405180910390a150565b60075481565b612a53612cb6565b600c54811115612a98576040517f08c379a0000000000000000000000000000000000000000000000000000000008152600401612a8f906136cf565b60405180910390fd5b8060096000828254612aaa9190613576565b9250508190555080600c6000828254612ac391906134d7565b9250508190555080600260008473ffffffffffffffffffffffffffffffffffffffff1673ffffffffffffffffffffffffffffffffffffffff1681526020019081526020016000206000828254612b199190613576565b925050819055506000612b2a6112fc565b90508073ffffffffffffffffffffffffffffffffffffffff1663a9059cbb30846040518363ffffffff1660e01b8152600401612b6792919061350b565b6020604051808303816000875af1158015612b86573d6000803e3d6000fd5b505050506040513d601f19601f82011682018060405250810190612baa9190613549565b50505050565b612bb8612cb6565b600073ffffffffffffffffffffffffffffffffffffffff168173ffffffffffffffffffffffffffffffffffffffff1603612c27576040517f08c379a0000000000000000000000000000000000000000000000000000000008152600401612c1e90613807565b60405180910390fd5b612c3081612d34565b50565b612c3b612cb6565b80600160006101000a81548173ffffffffffffffffffffffffffffffffffffffff021916908373ffffffffffffffffffffffffffffffffffffffff1602179055507f2b5fe80d5061b20e017f0cde52b331309601bfcab0cb14cfcf6a4096410a607581604051612cab9190612f4e565b60405180910390a150565b612cbe612df8565b73ffffffffffffffffffffffffffffffffffffffff16612cdc6120e2565b73ffffffffffffffffffffffffffffffffffffffff1614612d32576040517f08c379a0000000000000000000000000000000000000000000000000000000008152600401612d2990613873565b60405180910390fd5b565b60008060009054906101000a900473ffffffffffffffffffffffffffffffffffffffff169050816000806101000a81548173ffffffffffffffffffffffffffffffffffffffff021916908373ffffffffffffffffffffffffffffffffffffffff1602179055508173ffffffffffffffffffffffffffffffffffffffff168173ffffffffffffffffffffffffffffffffffffffff167f8be0079c531659141344cd1fd0a4f28419497f9722a3daafe3b4186f6b6457e060405160405180910390a35050565b600033905090565b6000604051905090565b600080fd5b600080fd5b6000819050919050565b612e2781612e14565b8114612e3257600080fd5b50565b600081359050612e4481612e1e565b92915050565b600073ffffffffffffffffffffffffffffffffffffffff82169050919050565b6000612e7582612e4a565b9050919050565b612e8581612e6a565b8114612e9057600080fd5b50565b600081359050612ea281612e7c565b92915050565b60008060408385031215612ebf57612ebe612e0a565b5b6000612ecd85828601612e35565b9250506020612ede85828601612e93565b9150509250929050565b600060208284031215612efe57612efd612e0a565b5b6000612f0c84828501612e93565b91505092915050565b612f1e81612e14565b82525050565b6000602082019050612f396000830184612f15565b92915050565b612f4881612e6a565b82525050565b6000602082019050612f636000830184612f3f565b92915050565b600080fd5b6000601f19601f8301169050919050565b7f4e487b7100000000000000000000000000000000000000000000000000000000600052604160045260246000fd5b612fb782612f6e565b810181811067ffffffffffffffff82111715612fd657612fd5612f7f565b5b80604052505050565b6000612fe9612e00565b9050612ff58282612fae565b919050565b600067ffffffffffffffff82111561301557613014612f7f565b5b602082029050602081019050919050565b600080fd5b600061303e61303984612ffa565b612fdf565b9050808382526020820190506020840283018581111561306157613060613026565b5b835b8181101561308a57806130768882612e93565b845260208401935050602081019050613063565b5050509392505050565b600082601f8301126130a9576130a8612f69565b5b81356130b984826020860161302b565b91505092915050565b6000602082840312156130d8576130d7612e0a565b5b600082013567ffffffffffffffff8111156130f6576130f5612e0f565b5b61310284828501613094565b91505092915050565b60006020828403121561312157613120612e0a565b5b600061312f84828501612e35565b91505092915050565b60008115159050919050565b61314d81613138565b82525050565b60006020820190506131686000830184613144565b92915050565b6000819050919050565b600061319361318e61318984612e4a565b61316e565b612e4a565b9050919050565b60006131a582613178565b9050919050565b60006131b78261319a565b9050919050565b6131c7816131ac565b82525050565b60006020820190506131e260008301846131be565b92915050565b6131f181613138565b81146131fc57600080fd5b50565b60008135905061320e816131e8565b92915050565b60006020828403121561322a57613229612e0a565b5b6000613238848285016131ff565b91505092915050565b7f4e487b7100000000000000000000000000000000000000000000000000000000600052602160045260246000fd5b6003811061328157613280613241565b5b50565b600081905061329282613270565b919050565b60006132a282613284565b9050919050565b6132b281613297565b82525050565b60006020820190506132cd60008301846132a9565b92915050565b600080604083850312156132ea576132e9612e0a565b5b60006132f885828601612e93565b925050602061330985828601612e35565b9150509250929050565b60008151905061332281612e7c565b92915050565b600061333b61333684612ffa565b612fdf565b9050808382526020820190506020840283018581111561335e5761335d613026565b5b835b8181101561338757806133738882613313565b845260208401935050602081019050613360565b5050509392505050565b600082601f8301126133a6576133a5612f69565b5b81516133b6848260208601613328565b91505092915050565b6000602082840312156133d5576133d4612e0a565b5b600082015167ffffffffffffffff8111156133f3576133f2612e0f565b5b6133ff84828501613391565b91505092915050565b7f4e487b7100000000000000000000000000000000000000000000000000000000600052603260045260246000fd5b7f4e487b7100000000000000000000000000000000000000000000000000000000600052601160045260246000fd5b600061347182612e14565b91507fffffffffffffffffffffffffffffffffffffffffffffffffffffffffffffffff82036134a3576134a2613437565b5b600182019050919050565b60006040820190506134c36000830185612f15565b6134d06020830184612f15565b9392505050565b60006134e282612e14565b91506134ed83612e14565b925082820390508181111561350557613504613437565b5b92915050565b60006040820190506135206000830185612f3f565b61352d6020830184612f15565b9392505050565b600081519050613543816131e8565b92915050565b60006020828403121561355f5761355e612e0a565b5b600061356d84828501613534565b91505092915050565b600061358182612e14565b915061358c83612e14565b92508282019050808211156135a4576135a3613437565b5b92915050565b6000819050919050565b6135bd816135aa565b81146135c857600080fd5b50565b6000815190506135da816135b4565b92915050565b6000602082840312156135f6576135f5612e0a565b5b6000613604848285016135cb565b91505092915050565b613616816135aa565b82525050565b6000604082019050613631600083018561360d565b61363e60208301846132a9565b9392505050565b60006020828403121561365b5761365a612e0a565b5b600061366984828501613313565b91505092915050565b600082825260208201905092915050565b7f4e6f7420656e6f7567682070656e616c74792062616c616e6365000000000000600082015250565b60006136b9601a83613672565b91506136c482613683565b602082019050919050565b600060208201905081810360008301526136e8816136ac565b9050919050565b600081905092915050565b50565b600061370a6000836136ef565b9150613715826136fa565b600082019050919050565b600061372b826136fd565b9150819050919050565b600060608201905061374a6000830186612f3f565b6137576020830185612f3f565b6137646040830184612f15565b949350505050565b60006040820190506137816000830185612f3f565b61378e6020830184612f3f565b9392505050565b7f4f776e61626c653a206e6577206f776e657220697320746865207a65726f206160008201527f6464726573730000000000000000000000000000000000000000000000000000602082015250565b60006137f1602683613672565b91506137fc82613795565b604082019050919050565b60006020820190508181036000830152613820816137e4565b9050919050565b7f4f776e61626c653a2063616c6c6572206973206e6f7420746865206f776e6572600082015250565b600061385d602083613672565b915061386882613827565b602082019050919050565b6000602082019050818103600083015261388c81613850565b905091905056fea264697066735822122016ac8d1f59b56754cf537891c0cae4b3176aeaca045ea5574088b4b9c34b4c5364736f6c63430008110033",
  "linkReferences": {},
  "deployedLinkReferences": {}
}