{
  "_format": "hh-sol-artifact-1",
  "contractName": "PKPHelper",
  "sourceName": "contracts/PKPHelper.sol",
  "abi": [
    {
      "inputs": [
        {
          "internalType": "address",
          "name": "_pkpNft",
          "type": "address"
        },
        {
          "internalType": "address",
          "name": "_router",
          "type": "address"
        }
      ],
      "stateMutability": "nonpayable",
      "type": "constructor"
    },
    {
      "anonymous": false,
      "inputs": [
        {
          "indexed": true,
          "internalType": "address",
          "name": "previousOwner",
          "type": "address"
        },
        {
          "indexed": true,
          "internalType": "address",
          "name": "newOwner",
          "type": "address"
        }
      ],
      "name": "OwnershipTransferred",
      "type": "event"
    },
    {
      "inputs": [
        {
          "internalType": "uint256",
          "name": "keyType",
          "type": "uint256"
        },
        {
          "internalType": "bytes[]",
          "name": "permittedIpfsCIDs",
          "type": "bytes[]"
        },
        {
          "internalType": "address[]",
          "name": "permittedAddresses",
          "type": "address[]"
        },
        {
          "internalType": "uint256[]",
          "name": "permittedAuthMethodTypes",
          "type": "uint256[]"
        },
        {
          "internalType": "bytes[]",
          "name": "permittedAuthMethodIds",
          "type": "bytes[]"
        }
      ],
      "name": "mintNextAndAddAuthMethods",
      "outputs": [
        {
          "internalType": "uint256",
          "name": "",
          "type": "uint256"
        }
      ],
      "stateMutability": "payable",
      "type": "function"
    },
    {
      "inputs": [
        {
          "internalType": "address",
          "name": "operator",
          "type": "address"
        },
        {
          "internalType": "address",
          "name": "from",
          "type": "address"
        },
        {
          "internalType": "uint256",
          "name": "tokenId",
          "type": "uint256"
        },
        {
          "internalType": "bytes",
          "name": "data",
          "type": "bytes"
        }
      ],
      "name": "onERC721Received",
      "outputs": [
        {
          "internalType": "bytes4",
          "name": "",
          "type": "bytes4"
        }
      ],
      "stateMutability": "nonpayable",
      "type": "function"
    },
    {
      "inputs": [],
      "name": "owner",
      "outputs": [
        {
          "internalType": "address",
          "name": "",
          "type": "address"
        }
      ],
      "stateMutability": "view",
      "type": "function"
    },
    {
      "inputs": [],
      "name": "pkpNFT",
      "outputs": [
        {
          "internalType": "contract PKPNFT",
          "name": "",
          "type": "address"
        }
      ],
      "stateMutability": "view",
      "type": "function"
    },
    {
      "inputs": [],
      "name": "renounceOwnership",
      "outputs": [],
      "stateMutability": "nonpayable",
      "type": "function"
    },
    {
      "inputs": [],
      "name": "router",
      "outputs": [
        {
          "internalType": "contract PubkeyRouterAndPermissions",
          "name": "",
          "type": "address"
        }
      ],
      "stateMutability": "view",
      "type": "function"
    },
    {
      "inputs": [
        {
          "internalType": "address",
          "name": "newPkpNftAddress",
          "type": "address"
        }
      ],
      "name": "setPkpNftAddress",
      "outputs": [],
      "stateMutability": "nonpayable",
      "type": "function"
    },
    {
      "inputs": [
        {
          "internalType": "address",
          "name": "newRouterAddress",
          "type": "address"
        }
      ],
      "name": "setRouterAddress",
      "outputs": [],
      "stateMutability": "nonpayable",
      "type": "function"
    },
    {
      "inputs": [
        {
          "internalType": "address",
          "name": "newOwner",
          "type": "address"
        }
      ],
      "name": "transferOwnership",
      "outputs": [],
      "stateMutability": "nonpayable",
      "type": "function"
    }
  ],
  "bytecode": "0x60806040523480156200001157600080fd5b50604051620017b9380380620017b98339818101604052810190620000379190620001c4565b620000576200004b620000e160201b60201c565b620000e960201b60201c565b81600160006101000a81548173ffffffffffffffffffffffffffffffffffffffff021916908373ffffffffffffffffffffffffffffffffffffffff16021790555080600260006101000a81548173ffffffffffffffffffffffffffffffffffffffff021916908373ffffffffffffffffffffffffffffffffffffffff16021790555050506200025e565b600033905090565b60008060009054906101000a900473ffffffffffffffffffffffffffffffffffffffff169050816000806101000a81548173ffffffffffffffffffffffffffffffffffffffff021916908373ffffffffffffffffffffffffffffffffffffffff1602179055508173ffffffffffffffffffffffffffffffffffffffff168173ffffffffffffffffffffffffffffffffffffffff167f8be0079c531659141344cd1fd0a4f28419497f9722a3daafe3b4186f6b6457e060405160405180910390a35050565b600081519050620001be8162000244565b92915050565b60008060408385031215620001de57620001dd6200023f565b5b6000620001ee85828601620001ad565b92505060206200020185828601620001ad565b9150509250929050565b600062000218826200021f565b9050919050565b600073ffffffffffffffffffffffffffffffffffffffff82169050919050565b600080fd5b6200024f816200020b565b81146200025b57600080fd5b50565b61154b806200026e6000396000f3fe6080604052600436106100865760003560e01c80638da5cb5b116100595780638da5cb5b14610131578063f2fde38b1461015c578063f887ea4014610185578063fb55effa146101b0578063ffa2e953146101e057610086565b8063150b7a021461008b578063176354fd146100c857806341cb87fc146100f1578063715018a61461011a575b600080fd5b34801561009757600080fd5b506100b260048036038101906100ad9190610caf565b61020b565b6040516100bf9190610f8e565b60405180910390f35b3480156100d457600080fd5b506100ef60048036038101906100ea9190610c82565b6102b0565b005b3480156100fd57600080fd5b5061011860048036038101906101139190610c82565b6102fc565b005b34801561012657600080fd5b5061012f610348565b005b34801561013d57600080fd5b5061014661035c565b6040516101539190610f3c565b60405180910390f35b34801561016857600080fd5b50610183600480360381019061017e9190610c82565b610385565b005b34801561019157600080fd5b5061019a610409565b6040516101a79190610fc4565b60405180910390f35b6101ca60048036038101906101c59190610d64565b61042f565b6040516101d7919061103f565b60405180910390f35b3480156101ec57600080fd5b506101f5610815565b6040516102029190610fa9565b60405180910390f35b6000600160009054906101000a900473ffffffffffffffffffffffffffffffffffffffff1673ffffffffffffffffffffffffffffffffffffffff163373ffffffffffffffffffffffffffffffffffffffff161461029d576040517f08c379a00000000000000000000000000000000000000000000000000000000081526004016102949061101f565b60405180910390fd5b63150b7a0260e01b905095945050505050565b6102b861083b565b80600160006101000a81548173ffffffffffffffffffffffffffffffffffffffff021916908373ffffffffffffffffffffffffffffffffffffffff16021790555050565b61030461083b565b80600260006101000a81548173ffffffffffffffffffffffffffffffffffffffff021916908373ffffffffffffffffffffffffffffffffffffffff16021790555050565b61035061083b565b61035a60006108b9565b565b60008060009054906101000a900473ffffffffffffffffffffffffffffffffffffffff16905090565b61038d61083b565b600073ffffffffffffffffffffffffffffffffffffffff168173ffffffffffffffffffffffffffffffffffffffff1614156103fd576040517f08c379a00000000000000000000000000000000000000000000000000000000081526004016103f490610fdf565b60405180910390fd5b610406816108b9565b50565b600260009054906101000a900473ffffffffffffffffffffffffffffffffffffffff1681565b600080600160009054906101000a900473ffffffffffffffffffffffffffffffffffffffff1673ffffffffffffffffffffffffffffffffffffffff16635d228b1634896040518363ffffffff1660e01b815260040161048e919061103f565b6020604051808303818588803b1580156104a757600080fd5b505af11580156104bb573d6000803e3d6000fd5b50505050506040513d601f19601f820116820180604052508101906104e09190610d37565b905060008651146105b55760005b86518110156105b357600260009054906101000a900473ffffffffffffffffffffffffffffffffffffffff1673ffffffffffffffffffffffffffffffffffffffff166354b06ae38389848151811061054957610548611393565b5b60200260200101516040518363ffffffff1660e01b815260040161056e929190611083565b600060405180830381600087803b15801561058857600080fd5b505af115801561059c573d6000803e3d6000fd5b5050505080806105ab9061131b565b9150506104ee565b505b60008551146106885760005b855181101561068657600260009054906101000a900473ffffffffffffffffffffffffffffffffffffffff1673ffffffffffffffffffffffffffffffffffffffff16637acf14cc8388848151811061061c5761061b611393565b5b60200260200101516040518363ffffffff1660e01b815260040161064192919061105a565b600060405180830381600087803b15801561065b57600080fd5b505af115801561066f573d6000803e3d6000fd5b50505050808061067e9061131b565b9150506105c1565b505b60008451146107775760005b845181101561077557600260009054906101000a900473ffffffffffffffffffffffffffffffffffffffff1673ffffffffffffffffffffffffffffffffffffffff16633699983c838784815181106106ef576106ee611393565b5b602002602001015187858151811061070a57610709611393565b5b60200260200101516040518463ffffffff1660e01b8152600401610730939291906110b3565b600060405180830381600087803b15801561074a57600080fd5b505af115801561075e573d6000803e3d6000fd5b50505050808061076d9061131b565b915050610694565b505b600160009054906101000a900473ffffffffffffffffffffffffffffffffffffffff1673ffffffffffffffffffffffffffffffffffffffff166342842e0e3033846040518463ffffffff1660e01b81526004016107d693929190610f57565b600060405180830381600087803b1580156107f057600080fd5b505af1158015610804573d6000803e3d6000fd5b505050508091505095945050505050565b600160009054906101000a900473ffffffffffffffffffffffffffffffffffffffff1681565b61084361097d565b73ffffffffffffffffffffffffffffffffffffffff1661086161035c565b73ffffffffffffffffffffffffffffffffffffffff16146108b7576040517f08c379a00000000000000000000000000000000000000000000000000000000081526004016108ae90610fff565b60405180910390fd5b565b60008060009054906101000a900473ffffffffffffffffffffffffffffffffffffffff169050816000806101000a81548173ffffffffffffffffffffffffffffffffffffffff021916908373ffffffffffffffffffffffffffffffffffffffff1602179055508173ffffffffffffffffffffffffffffffffffffffff168173ffffffffffffffffffffffffffffffffffffffff167f8be0079c531659141344cd1fd0a4f28419497f9722a3daafe3b4186f6b6457e060405160405180910390a35050565b600033905090565b600061099861099384611116565b6110f1565b905080838252602082019050828560208602820111156109bb576109ba6113fb565b5b60005b858110156109eb57816109d18882610b35565b8452602084019350602083019250506001810190506109be565b5050509392505050565b6000610a08610a0384611142565b6110f1565b90508083825260208201905082856020860282011115610a2b57610a2a6113fb565b5b60005b85811015610a7957813567ffffffffffffffff811115610a5157610a506113f6565b5b808601610a5e8982610c2a565b85526020850194506020840193505050600181019050610a2e565b5050509392505050565b6000610a96610a918461116e565b6110f1565b90508083825260208201905082856020860282011115610ab957610ab86113fb565b5b60005b85811015610ae95781610acf8882610c58565b845260208401935060208301925050600181019050610abc565b5050509392505050565b6000610b06610b018461119a565b6110f1565b905082815260208101848484011115610b2257610b21611400565b5b610b2d8482856112a8565b509392505050565b600081359050610b44816114e7565b92915050565b600082601f830112610b5f57610b5e6113f6565b5b8135610b6f848260208601610985565b91505092915050565b600082601f830112610b8d57610b8c6113f6565b5b8135610b9d8482602086016109f5565b91505092915050565b600082601f830112610bbb57610bba6113f6565b5b8135610bcb848260208601610a83565b91505092915050565b60008083601f840112610bea57610be96113f6565b5b8235905067ffffffffffffffff811115610c0757610c066113f1565b5b602083019150836001820283011115610c2357610c226113fb565b5b9250929050565b600082601f830112610c3f57610c3e6113f6565b5b8135610c4f848260208601610af3565b91505092915050565b600081359050610c67816114fe565b92915050565b600081519050610c7c816114fe565b92915050565b600060208284031215610c9857610c9761140a565b5b6000610ca684828501610b35565b91505092915050565b600080600080600060808688031215610ccb57610cca61140a565b5b6000610cd988828901610b35565b9550506020610cea88828901610b35565b9450506040610cfb88828901610c58565b935050606086013567ffffffffffffffff811115610d1c57610d1b611405565b5b610d2888828901610bd4565b92509250509295509295909350565b600060208284031215610d4d57610d4c61140a565b5b6000610d5b84828501610c6d565b91505092915050565b600080600080600060a08688031215610d8057610d7f61140a565b5b6000610d8e88828901610c58565b955050602086013567ffffffffffffffff811115610daf57610dae611405565b5b610dbb88828901610b78565b945050604086013567ffffffffffffffff811115610ddc57610ddb611405565b5b610de888828901610b4a565b935050606086013567ffffffffffffffff811115610e0957610e08611405565b5b610e1588828901610ba6565b925050608086013567ffffffffffffffff811115610e3657610e35611405565b5b610e4288828901610b78565b9150509295509295909350565b610e58816111f8565b82525050565b610e678161120a565b82525050565b6000610e78826111cb565b610e8281856111d6565b9350610e928185602086016112b7565b610e9b8161140f565b840191505092915050565b610eaf81611260565b82525050565b610ebe81611272565b82525050565b6000610ed16026836111e7565b9150610edc82611420565b604082019050919050565b6000610ef46020836111e7565b9150610eff8261146f565b602082019050919050565b6000610f17603a836111e7565b9150610f2282611498565b604082019050919050565b610f3681611256565b82525050565b6000602082019050610f516000830184610e4f565b92915050565b6000606082019050610f6c6000830186610e4f565b610f796020830185610e4f565b610f866040830184610f2d565b949350505050565b6000602082019050610fa36000830184610e5e565b92915050565b6000602082019050610fbe6000830184610ea6565b92915050565b6000602082019050610fd96000830184610eb5565b92915050565b60006020820190508181036000830152610ff881610ec4565b9050919050565b6000602082019050818103600083015261101881610ee7565b9050919050565b6000602082019050818103600083015261103881610f0a565b9050919050565b60006020820190506110546000830184610f2d565b92915050565b600060408201905061106f6000830185610f2d565b61107c6020830184610e4f565b9392505050565b60006040820190506110986000830185610f2d565b81810360208301526110aa8184610e6d565b90509392505050565b60006060820190506110c86000830186610f2d565b6110d56020830185610f2d565b81810360408301526110e78184610e6d565b9050949350505050565b60006110fb61110c565b905061110782826112ea565b919050565b6000604051905090565b600067ffffffffffffffff821115611131576111306113c2565b5b602082029050602081019050919050565b600067ffffffffffffffff82111561115d5761115c6113c2565b5b602082029050602081019050919050565b600067ffffffffffffffff821115611189576111886113c2565b5b602082029050602081019050919050565b600067ffffffffffffffff8211156111b5576111b46113c2565b5b6111be8261140f565b9050602081019050919050565b600081519050919050565b600082825260208201905092915050565b600082825260208201905092915050565b600061120382611236565b9050919050565b60007fffffffff0000000000000000000000000000000000000000000000000000000082169050919050565b600073ffffffffffffffffffffffffffffffffffffffff82169050919050565b6000819050919050565b600061126b82611284565b9050919050565b600061127d82611284565b9050919050565b600061128f82611296565b9050919050565b60006112a182611236565b9050919050565b82818337600083830152505050565b60005b838110156112d55780820151818401526020810190506112ba565b838111156112e4576000848401525b50505050565b6112f38261140f565b810181811067ffffffffffffffff82111715611312576113116113c2565b5b80604052505050565b600061132682611256565b91507fffffffffffffffffffffffffffffffffffffffffffffffffffffffffffffffff82141561135957611358611364565b5b600182019050919050565b7f4e487b7100000000000000000000000000000000000000000000000000000000600052601160045260246000fd5b7f4e487b7100000000000000000000000000000000000000000000000000000000600052603260045260246000fd5b7f4e487b7100000000000000000000000000000000000000000000000000000000600052604160045260246000fd5b600080fd5b600080fd5b600080fd5b600080fd5b600080fd5b600080fd5b6000601f19601f8301169050919050565b7f4f776e61626c653a206e6577206f776e657220697320746865207a65726f206160008201527f6464726573730000000000000000000000000000000000000000000000000000602082015250565b7f4f776e61626c653a2063616c6c6572206973206e6f7420746865206f776e6572600082015250565b7f504b5048656c7065723a206f6e6c792061636365707473207472616e7366657260008201527f732066726f6d2074686520504b504e465420636f6e7472616374000000000000602082015250565b6114f0816111f8565b81146114fb57600080fd5b50565b61150781611256565b811461151257600080fd5b5056fea264697066735822122072f702ffac2f756186a5405dbb2a3dcc81fe9d73fec0ce2dd44e7e313bcd92c464736f6c63430008070033",
  "linkReferences": {},
  "deployedLinkReferences": {}
}