{
  "_format": "hh-sol-artifact-1",
  "contractName": "PubkeyRouterAndPermissions",
  "sourceName": "contracts/PubkeyRouterAndPermissions.sol",
  "abi": [
    {
      "inputs": [
        {
          "internalType": "address",
          "name": "_pkpNft",
          "type": "address"
        }
      ],
      "stateMutability": "nonpayable",
      "type": "constructor"
    },
    {
      "anonymous": false,
      "inputs": [
        {
          "indexed": true,
          "internalType": "address",
          "name": "previousOwner",
          "type": "address"
        },
        {
          "indexed": true,
          "internalType": "address",
          "name": "newOwner",
          "type": "address"
        }
      ],
      "name": "OwnershipTransferred",
      "type": "event"
    },
    {
      "anonymous": false,
      "inputs": [
        {
          "indexed": true,
          "internalType": "uint256",
          "name": "tokenId",
          "type": "uint256"
        },
        {
          "indexed": false,
          "internalType": "bytes32",
          "name": "ipfsId",
          "type": "bytes32"
        }
      ],
      "name": "PermittedActionAdded",
      "type": "event"
    },
    {
      "anonymous": false,
      "inputs": [
        {
          "indexed": true,
          "internalType": "uint256",
          "name": "tokenId",
          "type": "uint256"
        },
        {
          "indexed": false,
          "internalType": "bytes32",
          "name": "ipfsId",
          "type": "bytes32"
        }
      ],
      "name": "PermittedActionRemoved",
      "type": "event"
    },
    {
      "anonymous": false,
      "inputs": [
        {
          "indexed": true,
          "internalType": "uint256",
          "name": "tokenId",
          "type": "uint256"
        },
        {
          "indexed": false,
          "internalType": "address",
          "name": "user",
          "type": "address"
        }
      ],
      "name": "PermittedAddressAdded",
      "type": "event"
    },
    {
      "anonymous": false,
      "inputs": [
        {
          "indexed": true,
          "internalType": "uint256",
          "name": "tokenId",
          "type": "uint256"
        },
        {
          "indexed": false,
          "internalType": "address",
          "name": "user",
          "type": "address"
        }
      ],
      "name": "PermittedAddressRemoved",
      "type": "event"
    },
    {
      "anonymous": false,
      "inputs": [
        {
          "indexed": true,
          "internalType": "uint256",
          "name": "tokenId",
          "type": "uint256"
        },
        {
          "indexed": false,
          "internalType": "uint256",
          "name": "authMethodId",
          "type": "uint256"
        }
      ],
      "name": "PermittedAuthMethodAdded",
      "type": "event"
    },
    {
      "anonymous": false,
      "inputs": [
        {
          "indexed": true,
          "internalType": "uint256",
          "name": "tokenId",
          "type": "uint256"
        },
        {
          "indexed": false,
          "internalType": "uint256",
          "name": "authMethodId",
          "type": "uint256"
        }
      ],
      "name": "PermittedAuthMethodRemoved",
      "type": "event"
    },
    {
      "anonymous": false,
      "inputs": [
        {
          "indexed": true,
          "internalType": "uint256",
          "name": "tokenId",
          "type": "uint256"
        },
        {
          "indexed": false,
          "internalType": "bytes32",
          "name": "keyPart1",
          "type": "bytes32"
        },
        {
          "indexed": false,
          "internalType": "bytes32",
          "name": "keyPart2",
          "type": "bytes32"
        },
        {
          "indexed": false,
          "internalType": "uint256",
          "name": "keyLength",
          "type": "uint256"
        },
        {
          "indexed": false,
          "internalType": "address",
          "name": "stakingContract",
          "type": "address"
        },
        {
          "indexed": false,
          "internalType": "uint256",
          "name": "keyType",
          "type": "uint256"
        }
      ],
      "name": "PubkeyRoutingDataSet",
      "type": "event"
    },
    {
      "inputs": [
        {
          "internalType": "uint256",
          "name": "tokenId",
          "type": "uint256"
        },
        {
          "internalType": "bytes",
          "name": "ipfsCID",
          "type": "bytes"
        }
      ],
      "name": "addPermittedAction",
      "outputs": [],
      "stateMutability": "nonpayable",
      "type": "function"
    },
    {
      "inputs": [
        {
          "internalType": "uint256",
          "name": "tokenId",
          "type": "uint256"
        },
        {
          "internalType": "address",
          "name": "user",
          "type": "address"
        }
      ],
      "name": "addPermittedAddress",
      "outputs": [],
      "stateMutability": "nonpayable",
      "type": "function"
    },
    {
      "inputs": [
        {
          "internalType": "uint256",
          "name": "tokenId",
          "type": "uint256"
        },
        {
          "internalType": "uint256",
          "name": "authMethodType",
          "type": "uint256"
        },
        {
          "internalType": "bytes",
          "name": "userId",
          "type": "bytes"
        }
      ],
      "name": "addPermittedAuthMethod",
      "outputs": [],
      "stateMutability": "nonpayable",
      "type": "function"
    },
    {
      "inputs": [
        {
          "internalType": "uint256",
          "name": "",
          "type": "uint256"
        }
      ],
      "name": "authMethods",
      "outputs": [
        {
          "internalType": "uint256",
          "name": "authMethodType",
          "type": "uint256"
        },
        {
          "internalType": "bytes",
          "name": "userId",
          "type": "bytes"
        }
      ],
      "stateMutability": "view",
      "type": "function"
    },
    {
      "inputs": [
        {
          "internalType": "uint256",
          "name": "authMethodType",
          "type": "uint256"
        },
        {
          "internalType": "bytes",
          "name": "userId",
          "type": "bytes"
        }
      ],
      "name": "getAuthMethodId",
      "outputs": [
        {
          "internalType": "uint256",
          "name": "",
          "type": "uint256"
        }
      ],
      "stateMutability": "pure",
      "type": "function"
    },
    {
      "inputs": [
        {
          "internalType": "uint256",
          "name": "tokenId",
          "type": "uint256"
        }
      ],
      "name": "getEcdsaPubkey",
      "outputs": [
        {
          "internalType": "bytes",
          "name": "",
          "type": "bytes"
        }
      ],
      "stateMutability": "view",
      "type": "function"
    },
    {
      "inputs": [
        {
          "internalType": "uint256",
          "name": "tokenId",
          "type": "uint256"
        }
      ],
      "name": "getEthAddress",
      "outputs": [
        {
          "internalType": "address",
          "name": "",
          "type": "address"
        }
      ],
      "stateMutability": "view",
      "type": "function"
    },
    {
      "inputs": [
        {
          "internalType": "uint256",
          "name": "tokenId",
          "type": "uint256"
        }
      ],
      "name": "getFullPubkey",
      "outputs": [
        {
          "internalType": "bytes",
          "name": "",
          "type": "bytes"
        }
      ],
      "stateMutability": "view",
      "type": "function"
    },
    {
      "inputs": [
        {
          "internalType": "uint256",
          "name": "tokenId",
          "type": "uint256"
        }
      ],
      "name": "getPermittedActions",
      "outputs": [
        {
          "internalType": "bytes[]",
          "name": "",
          "type": "bytes[]"
        }
      ],
      "stateMutability": "view",
      "type": "function"
    },
    {
      "inputs": [
        {
          "internalType": "uint256",
          "name": "tokenId",
          "type": "uint256"
        }
      ],
      "name": "getPermittedAddresses",
      "outputs": [
        {
          "internalType": "address[]",
          "name": "",
          "type": "address[]"
        }
      ],
      "stateMutability": "view",
      "type": "function"
    },
    {
      "inputs": [
        {
          "internalType": "uint256",
          "name": "tokenId",
          "type": "uint256"
        }
      ],
      "name": "getPermittedAuthMethods",
      "outputs": [
        {
          "components": [
            {
              "internalType": "uint256",
              "name": "authMethodType",
              "type": "uint256"
            },
            {
              "internalType": "bytes",
              "name": "userId",
              "type": "bytes"
            }
          ],
          "internalType": "struct PubkeyRouterAndPermissions.AuthMethod[]",
          "name": "",
          "type": "tuple[]"
        }
      ],
      "stateMutability": "view",
      "type": "function"
    },
    {
      "inputs": [
        {
          "internalType": "uint256",
          "name": "tokenId",
          "type": "uint256"
        }
      ],
      "name": "getRoutingData",
      "outputs": [
        {
          "components": [
            {
              "internalType": "bytes32",
              "name": "keyPart1",
              "type": "bytes32"
            },
            {
              "internalType": "bytes32",
              "name": "keyPart2",
              "type": "bytes32"
            },
            {
              "internalType": "uint256",
              "name": "keyLength",
              "type": "uint256"
            },
            {
              "internalType": "address",
              "name": "stakingContract",
              "type": "address"
            },
            {
              "internalType": "uint256",
              "name": "keyType",
              "type": "uint256"
            }
          ],
          "internalType": "struct PubkeyRouterAndPermissions.PubkeyRoutingData",
          "name": "",
          "type": "tuple"
        }
      ],
      "stateMutability": "view",
      "type": "function"
    },
    {
      "inputs": [
        {
          "internalType": "uint256",
          "name": "authMethodType",
          "type": "uint256"
        },
        {
          "internalType": "bytes",
          "name": "userId",
          "type": "bytes"
        }
      ],
      "name": "getTokenIdsForAuthMethod",
      "outputs": [
        {
          "internalType": "uint256[]",
          "name": "",
          "type": "uint256[]"
        }
      ],
      "stateMutability": "view",
      "type": "function"
    },
    {
      "inputs": [
        {
          "internalType": "bytes32",
          "name": "",
          "type": "bytes32"
        }
      ],
      "name": "ipfsIds",
      "outputs": [
        {
          "internalType": "bytes",
          "name": "",
          "type": "bytes"
        }
      ],
      "stateMutability": "view",
      "type": "function"
    },
    {
      "inputs": [
        {
          "internalType": "uint256",
          "name": "tokenId",
          "type": "uint256"
        },
        {
          "internalType": "bytes",
          "name": "ipfsCID",
          "type": "bytes"
        }
      ],
      "name": "isPermittedAction",
      "outputs": [
        {
          "internalType": "bool",
          "name": "",
          "type": "bool"
        }
      ],
      "stateMutability": "view",
      "type": "function"
    },
    {
      "inputs": [
        {
          "internalType": "uint256",
          "name": "tokenId",
          "type": "uint256"
        },
        {
          "internalType": "address",
          "name": "user",
          "type": "address"
        }
      ],
      "name": "isPermittedAddress",
      "outputs": [
        {
          "internalType": "bool",
          "name": "",
          "type": "bool"
        }
      ],
      "stateMutability": "view",
      "type": "function"
    },
    {
      "inputs": [
        {
          "internalType": "uint256",
          "name": "tokenId",
          "type": "uint256"
        },
        {
          "internalType": "uint256",
          "name": "authMethodType",
          "type": "uint256"
        },
        {
          "internalType": "bytes",
          "name": "userId",
          "type": "bytes"
        }
      ],
      "name": "isPermittedAuthMethod",
      "outputs": [
        {
          "internalType": "bool",
          "name": "",
          "type": "bool"
        }
      ],
      "stateMutability": "view",
      "type": "function"
    },
    {
      "inputs": [
        {
          "internalType": "uint256",
          "name": "tokenId",
          "type": "uint256"
        }
      ],
      "name": "isRouted",
      "outputs": [
        {
          "internalType": "bool",
          "name": "",
          "type": "bool"
        }
      ],
      "stateMutability": "view",
      "type": "function"
    },
    {
      "inputs": [],
      "name": "owner",
      "outputs": [
        {
          "internalType": "address",
          "name": "",
          "type": "address"
        }
      ],
      "stateMutability": "view",
      "type": "function"
    },
    {
      "inputs": [],
      "name": "pkpNFT",
      "outputs": [
        {
          "internalType": "contract PKPNFT",
          "name": "",
          "type": "address"
        }
      ],
      "stateMutability": "view",
      "type": "function"
    },
    {
      "inputs": [
        {
          "internalType": "uint256",
          "name": "",
          "type": "uint256"
        }
      ],
      "name": "pubkeyRegistrations",
      "outputs": [
        {
          "components": [
            {
              "internalType": "bytes32",
              "name": "keyPart1",
              "type": "bytes32"
            },
            {
              "internalType": "bytes32",
              "name": "keyPart2",
              "type": "bytes32"
            },
            {
              "internalType": "uint256",
              "name": "keyLength",
              "type": "uint256"
            },
            {
              "internalType": "address",
              "name": "stakingContract",
              "type": "address"
            },
            {
              "internalType": "uint256",
              "name": "keyType",
              "type": "uint256"
            }
          ],
          "internalType": "struct PubkeyRouterAndPermissions.PubkeyRoutingData",
          "name": "routingData",
          "type": "tuple"
        },
        {
          "internalType": "uint256",
          "name": "nodeVoteCount",
          "type": "uint256"
        },
        {
          "internalType": "uint256",
          "name": "nodeVoteThreshold",
          "type": "uint256"
        }
      ],
      "stateMutability": "view",
      "type": "function"
    },
    {
      "inputs": [
        {
          "internalType": "uint256",
          "name": "",
          "type": "uint256"
        }
      ],
      "name": "pubkeys",
      "outputs": [
        {
          "internalType": "bytes32",
          "name": "keyPart1",
          "type": "bytes32"
        },
        {
          "internalType": "bytes32",
          "name": "keyPart2",
          "type": "bytes32"
        },
        {
          "internalType": "uint256",
          "name": "keyLength",
          "type": "uint256"
        },
        {
          "internalType": "address",
          "name": "stakingContract",
          "type": "address"
        },
        {
          "internalType": "uint256",
          "name": "keyType",
          "type": "uint256"
        }
      ],
      "stateMutability": "view",
      "type": "function"
    },
    {
      "inputs": [
        {
          "internalType": "uint256",
          "name": "tokenId",
          "type": "uint256"
        },
        {
          "internalType": "bytes",
          "name": "ipfsCID",
          "type": "bytes"
        }
      ],
      "name": "removePermittedAction",
      "outputs": [],
      "stateMutability": "nonpayable",
      "type": "function"
    },
    {
      "inputs": [
        {
          "internalType": "uint256",
          "name": "tokenId",
          "type": "uint256"
        },
        {
          "internalType": "address",
          "name": "user",
          "type": "address"
        }
      ],
      "name": "removePermittedAddress",
      "outputs": [],
      "stateMutability": "nonpayable",
      "type": "function"
    },
    {
      "inputs": [
        {
          "internalType": "uint256",
          "name": "tokenId",
          "type": "uint256"
        },
        {
          "internalType": "uint256",
          "name": "authMethodType",
          "type": "uint256"
        },
        {
          "internalType": "bytes",
          "name": "userId",
          "type": "bytes"
        }
      ],
      "name": "removePermittedAuthMethod",
      "outputs": [],
      "stateMutability": "nonpayable",
      "type": "function"
    },
    {
      "inputs": [],
      "name": "renounceOwnership",
      "outputs": [],
      "stateMutability": "nonpayable",
      "type": "function"
    },
    {
      "inputs": [
        {
          "internalType": "address",
          "name": "newPkpNftAddress",
          "type": "address"
        }
      ],
      "name": "setPkpNftAddress",
      "outputs": [],
      "stateMutability": "nonpayable",
      "type": "function"
    },
    {
      "inputs": [
        {
          "internalType": "uint256",
          "name": "tokenId",
          "type": "uint256"
        },
        {
          "internalType": "bytes32",
          "name": "keyPart1",
          "type": "bytes32"
        },
        {
          "internalType": "bytes32",
          "name": "keyPart2",
          "type": "bytes32"
        },
        {
          "internalType": "uint256",
          "name": "keyLength",
          "type": "uint256"
        },
        {
          "internalType": "address",
          "name": "stakingContract",
          "type": "address"
        },
        {
          "internalType": "uint256",
          "name": "keyType",
          "type": "uint256"
        }
      ],
      "name": "setRoutingData",
      "outputs": [],
      "stateMutability": "nonpayable",
      "type": "function"
    },
    {
      "inputs": [
        {
          "internalType": "address",
          "name": "newOwner",
          "type": "address"
        }
      ],
      "name": "transferOwnership",
      "outputs": [],
      "stateMutability": "nonpayable",
      "type": "function"
    },
    {
      "inputs": [
        {
          "internalType": "uint256",
          "name": "tokenId",
          "type": "uint256"
        },
        {
          "internalType": "bytes32",
          "name": "keyPart1",
          "type": "bytes32"
        },
        {
          "internalType": "bytes32",
          "name": "keyPart2",
          "type": "bytes32"
        },
        {
          "internalType": "uint256",
          "name": "keyLength",
          "type": "uint256"
        },
        {
          "internalType": "address",
          "name": "stakingContract",
          "type": "address"
        },
        {
          "internalType": "uint256",
          "name": "keyType",
          "type": "uint256"
        }
      ],
      "name": "voteForRoutingData",
      "outputs": [],
      "stateMutability": "nonpayable",
      "type": "function"
    }
  ],
  "bytecode": "0x60806040523480156200001157600080fd5b506040516200497738038062004977833981810160405281019062000037919062000182565b620000576200004b6200009f60201b60201c565b620000a760201b60201c565b80600160006101000a81548173ffffffffffffffffffffffffffffffffffffffff021916908373ffffffffffffffffffffffffffffffffffffffff1602179055505062000207565b600033905090565b60008060009054906101000a900473ffffffffffffffffffffffffffffffffffffffff169050816000806101000a81548173ffffffffffffffffffffffffffffffffffffffff021916908373ffffffffffffffffffffffffffffffffffffffff1602179055508173ffffffffffffffffffffffffffffffffffffffff168173ffffffffffffffffffffffffffffffffffffffff167f8be0079c531659141344cd1fd0a4f28419497f9722a3daafe3b4186f6b6457e060405160405180910390a35050565b6000815190506200017c81620001ed565b92915050565b6000602082840312156200019b576200019a620001e8565b5b6000620001ab848285016200016b565b91505092915050565b6000620001c182620001c8565b9050919050565b600073ffffffffffffffffffffffffffffffffffffffff82169050919050565b600080fd5b620001f881620001b4565b81146200020457600080fd5b50565b61476080620002176000396000f3fe608060405234801561001057600080fd5b50600436106101d85760003560e01c80637bd3e3f611610104578063bb7a1070116100a2578063f2fde38b11610071578063f2fde38b146105d8578063f34f21ba146105f4578063fceb398314610624578063ffa2e95314610654576101d8565b8063bb7a10701461052c578063bd4986a01461055c578063bf468c8b1461058c578063d41a3272146105bc576101d8565b8063abc541ae116100de578063abc541ae1461047e578063b3fe5cf2146104ae578063b4cbac1e146104e0578063b997606f14610510576101d8565b80637bd3e3f6146104105780638da5cb5b146104445780639e69c33414610462576101d8565b80633699983c1161017c57806366fc65411161014b57806366fc6541146103b2578063715018a6146103ce57806375bdaa9c146103d85780637acf14cc146103f4576101d8565b80633699983c1461031a57806354b06ae3146103365780635521c45214610352578063557b5eba14610382576101d8565b8063176354fd116101b8578063176354fd1461026d57806318a100c71461028957806325c836f9146102b95780632657768b146102e9576101d8565b80618b4f146101dd57806301c6d0351461020d5780630a60950d1461023d575b600080fd5b6101f760048036038101906101f29190613313565b610672565b6040516102049190613b67565b60405180910390f35b610227600480360381019061022291906132b9565b610781565b6040516102349190613b67565b60405180910390f35b610257600480360381019061025291906133e0565b610894565b6040516102649190613e3f565b60405180910390f35b61028760048036038101906102829190613205565b6108ca565b005b6102a3600480360381019061029e919061328c565b610916565b6040516102b09190613bf0565b60405180910390f35b6102d360048036038101906102ce91906132b9565b6109b6565b6040516102e09190613ded565b60405180910390f35b61030360048036038101906102fe91906132b9565b610a61565b604051610311929190613e5a565b60405180910390f35b610334600480360381019061032f919061343c565b610b0d565b005b610350600480360381019061034b91906133e0565b610d27565b005b61036c600480360381019061036791906133e0565b610ee2565b6040516103799190613b45565b60405180910390f35b61039c6004803603810190610397919061343c565b610fcd565b6040516103a99190613b67565b60405180910390f35b6103cc60048036038101906103c7919061343c565b61100b565b005b6103d66111cd565b005b6103f260048036038101906103ed9190613353565b6111e1565b005b61040e60048036038101906104099190613313565b611a5e565b005b61042a600480360381019061042591906132b9565b611be4565b60405161043b959493929190613b9d565b60405180910390f35b61044c611c3a565b6040516104599190613ac4565b60405180910390f35b61047c60048036038101906104779190613353565b611c63565b005b610498600480360381019061049391906132b9565b611e03565b6040516104a59190613adf565b60405180910390f35b6104c860048036038101906104c391906132b9565b612023565b6040516104d793929190613e08565b60405180910390f35b6104fa60048036038101906104f591906132b9565b6120d5565b6040516105079190613bf0565b60405180910390f35b61052a60048036038101906105259190613313565b61217f565b005b610546600480360381019061054191906132b9565b612305565b6040516105539190613b01565b60405180910390f35b610576600480360381019061057191906132b9565b612485565b6040516105839190613ac4565b60405180910390f35b6105a660048036038101906105a191906132b9565b612503565b6040516105b39190613bf0565b60405180910390f35b6105d660048036038101906105d191906133e0565b612559565b005b6105f260048036038101906105ed9190613205565b6126ec565b005b61060e600480360381019061060991906132b9565b612770565b60405161061b9190613b23565b60405180910390f35b61063e600480360381019061063991906133e0565b612914565b60405161064b9190613b67565b60405180910390f35b61065c61294f565b6040516106699190613c12565b60405180910390f35b60008173ffffffffffffffffffffffffffffffffffffffff16600160009054906101000a900473ffffffffffffffffffffffffffffffffffffffff1673ffffffffffffffffffffffffffffffffffffffff16636352211e856040518263ffffffff1660e01b81526004016106e69190613e3f565b60206040518083038186803b1580156106fe57600080fd5b505afa158015610712573d6000803e3d6000fd5b505050506040513d601f19601f820116820180604052508101906107369190613232565b73ffffffffffffffffffffffffffffffffffffffff1614806107795750610778826004600086815260200190815260200160002061297590919063ffffffff16565b5b905092915050565b600080600260008481526020019081526020016000206040518060a00160405290816000820154815260200160018201548152602001600282015481526020016003820160009054906101000a900473ffffffffffffffffffffffffffffffffffffffff1673ffffffffffffffffffffffffffffffffffffffff1673ffffffffffffffffffffffffffffffffffffffff16815260200160048201548152505090506000801b81600001511415801561083e57506000816040015114155b801561084f57506000816080015114155b801561088c5750600073ffffffffffffffffffffffffffffffffffffffff16816060015173ffffffffffffffffffffffffffffffffffffffff1614155b915050919050565b600082826040516020016108a9929190613e5a565b6040516020818303038152906040528051906020012060001c905092915050565b6108d26129a5565b80600160006101000a81548173ffffffffffffffffffffffffffffffffffffffff021916908373ffffffffffffffffffffffffffffffffffffffff16021790555050565b60056020528060005260406000206000915090508054610935906141b6565b80601f0160208091040260200160405190810160405280929190818152602001828054610961906141b6565b80156109ae5780601f10610983576101008083540402835291602001916109ae565b820191906000526020600020905b81548152906001019060200180831161099157829003601f168201915b505050505081565b6109be61300f565b600260008381526020019081526020016000206040518060a00160405290816000820154815260200160018201548152602001600282015481526020016003820160009054906101000a900473ffffffffffffffffffffffffffffffffffffffff1673ffffffffffffffffffffffffffffffffffffffff1673ffffffffffffffffffffffffffffffffffffffff1681526020016004820154815250509050919050565b6008602052806000526040600020600091509050806000015490806001018054610a8a906141b6565b80601f0160208091040260200160405190810160405280929190818152602001828054610ab6906141b6565b8015610b035780601f10610ad857610100808354040283529160200191610b03565b820191906000526020600020905b815481529060010190602001808311610ae657829003601f168201915b5050505050905082565b6000600160009054906101000a900473ffffffffffffffffffffffffffffffffffffffff1673ffffffffffffffffffffffffffffffffffffffff16636352211e856040518263ffffffff1660e01b8152600401610b6a9190613e3f565b60206040518083038186803b158015610b8257600080fd5b505afa158015610b96573d6000803e3d6000fd5b505050506040513d601f19601f82011682018060405250810190610bba9190613232565b90508073ffffffffffffffffffffffffffffffffffffffff163373ffffffffffffffffffffffffffffffffffffffff1614610c2a576040517f08c379a0000000000000000000000000000000000000000000000000000000008152600401610c2190613d8d565b60405180910390fd5b600060405180604001604052808581526020018481525090506000610c4f8585610894565b90508160086000838152602001908152602001600020600082015181600001556020820151816001019080519060200190610c8b92919061305a565b509050506000600760008881526020019081526020016000209050610cb98282612a2390919063ffffffff16565b506000600960008481526020019081526020016000209050610ce48882612a2390919063ffffffff16565b50877f4dfd4dcf9a32ea95463b7eb5dff1641e34fce1c73bb3a2825a57dade392fdbd184604051610d159190613e3f565b60405180910390a25050505050505050565b6000600160009054906101000a900473ffffffffffffffffffffffffffffffffffffffff1673ffffffffffffffffffffffffffffffffffffffff16636352211e846040518263ffffffff1660e01b8152600401610d849190613e3f565b60206040518083038186803b158015610d9c57600080fd5b505afa158015610db0573d6000803e3d6000fd5b505050506040513d601f19601f82011682018060405250810190610dd49190613232565b90508073ffffffffffffffffffffffffffffffffffffffff163373ffffffffffffffffffffffffffffffffffffffff1614610e44576040517f08c379a0000000000000000000000000000000000000000000000000000000008152600401610e3b90613d6d565b60405180910390fd5b60008280519060200120905082600560008381526020019081526020016000209080519060200190610e7792919061305a565b506000600660008681526020019081526020016000209050610ea28282612a3d90919063ffffffff16565b50847fec2295902b2b8fb0f8b5117e543de24eb20bc67999581d476afa0c6ce35d2a2883604051610ed39190613b82565b60405180910390a25050505050565b60606000610ef08484610894565b90506000610f0f60096000848152602001908152602001600020612a54565b905060008167ffffffffffffffff811115610f2d57610f2c614332565b5b604051908082528060200260200182016040528015610f5b5781602001602082028036833780820191505090505b50905060005b82811015610fc057610f8e8160096000878152602001908152602001600020612a6990919063ffffffff16565b828281518110610fa157610fa0614303565b5b6020026020010181815250508080610fb890614219565b915050610f61565b5080935050505092915050565b600080610fda8484610894565b90506110018160076000888152602001908152602001600020612a8390919063ffffffff16565b9150509392505050565b6000600160009054906101000a900473ffffffffffffffffffffffffffffffffffffffff1673ffffffffffffffffffffffffffffffffffffffff16636352211e856040518263ffffffff1660e01b81526004016110689190613e3f565b60206040518083038186803b15801561108057600080fd5b505afa158015611094573d6000803e3d6000fd5b505050506040513d601f19601f820116820180604052508101906110b89190613232565b90508073ffffffffffffffffffffffffffffffffffffffff163373ffffffffffffffffffffffffffffffffffffffff1614611128576040517f08c379a000000000000000000000000000000000000000000000000000000000815260040161111f90613cad565b60405180910390fd5b60006111348484610894565b905060006007600087815260200190815260200160002090506111608282612a9d90919063ffffffff16565b50600060096000848152602001908152602001600020905061118b8782612a9d90919063ffffffff16565b50867f1aa1f7dee6684d9bcef44513d98e6372c9d1ee95583cf0463afb97b91cec225d846040516111bc9190613e3f565b60405180910390a250505050505050565b6111d56129a5565b6111df6000612ab7565b565b600082905060008173ffffffffffffffffffffffffffffffffffffffff16635081f66f336040518263ffffffff1660e01b81526004016112219190613ac4565b60206040518083038186803b15801561123957600080fd5b505afa15801561124d573d6000803e3d6000fd5b505050506040513d601f19601f820116820180604052508101906112719190613232565b90508173ffffffffffffffffffffffffffffffffffffffff166340550a1c826040518263ffffffff1660e01b81526004016112ac9190613ac4565b60206040518083038186803b1580156112c457600080fd5b505afa1580156112d8573d6000803e3d6000fd5b505050506040513d601f19601f820116820180604052508101906112fc919061325f565b61133b576040517f08c379a000000000000000000000000000000000000000000000000000000000815260040161133290613d0d565b60405180910390fd5b6003600089815260200190815260200160002060070160003373ffffffffffffffffffffffffffffffffffffffff1673ffffffffffffffffffffffffffffffffffffffff16815260200190815260200160002060009054906101000a900460ff16156113dc576040517f08c379a00000000000000000000000000000000000000000000000000000000081526004016113d390613ccd565b60405180910390fd5b6040851115611420576040517f08c379a000000000000000000000000000000000000000000000000000000000815260040161141790613dad565b60405180910390fd5b6000600360008a815260200190815260200160002060050154141561160857600061144c888888612b7b565b9050808051906020012060001c891461149a576040517f08c379a000000000000000000000000000000000000000000000000000000000815260040161149190613c6d565b60405180910390fd5b87600360008b81526020019081526020016000206000016000018190555086600360008b81526020019081526020016000206000016001018190555085600360008b81526020019081526020016000206000016002018190555084600360008b815260200190815260200160002060000160030160006101000a81548173ffffffffffffffffffffffffffffffffffffffff021916908373ffffffffffffffffffffffffffffffffffffffff16021790555083600360008b8152602001908152602001600020600001600401819055508273ffffffffffffffffffffffffffffffffffffffff1663dd21d6266040518163ffffffff1660e01b815260040160206040518083038186803b1580156115b057600080fd5b505afa1580156115c4573d6000803e3d6000fd5b505050506040513d601f19601f820116820180604052508101906115e891906132e6565b600360008b815260200190815260200160002060060181905550506117e5565b6003600089815260200190815260200160002060000160000154871480156116485750600360008981526020019081526020016000206000016001015486145b611687576040517f08c379a000000000000000000000000000000000000000000000000000000000815260040161167e90613ced565b60405180910390fd5b600360008981526020019081526020016000206000016002015485146116e2576040517f08c379a00000000000000000000000000000000000000000000000000000000081526004016116d990613c2d565b60405180910390fd5b6003600089815260200190815260200160002060000160030160009054906101000a900473ffffffffffffffffffffffffffffffffffffffff1673ffffffffffffffffffffffffffffffffffffffff168473ffffffffffffffffffffffffffffffffffffffff1614611789576040517f08c379a000000000000000000000000000000000000000000000000000000000815260040161178090613dcd565b60405180910390fd5b600360008981526020019081526020016000206000016004015483146117e4576040517f08c379a00000000000000000000000000000000000000000000000000000000081526004016117db90613c8d565b60405180910390fd5b5b6001600360008a815260200190815260200160002060070160003373ffffffffffffffffffffffffffffffffffffffff1673ffffffffffffffffffffffffffffffffffffffff16815260200190815260200160002060006101000a81548160ff02191690831515021790555060036000898152602001908152602001600020600501600081548092919061187890614219565b91905055506003600089815260200190815260200160002060060154600360008a8152602001908152602001600020600501541180156118be57506118bc88610781565b155b15611a545786600260008a81526020019081526020016000206000018190555085600260008a81526020019081526020016000206001018190555084600260008a81526020019081526020016000206002018190555083600260008a815260200190815260200160002060030160006101000a81548173ffffffffffffffffffffffffffffffffffffffff021916908373ffffffffffffffffffffffffffffffffffffffff16021790555082600260008a815260200190815260200160002060040181905550600160009054906101000a900473ffffffffffffffffffffffffffffffffffffffff1673ffffffffffffffffffffffffffffffffffffffff16635c110a9c89856040518363ffffffff1660e01b81526004016119e1929190613e8a565b600060405180830381600087803b1580156119fb57600080fd5b505af1158015611a0f573d6000803e3d6000fd5b50505050877fbd9df2ec221082698730fd543d95a4baed9a440a6a1141194be432f45d6f65ef8888888888604051611a4b959493929190613b9d565b60405180910390a25b5050505050505050565b6000600160009054906101000a900473ffffffffffffffffffffffffffffffffffffffff1673ffffffffffffffffffffffffffffffffffffffff16636352211e846040518263ffffffff1660e01b8152600401611abb9190613e3f565b60206040518083038186803b158015611ad357600080fd5b505afa158015611ae7573d6000803e3d6000fd5b505050506040513d601f19601f82011682018060405250810190611b0b9190613232565b90508073ffffffffffffffffffffffffffffffffffffffff163373ffffffffffffffffffffffffffffffffffffffff1614611b7b576040517f08c379a0000000000000000000000000000000000000000000000000000000008152600401611b7290613cad565b60405180910390fd5b6000600460008581526020019081526020016000209050611ba58382612cc590919063ffffffff16565b50837fd19a2f498c0705681be43dd5dfd8d5345b05973c28a5171c0ec1f01e848791eb84604051611bd69190613ac4565b60405180910390a250505050565b60026020528060005260406000206000915090508060000154908060010154908060020154908060030160009054906101000a900473ffffffffffffffffffffffffffffffffffffffff16908060040154905085565b60008060009054906101000a900473ffffffffffffffffffffffffffffffffffffffff16905090565b611c6b6129a5565b846002600088815260200190815260200160002060000181905550836002600088815260200190815260200160002060010181905550826002600088815260200190815260200160002060020181905550816002600088815260200190815260200160002060030160006101000a81548173ffffffffffffffffffffffffffffffffffffffff021916908373ffffffffffffffffffffffffffffffffffffffff160217905550806002600088815260200190815260200160002060040181905550600160009054906101000a900473ffffffffffffffffffffffffffffffffffffffff1673ffffffffffffffffffffffffffffffffffffffff16635c110a9c87836040518363ffffffff1660e01b8152600401611d89929190613e8a565b600060405180830381600087803b158015611da357600080fd5b505af1158015611db7573d6000803e3d6000fd5b50505050857fbd9df2ec221082698730fd543d95a4baed9a440a6a1141194be432f45d6f65ef8686868686604051611df3959493929190613b9d565b60405180910390a2505050505050565b60606000611e2260046000858152602001908152602001600020612cf5565b90506000600182611e339190614036565b67ffffffffffffffff811115611e4c57611e4b614332565b5b604051908082528060200260200182016040528015611e7a5781602001602082028036833780820191505090505b5090506000600160009054906101000a900473ffffffffffffffffffffffffffffffffffffffff1673ffffffffffffffffffffffffffffffffffffffff16636352211e866040518263ffffffff1660e01b8152600401611eda9190613e3f565b60206040518083038186803b158015611ef257600080fd5b505afa158015611f06573d6000803e3d6000fd5b505050506040513d601f19601f82011682018060405250810190611f2a9190613232565b90508082600081518110611f4157611f40614303565b5b602002602001019073ffffffffffffffffffffffffffffffffffffffff16908173ffffffffffffffffffffffffffffffffffffffff168152505060005b8381101561201757611fab8160046000898152602001908152602001600020612d0a90919063ffffffff16565b83600183611fb99190614036565b81518110611fca57611fc9614303565b5b602002602001019073ffffffffffffffffffffffffffffffffffffffff16908173ffffffffffffffffffffffffffffffffffffffff1681525050808061200f90614219565b915050611f7e565b50819350505050919050565b6003602052806000526040600020600091509050806000016040518060a00160405290816000820154815260200160018201548152602001600282015481526020016003820160009054906101000a900473ffffffffffffffffffffffffffffffffffffffff1673ffffffffffffffffffffffffffffffffffffffff1673ffffffffffffffffffffffffffffffffffffffff168152602001600482015481525050908060050154908060060154905083565b60606002806000848152602001908152602001600020600401541461214957600067ffffffffffffffff81111561210f5761210e614332565b5b6040519080825280601f01601f1916602001820160405280156121415781602001600182028036833780820191505090505b50905061217a565b600460f81b61215783612503565b604051602001612168929190613a81565b60405160208183030381529060405290505b919050565b6000600160009054906101000a900473ffffffffffffffffffffffffffffffffffffffff1673ffffffffffffffffffffffffffffffffffffffff16636352211e846040518263ffffffff1660e01b81526004016121dc9190613e3f565b60206040518083038186803b1580156121f457600080fd5b505afa158015612208573d6000803e3d6000fd5b505050506040513d601f19601f8201168201806040525081019061222c9190613232565b90508073ffffffffffffffffffffffffffffffffffffffff163373ffffffffffffffffffffffffffffffffffffffff161461229c576040517f08c379a000000000000000000000000000000000000000000000000000000000815260040161229390613cad565b60405180910390fd5b60006004600085815260200190815260200160002090506122c68382612d2490919063ffffffff16565b50837fc646365ec693b9b569c52934b6e717f1970222cb659698ebf3f3986a7ff4f7e0846040516122f79190613ac4565b60405180910390a250505050565b6060600061232460066000858152602001908152602001600020612d54565b905060008167ffffffffffffffff81111561234257612341614332565b5b60405190808252806020026020018201604052801561237557816020015b60608152602001906001900390816123605790505b50905060005b8281101561247a5760006123aa8260066000898152602001908152602001600020612d6990919063ffffffff16565b90506005600082815260200190815260200160002080546123ca906141b6565b80601f01602080910402602001604051908101604052809291908181526020018280546123f6906141b6565b80156124435780601f1061241857610100808354040283529160200191612443565b820191906000526020600020905b81548152906001019060200180831161242657829003601f168201915b505050505083838151811061245b5761245a614303565b5b602002602001018190525050808061247290614219565b91505061237b565b508092505050919050565b6000600280600084815260200190815260200160002060040154146124ad57600090506124fe565b60006124b883612503565b9050600081805190602001206040516020016124d49190613aa9565b60405160208183030381529060405290506124f9600c82612d8090919063ffffffff16565b925050505b919050565b6060612552600260008481526020019081526020016000206000015460026000858152602001908152602001600020600101546002600086815260200190815260200160002060020154612b7b565b9050919050565b6000600160009054906101000a900473ffffffffffffffffffffffffffffffffffffffff1673ffffffffffffffffffffffffffffffffffffffff16636352211e846040518263ffffffff1660e01b81526004016125b69190613e3f565b60206040518083038186803b1580156125ce57600080fd5b505afa1580156125e2573d6000803e3d6000fd5b505050506040513d601f19601f820116820180604052508101906126069190613232565b90508073ffffffffffffffffffffffffffffffffffffffff163373ffffffffffffffffffffffffffffffffffffffff1614612676576040517f08c379a000000000000000000000000000000000000000000000000000000000815260040161266d90613d6d565b60405180910390fd5b60008280519060200120905060006006600086815260200190815260200160002090506126ac8282612df690919063ffffffff16565b50847fd85edc8411e3e8eceb3849d5f7dd1f642cb1671f8c3c26f987464e2d10eb1aa9836040516126dd9190613b82565b60405180910390a25050505050565b6126f46129a5565b600073ffffffffffffffffffffffffffffffffffffffff168173ffffffffffffffffffffffffffffffffffffffff161415612764576040517f08c379a000000000000000000000000000000000000000000000000000000000815260040161275b90613c4d565b60405180910390fd5b61276d81612ab7565b50565b6060600061278f60076000858152602001908152602001600020612a54565b905060008167ffffffffffffffff8111156127ad576127ac614332565b5b6040519080825280602002602001820160405280156127e657816020015b6127d36130e0565b8152602001906001900390816127cb5790505b50905060005b8281101561290957600061281b8260076000898152602001908152602001600020612a6990919063ffffffff16565b90506008600082815260200190815260200160002060405180604001604052908160008201548152602001600182018054612855906141b6565b80601f0160208091040260200160405190810160405280929190818152602001828054612881906141b6565b80156128ce5780601f106128a3576101008083540402835291602001916128ce565b820191906000526020600020905b8154815290600101906020018083116128b157829003601f168201915b5050505050815250508383815181106128ea576128e9614303565b5b602002602001018190525050808061290190614219565b9150506127ec565b508092505050919050565b600080828051906020012090506129468160066000878152602001908152602001600020612e0d90919063ffffffff16565b91505092915050565b600160009054906101000a900473ffffffffffffffffffffffffffffffffffffffff1681565b600061299d836000018373ffffffffffffffffffffffffffffffffffffffff1660001b612e24565b905092915050565b6129ad612e47565b73ffffffffffffffffffffffffffffffffffffffff166129cb611c3a565b73ffffffffffffffffffffffffffffffffffffffff1614612a21576040517f08c379a0000000000000000000000000000000000000000000000000000000008152600401612a1890613d2d565b60405180910390fd5b565b6000612a35836000018360001b612e4f565b905092915050565b6000612a4c8360000183612e4f565b905092915050565b6000612a6282600001612ebf565b9050919050565b6000612a788360000183612ed0565b60001c905092915050565b6000612a95836000018360001b612e24565b905092915050565b6000612aaf836000018360001b612efb565b905092915050565b60008060009054906101000a900473ffffffffffffffffffffffffffffffffffffffff169050816000806101000a81548173ffffffffffffffffffffffffffffffffffffffff021916908373ffffffffffffffffffffffffffffffffffffffff1602179055508173ffffffffffffffffffffffffffffffffffffffff168173ffffffffffffffffffffffffffffffffffffffff167f8be0079c531659141344cd1fd0a4f28419497f9722a3daafe3b4186f6b6457e060405160405180910390a35050565b606060008267ffffffffffffffff811115612b9957612b98614332565b5b6040519080825280601f01601f191660200182016040528015612bcb5781602001600182028036833780820191505090505b50905060005b83811015612cb9576020811015612c4057858160208110612bf557612bf4614303565b5b1a60f81b828281518110612c0c57612c0b614303565b5b60200101907effffffffffffffffffffffffffffffffffffffffffffffffffffffffffffff1916908160001a905350612ca6565b84602082612c4e919061408c565b60208110612c5f57612c5e614303565b5b1a60f81b828281518110612c7657612c75614303565b5b60200101907effffffffffffffffffffffffffffffffffffffffffffffffffffffffffffff1916908160001a9053505b8080612cb190614219565b915050612bd1565b50809150509392505050565b6000612ced836000018373ffffffffffffffffffffffffffffffffffffffff1660001b612e4f565b905092915050565b6000612d0382600001612ebf565b9050919050565b6000612d198360000183612ed0565b60001c905092915050565b6000612d4c836000018373ffffffffffffffffffffffffffffffffffffffff1660001b612efb565b905092915050565b6000612d6282600001612ebf565b9050919050565b6000612d788360000183612ed0565b905092915050565b6000601482612d8f9190614036565b83511015612dd2576040517f08c379a0000000000000000000000000000000000000000000000000000000008152600401612dc990613d4d565b60405180910390fd5b60006c01000000000000000000000000836020860101510490508091505092915050565b6000612e058360000183612efb565b905092915050565b6000612e1c8360000183612e24565b905092915050565b600080836001016000848152602001908152602001600020541415905092915050565b600033905090565b6000612e5b8383612e24565b612eb4578260000182908060018154018082558091505060019003906000526020600020016000909190919091505582600001805490508360010160008481526020019081526020016000208190555060019050612eb9565b600090505b92915050565b600081600001805490509050919050565b6000826000018281548110612ee857612ee7614303565b5b9060005260206000200154905092915050565b60008083600101600084815260200190815260200160002054905060008114613003576000600182612f2d919061408c565b9050600060018660000180549050612f45919061408c565b9050818114612fb4576000866000018281548110612f6657612f65614303565b5b9060005260206000200154905080876000018481548110612f8a57612f89614303565b5b90600052602060002001819055508387600101600083815260200190815260200160002081905550505b85600001805480612fc857612fc76142d4565b5b600190038181906000526020600020016000905590558560010160008681526020019081526020016000206000905560019350505050613009565b60009150505b92915050565b6040518060a00160405280600080191681526020016000801916815260200160008152602001600073ffffffffffffffffffffffffffffffffffffffff168152602001600081525090565b828054613066906141b6565b90600052602060002090601f01602090048101928261308857600085556130cf565b82601f106130a157805160ff19168380011785556130cf565b828001600101855582156130cf579182015b828111156130ce5782518255916020019190600101906130b3565b5b5090506130dc91906130fa565b5090565b604051806040016040528060008152602001606081525090565b5b808211156131135760008160009055506001016130fb565b5090565b600061312a61312584613ed8565b613eb3565b90508281526020810184848401111561314657613145614366565b5b613151848285614174565b509392505050565b600081359050613168816146ce565b92915050565b60008151905061317d816146ce565b92915050565b600081519050613192816146e5565b92915050565b6000813590506131a7816146fc565b92915050565b600082601f8301126131c2576131c1614361565b5b81356131d2848260208601613117565b91505092915050565b6000813590506131ea81614713565b92915050565b6000815190506131ff81614713565b92915050565b60006020828403121561321b5761321a614370565b5b600061322984828501613159565b91505092915050565b60006020828403121561324857613247614370565b5b60006132568482850161316e565b91505092915050565b60006020828403121561327557613274614370565b5b600061328384828501613183565b91505092915050565b6000602082840312156132a2576132a1614370565b5b60006132b084828501613198565b91505092915050565b6000602082840312156132cf576132ce614370565b5b60006132dd848285016131db565b91505092915050565b6000602082840312156132fc576132fb614370565b5b600061330a848285016131f0565b91505092915050565b6000806040838503121561332a57613329614370565b5b6000613338858286016131db565b925050602061334985828601613159565b9150509250929050565b60008060008060008060c087890312156133705761336f614370565b5b600061337e89828a016131db565b965050602061338f89828a01613198565b95505060406133a089828a01613198565b94505060606133b189828a016131db565b93505060806133c289828a01613159565b92505060a06133d389828a016131db565b9150509295509295509295565b600080604083850312156133f7576133f6614370565b5b6000613405858286016131db565b925050602083013567ffffffffffffffff8111156134265761342561436b565b5b613432858286016131ad565b9150509250929050565b60008060006060848603121561345557613454614370565b5b6000613463868287016131db565b9350506020613474868287016131db565b925050604084013567ffffffffffffffff8111156134955761349461436b565b5b6134a1868287016131ad565b9150509250925092565b60006134b78383613503565b60208301905092915050565b60006134cf8383613722565b905092915050565b60006134e383836139be565b905092915050565b60006134f78383613a63565b60208301905092915050565b61350c816140c0565b82525050565b61351b816140c0565b82525050565b600061352c82613f49565b6135368185613fb4565b935061354183613f09565b8060005b8381101561357257815161355988826134ab565b975061356483613f80565b925050600181019050613545565b5085935050505092915050565b600061358a82613f54565b6135948185613fc5565b9350836020820285016135a685613f19565b8060005b858110156135e257848403895281516135c385826134c3565b94506135ce83613f8d565b925060208a019950506001810190506135aa565b50829750879550505050505092915050565b60006135ff82613f5f565b6136098185613fd6565b93508360208202850161361b85613f29565b8060005b85811015613657578484038952815161363885826134d7565b945061364383613f9a565b925060208a0199505060018101905061361f565b50829750879550505050505092915050565b600061367482613f6a565b61367e8185613fe7565b935061368983613f39565b8060005b838110156136ba5781516136a188826134eb565b97506136ac83613fa7565b92505060018101905061368d565b5085935050505092915050565b6136d0816140d2565b82525050565b6136e76136e2826140de565b614262565b82525050565b6136f68161410a565b82525050565b6137058161410a565b82525050565b61371c6137178261410a565b61426c565b82525050565b600061372d82613f75565b6137378185613ff8565b9350613747818560208601614183565b61375081614375565b840191505092915050565b600061376682613f75565b6137708185614009565b9350613780818560208601614183565b61378981614375565b840191505092915050565b600061379f82613f75565b6137a9818561401a565b93506137b9818560208601614183565b80840191505092915050565b6137ce8161413e565b82525050565b60006137e1601883614025565b91506137ec82614386565b602082019050919050565b6000613804602683614025565b915061380f826143af565b604082019050919050565b6000613827602683614025565b9150613832826143fe565b604082019050919050565b600061384a601683614025565b91506138558261444d565b602082019050919050565b600061386d603d83614025565b915061387882614476565b604082019050919050565b6000613890602383614025565b915061389b826144c5565b604082019050919050565b60006138b3601583614025565b91506138be82614514565b602082019050919050565b60006138d6602b83614025565b91506138e18261453d565b604082019050919050565b60006138f9602083614025565b91506139048261458c565b602082019050919050565b600061391c601583614025565b9150613927826145b5565b602082019050919050565b600061393f603b83614025565b915061394a826145de565b604082019050919050565b6000613962604083614025565b915061396d8261462d565b604082019050919050565b6000613985601883614025565b91506139908261467c565b602082019050919050565b60006139a8601e83614025565b91506139b3826146a5565b602082019050919050565b60006040830160008301516139d66000860182613a63565b50602083015184820360208601526139ee8282613722565b9150508091505092915050565b60a082016000820151613a1160008501826136ed565b506020820151613a2460208501826136ed565b506040820151613a376040850182613a63565b506060820151613a4a6060850182613503565b506080820151613a5d6080850182613a63565b50505050565b613a6c81614134565b82525050565b613a7b81614134565b82525050565b6000613a8d82856136d6565b600182019150613a9d8284613794565b91508190509392505050565b6000613ab5828461370b565b60208201915081905092915050565b6000602082019050613ad96000830184613512565b92915050565b60006020820190508181036000830152613af98184613521565b905092915050565b60006020820190508181036000830152613b1b818461357f565b905092915050565b60006020820190508181036000830152613b3d81846135f4565b905092915050565b60006020820190508181036000830152613b5f8184613669565b905092915050565b6000602082019050613b7c60008301846136c7565b92915050565b6000602082019050613b9760008301846136fc565b92915050565b600060a082019050613bb260008301886136fc565b613bbf60208301876136fc565b613bcc6040830186613a72565b613bd96060830185613512565b613be66080830184613a72565b9695505050505050565b60006020820190508181036000830152613c0a818461375b565b905092915050565b6000602082019050613c2760008301846137c5565b92915050565b60006020820190508181036000830152613c46816137d4565b9050919050565b60006020820190508181036000830152613c66816137f7565b9050919050565b60006020820190508181036000830152613c868161381a565b9050919050565b60006020820190508181036000830152613ca68161383d565b9050919050565b60006020820190508181036000830152613cc681613860565b9050919050565b60006020820190508181036000830152613ce681613883565b9050919050565b60006020820190508181036000830152613d06816138a6565b9050919050565b60006020820190508181036000830152613d26816138c9565b9050919050565b60006020820190508181036000830152613d46816138ec565b9050919050565b60006020820190508181036000830152613d668161390f565b9050919050565b60006020820190508181036000830152613d8681613932565b9050919050565b60006020820190508181036000830152613da681613955565b9050919050565b60006020820190508181036000830152613dc681613978565b9050919050565b60006020820190508181036000830152613de68161399b565b9050919050565b600060a082019050613e0260008301846139fb565b92915050565b600060e082019050613e1d60008301866139fb565b613e2a60a0830185613a72565b613e3760c0830184613a72565b949350505050565b6000602082019050613e546000830184613a72565b92915050565b6000604082019050613e6f6000830185613a72565b8181036020830152613e81818461375b565b90509392505050565b6000604082019050613e9f6000830185613a72565b613eac6020830184613a72565b9392505050565b6000613ebd613ece565b9050613ec982826141e8565b919050565b6000604051905090565b600067ffffffffffffffff821115613ef357613ef2614332565b5b613efc82614375565b9050602081019050919050565b6000819050602082019050919050565b6000819050602082019050919050565b6000819050602082019050919050565b6000819050602082019050919050565b600081519050919050565b600081519050919050565b600081519050919050565b600081519050919050565b600081519050919050565b6000602082019050919050565b6000602082019050919050565b6000602082019050919050565b6000602082019050919050565b600082825260208201905092915050565b600082825260208201905092915050565b600082825260208201905092915050565b600082825260208201905092915050565b600082825260208201905092915050565b600082825260208201905092915050565b600081905092915050565b600082825260208201905092915050565b600061404182614134565b915061404c83614134565b9250827fffffffffffffffffffffffffffffffffffffffffffffffffffffffffffffffff0382111561408157614080614276565b5b828201905092915050565b600061409782614134565b91506140a283614134565b9250828210156140b5576140b4614276565b5b828203905092915050565b60006140cb82614114565b9050919050565b60008115159050919050565b60007fff0000000000000000000000000000000000000000000000000000000000000082169050919050565b6000819050919050565b600073ffffffffffffffffffffffffffffffffffffffff82169050919050565b6000819050919050565b600061414982614150565b9050919050565b600061415b82614162565b9050919050565b600061416d82614114565b9050919050565b82818337600083830152505050565b60005b838110156141a1578082015181840152602081019050614186565b838111156141b0576000848401525b50505050565b600060028204905060018216806141ce57607f821691505b602082108114156141e2576141e16142a5565b5b50919050565b6141f182614375565b810181811067ffffffffffffffff821117156142105761420f614332565b5b80604052505050565b600061422482614134565b91507fffffffffffffffffffffffffffffffffffffffffffffffffffffffffffffffff82141561425757614256614276565b5b600182019050919050565b6000819050919050565b6000819050919050565b7f4e487b7100000000000000000000000000000000000000000000000000000000600052601160045260246000fd5b7f4e487b7100000000000000000000000000000000000000000000000000000000600052602260045260246000fd5b7f4e487b7100000000000000000000000000000000000000000000000000000000600052603160045260246000fd5b7f4e487b7100000000000000000000000000000000000000000000000000000000600052603260045260246000fd5b7f4e487b7100000000000000000000000000000000000000000000000000000000600052604160045260246000fd5b600080fd5b600080fd5b600080fd5b600080fd5b6000601f19601f8301169050919050565b7f6b65794c656e67746820646f6573206e6f74206d617463680000000000000000600082015250565b7f4f776e61626c653a206e6577206f776e657220697320746865207a65726f206160008201527f6464726573730000000000000000000000000000000000000000000000000000602082015250565b7f746f6b656e496420646f6573206e6f74206d6174636820686173686564206b6560008201527f7950617274730000000000000000000000000000000000000000000000000000602082015250565b7f6b65795479706520646f6573206e6f74206d6174636800000000000000000000600082015250565b7f4f6e6c792074686520504b50204e4654206f776e65722063616e20616464206160008201527f6e642072656d6f7665207065726d697474656420616464726573736573000000602082015250565b7f596f75206861766520616c726561647920766f74656420666f7220746869732060008201527f6b65790000000000000000000000000000000000000000000000000000000000602082015250565b7f6b6579506172747320646f206e6f74206d617463680000000000000000000000600082015250565b7f4f6e6c79206163746976652076616c696461746f72732063616e20736574207260008201527f6f7574696e672064617461000000000000000000000000000000000000000000602082015250565b7f4f776e61626c653a2063616c6c6572206973206e6f7420746865206f776e6572600082015250565b7f746f416464726573735f6f75744f66426f756e64730000000000000000000000600082015250565b7f4f6e6c792074686520504b50204e4654206f776e65722063616e20616464206160008201527f6e642072656d6f7665207065726d697474656420616374696f6e730000000000602082015250565b7f4f6e6c792074686520504b50204e4654206f776e65722063616e20616464206160008201527f6e642072656d6f7665207065726d69747465642061757468206d6574686f6473602082015250565b7f4b6579206c656e677468206d757374206265203c3d2036340000000000000000600082015250565b7f7374616b696e67436f6e747261637420646f6573206e6f74206d617463680000600082015250565b6146d7816140c0565b81146146e257600080fd5b50565b6146ee816140d2565b81146146f957600080fd5b50565b6147058161410a565b811461471057600080fd5b50565b61471c81614134565b811461472757600080fd5b5056fea26469706673582212207ea5c043bd0b3d2fcddf5c721edf6487fda8fe85f7ec01f2806f9fa608ab183b64736f6c63430008070033",
  "linkReferences": {},
  "deployedLinkReferences": {}
}